{
  "_format": "hh-sol-artifact-1",
  "contractName": "FunderRegistry",
  "sourceName": "contracts/FunderRegistry.sol",
  "abi": [
    {
      "anonymous": false,
      "inputs": [
        {
          "indexed": true,
          "internalType": "bytes16",
          "name": "id",
          "type": "bytes16"
        },
        {
          "indexed": false,
          "internalType": "string",
          "name": "name",
          "type": "string"
        }
      ],
      "name": "FunderAdded",
      "type": "event"
    },
    {
      "inputs": [
        {
          "internalType": "bytes16",
          "name": "_id",
          "type": "bytes16"
        },
        {
          "internalType": "string",
          "name": "_name",
          "type": "string"
        },
        {
          "internalType": "bool",
          "name": "_isActive",
          "type": "bool"
        },
        {
          "internalType": "bytes16",
          "name": "_funderContractId",
          "type": "bytes16"
        },
        {
          "internalType": "bool",
          "name": "_isChangeConfirmed",
          "type": "bool"
        },
        {
          "internalType": "string",
          "name": "_paymentDate",
          "type": "string"
        },
        {
          "internalType": "string",
          "name": "_modifiedBy",
          "type": "string"
        },
        {
          "internalType": "string",
          "name": "_updatedAt",
          "type": "string"
        }
      ],
      "name": "addFunder",
      "outputs": [],
      "stateMutability": "nonpayable",
      "type": "function"
    },
    {
      "inputs": [],
      "name": "getAllFunders",
      "outputs": [
        {
          "internalType": "bytes16[]",
          "name": "ids",
          "type": "bytes16[]"
        },
        {
          "internalType": "string[]",
          "name": "names",
          "type": "string[]"
        },
        {
          "internalType": "string[]",
          "name": "isActives",
          "type": "string[]"
        },
        {
          "internalType": "bytes16[]",
          "name": "funderContractIds",
          "type": "bytes16[]"
        },
        {
          "internalType": "bool[]",
          "name": "isChangeConfirmeds",
          "type": "bool[]"
        },
        {
          "internalType": "string[]",
          "name": "paymentDates",
          "type": "string[]"
        },
        {
          "internalType": "string[]",
          "name": "modifiedBys",
          "type": "string[]"
        },
        {
          "internalType": "string[]",
          "name": "updatedAts",
          "type": "string[]"
        }
      ],
      "stateMutability": "view",
      "type": "function"
    },
    {
      "inputs": [
        {
          "internalType": "bytes16",
          "name": "_id",
          "type": "bytes16"
        }
      ],
      "name": "getFunderById",
      "outputs": [
        {
          "internalType": "bytes16",
          "name": "id",
          "type": "bytes16"
        },
        {
          "internalType": "string",
          "name": "name",
          "type": "string"
        },
        {
          "internalType": "string",
          "name": "isActive",
          "type": "string"
        },
        {
          "internalType": "bytes16",
          "name": "funderContractId",
          "type": "bytes16"
        },
        {
          "internalType": "bool",
          "name": "isChangeConfirmed",
          "type": "bool"
        },
        {
          "internalType": "string",
          "name": "paymentDate",
          "type": "string"
        },
        {
          "internalType": "string",
          "name": "modifiedBy",
          "type": "string"
        },
        {
          "internalType": "string",
          "name": "updatedAt",
          "type": "string"
        }
      ],
      "stateMutability": "view",
      "type": "function"
    },
    {
      "inputs": [
        {
          "internalType": "string",
          "name": "_name",
          "type": "string"
        }
      ],
      "name": "getFunderByName",
      "outputs": [
        {
          "internalType": "bytes16",
          "name": "id",
          "type": "bytes16"
        },
        {
          "internalType": "string",
          "name": "name",
          "type": "string"
        },
        {
          "internalType": "string",
          "name": "isActive",
          "type": "string"
        },
        {
          "internalType": "bytes16",
          "name": "funderContractId",
          "type": "bytes16"
        },
        {
          "internalType": "bool",
          "name": "isChangeConfirmed",
          "type": "bool"
        },
        {
          "internalType": "string",
          "name": "paymentDate",
          "type": "string"
        },
        {
          "internalType": "string",
          "name": "modifiedBy",
          "type": "string"
        },
        {
          "internalType": "string",
          "name": "updatedAt",
          "type": "string"
        }
      ],
      "stateMutability": "view",
      "type": "function"
    },
    {
      "inputs": [
        {
          "internalType": "bytes16",
          "name": "_id",
          "type": "bytes16"
        },
        {
          "internalType": "string",
          "name": "_name",
          "type": "string"
        },
        {
          "internalType": "bool",
          "name": "_isActive",
          "type": "bool"
        },
        {
          "internalType": "bytes16",
          "name": "_funderContractId",
          "type": "bytes16"
        },
        {
          "internalType": "bool",
          "name": "_isChangeConfirmed",
          "type": "bool"
        },
        {
          "internalType": "string",
          "name": "_paymentDate",
          "type": "string"
        },
        {
          "internalType": "string",
          "name": "_modifiedBy",
          "type": "string"
        },
        {
          "internalType": "string",
          "name": "_updatedAt",
          "type": "string"
        }
      ],
      "name": "updateFunderById",
      "outputs": [],
      "stateMutability": "nonpayable",
      "type": "function"
    }
  ],
  "bytecode": "0x6080806040523460155761163b908161001b8239f35b600080fdfe6080604052600436101561001257600080fd5b60003560e01c80636fbbb55d14610d6f578063862b7b9514610c575780639b9509fa1461073c578063c06dce8b146100ad5763e86e356b1461005357600080fd5b346100a85760203660031901126100a8576004356001600160401b0381116100a85761008e6100896100a4923690600401611187565b6114f9565b94604098969894919493929351988998896110de565b0390f35b600080fd5b346100a8576100bb366111dd565b966001600160801b0396959193961916958660005260016020526040600020546106e8576040519461010086018681106001600160401b03821117610477576040528786526020860187815260408701931515845260608701916001600160801b031916825260808701921515835260a0870194855260c0870195865260e08701998a526000546801000000000000000081101561047757806001610163920160005561133d565b9790976106d2575160801c6001600160801b03198854161787556001870190518051906001600160401b0382116104775761019e83546113a1565b601f811161068a575b50602090601f8311600114610619579180610221949261023c9897969460009261060e575b50508160011b916000199060031b1c19161790555b6101fe6002890194511515859060ff801983541691151516179055565b518354610100600160881b03191660789190911c610100600160881b0316178355565b51815460ff60881b191690151560881b60ff60881b16179055565b51805160038401916001600160401b03821161047757819061025e84546113a1565b601f81116105bb575b50602090601f83116001146105565760009261054b575b50508160011b916000199060031b1c19161790555b51805160048301916001600160401b038211610477576102b383546113a1565b601f8111610503575b50602090601f8311600114610498576005949392916000918361048d575b50508160011b916000199060031b1c19161790555b0192519283516001600160401b0381116104775761030d82546113a1565b601f811161042f575b506020601f82116001146103a25790806103929493927fc68ed793f5f5e55bf2fec97d11d74cdd6c148a5cae3073e7d39609ba260134c69697600092610397575b50508160011b916000199060031b1c19161790555b600054846000526001602052604060002055604051918291602083526020830190611044565b0390a2005b015190508780610357565b601f1982169583600052816000209660005b81811061041757509660019284926103929796957fc68ed793f5f5e55bf2fec97d11d74cdd6c148a5cae3073e7d39609ba260134c6999a106103fe575b505050811b01905561036c565b015160001960f88460031b161c191690558780806103f1565b838301518955600190980197602093840193016103b4565b826000526020600020601f830160051c8101916020841061046d575b601f0160051c01905b8181106104615750610316565b60008155600101610454565b909150819061044b565b634e487b7160e01b600052604160045260246000fd5b0151905088806102da565b90601f1983169184600052816000209260005b8181106104eb5750916001939185600598979694106104d2575b505050811b0190556102ef565b015160001960f88460031b161c191690558880806104c5565b929360206001819287860151815501950193016104ab565b836000526020600020601f840160051c81019160208510610541575b601f0160051c01905b81811061053557506102bc565b60008155600101610528565b909150819061051f565b01519050888061027e565b60008581528281209350601f198516905b8181106105a3575090846001959493921061058a575b505050811b019055610293565b015160001960f88460031b161c1916905588808061057d565b92936020600181928786015181550195019301610567565b909150836000526020600020601f840160051c81019160208510610604575b90601f859493920160051c01905b8181106105f55750610267565b600081558493506001016105e8565b90915081906105da565b015190508e806101cc565b90601f1983169184600052816000209260005b818110610672575092600192859261023c9a999896610221989610610659575b505050811b0190556101e1565b015160001960f88460031b161c191690558e808061064c565b9293602060018192878601518155019501930161062c565b836000526020600020601f840160051c810191602085106106c8575b601f0160051c01905b8181106106bc57506101a7565b600081556001016106af565b90915081906106a6565b634e487b7160e01b600052600060045260246000fd5b60405162461bcd60e51b815260206004820152602660248201527f46756e64657252656769737472793a2046756e64657220616c726561647920656044820152653c34b9ba399760d11b6064820152608490fd5b346100a85761074a366111dd565b9594919390966001600160801b03191660005260016020526040600020546107738115156114a3565b6000198101908111610c41576107889061133d565b509460018601908051906001600160401b038211610477576107aa83546113a1565b601f8111610bf9575b50602090601f8311600114610b88579180610829949261084698979694600092610b7d575b50508160011b916000199060031b1c19161790555b6108076002880193849060ff801983541691151516179055565b8254610100600160881b03191660789190911c610100600160881b0316178255565b805460ff60881b191691151560881b60ff60881b16919091179055565b805160038301916001600160401b03821161047757819061086784546113a1565b601f8111610b2a575b50602090601f8311600114610ac557600092610aba575b50508160011b916000199060031b1c19161790555b6004810183516001600160401b038111610477576108ba82546113a1565b601f8111610a72575b506020601f8211600114610a09578190600595966000926109fe575b50508160011b916000199060031b1c19161790555b0181516001600160401b0381116104775761090f82546113a1565b601f81116109b6575b50602092601f8211600114610956579281929360009261094b575b5050600019600383901b1c191660019190911b179055005b015190508380610933565b601f1982169383600052806000209160005b86811061099e5750836001959610610985575b505050811b019055005b015160001960f88460031b161c1916905583808061097b565b91926020600181928685015181550194019201610968565b826000526020600020601f830160051c810191602084106109f4575b601f0160051c01905b8181106109e85750610918565b600081556001016109db565b90915081906109d2565b0151905086806108df565b601f1982169583600052816000209660005b818110610a5a5750916005969791846001959410610a41575b505050811b0190556108f4565b015160001960f88460031b161c19169055868080610a34565b83830151895560019098019760209384019301610a1b565b826000526020600020601f830160051c81019160208410610ab0575b601f0160051c01905b818110610aa457506108c3565b60008155600101610a97565b9091508190610a8e565b015190508680610887565b60008581528281209350601f198516905b818110610b125750908460019594939210610af9575b505050811b01905561089c565b015160001960f88460031b161c19169055868080610aec565b92936020600181928786015181550195019301610ad6565b909150836000526020600020601f840160051c81019160208510610b73575b90601f859493920160051c01905b818110610b645750610870565b60008155849350600101610b57565b9091508190610b49565b015190508c806107d8565b90601f1983169184600052816000209260005b818110610be157509260019285926108469a999896610829989610610bc8575b505050811b0190556107ed565b015160001960f88460031b161c191690558c8080610bbb565b92936020600181928786015181550195019301610b9b565b836000526020600020601f840160051c81019160208510610c37575b601f0160051c01905b818110610c2b57506107b3565b60008155600101610c1e565b9091508190610c15565b634e487b7160e01b600052601160045260246000fd5b346100a85760203660031901126100a8576004356001600160801b031981168091036100a8576000526001602052604060002054610c968115156114a3565b6000198101908111610c4157610cab9061133d565b50805460801b906100a4600560405192610cd384610ccc81600185016113db565b0385611166565b60028101549460ff861615610d6157610cea611481565b955b60405191610d0883610d0181600388016113db565b0384611166565b610d3e60405194610d2786610d2081600485016113db565b0387611166565b610d3760405180988193016113db565b0386611166565b604051978897608884901c60ff169360781b6001600160801b03191692896110de565b610d6961145e565b95610cec565b346100a85760003660031901126100a857600054610d8c816112c1565b90610d96816112f3565b90610da0816112f3565b92610daa826112c1565b92610db4836112aa565b610dc16040519182611166565b838152610dcd846112aa565b602082019590601f1901368737610de3856112f3565b92610ded866112f3565b94610df7876112f3565b9660005b818110610ebd57505091610e446101009899610e36610e5294610e296020976040519d8e8181520190611006565b8c8103888e015290611085565b908a820360408c0152611085565b9088820360608a0152611006565b918683036080880152519182815201959060005b818110610ea55786806100a488610e9789610e898e8b87820360a0890152611085565b9085820360c0870152611085565b9083820360e0850152611085565b82511515885260209788019790920191600101610e66565b806005610fdd8d610ecf60019561133d565b5090815460801b610ee0868a61138d565b906001600160801b0319169052604051610f0781610f00818a87016113db565b0382611166565b610f11868b61138d565b52610f1c858a61138d565b50610f4a8560028401549260ff8416600014610ff957610f3a611481565b610f44838361138d565b5261138d565b506001600160801b03198160781b16610f63868c61138d565b5260ff610f70868d61138d565b9160881c1615159052604051610f8d81610f0081600386016113db565b610f97858d61138d565b52610fa2848c61138d565b50604051610fc1858e610fbc84610ccc81600489016113db565b61138d565b52610fcc848d61138d565b50610f0060405180948193016113db565b610fe7828c61138d565b52610ff2818b61138d565b5001610dfb565b61100161145e565b610f3a565b906020808351928381520192019060005b8181106110245750505090565b82516001600160801b031916845260209384019390920191600101611017565b919082519283825260005b848110611070575050826000602080949584010152601f8019910116010190565b8060208092840101518282860101520161104f565b9080602083519182815201916020808360051b8301019401926000915b8383106110b157505050505090565b90919293946020806110cf600193601f198682030187528951611044565b970193019301919392906110a2565b9693919461112361114794611115611155986111639c9a956001600160801b0319168c5261010060208d01526101008c0190611044565b908a820360408c0152611044565b926001600160801b03191660608901521515608088015286820360a0880152611044565b9084820360c0860152611044565b9160e0818403910152611044565b90565b90601f801991011681019081106001600160401b0382111761047757604052565b81601f820112156100a8578035906001600160401b03821161047757604051926111bb601f8401601f191660200185611166565b828452602083830101116100a857816000926020809301838601378301015290565b906101006003198301126100a8576004356001600160801b0319811681036100a857916024356001600160401b0381116100a8578161121e91600401611187565b9160443580151581036100a857916064356001600160801b0319811681036100a8579160843580151581036100a8579160a4356001600160401b0381116100a8578161126c91600401611187565b9160c4356001600160401b0381116100a8578261128b91600401611187565b9160e435906001600160401b0382116100a85761116391600401611187565b6001600160401b0381116104775760051b60200190565b906112cb826112aa565b6112d86040519182611166565b82815280926112e9601f19916112aa565b0190602036910137565b906112fd826112aa565b61130a6040519182611166565b828152809261131b601f19916112aa565b019060005b82811061132c57505050565b806060602080938501015201611320565b6000548110156113775760008080526006919091027f290decd9548b62a8d60345a988386fc84ba6bc95484008f6362f93160ef3e5630191565b634e487b7160e01b600052603260045260246000fd5b80518210156113775760209160051b010190565b90600182811c921680156113d1575b60208310146113bb57565b634e487b7160e01b600052602260045260246000fd5b91607f16916113b0565b600092918154916113eb836113a1565b8083529260018116908115611441575060011461140757505050565b60009081526020812093945091925b838310611427575060209250010190565b600181602092949394548385870101520191019190611416565b915050602093945060ff929192191683830152151560051b010190565b6040519061146d604083611166565b600582526466616c736560d81b6020830152565b60405190611490604083611166565b60048252637472756560e01b6020830152565b156114aa57565b60405162461bcd60e51b815260206004820152602160248201527f46756e64657252656769737472793a2046756e646572206e6f7420666f756e646044820152601760f91b6064820152608490fd5b60009160609182916000916000918591869187916000908154915b82811061152057505050565b600161152e610fcc8361133d565b60208151910120825160208401201461154957600101611514565b985050509750505050505061155e915061133d565b50805460801b916040519261157a84610ccc81600187016113db565b60028301549060ff8216156115f757611591611481565b935b6005604051926115aa84610ccc81600387016113db565b6115d9604051936115c285610d3781600485016113db565b6115d260405180958193016113db565b0383611166565b96959460ff6001600160801b03198660781b169560881c1693929190565b6115ff61145e565b9361159356fea26469706673582212209ce911d91e2c9524ae7821317c2dd26e476a6aedf5fb65880d9e58bb2572c12c64736f6c634300081c0033",
  "linkReferences": {},
  "deployedLinkReferences": {}
}