{
  "_format": "hh-sol-artifact-1",
  "contractName": "FundingConditions",
  "sourceName": "contracts/FundingConditions.sol",
  "abi": [
    {
      "inputs": [
        {
          "internalType": "bytes16",
          "name": "_id",
          "type": "bytes16"
        },
        {
          "internalType": "bool",
          "name": "_isFullCoverage",
          "type": "bool"
        },
        {
          "internalType": "string",
          "name": "_startDate",
          "type": "string"
        },
        {
          "internalType": "string",
          "name": "_endDate",
          "type": "string"
        },
        {
          "internalType": "uint256",
          "name": "_totalAmount",
          "type": "uint256"
        },
        {
          "internalType": "uint256",
          "name": "_foodAmount",
          "type": "uint256"
        },
        {
          "internalType": "uint256",
          "name": "_tuitionAmount",
          "type": "uint256"
        },
        {
          "internalType": "uint256",
          "name": "_laptopAmount",
          "type": "uint256"
        },
        {
          "internalType": "uint256",
          "name": "_accommodationAmount",
          "type": "uint256"
        },
        {
          "internalType": "bool",
          "name": "_accommodationDirectPay",
          "type": "bool"
        },
        {
          "internalType": "bytes16",
          "name": "_dataConfirmedById",
          "type": "bytes16"
        },
        {
          "internalType": "string",
          "name": "_modifiedBy",
          "type": "string"
        },
        {
          "internalType": "string",
          "name": "_updatedAt",
          "type": "string"
        },
        {
          "internalType": "bool",
          "name": "_isActive",
          "type": "bool"
        },
        {
          "internalType": "uint256",
          "name": "_averageMark",
          "type": "uint256"
        }
      ],
      "name": "addCondition",
      "outputs": [],
      "stateMutability": "nonpayable",
      "type": "function"
    },
    {
      "inputs": [],
      "name": "getAllConditions",
      "outputs": [
        {
          "internalType": "bytes16[]",
          "name": "ids",
          "type": "bytes16[]"
        },
        {
          "internalType": "bool[]",
          "name": "isFullCoverages",
          "type": "bool[]"
        },
        {
          "internalType": "string[]",
          "name": "startDates",
          "type": "string[]"
        },
        {
          "internalType": "string[]",
          "name": "endDates",
          "type": "string[]"
        },
        {
          "internalType": "uint256[]",
          "name": "totalAmounts",
          "type": "uint256[]"
        },
        {
          "internalType": "uint256[]",
          "name": "foodAmounts",
          "type": "uint256[]"
        },
        {
          "internalType": "uint256[]",
          "name": "tuitionAmounts",
          "type": "uint256[]"
        },
        {
          "internalType": "uint256[]",
          "name": "laptopAmounts",
          "type": "uint256[]"
        },
        {
          "internalType": "uint256[]",
          "name": "accommodationAmounts",
          "type": "uint256[]"
        },
        {
          "internalType": "bool[]",
          "name": "accommodationDirectPays",
          "type": "bool[]"
        },
        {
          "internalType": "bytes16[]",
          "name": "dataConfirmedByIds",
          "type": "bytes16[]"
        },
        {
          "internalType": "string[]",
          "name": "modifiedBys",
          "type": "string[]"
        },
        {
          "internalType": "string[]",
          "name": "updatedAts",
          "type": "string[]"
        },
        {
          "internalType": "bool[]",
          "name": "isActives",
          "type": "bool[]"
        },
        {
          "internalType": "uint256[]",
          "name": "averageMarks",
          "type": "uint256[]"
        }
      ],
      "stateMutability": "view",
      "type": "function"
    },
    {
      "inputs": [],
      "name": "getAllInactiveConditions",
      "outputs": [
        {
          "internalType": "bytes16[]",
          "name": "ids",
          "type": "bytes16[]"
        },
        {
          "internalType": "bool[]",
          "name": "isFullCoverages",
          "type": "bool[]"
        },
        {
          "internalType": "string[]",
          "name": "startDates",
          "type": "string[]"
        },
        {
          "internalType": "string[]",
          "name": "endDates",
          "type": "string[]"
        },
        {
          "internalType": "uint256[]",
          "name": "totalAmounts",
          "type": "uint256[]"
        },
        {
          "internalType": "uint256[]",
          "name": "foodAmounts",
          "type": "uint256[]"
        },
        {
          "internalType": "uint256[]",
          "name": "tuitionAmounts",
          "type": "uint256[]"
        },
        {
          "internalType": "uint256[]",
          "name": "laptopAmounts",
          "type": "uint256[]"
        },
        {
          "internalType": "uint256[]",
          "name": "accommodationAmounts",
          "type": "uint256[]"
        },
        {
          "internalType": "bool[]",
          "name": "accommodationDirectPays",
          "type": "bool[]"
        },
        {
          "internalType": "bytes16[]",
          "name": "dataConfirmedByIds",
          "type": "bytes16[]"
        },
        {
          "internalType": "string[]",
          "name": "modifiedBys",
          "type": "string[]"
        },
        {
          "internalType": "string[]",
          "name": "updatedAts",
          "type": "string[]"
        },
        {
          "internalType": "bool[]",
          "name": "isActives",
          "type": "bool[]"
        },
        {
          "internalType": "uint256[]",
          "name": "averageMarks",
          "type": "uint256[]"
        }
      ],
      "stateMutability": "view",
      "type": "function"
    },
    {
      "inputs": [
        {
          "internalType": "bytes16",
          "name": "_id",
          "type": "bytes16"
        }
      ],
      "name": "getConditionById",
      "outputs": [
        {
          "internalType": "bytes16",
          "name": "id",
          "type": "bytes16"
        },
        {
          "internalType": "bool",
          "name": "isFullCoverage",
          "type": "bool"
        },
        {
          "internalType": "string",
          "name": "startDate",
          "type": "string"
        },
        {
          "internalType": "string",
          "name": "endDate",
          "type": "string"
        },
        {
          "internalType": "uint256",
          "name": "totalAmount",
          "type": "uint256"
        },
        {
          "internalType": "uint256",
          "name": "foodAmount",
          "type": "uint256"
        },
        {
          "internalType": "uint256",
          "name": "tuitionAmount",
          "type": "uint256"
        },
        {
          "internalType": "uint256",
          "name": "laptopAmount",
          "type": "uint256"
        },
        {
          "internalType": "uint256",
          "name": "accommodationAmount",
          "type": "uint256"
        },
        {
          "internalType": "bool",
          "name": "accommodationDirectPay",
          "type": "bool"
        },
        {
          "internalType": "bytes16",
          "name": "dataConfirmedById",
          "type": "bytes16"
        },
        {
          "internalType": "string",
          "name": "modifiedBy",
          "type": "string"
        },
        {
          "internalType": "string",
          "name": "updatedAt",
          "type": "string"
        },
        {
          "internalType": "bool",
          "name": "isActive",
          "type": "bool"
        },
        {
          "internalType": "uint256",
          "name": "averageMark",
          "type": "uint256"
        }
      ],
      "stateMutability": "view",
      "type": "function"
    },
    {
      "inputs": [
        {
          "internalType": "bytes16",
          "name": "_id",
          "type": "bytes16"
        },
        {
          "internalType": "bool",
          "name": "_isActive",
          "type": "bool"
        },
        {
          "internalType": "uint256",
          "name": "_averageMark",
          "type": "uint256"
        },
        {
          "internalType": "string",
          "name": "_modifiedBy",
          "type": "string"
        },
        {
          "internalType": "string",
          "name": "_updatedAt",
          "type": "string"
        }
      ],
      "name": "updateCondition",
      "outputs": [],
      "stateMutability": "nonpayable",
      "type": "function"
    },
    {
      "inputs": [
        {
          "internalType": "bytes16",
          "name": "_id",
          "type": "bytes16"
        },
        {
          "internalType": "bytes16",
          "name": "_dataConfirmedById",
          "type": "bytes16"
        },
        {
          "internalType": "string",
          "name": "_modifiedBy",
          "type": "string"
        },
        {
          "internalType": "string",
          "name": "_updatedAt",
          "type": "string"
        }
      ],
      "name": "updateDataConfirmedById",
      "outputs": [],
      "stateMutability": "nonpayable",
      "type": "function"
    }
  ],
  "bytecode": "0x60808060405234601557611ce9908161001b8239f35b600080fdfe610560604052600436101561001357600080fd5b60003560e01c806327a9789d146110b05780633265023c14610fd25780635bec301514610c155780639615b92214610871578063ab9c5e10146100dc5763d2a390c91461005f57600080fd5b346100d75760803660031901126100d75761007861111d565b602435906001600160801b0319821682036100d7576044356001600160401b0381116100d7576100ac903690600401611164565b606435926001600160401b0384116100d7576100cf6100d5943690600401611164565b92611a27565b005b600080fd5b346100d7576101e03660031901126100d7576100f661111d565b6100fe611134565b906044356001600160401b0381116100d75761011e903690600401611164565b916064356001600160401b0381116100d75761013e903690600401611164565b92610124358015158091036100d75761014435906001600160801b031982168092036100d757610164356001600160401b0381116100d757610184903690600401611164565b91610184356001600160401b0381116100d7576101a5903690600401611164565b936101a435958615158097036100d75760008054986001600160801b03191692905b8981106107f75750604051996101e08b01938b85106001600160401b03861117610580578b946040528452602084019215158352604084019182526060840190815260808401608435815260a085019160a435835260c086019360c435855260e087019560e43587526101c0610100890198610104358a5261012081019b8c5261014081019a8b5261016081019c8d5261018081019d8e526101a081019e8f52019d8e6101c435905268010000000000000000811015610580578060016102919201600055611420565b9f909f6107e157518f54915170ffffffffffffffffffffffffffffffffff19909216608091821c17911515901b60ff60801b16178e5551805160018f01916001600160401b0382116105805781906102e98454611470565b601f811161078e575b50602090601f83116001146107295760009261071e575b50508160011b916000199060031b1c19161790555b51805160028e01916001600160401b0382116105805761033e8354611470565b601f81116106d6575b50602090601f8311600114610664576103e89a99989796959493929160009183610659575b50508160011b916000199060031b1c19161790555b5160038d01555160048c01555160058b01555160068a01555160078901556103bc6008890192511515839060ff801983541691151516179055565b51815470ffffffffffffffffffffffffffffffff00191660789190911c610100600160881b0316179055565b51805160098601916001600160401b03821161058057819061040a8454611470565b601f8111610606575b50602090601f83116001146105a157600092610596575b50508160011b916000199060031b1c19161790555b518051600a8501916001600160401b0382116105805761045f8354611470565b601f8111610538575b50602090601f83116001146104c95791806104b89492600c9796946000926104be575b50508160011b916000199060031b1c19161790555b511515600b85019060ff801983541691151516179055565b51910155005b01519050888061048b565b90601f1983169184600052816000209260005b8181106105205750926001928592600c9998966104b8989610610507575b505050811b0190556104a0565b015160001960f88460031b161c191690558880806104fa565b929360206001819287860151815501950193016104dc565b836000526020600020601f840160051c81019160208510610576575b601f0160051c01905b81811061056a5750610468565b6000815560010161055d565b9091508190610554565b634e487b7160e01b600052604160045260246000fd5b01519050878061042a565b60008581528281209350601f198516905b8181106105ee57509084600195949392106105d5575b505050811b01905561043f565b015160001960f88460031b161c191690558780806105c8565b929360206001819287860151815501950193016105b2565b909150836000526020600020601f840160051c8101916020851061064f575b90601f859493920160051c01905b8181106106405750610413565b60008155849350600101610633565b9091508190610625565b01519050388061036c565b90601f1983169184600052816000209260005b8181106106be57509160019391856103e89e9d9c9b9a9998979694106106a5575b505050811b019055610381565b015160001960f88460031b161c19169055388080610698565b92936020600181928786015181550195019301610677565b836000526020600020601f840160051c81019160208510610714575b601f0160051c01905b8181106107085750610347565b600081556001016106fb565b90915081906106f2565b015190503880610309565b60008581528281209350601f198516905b818110610776575090846001959493921061075d575b505050811b01905561031e565b015160001960f88460031b161c19169055388080610750565b9293602060018192878601518155019501930161073a565b909150836000526020600020601f840160051c810191602085106107d7575b90601f859493920160051c01905b8181106107c857506102f2565b600081558493506001016107bb565b90915081906107ad565b634e487b7160e01b600052600060045260246000fd5b8361080182611420565b505460801b6001600160801b0319161461081d576001016101c7565b60405162461bcd60e51b815260206004820152602660248201527f436f6e646974696f6e2077697468207468697320696420616c726561647920656044820152653c34b9ba399760d11b6064820152608490fd5b346100d75760003660031901126100d75760008081546101e0525b6101e0518110610be357610952826108a381611997565b6080526108af81611997565b60e0526108bb816119c9565b60a0526108c7816119c9565b610220526108d481611997565b610260526108e181611997565b610280526108ee81611997565b6102c0526108fb81611997565b6102e05261090881611997565b6103205261091581611997565b6103405261092281611997565b6103605261092f816119c9565b6103005261093c816119c9565b6102a05261094981611997565b61024052611997565b6102005260006101a0526101a0516101c0525b6101e0516101c051106109bf57604051806109bb61020051610240516102a051610300516103605161034051610320516102e0516102c0516102805161026051610220518d60a0519060e05190608051906112fc565b0390f35b6109cb6101c051611420565b5060c0819052600b015460ff16806109ef575b5060016101c051016101c052610965565b60c05154610a026101a051608051611a13565b6001600160801b03198260801b16905260ff610a236101a05160e051611a13565b9160801c1615159052610a3a600160c051016117a3565b610a496101a05160a051611a13565b52610a596101a05160a051611a13565b50610a68600260c051016117a3565b610a786101a05161022051611a13565b52610a896101a05161022051611a13565b50600360c0510154610aa16101a05161026051611a13565b52600460c0510154610ab96101a05161028051611a13565b52600560c0510154610ad16101a0516102c051611a13565b52600660c0510154610ae96101a0516102e051611a13565b52600760c0510154610b016101a05161032051611a13565b52600860c0510154610b196101a05161034051611a13565b60ff8216151590526001600160801b03199060781b16610b3f6101a05161036051611a13565b52610b4e600960c051016117a3565b610b5e6101a05161030051611a13565b52610b6f6101a05161030051611a13565b50610b7e600a60c051016117a3565b610b8e6101a0516102a051611a13565b52610b9f6101a0516102a051611a13565b50610bb06101a05161024051611a13565b9015159052600c60c0510154610bcc6101a05161020051611a13565b52610bd96101a05161195b565b6101a052806109de565b60ff600b610bf083611420565b50015416610c01575b60010161088c565b90610c0d60019161195b565b919050610bf9565b346100d75760003660031901126100d75760008081546103c0525b6103c0518110610f9f57610cf982610c4781611997565b61010052610c5481611997565b61016052610c61816119c9565b61012052610c6e816119c9565b61040052610c7b81611997565b61044052610c8881611997565b61046052610c9581611997565b6104a052610ca281611997565b6104c052610caf81611997565b61050052610cbc81611997565b61052052610cc981611997565b61054052610cd6816119c9565b6104e052610ce3816119c9565b61048052610cf081611997565b61042052611997565b6103e052600061038052610380516103a0525b6103c0516103a05110610d6557604051806109bb6103e05161042051610480516104e0516105405161052051610500516104c0516104a0516104605161044051610400518d6101205190610160519061010051906112fc565b610d716103a051611420565b50610140819052600b015460ff1615610180819052610d9b575b60016103a051016103a052610d0c565b6101405154610db06103805161010051611a13565b6001600160801b03198260801b16905260ff610dd26103805161016051611a13565b9160801c1615159052610dea600161014051016117a3565b610dfa6103805161012051611a13565b52610e0b6103805161012051611a13565b50610e1b600261014051016117a3565b610e2b6103805161040051611a13565b52610e3c6103805161040051611a13565b506003610140510154610e556103805161044051611a13565b526004610140510154610e6e6103805161046051611a13565b526005610140510154610e87610380516104a051611a13565b526006610140510154610ea0610380516104c051611a13565b526007610140510154610eb96103805161050051611a13565b526008610140510154610ed26103805161052051611a13565b60ff8216151590526001600160801b03199060781b16610ef86103805161054051611a13565b52610f08600961014051016117a3565b610f18610380516104e051611a13565b52610f29610380516104e051611a13565b50610f39600a61014051016117a3565b610f496103805161048051611a13565b52610f5a6103805161048051611a13565b506101805115610f706103805161042051611a13565b52600c610140510154610f89610380516103e051611a13565b52610f966103805161195b565b61038052610d8b565b60ff600b610fac83611420565b5001541615610fbe575b600101610c30565b90610fca60019161195b565b919050610fb6565b346100d75760203660031901126100d757610feb61111d565b610ff490611847565b9a909b60409a989399929a979497969596519e8f9e8f916001600160801b0319168252151590602001528d604081016101e090526101e001611035916111ba565b8d810360608f0152611046916111ba565b9660808d015260a08c015260c08b015260e08a015261010089015215156101208801526001600160801b03191661014087015285810361016087015261108b916111ba565b84810361018086015261109d916111ba565b9115156101a08401526101c08301520390f35b346100d75760a03660031901126100d7576110c961111d565b6110d1611134565b6064356001600160401b0381116100d7576110f0903690600401611164565b608435926001600160401b0384116100d7576111136100d5943690600401611164565b92604435916114aa565b600435906001600160801b0319821682036100d757565b6024359081151582036100d757565b90601f801991011681019081106001600160401b0382111761058057604052565b81601f820112156100d7578035906001600160401b0382116105805760405192611198601f8401601f191660200185611143565b828452602083830101116100d757816000926020809301838601378301015290565b919082519283825260005b8481106111e6575050826000602080949584010152601f8019910116010190565b806020809284010151828286010152016111c5565b906020808351928381520192019060005b8181106112195750505090565b82516001600160801b03191684526020938401939092019160010161120c565b906020808351928381520192019060005b8181106112575750505090565b8251151584526020938401939092019160010161124a565b9080602083519182815201916020808360051b8301019401926000915b83831061129b57505050505090565b90919293946020806112b9600193601f1986820301875289516111ba565b9701930193019193929061128c565b906020808351928381520192019060005b8181106112e65750505090565b82518452602093840193909201916001016112d9565b9d9a949861141d9f9d998f92996113a661140e9f9a6113986113ff9f989b61138a6113f09f9661137c6113e19f9d61136e6113d29f8d906113c39f611360906113526113b49f6101e086526101e08601906111fb565b908482036020860152611239565b91604081840391015261126f565b8c810360608e01529061126f565b908a820360808c01526112c8565b9088820360a08a01526112c8565b9086820360c08801526112c8565b9084820360e08601526112c8565b916101008184039101526112c8565b8c81036101208e015290611239565b908a82036101408c01526111fb565b908882036101608a015261126f565b9086820361018088015261126f565b908482036101a0860152611239565b916101c08184039101526112c8565b90565b60005481101561145a576000808052600d919091027f290decd9548b62a8d60345a988386fc84ba6bc95484008f6362f93160ef3e5630191565b634e487b7160e01b600052603260045260246000fd5b90600182811c921680156114a0575b602083101461148a57565b634e487b7160e01b600052602260045260246000fd5b91607f169161147f565b9391929060005b600054811015611767576114c481611420565b505460801b6001600160801b03198716906001600160801b031916146114ec576001016114b1565b93945061151190600b6114fe86611420565b50019060ff801983541691151516179055565b600961151c84611420565b5001908051906001600160401b03821161058057819061153c8454611470565b601f8111611714575b50602090601f83116001146116af576000926116a4575b50508160011b916000199060031b1c19161790555b600a61157c83611420565b5001908051906001600160401b0382116105805761159a8354611470565b601f811161165c575b50602090601f83116001146115ee5791806115de9492600c96946000926115e3575b50508160011b916000199060031b1c1916179055611420565b500155565b0151905038806115c5565b90601f1983169184600052816000209260005b8181106116445750926001928592600c98966115de98961061162b575b505050811b019055611420565b015160001960f88460031b161c1916905538808061161e565b92936020600181928786015181550195019301611601565b836000526020600020601f840160051c8101916020851061169a575b601f0160051c01905b81811061168e57506115a3565b60008155600101611681565b9091508190611678565b01519050388061155c565b60008581528281209350601f198516905b8181106116fc57509084600195949392106116e3575b505050811b019055611571565b015160001960f88460031b161c191690553880806116d6565b929360206001819287860151815501950193016116c0565b909150836000526020600020601f840160051c8101916020851061175d575b90601f859493920160051c01905b81811061174e5750611545565b60008155849350600101611741565b9091508190611733565b60405162461bcd60e51b815260206004820152601460248201527321b7b73234ba34b7b7103737ba103337bab7321760611b6044820152606490fd5b90604051918260008254926117b784611470565b808452936001811690811561182557506001146117de575b506117dc92500383611143565b565b90506000929192526020600020906000915b8183106118095750509060206117dc92820101386117cf565b60209193508060019154838589010152019101909184926117f0565b9050602092506117dc94915060ff191682840152151560051b820101386117cf565b6000908154915b8281106118915760405162461bcd60e51b815260206004820152601460248201527321b7b73234ba34b7b7103737ba103337bab7321760611b6044820152606490fd5b61189a81611420565b505460801b6001600160801b03198316906001600160801b031916146118c25760010161184e565b90506118ce9150611420565b508054916003820154600483015460058401546006850154600786015460088701549560ff600b8901541696600c8901549160ff8b60801b9b60801c1699611918600182016117a3565b99611925600283016117a3565b99989796959460ff85169460781b6001600160801b03191693611956600a61194f600987016117a3565b95016117a3565b929190565b600019811461196a5760010190565b634e487b7160e01b600052601160045260246000fd5b6001600160401b0381116105805760051b60200190565b906119a182611980565b6119ae6040519182611143565b82815280926119bf601f1991611980565b0190602036910137565b906119d382611980565b6119e06040519182611143565b82815280926119f1601f1991611980565b019060005b828110611a0257505050565b8060606020809385010152016119f6565b805182101561145a5760209160051b010190565b9293919060005b60005481101561176757611a4181611420565b505460801b6001600160801b03198616906001600160801b03191614611a6957600101611a2e565b929350611aa1906008611a7b85611420565b500190610100600160881b038083549260781c161690610100600160881b031916179055565b6009611aac83611420565b5001908051906001600160401b03821161058057611aca8354611470565b601f8111611c6b575b50602090601f8311600114611c17579180611b0d9492600a96946000926115e35750508160011b916000199060031b1c1916179055611420565b500182516001600160401b03811161058057611b298254611470565b601f8111611bcf575b506020601f8211600114611b6d5781929394600092611b62575b50508160011b916000199060031b1c1916179055565b015190503880611b4c565b601f1982169083600052806000209160005b818110611bb757509583600195969710611b9e575b505050811b019055565b015160001960f88460031b161c19169055388080611b94565b9192602060018192868b015181550194019201611b7f565b826000526020600020601f830160051c81019160208410611c0d575b601f0160051c01905b818110611c015750611b32565b60008155600101611bf4565b9091508190611beb565b90601f1983169184600052816000209260005b818110611c535750926001928592600a9896611b0d98961061162b57505050811b019055611420565b92936020600181928786015181550195019301611c2a565b836000526020600020601f840160051c81019160208510611ca9575b601f0160051c01905b818110611c9d5750611ad3565b60008155600101611c90565b9091508190611c8756fea26469706673582212209730a92ce82ca68d993f577bdec7d9f3602c9902b1a44e1fd2d45bc09b4cdc6964736f6c634300081c0033",
  "linkReferences": {},
  "deployedLinkReferences": {}
}