{"contracts/FundingContract.sol":{"FundingContract":{"abi":[{"inputs":[{"internalType":"bytes16","name":"_id","type":"bytes16"},{"internalType":"bytes16","name":"_funderId","type":"bytes16"},{"internalType":"bytes16","name":"_studentId","type":"bytes16"},{"internalType":"bytes16","name":"_funderContractConditionId","type":"bytes16"},{"internalType":"bytes16","name":"_dataConfirmedById","type":"bytes16"},{"internalType":"string","name":"_signedOn","type":"string"},{"internalType":"bool","name":"_isActive","type":"bool"},{"internalType":"uint256","name":"_foodBalance","type":"uint256"},{"internalType":"uint256","name":"_tuitionBalance","type":"uint256"},{"internalType":"uint256","name":"_laptopBalance","type":"uint256"},{"internalType":"uint256","name":"_accommodationBalance","type":"uint256"},{"internalType":"string","name":"_modifiedBy","type":"string"},{"internalType":"string","name":"_updatedAt","type":"string"}],"name":"addFunding","outputs":[],"stateMutability":"nonpayable","type":"function"},{"inputs":[],"name":"getAllFundings","outputs":[{"internalType":"bytes16[]","name":"ids","type":"bytes16[]"},{"internalType":"bytes16[]","name":"funderIds","type":"bytes16[]"},{"internalType":"bytes16[]","name":"studentIds","type":"bytes16[]"},{"internalType":"bytes16[]","name":"funderContractConditionIds","type":"bytes16[]"},{"internalType":"bytes16[]","name":"dataConfirmedByIds","type":"bytes16[]"},{"internalType":"string[]","name":"signedOns","type":"string[]"},{"internalType":"bool[]","name":"isActives","type":"bool[]"},{"internalType":"uint256[]","name":"foodBalances","type":"uint256[]"},{"internalType":"uint256[]","name":"tuitionBalances","type":"uint256[]"},{"internalType":"uint256[]","name":"laptopBalances","type":"uint256[]"},{"internalType":"uint256[]","name":"accommodationBalances","type":"uint256[]"},{"internalType":"string[]","name":"modifiedBys","type":"string[]"},{"internalType":"string[]","name":"updatedAts","type":"string[]"}],"stateMutability":"view","type":"function"},{"inputs":[],"name":"getAllInactiveFundings","outputs":[{"internalType":"bytes16[]","name":"ids","type":"bytes16[]"},{"internalType":"bytes16[]","name":"funderIds","type":"bytes16[]"},{"internalType":"bytes16[]","name":"studentIds","type":"bytes16[]"},{"internalType":"bytes16[]","name":"funderContractConditionIds","type":"bytes16[]"},{"internalType":"bytes16[]","name":"dataConfirmedByIds","type":"bytes16[]"},{"internalType":"string[]","name":"signedOns","type":"string[]"},{"internalType":"bool[]","name":"isActives","type":"bool[]"},{"internalType":"uint256[]","name":"foodBalances","type":"uint256[]"},{"internalType":"uint256[]","name":"tuitionBalances","type":"uint256[]"},{"internalType":"uint256[]","name":"laptopBalances","type":"uint256[]"},{"internalType":"uint256[]","name":"accommodationBalances","type":"uint256[]"},{"internalType":"string[]","name":"modifiedBys","type":"string[]"},{"internalType":"string[]","name":"updatedAts","type":"string[]"}],"stateMutability":"view","type":"function"},{"inputs":[{"internalType":"bytes16","name":"_studentId","type":"bytes16"}],"name":"getFundingByStudentId","outputs":[{"internalType":"bytes16","name":"id","type":"bytes16"},{"internalType":"bytes16","name":"funderId","type":"bytes16"},{"internalType":"bytes16","name":"studentId","type":"bytes16"},{"internalType":"bytes16","name":"funderContractConditionId","type":"bytes16"},{"internalType":"bytes16","name":"dataConfirmedById","type":"bytes16"},{"internalType":"string","name":"signedOn","type":"string"},{"internalType":"bool","name":"isActive","type":"bool"},{"internalType":"uint256","name":"foodBalance","type":"uint256"},{"internalType":"uint256","name":"tuitionBalance","type":"uint256"},{"internalType":"uint256","name":"laptopBalance","type":"uint256"},{"internalType":"uint256","name":"accommodationBalance","type":"uint256"},{"internalType":"string","name":"modifiedBy","type":"string"},{"internalType":"string","name":"updatedAt","type":"string"}],"stateMutability":"view","type":"function"},{"inputs":[{"internalType":"bytes16","name":"_studentId","type":"bytes16"}],"name":"getInactiveFundingsByStudentId","outputs":[{"internalType":"bytes16[]","name":"ids","type":"bytes16[]"},{"internalType":"bytes16[]","name":"funderIds","type":"bytes16[]"},{"internalType":"bytes16[]","name":"studentIds","type":"bytes16[]"},{"internalType":"bytes16[]","name":"funderContractConditionIds","type":"bytes16[]"},{"internalType":"bytes16[]","name":"dataConfirmedByIds","type":"bytes16[]"},{"internalType":"string[]","name":"signedOns","type":"string[]"},{"internalType":"bool[]","name":"isActives","type":"bool[]"},{"internalType":"uint256[]","name":"foodBalances","type":"uint256[]"},{"internalType":"uint256[]","name":"tuitionBalances","type":"uint256[]"},{"internalType":"uint256[]","name":"laptopBalances","type":"uint256[]"},{"internalType":"uint256[]","name":"accommodationBalances","type":"uint256[]"},{"internalType":"string[]","name":"modifiedBys","type":"string[]"},{"internalType":"string[]","name":"updatedAts","type":"string[]"}],"stateMutability":"view","type":"function"},{"inputs":[{"internalType":"bytes16","name":"_id","type":"bytes16"},{"internalType":"bool","name":"_isActive","type":"bool"},{"internalType":"uint256","name":"_foodBalance","type":"uint256"},{"internalType":"uint256","name":"_tuitionBalance","type":"uint256"},{"internalType":"uint256","name":"_laptopBalance","type":"uint256"},{"internalType":"uint256","name":"_accommodationBalance","type":"uint256"},{"internalType":"string","name":"_modifiedBy","type":"string"},{"internalType":"string","name":"_updatedAt","type":"string"}],"name":"updateFunding","outputs":[],"stateMutability":"nonpayable","type":"function"},{"inputs":[{"internalType":"bytes16","name":"_id","type":"bytes16"},{"internalType":"bytes16","name":"_dataConfirmedById","type":"bytes16"},{"internalType":"string","name":"_modifiedBy","type":"string"},{"internalType":"string","name":"_updatedAt","type":"string"}],"name":"updateFundingDataConfirmedById","outputs":[],"stateMutability":"nonpayable","type":"function"}],"evm":{"bytecode":{"linkReferences":{},"object":"60808060405234601557611ad9908161001b8239f35b600080fdfe6102a0604052600436101561001357600080fd5b60003560e01c80630a029cc314610e825780631129183914610afc578063311ac2f71461058957806372a3143c146103ce5780637fa0c10a1461015a57806381e05f5f146100f057639dce94c51461006a57600080fd5b346100eb576101003660031901126100eb57610084610f5c565b6024359081151582036100eb5760c4356001600160401b0381116100eb576100b09036906004016111df565b60e435926001600160401b0384116100eb576100d36100e99436906004016111df565b9260a43591608435916064359160443591611814565b005b600080fd5b346100eb5760803660031901126100eb57610109610f5c565b610111610f73565b906044356001600160401b0381116100eb576101319036906004016111df565b606435926001600160401b0384116100eb576101546100e99436906004016111df565b9261153d565b346100eb5760003660031901126100eb5760008054815b81811061039b5750610182826114ad565b61018b836114ad565b91610195846114ad565b9361019f816114ad565b946101a9826114ad565b6101b2836114df565b6101bb846114ad565b6101c4856114ad565b906101ce866114ad565b926101d8876114ad565b946101e2886114ad565b966101f56101ef8a6114df565b996114df565b996000805b82821061021b575050509b6102179a9b9c6040519d8e9d8e611096565b0390f35b8f8f8f8f928f918f918f918f918f918f918f908f908f60049b8f61024060ff91611235565b509d8e015416159586610267575b50505050505050505050505050505090600101906101fa565b9760019f9d9761037c9f9b938f6103769f9799819f978261030a9f979b600a9f8f61036f9f90849f9161031a966102e4876103229c6003966102d38361030a9a6102b3828b5492611529565b6001600160801b03198260801b1690526001600160801b03191692611529565b526001826102b39188015492611529565b526102f786600284015460801b92611529565b906001600160801b0319169052016112bf565b6103148383611529565b52611529565b501592611529565b526103328660058a015492611529565b5261034285600689015492611529565b5261035284600788015492611529565b5261036283600887015492611529565b5261030a600985016112bf565b50016112bf565b50611471565b90508f8f8f8f928f918f918f918f918f918f918f908f908f8b8561024e565b60ff60046103a883611235565b50015416156103ba575b600101610171565b916103c6600191611471565b9290506103b2565b346100eb5760003660031901126100eb5760008054815b81811061055757506103f6826114ad565b6103ff836114ad565b91610409846114ad565b93610413816114ad565b9461041d826114ad565b610426836114df565b61042f846114ad565b610438856114ad565b90610442866114ad565b9261044c876114ad565b94610456886114ad565b966104636101ef8a6114df565b996000805b828210610485575050509b6102179a9b9c6040519d8e9d8e611096565b8f8f8f8f928f918f918f918f91908f918f908f908f908f60049b8f6104ab60ff91611235565b509d8e01541696876104d1575b5050505050505050505050505050509060010190610468565b9760019f9d976105379f9b938f6103769f9799819f978261030a9f979b600a9f8f61036f9f90849f9161051d966102e4876105239c6003966102d38361030a9a6102b3828b5492611529565b50611529565b90151590526103328660058a015492611529565b90508f8f8f8f928f918f918f918f918f918f908f908f908f8b86926104b8565b60ff600461056483611235565b50015416610575575b6001016103e5565b91610581600191611471565b92905061056d565b346100eb576101a03660031901126100eb576105a3610f5c565b6105ab610f73565b90604435906001600160801b031982168092036100eb57606435926001600160801b031984168094036100eb57608435936001600160801b031985168095036100eb5760a4356001600160401b0381116100eb5761060d9036906004016111df565b9360c435958615158097036100eb57610164356001600160401b0381116100eb5761063c9036906004016111df565b96610184356001600160401b0381116100eb5761065d9036906004016111df565b96604051966101a088018881106001600160401b03821117610955576040526001600160801b031916875260208701956001600160801b031916865260408701938452606087019485526080870192835260a0870190815260c0870191825260e087019260e43584526101008801946101043586526101208901966101243588526101408a0198610144358a526101608b019c8d526101808b019b8c52600054680100000000000000008110156109555780600161071e9201600055611235565b9b909b610ae657519051608091821c6001600160801b0319918216178c559251915191811c9183169190911760018b0155915160028a0180549190931c911617905551805160038801916001600160401b038211610955576107808354611285565b601f8111610a9e575b50602090601f8311600114610a32576107d59493929160009183610a27575b50508160011b916000199060031b1c19161790555b511515600487019060ff801983541691151516179055565b5160058501555160068401555160078301555160088201556009810192519283516001600160401b0381116109555761080e8254611285565b601f81116109df575b506020601f8211600114610976578190600a959660009261096b575b50508160011b916000199060031b1c19161790555b0190519081516001600160401b038111610955576108668254611285565b601f811161090d575b50602092601f82116001146108ad57928192936000926108a2575b5050600019600383901b1c191660019190911b179055005b01519050838061088a565b601f1982169383600052806000209160005b8681106108f557508360019596106108dc575b505050811b019055005b015160001960f88460031b161c191690558380806108d2565b919260206001819286850151815501940192016108bf565b826000526020600020601f830160051c8101916020841061094b575b601f0160051c01905b81811061093f575061086f565b60008155600101610932565b9091508190610929565b634e487b7160e01b600052604160045260246000fd5b015190508680610833565b601f1982169583600052816000209660005b8181106109c7575091600a9697918460019594106109ae575b505050811b019055610848565b015160001960f88460031b161c191690558680806109a1565b83830151895560019098019760209384019301610988565b826000526020600020601f830160051c81019160208410610a1d575b601f0160051c01905b818110610a115750610817565b60008155600101610a04565b90915081906109fb565b015190508c806107a8565b90601f1983169184600052816000209260005b818110610a8657509160019391856107d59897969410610a6d575b505050811b0190556107bd565b015160001960f88460031b161c191690558c8080610a60565b92936020600181928786015181550195019301610a45565b836000526020600020601f840160051c81019160208510610adc575b601f0160051c01905b818110610ad05750610789565b60008155600101610ac3565b9091508190610aba565b634e487b7160e01b600052600060045260246000fd5b346100eb5760203660031901126100eb57610b15610f5c565b61028052600080815460c0525b60c0518110610e1857610bcf82610b38816114ad565b61024052610b45816114ad565b61026052610b52816114ad565b60e052610b5e816114ad565b61010052610b6b816114ad565b61012052610b78816114df565b61014052610b85816114ad565b61016052610b92816114ad565b61018052610b9f816114ad565b6101a052610bac816114ad565b6101c052610bb9816114ad565b6101e052610bc6816114df565b610200526114df565b61022052600060805260805160a0525b60c05160a05110610c2b576040518061021761022051610200516101e0516101c0516101a051610180516101605161014051610120516101005160e051610260518d6102405190611096565b610c3660a051611235565b50600481015460ff16158080610df0575b610c5c575b5050600160a0510160a052610bdf565b81600a91610dbb9354610c7460805161024051611529565b6001600160801b03198260801b1690526001600160801b031916610c9d60805161026051611529565b526001820154610cb160805160e051611529565b6001600160801b03198260801b1690526001600160801b031916610cda60805161010051611529565b52600282015460801b610cf260805161012051611529565b906001600160801b0319169052610d0b600383016112bf565b610d1a60805161014051611529565b52610d2a60805161014051611529565b5015610d3b60805161016051611529565b526005810154610d5060805161018051611529565b526006810154610d656080516101a051611529565b526007810154610d7a6080516101c051611529565b526008810154610d8f6080516101e051611529565b52610d9c600982016112bf565b610dab60805161020051611529565b5261036f60805161020051611529565b610dca60805161022051611529565b52610dda60805161022051611529565b50610de6608051611471565b6080528080610c4c565b50600182015460801b6001600160801b03196102805116906001600160801b03191614610c47565b60ff6004610e2583611235565b500154161580610e51575b610e3d575b600101610b22565b90610e49600191611471565b919050610e35565b506001610e5d82611235565b50015460801b6001600160801b03196102805116906001600160801b03191614610e30565b346100eb5760203660031901126100eb57610e9b610f5c565b610ea490611363565b9960409c9b9c999199989297939698959495519c8d9c6001600160801b0319168d526001600160801b03191660208d01526001600160801b03191660408c01526001600160801b03191660608b01526001600160801b03191660808a015260a089016101a090526101a08901610f1991610f8a565b94151560c089015260e0880152610100870152610120860152610140850152838103610160850152610f4a91610f8a565b82810361018084015261021791610f8a565b600435906001600160801b0319821682036100eb57565b602435906001600160801b0319821682036100eb57565b919082519283825260005b848110610fb6575050826000602080949584010152601f8019910116010190565b80602080928401015182828601015201610f95565b906020808351928381520192019060005b818110610fe95750505090565b82516001600160801b031916845260209384019390920191600101610fdc565b9080602083519182815201916020808360051b8301019401926000915b83831061103557505050505090565b9091929394602080611053600193601f198682030187528951610f8a565b97019301930191939290611026565b906020808351928381520192019060005b8181106110805750505090565b8251845260209384019390920191600101611073565b9b999795936110e4979e9d9b99978d611100956110d661110e99966110c86110f2976101a086526101a0860190610fcb565b908482036020860152610fcb565b916040818403910152610fcb565b8d810360608f015290610fcb565b908b820360808d0152610fcb565b9089820360a08b0152611009565b87810360c08901526020808b5192838152019a019060005b8181106111a657505050611185926111676111949695936111588c611176958c6111a39e9f8160e09103910152611062565b908a82036101008c0152611062565b908882036101208a0152611062565b90868203610140880152611062565b90848203610160860152611009565b91610180818403910152611009565b90565b825115158c5260209b8c019b90920191600101611126565b90601f801991011681019081106001600160401b0382111761095557604052565b81601f820112156100eb578035906001600160401b0382116109555760405192611213601f8401601f1916602001856111be565b828452602083830101116100eb57816000926020809301838601378301015290565b60005481101561126f576000808052600b919091027f290decd9548b62a8d60345a988386fc84ba6bc95484008f6362f93160ef3e5630191565b634e487b7160e01b600052603260045260246000fd5b90600182811c921680156112b5575b602083101461129f57565b634e487b7160e01b600052602260045260246000fd5b91607f1691611294565b90604051918260008254926112d384611285565b808452936001811690811561134157506001146112fa575b506112f8925003836111be565b565b90506000929192526020600020906000915b8183106113255750509060206112f892820101386112eb565b602091935080600191548385890101520191019091849261130c565b9050602092506112f894915060ff191682840152151560051b820101386112eb565b6000908154915b8281106113b65760405162461bcd60e51b815260206004820152601e60248201527f46756e64696e67206e6f7420666f756e6420666f722073747564656e742e00006044820152606490fd5b60016113c182611235565b50015460801b6001600160801b03198316906001600160801b031916146113ea5760010161136a565b90506113f69150611235565b5090815491600181015490600281015460801b9060ff60048201541660058201546006830154600784015460088501548960801b996001600160801b031916988860801b986001600160801b0319169796611453600382016112bf565b9695949392916111a3600a61146a600985016112bf565b93016112bf565b60001981146114805760010190565b634e487b7160e01b600052601160045260246000fd5b6001600160401b0381116109555760051b60200190565b906114b782611496565b6114c460405191826111be565b82815280926114d5601f1991611496565b0190602036910137565b906114e982611496565b6114f660405191826111be565b8281528092611507601f1991611496565b019060005b82811061151857505050565b80606060208093850101520161150c565b805182101561126f5760209160051b010190565b9293919060005b6000548110156117da5761155781611235565b505460801b6001600160801b03198616906001600160801b0319161461157f57600101611544565b929350600261158d84611235565b50019060801c6001600160801b031982541617905560096115ad83611235565b5001908051906001600160401b038211610955576115cb8354611285565b601f8111611792575b50602090601f831160011461172457918061160f9492600a9694600092611719575b50508160011b916000199060031b1c1916179055611235565b500182516001600160401b0381116109555761162b8254611285565b601f81116116d1575b506020601f821160011461166f5781929394600092611664575b50508160011b916000199060031b1c1916179055565b01519050388061164e565b601f1982169083600052806000209160005b8181106116b9575095836001959697106116a0575b505050811b019055565b015160001960f88460031b161c19169055388080611696565b9192602060018192868b015181550194019201611681565b826000526020600020601f830160051c8101916020841061170f575b601f0160051c01905b8181106117035750611634565b600081556001016116f6565b90915081906116ed565b0151905038806115f6565b90601f1983169184600052816000209260005b81811061177a5750926001928592600a989661160f989610611761575b505050811b019055611235565b015160001960f88460031b161c19169055388080611754565b92936020600181928786015181550195019301611737565b836000526020600020601f840160051c810191602085106117d0575b601f0160051c01905b8181106117c457506115d4565b600081556001016117b7565b90915081906117ae565b60405162461bcd60e51b8152602060048201526012602482015271233ab73234b733903737ba103337bab7321760711b6044820152606490fd5b969795949392919060005b6000548110156117da5761183281611235565b505460801b6001600160801b03198a16906001600160801b0319161461185a5760010161181f565b96975061187f90600461186c89611235565b50019060ff801983541691151516179055565b600561188a87611235565b500155600661189886611235565b50015560076118a685611235565b50015560086118b484611235565b50015560096118c283611235565b5001908051906001600160401b038211610955576118e08354611285565b601f8111611a5b575b50602090601f8311600114611a075791806119239492600a96946000926117195750508160011b916000199060031b1c1916179055611235565b500182516001600160401b0381116109555761193f8254611285565b601f81116119bf575b506020601f821160011461197757819293946000926116645750508160011b916000199060031b1c1916179055565b601f1982169083600052806000209160005b8181106119a7575095836001959697106116a057505050811b019055565b9192602060018192868b015181550194019201611989565b826000526020600020601f830160051c810191602084106119fd575b601f0160051c01905b8181106119f15750611948565b600081556001016119e4565b90915081906119db565b90601f1983169184600052816000209260005b818110611a435750926001928592600a989661192398961061176157505050811b019055611235565b92936020600181928786015181550195019301611a1a565b836000526020600020601f840160051c81019160208510611a99575b601f0160051c01905b818110611a8d57506118e9565b60008155600101611a80565b9091508190611a7756fea264697066735822122043d8015a70b152a6ba53097784bd0f429195d58934e67325c6d4f2b3e43abf9364736f6c634300081c0033","opcodes":"PUSH1 0x80 DUP1 PUSH1 0x40 MSTORE CALLVALUE PUSH1 0x15 JUMPI PUSH2 0x1AD9 SWAP1 DUP2 PUSH2 0x1B DUP3 CODECOPY RETURN JUMPDEST PUSH1 0x0 DUP1 REVERT INVALID PUSH2 0x2A0 PUSH1 0x40 MSTORE PUSH1 0x4 CALLDATASIZE LT ISZERO PUSH2 0x13 JUMPI PUSH1 0x0 DUP1 REVERT JUMPDEST PUSH1 0x0 CALLDATALOAD PUSH1 0xE0 SHR DUP1 PUSH4 0xA029CC3 EQ PUSH2 0xE82 JUMPI DUP1 PUSH4 0x11291839 EQ PUSH2 0xAFC JUMPI DUP1 PUSH4 0x311AC2F7 EQ PUSH2 0x589 JUMPI DUP1 PUSH4 0x72A3143C EQ PUSH2 0x3CE JUMPI DUP1 PUSH4 0x7FA0C10A EQ PUSH2 0x15A JUMPI DUP1 PUSH4 0x81E05F5F EQ PUSH2 0xF0 JUMPI PUSH4 0x9DCE94C5 EQ PUSH2 0x6A JUMPI PUSH1 0x0 DUP1 REVERT JUMPDEST CALLVALUE PUSH2 0xEB JUMPI PUSH2 0x100 CALLDATASIZE PUSH1 0x3 NOT ADD SLT PUSH2 0xEB JUMPI PUSH2 0x84 PUSH2 0xF5C JUMP JUMPDEST PUSH1 0x24 CALLDATALOAD SWAP1 DUP2 ISZERO ISZERO DUP3 SUB PUSH2 0xEB JUMPI PUSH1 0xC4 CALLDATALOAD PUSH1 0x1 PUSH1 0x1 PUSH1 0x40 SHL SUB DUP2 GT PUSH2 0xEB JUMPI PUSH2 0xB0 SWAP1 CALLDATASIZE SWAP1 PUSH1 0x4 ADD PUSH2 0x11DF JUMP JUMPDEST PUSH1 0xE4 CALLDATALOAD SWAP3 PUSH1 0x1 PUSH1 0x1 PUSH1 0x40 SHL SUB DUP5 GT PUSH2 0xEB JUMPI PUSH2 0xD3 PUSH2 0xE9 SWAP5 CALLDATASIZE SWAP1 PUSH1 0x4 ADD PUSH2 0x11DF JUMP JUMPDEST SWAP3 PUSH1 0xA4 CALLDATALOAD SWAP2 PUSH1 0x84 CALLDATALOAD SWAP2 PUSH1 0x64 CALLDATALOAD SWAP2 PUSH1 0x44 CALLDATALOAD SWAP2 PUSH2 0x1814 JUMP JUMPDEST STOP JUMPDEST PUSH1 0x0 DUP1 REVERT JUMPDEST CALLVALUE PUSH2 0xEB JUMPI PUSH1 0x80 CALLDATASIZE PUSH1 0x3 NOT ADD SLT PUSH2 0xEB JUMPI PUSH2 0x109 PUSH2 0xF5C JUMP JUMPDEST PUSH2 0x111 PUSH2 0xF73 JUMP JUMPDEST SWAP1 PUSH1 0x44 CALLDATALOAD PUSH1 0x1 PUSH1 0x1 PUSH1 0x40 SHL SUB DUP2 GT PUSH2 0xEB JUMPI PUSH2 0x131 SWAP1 CALLDATASIZE SWAP1 PUSH1 0x4 ADD PUSH2 0x11DF JUMP JUMPDEST PUSH1 0x64 CALLDATALOAD SWAP3 PUSH1 0x1 PUSH1 0x1 PUSH1 0x40 SHL SUB DUP5 GT PUSH2 0xEB JUMPI PUSH2 0x154 PUSH2 0xE9 SWAP5 CALLDATASIZE SWAP1 PUSH1 0x4 ADD PUSH2 0x11DF JUMP JUMPDEST SWAP3 PUSH2 0x153D JUMP JUMPDEST CALLVALUE PUSH2 0xEB JUMPI PUSH1 0x0 CALLDATASIZE PUSH1 0x3 NOT ADD SLT PUSH2 0xEB JUMPI PUSH1 0x0 DUP1 SLOAD DUP2 JUMPDEST DUP2 DUP2 LT PUSH2 0x39B JUMPI POP PUSH2 0x182 DUP3 PUSH2 0x14AD JUMP JUMPDEST PUSH2 0x18B DUP4 PUSH2 0x14AD JUMP JUMPDEST SWAP2 PUSH2 0x195 DUP5 PUSH2 0x14AD JUMP JUMPDEST SWAP4 PUSH2 0x19F DUP2 PUSH2 0x14AD JUMP JUMPDEST SWAP5 PUSH2 0x1A9 DUP3 PUSH2 0x14AD JUMP JUMPDEST PUSH2 0x1B2 DUP4 PUSH2 0x14DF JUMP JUMPDEST PUSH2 0x1BB DUP5 PUSH2 0x14AD JUMP JUMPDEST PUSH2 0x1C4 DUP6 PUSH2 0x14AD JUMP JUMPDEST SWAP1 PUSH2 0x1CE DUP7 PUSH2 0x14AD JUMP JUMPDEST SWAP3 PUSH2 0x1D8 DUP8 PUSH2 0x14AD JUMP JUMPDEST SWAP5 PUSH2 0x1E2 DUP9 PUSH2 0x14AD JUMP JUMPDEST SWAP7 PUSH2 0x1F5 PUSH2 0x1EF DUP11 PUSH2 0x14DF JUMP JUMPDEST SWAP10 PUSH2 0x14DF JUMP JUMPDEST SWAP10 PUSH1 0x0 DUP1 JUMPDEST DUP3 DUP3 LT PUSH2 0x21B JUMPI POP POP POP SWAP12 PUSH2 0x217 SWAP11 SWAP12 SWAP13 PUSH1 0x40 MLOAD SWAP14 DUP15 SWAP14 DUP15 PUSH2 0x1096 JUMP JUMPDEST SUB SWAP1 RETURN JUMPDEST DUP16 DUP16 DUP16 DUP16 SWAP3 DUP16 SWAP2 DUP16 SWAP2 DUP16 SWAP2 DUP16 SWAP2 DUP16 SWAP2 DUP16 SWAP2 DUP16 SWAP1 DUP16 SWAP1 DUP16 PUSH1 0x4 SWAP12 DUP16 PUSH2 0x240 PUSH1 0xFF SWAP2 PUSH2 0x1235 JUMP JUMPDEST POP SWAP14 DUP15 ADD SLOAD AND ISZERO SWAP6 DUP7 PUSH2 0x267 JUMPI JUMPDEST POP POP POP POP POP POP POP POP POP POP POP POP POP POP POP SWAP1 PUSH1 0x1 ADD SWAP1 PUSH2 0x1FA JUMP JUMPDEST SWAP8 PUSH1 0x1 SWAP16 SWAP14 SWAP8 PUSH2 0x37C SWAP16 SWAP12 SWAP4 DUP16 PUSH2 0x376 SWAP16 SWAP8 SWAP10 DUP2 SWAP16 SWAP8 DUP3 PUSH2 0x30A SWAP16 SWAP8 SWAP12 PUSH1 0xA SWAP16 DUP16 PUSH2 0x36F SWAP16 SWAP1 DUP5 SWAP16 SWAP2 PUSH2 0x31A SWAP7 PUSH2 0x2E4 DUP8 PUSH2 0x322 SWAP13 PUSH1 0x3 SWAP7 PUSH2 0x2D3 DUP4 PUSH2 0x30A SWAP11 PUSH2 0x2B3 DUP3 DUP12 SLOAD SWAP3 PUSH2 0x1529 JUMP JUMPDEST PUSH1 0x1 PUSH1 0x1 PUSH1 0x80 SHL SUB NOT DUP3 PUSH1 0x80 SHL AND SWAP1 MSTORE PUSH1 0x1 PUSH1 0x1 PUSH1 0x80 SHL SUB NOT AND SWAP3 PUSH2 0x1529 JUMP JUMPDEST MSTORE PUSH1 0x1 DUP3 PUSH2 0x2B3 SWAP2 DUP9 ADD SLOAD SWAP3 PUSH2 0x1529 JUMP JUMPDEST MSTORE PUSH2 0x2F7 DUP7 PUSH1 0x2 DUP5 ADD SLOAD PUSH1 0x80 SHL SWAP3 PUSH2 0x1529 JUMP JUMPDEST SWAP1 PUSH1 0x1 PUSH1 0x1 PUSH1 0x80 SHL SUB NOT AND SWAP1 MSTORE ADD PUSH2 0x12BF JUMP JUMPDEST PUSH2 0x314 DUP4 DUP4 PUSH2 0x1529 JUMP JUMPDEST MSTORE PUSH2 0x1529 JUMP JUMPDEST POP ISZERO SWAP3 PUSH2 0x1529 JUMP JUMPDEST MSTORE PUSH2 0x332 DUP7 PUSH1 0x5 DUP11 ADD SLOAD SWAP3 PUSH2 0x1529 JUMP JUMPDEST MSTORE PUSH2 0x342 DUP6 PUSH1 0x6 DUP10 ADD SLOAD SWAP3 PUSH2 0x1529 JUMP JUMPDEST MSTORE PUSH2 0x352 DUP5 PUSH1 0x7 DUP9 ADD SLOAD SWAP3 PUSH2 0x1529 JUMP JUMPDEST MSTORE PUSH2 0x362 DUP4 PUSH1 0x8 DUP8 ADD SLOAD SWAP3 PUSH2 0x1529 JUMP JUMPDEST MSTORE PUSH2 0x30A PUSH1 0x9 DUP6 ADD PUSH2 0x12BF JUMP JUMPDEST POP ADD PUSH2 0x12BF JUMP JUMPDEST POP PUSH2 0x1471 JUMP JUMPDEST SWAP1 POP DUP16 DUP16 DUP16 DUP16 SWAP3 DUP16 SWAP2 DUP16 SWAP2 DUP16 SWAP2 DUP16 SWAP2 DUP16 SWAP2 DUP16 SWAP2 DUP16 SWAP1 DUP16 SWAP1 DUP16 DUP12 DUP6 PUSH2 0x24E JUMP JUMPDEST PUSH1 0xFF PUSH1 0x4 PUSH2 0x3A8 DUP4 PUSH2 0x1235 JUMP JUMPDEST POP ADD SLOAD AND ISZERO PUSH2 0x3BA JUMPI JUMPDEST PUSH1 0x1 ADD PUSH2 0x171 JUMP JUMPDEST SWAP2 PUSH2 0x3C6 PUSH1 0x1 SWAP2 PUSH2 0x1471 JUMP JUMPDEST SWAP3 SWAP1 POP PUSH2 0x3B2 JUMP JUMPDEST CALLVALUE PUSH2 0xEB JUMPI PUSH1 0x0 CALLDATASIZE PUSH1 0x3 NOT ADD SLT PUSH2 0xEB JUMPI PUSH1 0x0 DUP1 SLOAD DUP2 JUMPDEST DUP2 DUP2 LT PUSH2 0x557 JUMPI POP PUSH2 0x3F6 DUP3 PUSH2 0x14AD JUMP JUMPDEST PUSH2 0x3FF DUP4 PUSH2 0x14AD JUMP JUMPDEST SWAP2 PUSH2 0x409 DUP5 PUSH2 0x14AD JUMP JUMPDEST SWAP4 PUSH2 0x413 DUP2 PUSH2 0x14AD JUMP JUMPDEST SWAP5 PUSH2 0x41D DUP3 PUSH2 0x14AD JUMP JUMPDEST PUSH2 0x426 DUP4 PUSH2 0x14DF JUMP JUMPDEST PUSH2 0x42F DUP5 PUSH2 0x14AD JUMP JUMPDEST PUSH2 0x438 DUP6 PUSH2 0x14AD JUMP JUMPDEST SWAP1 PUSH2 0x442 DUP7 PUSH2 0x14AD JUMP JUMPDEST SWAP3 PUSH2 0x44C DUP8 PUSH2 0x14AD JUMP JUMPDEST SWAP5 PUSH2 0x456 DUP9 PUSH2 0x14AD JUMP JUMPDEST SWAP7 PUSH2 0x463 PUSH2 0x1EF DUP11 PUSH2 0x14DF JUMP JUMPDEST SWAP10 PUSH1 0x0 DUP1 JUMPDEST DUP3 DUP3 LT PUSH2 0x485 JUMPI POP POP POP SWAP12 PUSH2 0x217 SWAP11 SWAP12 SWAP13 PUSH1 0x40 MLOAD SWAP14 DUP15 SWAP14 DUP15 PUSH2 0x1096 JUMP JUMPDEST DUP16 DUP16 DUP16 DUP16 SWAP3 DUP16 SWAP2 DUP16 SWAP2 DUP16 SWAP2 DUP16 SWAP2 SWAP1 DUP16 SWAP2 DUP16 SWAP1 DUP16 SWAP1 DUP16 SWAP1 DUP16 PUSH1 0x4 SWAP12 DUP16 PUSH2 0x4AB PUSH1 0xFF SWAP2 PUSH2 0x1235 JUMP JUMPDEST POP SWAP14 DUP15 ADD SLOAD AND SWAP7 DUP8 PUSH2 0x4D1 JUMPI JUMPDEST POP POP POP POP POP POP POP POP POP POP POP POP POP POP POP SWAP1 PUSH1 0x1 ADD SWAP1 PUSH2 0x468 JUMP JUMPDEST SWAP8 PUSH1 0x1 SWAP16 SWAP14 SWAP8 PUSH2 0x537 SWAP16 SWAP12 SWAP4 DUP16 PUSH2 0x376 SWAP16 SWAP8 SWAP10 DUP2 SWAP16 SWAP8 DUP3 PUSH2 0x30A SWAP16 SWAP8 SWAP12 PUSH1 0xA SWAP16 DUP16 PUSH2 0x36F SWAP16 SWAP1 DUP5 SWAP16 SWAP2 PUSH2 0x51D SWAP7 PUSH2 0x2E4 DUP8 PUSH2 0x523 SWAP13 PUSH1 0x3 SWAP7 PUSH2 0x2D3 DUP4 PUSH2 0x30A SWAP11 PUSH2 0x2B3 DUP3 DUP12 SLOAD SWAP3 PUSH2 0x1529 JUMP JUMPDEST POP PUSH2 0x1529 JUMP JUMPDEST SWAP1 ISZERO ISZERO SWAP1 MSTORE PUSH2 0x332 DUP7 PUSH1 0x5 DUP11 ADD SLOAD SWAP3 PUSH2 0x1529 JUMP JUMPDEST SWAP1 POP DUP16 DUP16 DUP16 DUP16 SWAP3 DUP16 SWAP2 DUP16 SWAP2 DUP16 SWAP2 DUP16 SWAP2 DUP16 SWAP2 DUP16 SWAP1 DUP16 SWAP1 DUP16 SWAP1 DUP16 DUP12 DUP7 SWAP3 PUSH2 0x4B8 JUMP JUMPDEST PUSH1 0xFF PUSH1 0x4 PUSH2 0x564 DUP4 PUSH2 0x1235 JUMP JUMPDEST POP ADD SLOAD AND PUSH2 0x575 JUMPI JUMPDEST PUSH1 0x1 ADD PUSH2 0x3E5 JUMP JUMPDEST SWAP2 PUSH2 0x581 PUSH1 0x1 SWAP2 PUSH2 0x1471 JUMP JUMPDEST SWAP3 SWAP1 POP PUSH2 0x56D JUMP JUMPDEST CALLVALUE PUSH2 0xEB JUMPI PUSH2 0x1A0 CALLDATASIZE PUSH1 0x3 NOT ADD SLT PUSH2 0xEB JUMPI PUSH2 0x5A3 PUSH2 0xF5C JUMP JUMPDEST PUSH2 0x5AB PUSH2 0xF73 JUMP JUMPDEST SWAP1 PUSH1 0x44 CALLDATALOAD SWAP1 PUSH1 0x1 PUSH1 0x1 PUSH1 0x80 SHL SUB NOT DUP3 AND DUP1 SWAP3 SUB PUSH2 0xEB JUMPI PUSH1 0x64 CALLDATALOAD SWAP3 PUSH1 0x1 PUSH1 0x1 PUSH1 0x80 SHL SUB NOT DUP5 AND DUP1 SWAP5 SUB PUSH2 0xEB JUMPI PUSH1 0x84 CALLDATALOAD SWAP4 PUSH1 0x1 PUSH1 0x1 PUSH1 0x80 SHL SUB NOT DUP6 AND DUP1 SWAP6 SUB PUSH2 0xEB JUMPI PUSH1 0xA4 CALLDATALOAD PUSH1 0x1 PUSH1 0x1 PUSH1 0x40 SHL SUB DUP2 GT PUSH2 0xEB JUMPI PUSH2 0x60D SWAP1 CALLDATASIZE SWAP1 PUSH1 0x4 ADD PUSH2 0x11DF JUMP JUMPDEST SWAP4 PUSH1 0xC4 CALLDATALOAD SWAP6 DUP7 ISZERO ISZERO DUP1 SWAP8 SUB PUSH2 0xEB JUMPI PUSH2 0x164 CALLDATALOAD PUSH1 0x1 PUSH1 0x1 PUSH1 0x40 SHL SUB DUP2 GT PUSH2 0xEB JUMPI PUSH2 0x63C SWAP1 CALLDATASIZE SWAP1 PUSH1 0x4 ADD PUSH2 0x11DF JUMP JUMPDEST SWAP7 PUSH2 0x184 CALLDATALOAD PUSH1 0x1 PUSH1 0x1 PUSH1 0x40 SHL SUB DUP2 GT PUSH2 0xEB JUMPI PUSH2 0x65D SWAP1 CALLDATASIZE SWAP1 PUSH1 0x4 ADD PUSH2 0x11DF JUMP JUMPDEST SWAP7 PUSH1 0x40 MLOAD SWAP7 PUSH2 0x1A0 DUP9 ADD DUP9 DUP2 LT PUSH1 0x1 PUSH1 0x1 PUSH1 0x40 SHL SUB DUP3 GT OR PUSH2 0x955 JUMPI PUSH1 0x40 MSTORE PUSH1 0x1 PUSH1 0x1 PUSH1 0x80 SHL SUB NOT AND DUP8 MSTORE PUSH1 0x20 DUP8 ADD SWAP6 PUSH1 0x1 PUSH1 0x1 PUSH1 0x80 SHL SUB NOT AND DUP7 MSTORE PUSH1 0x40 DUP8 ADD SWAP4 DUP5 MSTORE PUSH1 0x60 DUP8 ADD SWAP5 DUP6 MSTORE PUSH1 0x80 DUP8 ADD SWAP3 DUP4 MSTORE PUSH1 0xA0 DUP8 ADD SWAP1 DUP2 MSTORE PUSH1 0xC0 DUP8 ADD SWAP2 DUP3 MSTORE PUSH1 0xE0 DUP8 ADD SWAP3 PUSH1 0xE4 CALLDATALOAD DUP5 MSTORE PUSH2 0x100 DUP9 ADD SWAP5 PUSH2 0x104 CALLDATALOAD DUP7 MSTORE PUSH2 0x120 DUP10 ADD SWAP7 PUSH2 0x124 CALLDATALOAD DUP9 MSTORE PUSH2 0x140 DUP11 ADD SWAP9 PUSH2 0x144 CALLDATALOAD DUP11 MSTORE PUSH2 0x160 DUP12 ADD SWAP13 DUP14 MSTORE PUSH2 0x180 DUP12 ADD SWAP12 DUP13 MSTORE PUSH1 0x0 SLOAD PUSH9 0x10000000000000000 DUP2 LT ISZERO PUSH2 0x955 JUMPI DUP1 PUSH1 0x1 PUSH2 0x71E SWAP3 ADD PUSH1 0x0 SSTORE PUSH2 0x1235 JUMP JUMPDEST SWAP12 SWAP1 SWAP12 PUSH2 0xAE6 JUMPI MLOAD SWAP1 MLOAD PUSH1 0x80 SWAP2 DUP3 SHR PUSH1 0x1 PUSH1 0x1 PUSH1 0x80 SHL SUB NOT SWAP2 DUP3 AND OR DUP13 SSTORE SWAP3 MLOAD SWAP2 MLOAD SWAP2 DUP2 SHR SWAP2 DUP4 AND SWAP2 SWAP1 SWAP2 OR PUSH1 0x1 DUP12 ADD SSTORE SWAP2 MLOAD PUSH1 0x2 DUP11 ADD DUP1 SLOAD SWAP2 SWAP1 SWAP4 SHR SWAP2 AND OR SWAP1 SSTORE MLOAD DUP1 MLOAD PUSH1 0x3 DUP9 ADD SWAP2 PUSH1 0x1 PUSH1 0x1 PUSH1 0x40 SHL SUB DUP3 GT PUSH2 0x955 JUMPI PUSH2 0x780 DUP4 SLOAD PUSH2 0x1285 JUMP JUMPDEST PUSH1 0x1F DUP2 GT PUSH2 0xA9E JUMPI JUMPDEST POP PUSH1 0x20 SWAP1 PUSH1 0x1F DUP4 GT PUSH1 0x1 EQ PUSH2 0xA32 JUMPI PUSH2 0x7D5 SWAP5 SWAP4 SWAP3 SWAP2 PUSH1 0x0 SWAP2 DUP4 PUSH2 0xA27 JUMPI JUMPDEST POP POP DUP2 PUSH1 0x1 SHL SWAP2 PUSH1 0x0 NOT SWAP1 PUSH1 0x3 SHL SHR NOT AND OR SWAP1 SSTORE JUMPDEST MLOAD ISZERO ISZERO PUSH1 0x4 DUP8 ADD SWAP1 PUSH1 0xFF DUP1 NOT DUP4 SLOAD AND SWAP2 ISZERO ISZERO AND OR SWAP1 SSTORE JUMP JUMPDEST MLOAD PUSH1 0x5 DUP6 ADD SSTORE MLOAD PUSH1 0x6 DUP5 ADD SSTORE MLOAD PUSH1 0x7 DUP4 ADD SSTORE MLOAD PUSH1 0x8 DUP3 ADD SSTORE PUSH1 0x9 DUP2 ADD SWAP3 MLOAD SWAP3 DUP4 MLOAD PUSH1 0x1 PUSH1 0x1 PUSH1 0x40 SHL SUB DUP2 GT PUSH2 0x955 JUMPI PUSH2 0x80E DUP3 SLOAD PUSH2 0x1285 JUMP JUMPDEST PUSH1 0x1F DUP2 GT PUSH2 0x9DF JUMPI JUMPDEST POP PUSH1 0x20 PUSH1 0x1F DUP3 GT PUSH1 0x1 EQ PUSH2 0x976 JUMPI DUP2 SWAP1 PUSH1 0xA SWAP6 SWAP7 PUSH1 0x0 SWAP3 PUSH2 0x96B JUMPI JUMPDEST POP POP DUP2 PUSH1 0x1 SHL SWAP2 PUSH1 0x0 NOT SWAP1 PUSH1 0x3 SHL SHR NOT AND OR SWAP1 SSTORE JUMPDEST ADD SWAP1 MLOAD SWAP1 DUP2 MLOAD PUSH1 0x1 PUSH1 0x1 PUSH1 0x40 SHL SUB DUP2 GT PUSH2 0x955 JUMPI PUSH2 0x866 DUP3 SLOAD PUSH2 0x1285 JUMP JUMPDEST PUSH1 0x1F DUP2 GT PUSH2 0x90D JUMPI JUMPDEST POP PUSH1 0x20 SWAP3 PUSH1 0x1F DUP3 GT PUSH1 0x1 EQ PUSH2 0x8AD JUMPI SWAP3 DUP2 SWAP3 SWAP4 PUSH1 0x0 SWAP3 PUSH2 0x8A2 JUMPI JUMPDEST POP POP PUSH1 0x0 NOT PUSH1 0x3 DUP4 SWAP1 SHL SHR NOT AND PUSH1 0x1 SWAP2 SWAP1 SWAP2 SHL OR SWAP1 SSTORE STOP JUMPDEST ADD MLOAD SWAP1 POP DUP4 DUP1 PUSH2 0x88A JUMP JUMPDEST PUSH1 0x1F NOT DUP3 AND SWAP4 DUP4 PUSH1 0x0 MSTORE DUP1 PUSH1 0x0 KECCAK256 SWAP2 PUSH1 0x0 JUMPDEST DUP7 DUP2 LT PUSH2 0x8F5 JUMPI POP DUP4 PUSH1 0x1 SWAP6 SWAP7 LT PUSH2 0x8DC JUMPI JUMPDEST POP POP POP DUP2 SHL ADD SWAP1 SSTORE STOP JUMPDEST ADD MLOAD PUSH1 0x0 NOT PUSH1 0xF8 DUP5 PUSH1 0x3 SHL AND SHR NOT AND SWAP1 SSTORE DUP4 DUP1 DUP1 PUSH2 0x8D2 JUMP JUMPDEST SWAP2 SWAP3 PUSH1 0x20 PUSH1 0x1 DUP2 SWAP3 DUP7 DUP6 ADD MLOAD DUP2 SSTORE ADD SWAP5 ADD SWAP3 ADD PUSH2 0x8BF JUMP JUMPDEST DUP3 PUSH1 0x0 MSTORE PUSH1 0x20 PUSH1 0x0 KECCAK256 PUSH1 0x1F DUP4 ADD PUSH1 0x5 SHR DUP2 ADD SWAP2 PUSH1 0x20 DUP5 LT PUSH2 0x94B JUMPI JUMPDEST PUSH1 0x1F ADD PUSH1 0x5 SHR ADD SWAP1 JUMPDEST DUP2 DUP2 LT PUSH2 0x93F JUMPI POP PUSH2 0x86F JUMP JUMPDEST PUSH1 0x0 DUP2 SSTORE PUSH1 0x1 ADD PUSH2 0x932 JUMP JUMPDEST SWAP1 SWAP2 POP DUP2 SWAP1 PUSH2 0x929 JUMP JUMPDEST PUSH4 0x4E487B71 PUSH1 0xE0 SHL PUSH1 0x0 MSTORE PUSH1 0x41 PUSH1 0x4 MSTORE PUSH1 0x24 PUSH1 0x0 REVERT JUMPDEST ADD MLOAD SWAP1 POP DUP7 DUP1 PUSH2 0x833 JUMP JUMPDEST PUSH1 0x1F NOT DUP3 AND SWAP6 DUP4 PUSH1 0x0 MSTORE DUP2 PUSH1 0x0 KECCAK256 SWAP7 PUSH1 0x0 JUMPDEST DUP2 DUP2 LT PUSH2 0x9C7 JUMPI POP SWAP2 PUSH1 0xA SWAP7 SWAP8 SWAP2 DUP5 PUSH1 0x1 SWAP6 SWAP5 LT PUSH2 0x9AE JUMPI JUMPDEST POP POP POP DUP2 SHL ADD SWAP1 SSTORE PUSH2 0x848 JUMP JUMPDEST ADD MLOAD PUSH1 0x0 NOT PUSH1 0xF8 DUP5 PUSH1 0x3 SHL AND SHR NOT AND SWAP1 SSTORE DUP7 DUP1 DUP1 PUSH2 0x9A1 JUMP JUMPDEST DUP4 DUP4 ADD MLOAD DUP10 SSTORE PUSH1 0x1 SWAP1 SWAP9 ADD SWAP8 PUSH1 0x20 SWAP4 DUP5 ADD SWAP4 ADD PUSH2 0x988 JUMP JUMPDEST DUP3 PUSH1 0x0 MSTORE PUSH1 0x20 PUSH1 0x0 KECCAK256 PUSH1 0x1F DUP4 ADD PUSH1 0x5 SHR DUP2 ADD SWAP2 PUSH1 0x20 DUP5 LT PUSH2 0xA1D JUMPI JUMPDEST PUSH1 0x1F ADD PUSH1 0x5 SHR ADD SWAP1 JUMPDEST DUP2 DUP2 LT PUSH2 0xA11 JUMPI POP PUSH2 0x817 JUMP JUMPDEST PUSH1 0x0 DUP2 SSTORE PUSH1 0x1 ADD PUSH2 0xA04 JUMP JUMPDEST SWAP1 SWAP2 POP DUP2 SWAP1 PUSH2 0x9FB JUMP JUMPDEST ADD MLOAD SWAP1 POP DUP13 DUP1 PUSH2 0x7A8 JUMP JUMPDEST SWAP1 PUSH1 0x1F NOT DUP4 AND SWAP2 DUP5 PUSH1 0x0 MSTORE DUP2 PUSH1 0x0 KECCAK256 SWAP3 PUSH1 0x0 JUMPDEST DUP2 DUP2 LT PUSH2 0xA86 JUMPI POP SWAP2 PUSH1 0x1 SWAP4 SWAP2 DUP6 PUSH2 0x7D5 SWAP9 SWAP8 SWAP7 SWAP5 LT PUSH2 0xA6D JUMPI JUMPDEST POP POP POP DUP2 SHL ADD SWAP1 SSTORE PUSH2 0x7BD JUMP JUMPDEST ADD MLOAD PUSH1 0x0 NOT PUSH1 0xF8 DUP5 PUSH1 0x3 SHL AND SHR NOT AND SWAP1 SSTORE DUP13 DUP1 DUP1 PUSH2 0xA60 JUMP JUMPDEST SWAP3 SWAP4 PUSH1 0x20 PUSH1 0x1 DUP2 SWAP3 DUP8 DUP7 ADD MLOAD DUP2 SSTORE ADD SWAP6 ADD SWAP4 ADD PUSH2 0xA45 JUMP JUMPDEST DUP4 PUSH1 0x0 MSTORE PUSH1 0x20 PUSH1 0x0 KECCAK256 PUSH1 0x1F DUP5 ADD PUSH1 0x5 SHR DUP2 ADD SWAP2 PUSH1 0x20 DUP6 LT PUSH2 0xADC JUMPI JUMPDEST PUSH1 0x1F ADD PUSH1 0x5 SHR ADD SWAP1 JUMPDEST DUP2 DUP2 LT PUSH2 0xAD0 JUMPI POP PUSH2 0x789 JUMP JUMPDEST PUSH1 0x0 DUP2 SSTORE PUSH1 0x1 ADD PUSH2 0xAC3 JUMP JUMPDEST SWAP1 SWAP2 POP DUP2 SWAP1 PUSH2 0xABA JUMP JUMPDEST PUSH4 0x4E487B71 PUSH1 0xE0 SHL PUSH1 0x0 MSTORE PUSH1 0x0 PUSH1 0x4 MSTORE PUSH1 0x24 PUSH1 0x0 REVERT JUMPDEST CALLVALUE PUSH2 0xEB JUMPI PUSH1 0x20 CALLDATASIZE PUSH1 0x3 NOT ADD SLT PUSH2 0xEB JUMPI PUSH2 0xB15 PUSH2 0xF5C JUMP JUMPDEST PUSH2 0x280 MSTORE PUSH1 0x0 DUP1 DUP2 SLOAD PUSH1 0xC0 MSTORE JUMPDEST PUSH1 0xC0 MLOAD DUP2 LT PUSH2 0xE18 JUMPI PUSH2 0xBCF DUP3 PUSH2 0xB38 DUP2 PUSH2 0x14AD JUMP JUMPDEST PUSH2 0x240 MSTORE PUSH2 0xB45 DUP2 PUSH2 0x14AD JUMP JUMPDEST PUSH2 0x260 MSTORE PUSH2 0xB52 DUP2 PUSH2 0x14AD JUMP JUMPDEST PUSH1 0xE0 MSTORE PUSH2 0xB5E DUP2 PUSH2 0x14AD JUMP JUMPDEST PUSH2 0x100 MSTORE PUSH2 0xB6B DUP2 PUSH2 0x14AD JUMP JUMPDEST PUSH2 0x120 MSTORE PUSH2 0xB78 DUP2 PUSH2 0x14DF JUMP JUMPDEST PUSH2 0x140 MSTORE PUSH2 0xB85 DUP2 PUSH2 0x14AD JUMP JUMPDEST PUSH2 0x160 MSTORE PUSH2 0xB92 DUP2 PUSH2 0x14AD JUMP JUMPDEST PUSH2 0x180 MSTORE PUSH2 0xB9F DUP2 PUSH2 0x14AD JUMP JUMPDEST PUSH2 0x1A0 MSTORE PUSH2 0xBAC DUP2 PUSH2 0x14AD JUMP JUMPDEST PUSH2 0x1C0 MSTORE PUSH2 0xBB9 DUP2 PUSH2 0x14AD JUMP JUMPDEST PUSH2 0x1E0 MSTORE PUSH2 0xBC6 DUP2 PUSH2 0x14DF JUMP JUMPDEST PUSH2 0x200 MSTORE PUSH2 0x14DF JUMP JUMPDEST PUSH2 0x220 MSTORE PUSH1 0x0 PUSH1 0x80 MSTORE PUSH1 0x80 MLOAD PUSH1 0xA0 MSTORE JUMPDEST PUSH1 0xC0 MLOAD PUSH1 0xA0 MLOAD LT PUSH2 0xC2B JUMPI PUSH1 0x40 MLOAD DUP1 PUSH2 0x217 PUSH2 0x220 MLOAD PUSH2 0x200 MLOAD PUSH2 0x1E0 MLOAD PUSH2 0x1C0 MLOAD PUSH2 0x1A0 MLOAD PUSH2 0x180 MLOAD PUSH2 0x160 MLOAD PUSH2 0x140 MLOAD PUSH2 0x120 MLOAD PUSH2 0x100 MLOAD PUSH1 0xE0 MLOAD PUSH2 0x260 MLOAD DUP14 PUSH2 0x240 MLOAD SWAP1 PUSH2 0x1096 JUMP JUMPDEST PUSH2 0xC36 PUSH1 0xA0 MLOAD PUSH2 0x1235 JUMP JUMPDEST POP PUSH1 0x4 DUP2 ADD SLOAD PUSH1 0xFF AND ISZERO DUP1 DUP1 PUSH2 0xDF0 JUMPI JUMPDEST PUSH2 0xC5C JUMPI JUMPDEST POP POP PUSH1 0x1 PUSH1 0xA0 MLOAD ADD PUSH1 0xA0 MSTORE PUSH2 0xBDF JUMP JUMPDEST DUP2 PUSH1 0xA SWAP2 PUSH2 0xDBB SWAP4 SLOAD PUSH2 0xC74 PUSH1 0x80 MLOAD PUSH2 0x240 MLOAD PUSH2 0x1529 JUMP JUMPDEST PUSH1 0x1 PUSH1 0x1 PUSH1 0x80 SHL SUB NOT DUP3 PUSH1 0x80 SHL AND SWAP1 MSTORE PUSH1 0x1 PUSH1 0x1 PUSH1 0x80 SHL SUB NOT AND PUSH2 0xC9D PUSH1 0x80 MLOAD PUSH2 0x260 MLOAD PUSH2 0x1529 JUMP JUMPDEST MSTORE PUSH1 0x1 DUP3 ADD SLOAD PUSH2 0xCB1 PUSH1 0x80 MLOAD PUSH1 0xE0 MLOAD PUSH2 0x1529 JUMP JUMPDEST PUSH1 0x1 PUSH1 0x1 PUSH1 0x80 SHL SUB NOT DUP3 PUSH1 0x80 SHL AND SWAP1 MSTORE PUSH1 0x1 PUSH1 0x1 PUSH1 0x80 SHL SUB NOT AND PUSH2 0xCDA PUSH1 0x80 MLOAD PUSH2 0x100 MLOAD PUSH2 0x1529 JUMP JUMPDEST MSTORE PUSH1 0x2 DUP3 ADD SLOAD PUSH1 0x80 SHL PUSH2 0xCF2 PUSH1 0x80 MLOAD PUSH2 0x120 MLOAD PUSH2 0x1529 JUMP JUMPDEST SWAP1 PUSH1 0x1 PUSH1 0x1 PUSH1 0x80 SHL SUB NOT AND SWAP1 MSTORE PUSH2 0xD0B PUSH1 0x3 DUP4 ADD PUSH2 0x12BF JUMP JUMPDEST PUSH2 0xD1A PUSH1 0x80 MLOAD PUSH2 0x140 MLOAD PUSH2 0x1529 JUMP JUMPDEST MSTORE PUSH2 0xD2A PUSH1 0x80 MLOAD PUSH2 0x140 MLOAD PUSH2 0x1529 JUMP JUMPDEST POP ISZERO PUSH2 0xD3B PUSH1 0x80 MLOAD PUSH2 0x160 MLOAD PUSH2 0x1529 JUMP JUMPDEST MSTORE PUSH1 0x5 DUP2 ADD SLOAD PUSH2 0xD50 PUSH1 0x80 MLOAD PUSH2 0x180 MLOAD PUSH2 0x1529 JUMP JUMPDEST MSTORE PUSH1 0x6 DUP2 ADD SLOAD PUSH2 0xD65 PUSH1 0x80 MLOAD PUSH2 0x1A0 MLOAD PUSH2 0x1529 JUMP JUMPDEST MSTORE PUSH1 0x7 DUP2 ADD SLOAD PUSH2 0xD7A PUSH1 0x80 MLOAD PUSH2 0x1C0 MLOAD PUSH2 0x1529 JUMP JUMPDEST MSTORE PUSH1 0x8 DUP2 ADD SLOAD PUSH2 0xD8F PUSH1 0x80 MLOAD PUSH2 0x1E0 MLOAD PUSH2 0x1529 JUMP JUMPDEST MSTORE PUSH2 0xD9C PUSH1 0x9 DUP3 ADD PUSH2 0x12BF JUMP JUMPDEST PUSH2 0xDAB PUSH1 0x80 MLOAD PUSH2 0x200 MLOAD PUSH2 0x1529 JUMP JUMPDEST MSTORE PUSH2 0x36F PUSH1 0x80 MLOAD PUSH2 0x200 MLOAD PUSH2 0x1529 JUMP JUMPDEST PUSH2 0xDCA PUSH1 0x80 MLOAD PUSH2 0x220 MLOAD PUSH2 0x1529 JUMP JUMPDEST MSTORE PUSH2 0xDDA PUSH1 0x80 MLOAD PUSH2 0x220 MLOAD PUSH2 0x1529 JUMP JUMPDEST POP PUSH2 0xDE6 PUSH1 0x80 MLOAD PUSH2 0x1471 JUMP JUMPDEST PUSH1 0x80 MSTORE DUP1 DUP1 PUSH2 0xC4C JUMP JUMPDEST POP PUSH1 0x1 DUP3 ADD SLOAD PUSH1 0x80 SHL PUSH1 0x1 PUSH1 0x1 PUSH1 0x80 SHL SUB NOT PUSH2 0x280 MLOAD AND SWAP1 PUSH1 0x1 PUSH1 0x1 PUSH1 0x80 SHL SUB NOT AND EQ PUSH2 0xC47 JUMP JUMPDEST PUSH1 0xFF PUSH1 0x4 PUSH2 0xE25 DUP4 PUSH2 0x1235 JUMP JUMPDEST POP ADD SLOAD AND ISZERO DUP1 PUSH2 0xE51 JUMPI JUMPDEST PUSH2 0xE3D JUMPI JUMPDEST PUSH1 0x1 ADD PUSH2 0xB22 JUMP JUMPDEST SWAP1 PUSH2 0xE49 PUSH1 0x1 SWAP2 PUSH2 0x1471 JUMP JUMPDEST SWAP2 SWAP1 POP PUSH2 0xE35 JUMP JUMPDEST POP PUSH1 0x1 PUSH2 0xE5D DUP3 PUSH2 0x1235 JUMP JUMPDEST POP ADD SLOAD PUSH1 0x80 SHL PUSH1 0x1 PUSH1 0x1 PUSH1 0x80 SHL SUB NOT PUSH2 0x280 MLOAD AND SWAP1 PUSH1 0x1 PUSH1 0x1 PUSH1 0x80 SHL SUB NOT AND EQ PUSH2 0xE30 JUMP JUMPDEST CALLVALUE PUSH2 0xEB JUMPI PUSH1 0x20 CALLDATASIZE PUSH1 0x3 NOT ADD SLT PUSH2 0xEB JUMPI PUSH2 0xE9B PUSH2 0xF5C JUMP JUMPDEST PUSH2 0xEA4 SWAP1 PUSH2 0x1363 JUMP JUMPDEST SWAP10 PUSH1 0x40 SWAP13 SWAP12 SWAP13 SWAP10 SWAP2 SWAP10 SWAP9 SWAP3 SWAP8 SWAP4 SWAP7 SWAP9 SWAP6 SWAP5 SWAP6 MLOAD SWAP13 DUP14 SWAP13 PUSH1 0x1 PUSH1 0x1 PUSH1 0x80 SHL SUB NOT AND DUP14 MSTORE PUSH1 0x1 PUSH1 0x1 PUSH1 0x80 SHL SUB NOT AND PUSH1 0x20 DUP14 ADD MSTORE PUSH1 0x1 PUSH1 0x1 PUSH1 0x80 SHL SUB NOT AND PUSH1 0x40 DUP13 ADD MSTORE PUSH1 0x1 PUSH1 0x1 PUSH1 0x80 SHL SUB NOT AND PUSH1 0x60 DUP12 ADD MSTORE PUSH1 0x1 PUSH1 0x1 PUSH1 0x80 SHL SUB NOT AND PUSH1 0x80 DUP11 ADD MSTORE PUSH1 0xA0 DUP10 ADD PUSH2 0x1A0 SWAP1 MSTORE PUSH2 0x1A0 DUP10 ADD PUSH2 0xF19 SWAP2 PUSH2 0xF8A JUMP JUMPDEST SWAP5 ISZERO ISZERO PUSH1 0xC0 DUP10 ADD MSTORE PUSH1 0xE0 DUP9 ADD MSTORE PUSH2 0x100 DUP8 ADD MSTORE PUSH2 0x120 DUP7 ADD MSTORE PUSH2 0x140 DUP6 ADD MSTORE DUP4 DUP2 SUB PUSH2 0x160 DUP6 ADD MSTORE PUSH2 0xF4A SWAP2 PUSH2 0xF8A JUMP JUMPDEST DUP3 DUP2 SUB PUSH2 0x180 DUP5 ADD MSTORE PUSH2 0x217 SWAP2 PUSH2 0xF8A JUMP JUMPDEST PUSH1 0x4 CALLDATALOAD SWAP1 PUSH1 0x1 PUSH1 0x1 PUSH1 0x80 SHL SUB NOT DUP3 AND DUP3 SUB PUSH2 0xEB JUMPI JUMP JUMPDEST PUSH1 0x24 CALLDATALOAD SWAP1 PUSH1 0x1 PUSH1 0x1 PUSH1 0x80 SHL SUB NOT DUP3 AND DUP3 SUB PUSH2 0xEB JUMPI JUMP JUMPDEST SWAP2 SWAP1 DUP3 MLOAD SWAP3 DUP4 DUP3 MSTORE PUSH1 0x0 JUMPDEST DUP5 DUP2 LT PUSH2 0xFB6 JUMPI POP POP DUP3 PUSH1 0x0 PUSH1 0x20 DUP1 SWAP5 SWAP6 DUP5 ADD ADD MSTORE PUSH1 0x1F DUP1 NOT SWAP2 ADD AND ADD ADD SWAP1 JUMP JUMPDEST DUP1 PUSH1 0x20 DUP1 SWAP3 DUP5 ADD ADD MLOAD DUP3 DUP3 DUP7 ADD ADD MSTORE ADD PUSH2 0xF95 JUMP JUMPDEST SWAP1 PUSH1 0x20 DUP1 DUP4 MLOAD SWAP3 DUP4 DUP2 MSTORE ADD SWAP3 ADD SWAP1 PUSH1 0x0 JUMPDEST DUP2 DUP2 LT PUSH2 0xFE9 JUMPI POP POP POP SWAP1 JUMP JUMPDEST DUP3 MLOAD PUSH1 0x1 PUSH1 0x1 PUSH1 0x80 SHL SUB NOT AND DUP5 MSTORE PUSH1 0x20 SWAP4 DUP5 ADD SWAP4 SWAP1 SWAP3 ADD SWAP2 PUSH1 0x1 ADD PUSH2 0xFDC JUMP JUMPDEST SWAP1 DUP1 PUSH1 0x20 DUP4 MLOAD SWAP2 DUP3 DUP2 MSTORE ADD SWAP2 PUSH1 0x20 DUP1 DUP4 PUSH1 0x5 SHL DUP4 ADD ADD SWAP5 ADD SWAP3 PUSH1 0x0 SWAP2 JUMPDEST DUP4 DUP4 LT PUSH2 0x1035 JUMPI POP POP POP POP POP SWAP1 JUMP JUMPDEST SWAP1 SWAP2 SWAP3 SWAP4 SWAP5 PUSH1 0x20 DUP1 PUSH2 0x1053 PUSH1 0x1 SWAP4 PUSH1 0x1F NOT DUP7 DUP3 SUB ADD DUP8 MSTORE DUP10 MLOAD PUSH2 0xF8A JUMP JUMPDEST SWAP8 ADD SWAP4 ADD SWAP4 ADD SWAP2 SWAP4 SWAP3 SWAP1 PUSH2 0x1026 JUMP JUMPDEST SWAP1 PUSH1 0x20 DUP1 DUP4 MLOAD SWAP3 DUP4 DUP2 MSTORE ADD SWAP3 ADD SWAP1 PUSH1 0x0 JUMPDEST DUP2 DUP2 LT PUSH2 0x1080 JUMPI POP POP POP SWAP1 JUMP JUMPDEST DUP3 MLOAD DUP5 MSTORE PUSH1 0x20 SWAP4 DUP5 ADD SWAP4 SWAP1 SWAP3 ADD SWAP2 PUSH1 0x1 ADD PUSH2 0x1073 JUMP JUMPDEST SWAP12 SWAP10 SWAP8 SWAP6 SWAP4 PUSH2 0x10E4 SWAP8 SWAP15 SWAP14 SWAP12 SWAP10 SWAP8 DUP14 PUSH2 0x1100 SWAP6 PUSH2 0x10D6 PUSH2 0x110E SWAP10 SWAP7 PUSH2 0x10C8 PUSH2 0x10F2 SWAP8 PUSH2 0x1A0 DUP7 MSTORE PUSH2 0x1A0 DUP7 ADD SWAP1 PUSH2 0xFCB JUMP JUMPDEST SWAP1 DUP5 DUP3 SUB PUSH1 0x20 DUP7 ADD MSTORE PUSH2 0xFCB JUMP JUMPDEST SWAP2 PUSH1 0x40 DUP2 DUP5 SUB SWAP2 ADD MSTORE PUSH2 0xFCB JUMP JUMPDEST DUP14 DUP2 SUB PUSH1 0x60 DUP16 ADD MSTORE SWAP1 PUSH2 0xFCB JUMP JUMPDEST SWAP1 DUP12 DUP3 SUB PUSH1 0x80 DUP14 ADD MSTORE PUSH2 0xFCB JUMP JUMPDEST SWAP1 DUP10 DUP3 SUB PUSH1 0xA0 DUP12 ADD MSTORE PUSH2 0x1009 JUMP JUMPDEST DUP8 DUP2 SUB PUSH1 0xC0 DUP10 ADD MSTORE PUSH1 0x20 DUP1 DUP12 MLOAD SWAP3 DUP4 DUP2 MSTORE ADD SWAP11 ADD SWAP1 PUSH1 0x0 JUMPDEST DUP2 DUP2 LT PUSH2 0x11A6 JUMPI POP POP POP PUSH2 0x1185 SWAP3 PUSH2 0x1167 PUSH2 0x1194 SWAP7 SWAP6 SWAP4 PUSH2 0x1158 DUP13 PUSH2 0x1176 SWAP6 DUP13 PUSH2 0x11A3 SWAP15 SWAP16 DUP2 PUSH1 0xE0 SWAP2 SUB SWAP2 ADD MSTORE PUSH2 0x1062 JUMP JUMPDEST SWAP1 DUP11 DUP3 SUB PUSH2 0x100 DUP13 ADD MSTORE PUSH2 0x1062 JUMP JUMPDEST SWAP1 DUP9 DUP3 SUB PUSH2 0x120 DUP11 ADD MSTORE PUSH2 0x1062 JUMP JUMPDEST SWAP1 DUP7 DUP3 SUB PUSH2 0x140 DUP9 ADD MSTORE PUSH2 0x1062 JUMP JUMPDEST SWAP1 DUP5 DUP3 SUB PUSH2 0x160 DUP7 ADD MSTORE PUSH2 0x1009 JUMP JUMPDEST SWAP2 PUSH2 0x180 DUP2 DUP5 SUB SWAP2 ADD MSTORE PUSH2 0x1009 JUMP JUMPDEST SWAP1 JUMP JUMPDEST DUP3 MLOAD ISZERO ISZERO DUP13 MSTORE PUSH1 0x20 SWAP12 DUP13 ADD SWAP12 SWAP1 SWAP3 ADD SWAP2 PUSH1 0x1 ADD PUSH2 0x1126 JUMP JUMPDEST SWAP1 PUSH1 0x1F DUP1 NOT SWAP2 ADD AND DUP2 ADD SWAP1 DUP2 LT PUSH1 0x1 PUSH1 0x1 PUSH1 0x40 SHL SUB DUP3 GT OR PUSH2 0x955 JUMPI PUSH1 0x40 MSTORE JUMP JUMPDEST DUP2 PUSH1 0x1F DUP3 ADD SLT ISZERO PUSH2 0xEB JUMPI DUP1 CALLDATALOAD SWAP1 PUSH1 0x1 PUSH1 0x1 PUSH1 0x40 SHL SUB DUP3 GT PUSH2 0x955 JUMPI PUSH1 0x40 MLOAD SWAP3 PUSH2 0x1213 PUSH1 0x1F DUP5 ADD PUSH1 0x1F NOT AND PUSH1 0x20 ADD DUP6 PUSH2 0x11BE JUMP JUMPDEST DUP3 DUP5 MSTORE PUSH1 0x20 DUP4 DUP4 ADD ADD GT PUSH2 0xEB JUMPI DUP2 PUSH1 0x0 SWAP3 PUSH1 0x20 DUP1 SWAP4 ADD DUP4 DUP7 ADD CALLDATACOPY DUP4 ADD ADD MSTORE SWAP1 JUMP JUMPDEST PUSH1 0x0 SLOAD DUP2 LT ISZERO PUSH2 0x126F JUMPI PUSH1 0x0 DUP1 DUP1 MSTORE PUSH1 0xB SWAP2 SWAP1 SWAP2 MUL PUSH32 0x290DECD9548B62A8D60345A988386FC84BA6BC95484008F6362F93160EF3E563 ADD SWAP2 JUMP JUMPDEST PUSH4 0x4E487B71 PUSH1 0xE0 SHL PUSH1 0x0 MSTORE PUSH1 0x32 PUSH1 0x4 MSTORE PUSH1 0x24 PUSH1 0x0 REVERT JUMPDEST SWAP1 PUSH1 0x1 DUP3 DUP2 SHR SWAP3 AND DUP1 ISZERO PUSH2 0x12B5 JUMPI JUMPDEST PUSH1 0x20 DUP4 LT EQ PUSH2 0x129F JUMPI JUMP JUMPDEST PUSH4 0x4E487B71 PUSH1 0xE0 SHL PUSH1 0x0 MSTORE PUSH1 0x22 PUSH1 0x4 MSTORE PUSH1 0x24 PUSH1 0x0 REVERT JUMPDEST SWAP2 PUSH1 0x7F AND SWAP2 PUSH2 0x1294 JUMP JUMPDEST SWAP1 PUSH1 0x40 MLOAD SWAP2 DUP3 PUSH1 0x0 DUP3 SLOAD SWAP3 PUSH2 0x12D3 DUP5 PUSH2 0x1285 JUMP JUMPDEST DUP1 DUP5 MSTORE SWAP4 PUSH1 0x1 DUP2 AND SWAP1 DUP2 ISZERO PUSH2 0x1341 JUMPI POP PUSH1 0x1 EQ PUSH2 0x12FA JUMPI JUMPDEST POP PUSH2 0x12F8 SWAP3 POP SUB DUP4 PUSH2 0x11BE JUMP JUMPDEST JUMP JUMPDEST SWAP1 POP PUSH1 0x0 SWAP3 SWAP2 SWAP3 MSTORE PUSH1 0x20 PUSH1 0x0 KECCAK256 SWAP1 PUSH1 0x0 SWAP2 JUMPDEST DUP2 DUP4 LT PUSH2 0x1325 JUMPI POP POP SWAP1 PUSH1 0x20 PUSH2 0x12F8 SWAP3 DUP3 ADD ADD CODESIZE PUSH2 0x12EB JUMP JUMPDEST PUSH1 0x20 SWAP2 SWAP4 POP DUP1 PUSH1 0x1 SWAP2 SLOAD DUP4 DUP6 DUP10 ADD ADD MSTORE ADD SWAP2 ADD SWAP1 SWAP2 DUP5 SWAP3 PUSH2 0x130C JUMP JUMPDEST SWAP1 POP PUSH1 0x20 SWAP3 POP PUSH2 0x12F8 SWAP5 SWAP2 POP PUSH1 0xFF NOT AND DUP3 DUP5 ADD MSTORE ISZERO ISZERO PUSH1 0x5 SHL DUP3 ADD ADD CODESIZE PUSH2 0x12EB JUMP JUMPDEST PUSH1 0x0 SWAP1 DUP2 SLOAD SWAP2 JUMPDEST DUP3 DUP2 LT PUSH2 0x13B6 JUMPI PUSH1 0x40 MLOAD PUSH3 0x461BCD PUSH1 0xE5 SHL DUP2 MSTORE PUSH1 0x20 PUSH1 0x4 DUP3 ADD MSTORE PUSH1 0x1E PUSH1 0x24 DUP3 ADD MSTORE PUSH32 0x46756E64696E67206E6F7420666F756E6420666F722073747564656E742E0000 PUSH1 0x44 DUP3 ADD MSTORE PUSH1 0x64 SWAP1 REVERT JUMPDEST PUSH1 0x1 PUSH2 0x13C1 DUP3 PUSH2 0x1235 JUMP JUMPDEST POP ADD SLOAD PUSH1 0x80 SHL PUSH1 0x1 PUSH1 0x1 PUSH1 0x80 SHL SUB NOT DUP4 AND SWAP1 PUSH1 0x1 PUSH1 0x1 PUSH1 0x80 SHL SUB NOT AND EQ PUSH2 0x13EA JUMPI PUSH1 0x1 ADD PUSH2 0x136A JUMP JUMPDEST SWAP1 POP PUSH2 0x13F6 SWAP2 POP PUSH2 0x1235 JUMP JUMPDEST POP SWAP1 DUP2 SLOAD SWAP2 PUSH1 0x1 DUP2 ADD SLOAD SWAP1 PUSH1 0x2 DUP2 ADD SLOAD PUSH1 0x80 SHL SWAP1 PUSH1 0xFF PUSH1 0x4 DUP3 ADD SLOAD AND PUSH1 0x5 DUP3 ADD SLOAD PUSH1 0x6 DUP4 ADD SLOAD PUSH1 0x7 DUP5 ADD SLOAD PUSH1 0x8 DUP6 ADD SLOAD DUP10 PUSH1 0x80 SHL SWAP10 PUSH1 0x1 PUSH1 0x1 PUSH1 0x80 SHL SUB NOT AND SWAP9 DUP9 PUSH1 0x80 SHL SWAP9 PUSH1 0x1 PUSH1 0x1 PUSH1 0x80 SHL SUB NOT AND SWAP8 SWAP7 PUSH2 0x1453 PUSH1 0x3 DUP3 ADD PUSH2 0x12BF JUMP JUMPDEST SWAP7 SWAP6 SWAP5 SWAP4 SWAP3 SWAP2 PUSH2 0x11A3 PUSH1 0xA PUSH2 0x146A PUSH1 0x9 DUP6 ADD PUSH2 0x12BF JUMP JUMPDEST SWAP4 ADD PUSH2 0x12BF JUMP JUMPDEST PUSH1 0x0 NOT DUP2 EQ PUSH2 0x1480 JUMPI PUSH1 0x1 ADD SWAP1 JUMP JUMPDEST PUSH4 0x4E487B71 PUSH1 0xE0 SHL PUSH1 0x0 MSTORE PUSH1 0x11 PUSH1 0x4 MSTORE PUSH1 0x24 PUSH1 0x0 REVERT JUMPDEST PUSH1 0x1 PUSH1 0x1 PUSH1 0x40 SHL SUB DUP2 GT PUSH2 0x955 JUMPI PUSH1 0x5 SHL PUSH1 0x20 ADD SWAP1 JUMP JUMPDEST SWAP1 PUSH2 0x14B7 DUP3 PUSH2 0x1496 JUMP JUMPDEST PUSH2 0x14C4 PUSH1 0x40 MLOAD SWAP2 DUP3 PUSH2 0x11BE JUMP JUMPDEST DUP3 DUP2 MSTORE DUP1 SWAP3 PUSH2 0x14D5 PUSH1 0x1F NOT SWAP2 PUSH2 0x1496 JUMP JUMPDEST ADD SWAP1 PUSH1 0x20 CALLDATASIZE SWAP2 ADD CALLDATACOPY JUMP JUMPDEST SWAP1 PUSH2 0x14E9 DUP3 PUSH2 0x1496 JUMP JUMPDEST PUSH2 0x14F6 PUSH1 0x40 MLOAD SWAP2 DUP3 PUSH2 0x11BE JUMP JUMPDEST DUP3 DUP2 MSTORE DUP1 SWAP3 PUSH2 0x1507 PUSH1 0x1F NOT SWAP2 PUSH2 0x1496 JUMP JUMPDEST ADD SWAP1 PUSH1 0x0 JUMPDEST DUP3 DUP2 LT PUSH2 0x1518 JUMPI POP POP POP JUMP JUMPDEST DUP1 PUSH1 0x60 PUSH1 0x20 DUP1 SWAP4 DUP6 ADD ADD MSTORE ADD PUSH2 0x150C JUMP JUMPDEST DUP1 MLOAD DUP3 LT ISZERO PUSH2 0x126F JUMPI PUSH1 0x20 SWAP2 PUSH1 0x5 SHL ADD ADD SWAP1 JUMP JUMPDEST SWAP3 SWAP4 SWAP2 SWAP1 PUSH1 0x0 JUMPDEST PUSH1 0x0 SLOAD DUP2 LT ISZERO PUSH2 0x17DA JUMPI PUSH2 0x1557 DUP2 PUSH2 0x1235 JUMP JUMPDEST POP SLOAD PUSH1 0x80 SHL PUSH1 0x1 PUSH1 0x1 PUSH1 0x80 SHL SUB NOT DUP7 AND SWAP1 PUSH1 0x1 PUSH1 0x1 PUSH1 0x80 SHL SUB NOT AND EQ PUSH2 0x157F JUMPI PUSH1 0x1 ADD PUSH2 0x1544 JUMP JUMPDEST SWAP3 SWAP4 POP PUSH1 0x2 PUSH2 0x158D DUP5 PUSH2 0x1235 JUMP JUMPDEST POP ADD SWAP1 PUSH1 0x80 SHR PUSH1 0x1 PUSH1 0x1 PUSH1 0x80 SHL SUB NOT DUP3 SLOAD AND OR SWAP1 SSTORE PUSH1 0x9 PUSH2 0x15AD DUP4 PUSH2 0x1235 JUMP JUMPDEST POP ADD SWAP1 DUP1 MLOAD SWAP1 PUSH1 0x1 PUSH1 0x1 PUSH1 0x40 SHL SUB DUP3 GT PUSH2 0x955 JUMPI PUSH2 0x15CB DUP4 SLOAD PUSH2 0x1285 JUMP JUMPDEST PUSH1 0x1F DUP2 GT PUSH2 0x1792 JUMPI JUMPDEST POP PUSH1 0x20 SWAP1 PUSH1 0x1F DUP4 GT PUSH1 0x1 EQ PUSH2 0x1724 JUMPI SWAP2 DUP1 PUSH2 0x160F SWAP5 SWAP3 PUSH1 0xA SWAP7 SWAP5 PUSH1 0x0 SWAP3 PUSH2 0x1719 JUMPI JUMPDEST POP POP DUP2 PUSH1 0x1 SHL SWAP2 PUSH1 0x0 NOT SWAP1 PUSH1 0x3 SHL SHR NOT AND OR SWAP1 SSTORE PUSH2 0x1235 JUMP JUMPDEST POP ADD DUP3 MLOAD PUSH1 0x1 PUSH1 0x1 PUSH1 0x40 SHL SUB DUP2 GT PUSH2 0x955 JUMPI PUSH2 0x162B DUP3 SLOAD PUSH2 0x1285 JUMP JUMPDEST PUSH1 0x1F DUP2 GT PUSH2 0x16D1 JUMPI JUMPDEST POP PUSH1 0x20 PUSH1 0x1F DUP3 GT PUSH1 0x1 EQ PUSH2 0x166F JUMPI DUP2 SWAP3 SWAP4 SWAP5 PUSH1 0x0 SWAP3 PUSH2 0x1664 JUMPI JUMPDEST POP POP DUP2 PUSH1 0x1 SHL SWAP2 PUSH1 0x0 NOT SWAP1 PUSH1 0x3 SHL SHR NOT AND OR SWAP1 SSTORE JUMP JUMPDEST ADD MLOAD SWAP1 POP CODESIZE DUP1 PUSH2 0x164E JUMP JUMPDEST PUSH1 0x1F NOT DUP3 AND SWAP1 DUP4 PUSH1 0x0 MSTORE DUP1 PUSH1 0x0 KECCAK256 SWAP2 PUSH1 0x0 JUMPDEST DUP2 DUP2 LT PUSH2 0x16B9 JUMPI POP SWAP6 DUP4 PUSH1 0x1 SWAP6 SWAP7 SWAP8 LT PUSH2 0x16A0 JUMPI JUMPDEST POP POP POP DUP2 SHL ADD SWAP1 SSTORE JUMP JUMPDEST ADD MLOAD PUSH1 0x0 NOT PUSH1 0xF8 DUP5 PUSH1 0x3 SHL AND SHR NOT AND SWAP1 SSTORE CODESIZE DUP1 DUP1 PUSH2 0x1696 JUMP JUMPDEST SWAP2 SWAP3 PUSH1 0x20 PUSH1 0x1 DUP2 SWAP3 DUP7 DUP12 ADD MLOAD DUP2 SSTORE ADD SWAP5 ADD SWAP3 ADD PUSH2 0x1681 JUMP JUMPDEST DUP3 PUSH1 0x0 MSTORE PUSH1 0x20 PUSH1 0x0 KECCAK256 PUSH1 0x1F DUP4 ADD PUSH1 0x5 SHR DUP2 ADD SWAP2 PUSH1 0x20 DUP5 LT PUSH2 0x170F JUMPI JUMPDEST PUSH1 0x1F ADD PUSH1 0x5 SHR ADD SWAP1 JUMPDEST DUP2 DUP2 LT PUSH2 0x1703 JUMPI POP PUSH2 0x1634 JUMP JUMPDEST PUSH1 0x0 DUP2 SSTORE PUSH1 0x1 ADD PUSH2 0x16F6 JUMP JUMPDEST SWAP1 SWAP2 POP DUP2 SWAP1 PUSH2 0x16ED JUMP JUMPDEST ADD MLOAD SWAP1 POP CODESIZE DUP1 PUSH2 0x15F6 JUMP JUMPDEST SWAP1 PUSH1 0x1F NOT DUP4 AND SWAP2 DUP5 PUSH1 0x0 MSTORE DUP2 PUSH1 0x0 KECCAK256 SWAP3 PUSH1 0x0 JUMPDEST DUP2 DUP2 LT PUSH2 0x177A JUMPI POP SWAP3 PUSH1 0x1 SWAP3 DUP6 SWAP3 PUSH1 0xA SWAP9 SWAP7 PUSH2 0x160F SWAP9 SWAP7 LT PUSH2 0x1761 JUMPI JUMPDEST POP POP POP DUP2 SHL ADD SWAP1 SSTORE PUSH2 0x1235 JUMP JUMPDEST ADD MLOAD PUSH1 0x0 NOT PUSH1 0xF8 DUP5 PUSH1 0x3 SHL AND SHR NOT AND SWAP1 SSTORE CODESIZE DUP1 DUP1 PUSH2 0x1754 JUMP JUMPDEST SWAP3 SWAP4 PUSH1 0x20 PUSH1 0x1 DUP2 SWAP3 DUP8 DUP7 ADD MLOAD DUP2 SSTORE ADD SWAP6 ADD SWAP4 ADD PUSH2 0x1737 JUMP JUMPDEST DUP4 PUSH1 0x0 MSTORE PUSH1 0x20 PUSH1 0x0 KECCAK256 PUSH1 0x1F DUP5 ADD PUSH1 0x5 SHR DUP2 ADD SWAP2 PUSH1 0x20 DUP6 LT PUSH2 0x17D0 JUMPI JUMPDEST PUSH1 0x1F ADD PUSH1 0x5 SHR ADD SWAP1 JUMPDEST DUP2 DUP2 LT PUSH2 0x17C4 JUMPI POP PUSH2 0x15D4 JUMP JUMPDEST PUSH1 0x0 DUP2 SSTORE PUSH1 0x1 ADD PUSH2 0x17B7 JUMP JUMPDEST SWAP1 SWAP2 POP DUP2 SWAP1 PUSH2 0x17AE JUMP JUMPDEST PUSH1 0x40 MLOAD PUSH3 0x461BCD PUSH1 0xE5 SHL DUP2 MSTORE PUSH1 0x20 PUSH1 0x4 DUP3 ADD MSTORE PUSH1 0x12 PUSH1 0x24 DUP3 ADD MSTORE PUSH18 0x233AB73234B733903737BA103337BAB73217 PUSH1 0x71 SHL PUSH1 0x44 DUP3 ADD MSTORE PUSH1 0x64 SWAP1 REVERT JUMPDEST SWAP7 SWAP8 SWAP6 SWAP5 SWAP4 SWAP3 SWAP2 SWAP1 PUSH1 0x0 JUMPDEST PUSH1 0x0 SLOAD DUP2 LT ISZERO PUSH2 0x17DA JUMPI PUSH2 0x1832 DUP2 PUSH2 0x1235 JUMP JUMPDEST POP SLOAD PUSH1 0x80 SHL PUSH1 0x1 PUSH1 0x1 PUSH1 0x80 SHL SUB NOT DUP11 AND SWAP1 PUSH1 0x1 PUSH1 0x1 PUSH1 0x80 SHL SUB NOT AND EQ PUSH2 0x185A JUMPI PUSH1 0x1 ADD PUSH2 0x181F JUMP JUMPDEST SWAP7 SWAP8 POP PUSH2 0x187F SWAP1 PUSH1 0x4 PUSH2 0x186C DUP10 PUSH2 0x1235 JUMP JUMPDEST POP ADD SWAP1 PUSH1 0xFF DUP1 NOT DUP4 SLOAD AND SWAP2 ISZERO ISZERO AND OR SWAP1 SSTORE JUMP JUMPDEST PUSH1 0x5 PUSH2 0x188A DUP8 PUSH2 0x1235 JUMP JUMPDEST POP ADD SSTORE PUSH1 0x6 PUSH2 0x1898 DUP7 PUSH2 0x1235 JUMP JUMPDEST POP ADD SSTORE PUSH1 0x7 PUSH2 0x18A6 DUP6 PUSH2 0x1235 JUMP JUMPDEST POP ADD SSTORE PUSH1 0x8 PUSH2 0x18B4 DUP5 PUSH2 0x1235 JUMP JUMPDEST POP ADD SSTORE PUSH1 0x9 PUSH2 0x18C2 DUP4 PUSH2 0x1235 JUMP JUMPDEST POP ADD SWAP1 DUP1 MLOAD SWAP1 PUSH1 0x1 PUSH1 0x1 PUSH1 0x40 SHL SUB DUP3 GT PUSH2 0x955 JUMPI PUSH2 0x18E0 DUP4 SLOAD PUSH2 0x1285 JUMP JUMPDEST PUSH1 0x1F DUP2 GT PUSH2 0x1A5B JUMPI JUMPDEST POP PUSH1 0x20 SWAP1 PUSH1 0x1F DUP4 GT PUSH1 0x1 EQ PUSH2 0x1A07 JUMPI SWAP2 DUP1 PUSH2 0x1923 SWAP5 SWAP3 PUSH1 0xA SWAP7 SWAP5 PUSH1 0x0 SWAP3 PUSH2 0x1719 JUMPI POP POP DUP2 PUSH1 0x1 SHL SWAP2 PUSH1 0x0 NOT SWAP1 PUSH1 0x3 SHL SHR NOT AND OR SWAP1 SSTORE PUSH2 0x1235 JUMP JUMPDEST POP ADD DUP3 MLOAD PUSH1 0x1 PUSH1 0x1 PUSH1 0x40 SHL SUB DUP2 GT PUSH2 0x955 JUMPI PUSH2 0x193F DUP3 SLOAD PUSH2 0x1285 JUMP JUMPDEST PUSH1 0x1F DUP2 GT PUSH2 0x19BF JUMPI JUMPDEST POP PUSH1 0x20 PUSH1 0x1F DUP3 GT PUSH1 0x1 EQ PUSH2 0x1977 JUMPI DUP2 SWAP3 SWAP4 SWAP5 PUSH1 0x0 SWAP3 PUSH2 0x1664 JUMPI POP POP DUP2 PUSH1 0x1 SHL SWAP2 PUSH1 0x0 NOT SWAP1 PUSH1 0x3 SHL SHR NOT AND OR SWAP1 SSTORE JUMP JUMPDEST PUSH1 0x1F NOT DUP3 AND SWAP1 DUP4 PUSH1 0x0 MSTORE DUP1 PUSH1 0x0 KECCAK256 SWAP2 PUSH1 0x0 JUMPDEST DUP2 DUP2 LT PUSH2 0x19A7 JUMPI POP SWAP6 DUP4 PUSH1 0x1 SWAP6 SWAP7 SWAP8 LT PUSH2 0x16A0 JUMPI POP POP POP DUP2 SHL ADD SWAP1 SSTORE JUMP JUMPDEST SWAP2 SWAP3 PUSH1 0x20 PUSH1 0x1 DUP2 SWAP3 DUP7 DUP12 ADD MLOAD DUP2 SSTORE ADD SWAP5 ADD SWAP3 ADD PUSH2 0x1989 JUMP JUMPDEST DUP3 PUSH1 0x0 MSTORE PUSH1 0x20 PUSH1 0x0 KECCAK256 PUSH1 0x1F DUP4 ADD PUSH1 0x5 SHR DUP2 ADD SWAP2 PUSH1 0x20 DUP5 LT PUSH2 0x19FD JUMPI JUMPDEST PUSH1 0x1F ADD PUSH1 0x5 SHR ADD SWAP1 JUMPDEST DUP2 DUP2 LT PUSH2 0x19F1 JUMPI POP PUSH2 0x1948 JUMP JUMPDEST PUSH1 0x0 DUP2 SSTORE PUSH1 0x1 ADD PUSH2 0x19E4 JUMP JUMPDEST SWAP1 SWAP2 POP DUP2 SWAP1 PUSH2 0x19DB JUMP JUMPDEST SWAP1 PUSH1 0x1F NOT DUP4 AND SWAP2 DUP5 PUSH1 0x0 MSTORE DUP2 PUSH1 0x0 KECCAK256 SWAP3 PUSH1 0x0 JUMPDEST DUP2 DUP2 LT PUSH2 0x1A43 JUMPI POP SWAP3 PUSH1 0x1 SWAP3 DUP6 SWAP3 PUSH1 0xA SWAP9 SWAP7 PUSH2 0x1923 SWAP9 SWAP7 LT PUSH2 0x1761 JUMPI POP POP POP DUP2 SHL ADD SWAP1 SSTORE PUSH2 0x1235 JUMP JUMPDEST SWAP3 SWAP4 PUSH1 0x20 PUSH1 0x1 DUP2 SWAP3 DUP8 DUP7 ADD MLOAD DUP2 SSTORE ADD SWAP6 ADD SWAP4 ADD PUSH2 0x1A1A JUMP JUMPDEST DUP4 PUSH1 0x0 MSTORE PUSH1 0x20 PUSH1 0x0 KECCAK256 PUSH1 0x1F DUP5 ADD PUSH1 0x5 SHR DUP2 ADD SWAP2 PUSH1 0x20 DUP6 LT PUSH2 0x1A99 JUMPI JUMPDEST PUSH1 0x1F ADD PUSH1 0x5 SHR ADD SWAP1 JUMPDEST DUP2 DUP2 LT PUSH2 0x1A8D JUMPI POP PUSH2 0x18E9 JUMP JUMPDEST PUSH1 0x0 DUP2 SSTORE PUSH1 0x1 ADD PUSH2 0x1A80 JUMP JUMPDEST SWAP1 SWAP2 POP DUP2 SWAP1 PUSH2 0x1A77 JUMP INVALID LOG2 PUSH5 0x6970667358 0x22 SLT KECCAK256 NUMBER 0xD8 ADD GAS PUSH17 0xB152A6BA53097784BD0F429195D58934E6 PUSH20 0x25C6D4F2B3E43ABF9364736F6C634300081C0033 "},"methodIdentifiers":{"addFunding(bytes16,bytes16,bytes16,bytes16,bytes16,string,bool,uint256,uint256,uint256,uint256,string,string)":"311ac2f7","getAllFundings()":"72a3143c","getAllInactiveFundings()":"7fa0c10a","getFundingByStudentId(bytes16)":"0a029cc3","getInactiveFundingsByStudentId(bytes16)":"11291839","updateFunding(bytes16,bool,uint256,uint256,uint256,uint256,string,string)":"9dce94c5","updateFundingDataConfirmedById(bytes16,bytes16,string,string)":"81e05f5f"}}}}}