{"contracts/Users.sol":{"Users":{"abi":[{"inputs":[{"internalType":"bytes16","name":"_id","type":"bytes16"},{"internalType":"bytes16","name":"_institutionId","type":"bytes16"},{"internalType":"bytes16","name":"_funderContractId","type":"bytes16"},{"internalType":"bytes16","name":"_bankAccountId","type":"bytes16"},{"internalType":"string","name":"_studentNumber","type":"string"},{"internalType":"string","name":"_name","type":"string"},{"internalType":"string","name":"_email","type":"string"},{"internalType":"bool","name":"_isActive","type":"bool"},{"internalType":"bool","name":"_isChangeConfirmed","type":"bool"},{"internalType":"string","name":"_modifiedBy","type":"string"},{"internalType":"string","name":"_updatedAt","type":"string"},{"internalType":"string","name":"_courseName","type":"string"},{"internalType":"string","name":"_role","type":"string"}],"name":"addUser","outputs":[],"stateMutability":"nonpayable","type":"function"},{"inputs":[],"name":"getAllUsers","outputs":[{"internalType":"bytes16[]","name":"ids","type":"bytes16[]"},{"internalType":"bytes16[]","name":"institutionIds","type":"bytes16[]"},{"internalType":"bytes16[]","name":"funderContractIds","type":"bytes16[]"},{"internalType":"bytes16[]","name":"bankAccountIds","type":"bytes16[]"},{"internalType":"string[]","name":"studentNumbers","type":"string[]"},{"internalType":"string[]","name":"names","type":"string[]"},{"internalType":"string[]","name":"emails","type":"string[]"},{"internalType":"bool[]","name":"isActives","type":"bool[]"},{"internalType":"bool[]","name":"isChangeConfirmeds","type":"bool[]"},{"internalType":"string[]","name":"modifiedBys","type":"string[]"},{"internalType":"string[]","name":"updatedAts","type":"string[]"},{"internalType":"string[]","name":"courseNames","type":"string[]"},{"internalType":"string[]","name":"roles","type":"string[]"}],"stateMutability":"view","type":"function"},{"inputs":[{"internalType":"string","name":"_name","type":"string"}],"name":"getUserByName","outputs":[{"internalType":"bytes16","name":"id","type":"bytes16"},{"internalType":"bytes16","name":"institutionId","type":"bytes16"},{"internalType":"bytes16","name":"funderContractId","type":"bytes16"},{"internalType":"bytes16","name":"bankAccountId","type":"bytes16"},{"internalType":"string","name":"studentNumber","type":"string"},{"internalType":"string","name":"name","type":"string"},{"internalType":"string","name":"email","type":"string"},{"internalType":"bool","name":"isActive","type":"bool"},{"internalType":"bool","name":"isChangeConfirmed","type":"bool"},{"internalType":"string","name":"modifiedBy","type":"string"},{"internalType":"string","name":"updatedAt","type":"string"},{"internalType":"string","name":"courseName","type":"string"},{"internalType":"string","name":"role","type":"string"}],"stateMutability":"view","type":"function"},{"inputs":[{"internalType":"string","name":"_studentNumber","type":"string"}],"name":"getUserByStudentNumber","outputs":[{"internalType":"bytes16","name":"id","type":"bytes16"},{"internalType":"bytes16","name":"institutionId","type":"bytes16"},{"internalType":"bytes16","name":"funderContractId","type":"bytes16"},{"internalType":"bytes16","name":"bankAccountId","type":"bytes16"},{"internalType":"string","name":"studentNumber","type":"string"},{"internalType":"string","name":"name","type":"string"},{"internalType":"string","name":"email","type":"string"},{"internalType":"bool","name":"isActive","type":"bool"},{"internalType":"bool","name":"isChangeConfirmed","type":"bool"},{"internalType":"string","name":"modifiedBy","type":"string"},{"internalType":"string","name":"updatedAt","type":"string"},{"internalType":"string","name":"courseName","type":"string"},{"internalType":"string","name":"role","type":"string"}],"stateMutability":"view","type":"function"},{"inputs":[{"internalType":"bytes16","name":"_id","type":"bytes16"},{"internalType":"bytes16","name":"_institutionId","type":"bytes16"},{"internalType":"bytes16","name":"_funderContractId","type":"bytes16"},{"internalType":"bytes16","name":"_bankAccountId","type":"bytes16"},{"internalType":"string","name":"_studentNumber","type":"string"},{"internalType":"string","name":"_name","type":"string"},{"internalType":"string","name":"_email","type":"string"},{"internalType":"bool","name":"_isActive","type":"bool"},{"internalType":"bool","name":"_isChangeConfirmed","type":"bool"},{"internalType":"string","name":"_modifiedBy","type":"string"},{"internalType":"string","name":"_updatedAt","type":"string"},{"internalType":"string","name":"_courseName","type":"string"},{"internalType":"string","name":"_role","type":"string"}],"name":"updateUser","outputs":[],"stateMutability":"nonpayable","type":"function"},{"inputs":[{"internalType":"string","name":"_studentNumber","type":"string"},{"internalType":"bytes16","name":"_institutionId","type":"bytes16"},{"internalType":"bytes16","name":"_funderContractId","type":"bytes16"},{"internalType":"bytes16","name":"_bankAccountId","type":"bytes16"},{"internalType":"string","name":"_name","type":"string"},{"internalType":"bool","name":"_isActive","type":"bool"},{"internalType":"string","name":"_modifiedBy","type":"string"},{"internalType":"string","name":"_updatedAt","type":"string"},{"internalType":"string","name":"_courseName","type":"string"},{"internalType":"string","name":"_role","type":"string"}],"name":"updateUserByStudentNumber","outputs":[],"stateMutability":"nonpayable","type":"function"}],"evm":{"bytecode":{"linkReferences":{},"object":"60808060405234601557612712908161001b8239f35b600080fdfe610200604052600436101561001357600080fd5b60003560e01c80631c7b327014610fb55780634bff500914610f5e57806353dc393b14610e3a578063dc4db42a14610473578063e2842d791461008c5763eb6f9c3e1461005f57600080fd5b34610087576100856100703661118a565b9b9a909a999199989298979397969496611e58565b005b600080fd5b34610087576000366003190112610087576000546100a981611dc8565b6100b282611dc8565b6101e0526100bf82611dc8565b916100c981611dc8565b906100d381611dfa565b60e0526100df81611dfa565b610100526100ec81611dfa565b610140526100f981611dc8565b6101805261010681611dc8565b6101605261011381611dfa565b6101a05261012081611dfa565b6101c05261012d81611dfa565b6101205261013a81611dfa565b60c052600060a0525b8060a0511061026b57506040519283926101a084526101a08401610166916112e2565b83810360208501526101e0519061017c916112e2565b838103604085015261018d916112e2565b828103606084015261019e916112e2565b818103608083015260e051906101b391611320565b81810360a083015261010051906101c991611320565b81810360c083015261014051906101df91611320565b81810360e083015261018051906101f591611379565b818103610100830152610160519061020c91611379565b8181036101208301526101a0519061022391611320565b8181036101408301526101c0519061023a91611320565b818103610160830152610120519061025191611320565b81810361018083015260c0519061026791611320565b0390f35b61027660a0516113af565b90608052506080515461028b60a05185611e44565b6001600160801b03198260801b1690526001600160801b0319166102b460a0516101e051611e44565b52600160805101546102c860a05186611e44565b6001600160801b03198260801b1690526001600160801b0319166102ee60a05184611e44565b526102fd6002608051016114a7565b61030b60a05160e051611e44565b5261031a60a05160e051611e44565b506103296003608051016114a7565b61033860a05161010051611e44565b5261034860a05161010051611e44565b506103576004608051016114a7565b61036660a05161014051611e44565b5261037660a05161014051611e44565b506005608051015461038d60a05161018051611e44565b60ff82161515905260ff6103a660a05161016051611e44565b9160081c16151590526103bd6006608051016114a7565b6103cc60a0516101a051611e44565b526103dc60a0516101a051611e44565b506103eb6007608051016114a7565b6103fa60a0516101c051611e44565b5261040a60a0516101c051611e44565b506104196008608051016114a7565b61042860a05161012051611e44565b5261043860a05161012051611e44565b506104476009608051016114a7565b61045560a05160c051611e44565b5261046460a05160c051611e44565b50600160a0510160a052610143565b34610087576104813661118a565b9b6001600160801b039b9a91999b9892989793979694959619169a8b6000526001602052604060002054610dbd576040519a6101a08c018c81106001600160401b03821117610907576040528c8c5260208c01906001600160801b031916815260408c01926001600160801b031916835260608c01916001600160801b031916825260808c0193845260a08c0194855260c08c0195865260e08c0197151588526101008c0196151587526101208c019889526101408c01998a526101608c019a8b526101808c019d8e52600054680100000000000000008110156109075780600161056f92016000556113af565b9c909c610da7575190516001600160801b0319908116608092831c178d5592519151909216911c1760018a015551805160028a01916001600160401b0382116109075781906105be84546113ff565b601f8111610d54575b50602090601f8311600114610cef57600092610ce4575b50508160011b916000199060031b1c19161790555b51805160038901916001600160401b03821161090757819061061584546113ff565b601f8111610c91575b50602090601f8311600114610c2c57600092610c21575b50508160011b916000199060031b1c19161790555b51805160048801916001600160401b0382116109075761066a83546113ff565b601f8111610bd9575b50602090601f8311600114610b6c576106dc959493929160009183610b61575b50508160011b916000199060031b1c19161790555b6106c56005880192511515839060ff801983541691151516179055565b51815461ff00191690151560081b61ff0016179055565b51805160068501916001600160401b0382116109075781906106fe84546113ff565b601f8111610b0e575b50602090601f8311600114610aa957600092610a9e575b50508160011b916000199060031b1c19161790555b51805160078401916001600160401b03821161090757819061075584546113ff565b601f8111610a4b575b50602090601f83116001146109e6576000926109db575b50508160011b916000199060031b1c19161790555b51805160088301916001600160401b038211610907576107aa83546113ff565b601f8111610993575b50602090601f8311600114610928576009949392916000918361091d575b50508160011b916000199060031b1c19161790555b0191519182516001600160401b0381116109075761080482546113ff565b601f81116108bf575b506020601f821160011461085a578192939460009261084f575b50508160011b916000199060031b1c19161790555b6000805491815260016020526040902055005b015190508480610827565b601f1982169083600052806000209160005b8181106108a75750958360019596971061088e575b505050811b01905561083c565b015160001960f88460031b161c19169055848080610881565b9192602060018192868b01518155019401920161086c565b826000526020600020601f830160051c810191602084106108fd575b601f0160051c01905b8181106108f1575061080d565b600081556001016108e4565b90915081906108db565b634e487b7160e01b600052604160045260246000fd5b0151905087806107d1565b90601f1983169184600052816000209260005b81811061097b575091600193918560099897969410610962575b505050811b0190556107e6565b015160001960f88460031b161c19169055878080610955565b9293602060018192878601518155019501930161093b565b836000526020600020601f840160051c810191602085106109d1575b601f0160051c01905b8181106109c557506107b3565b600081556001016109b8565b90915081906109af565b015190508780610775565b60008581528281209350601f198516905b818110610a335750908460019594939210610a1a575b505050811b01905561078a565b015160001960f88460031b161c19169055878080610a0d565b929360206001819287860151815501950193016109f7565b909150836000526020600020601f840160051c81019160208510610a94575b90601f859493920160051c01905b818110610a85575061075e565b60008155849350600101610a78565b9091508190610a6a565b01519050888061071e565b60008581528281209350601f198516905b818110610af65750908460019594939210610add575b505050811b019055610733565b015160001960f88460031b161c19169055888080610ad0565b92936020600181928786015181550195019301610aba565b909150836000526020600020601f840160051c81019160208510610b57575b90601f859493920160051c01905b818110610b485750610707565b60008155849350600101610b3b565b9091508190610b2d565b015190508c80610693565b90601f1983169184600052816000209260005b818110610bc157509160019391856106dc999897969410610ba8575b505050811b0190556106a8565b015160001960f88460031b161c191690558c8080610b9b565b92936020600181928786015181550195019301610b7f565b836000526020600020601f840160051c81019160208510610c17575b601f0160051c01905b818110610c0b5750610673565b60008155600101610bfe565b9091508190610bf5565b015190508c80610635565b60008581528281209350601f198516905b818110610c795750908460019594939210610c60575b505050811b01905561064a565b015160001960f88460031b161c191690558c8080610c53565b92936020600181928786015181550195019301610c3d565b909150836000526020600020601f840160051c81019160208510610cda575b90601f859493920160051c01905b818110610ccb575061061e565b60008155849350600101610cbe565b9091508190610cb0565b015190508d806105de565b60008581528281209350601f198516905b818110610d3c5750908460019594939210610d23575b505050811b0190556105f3565b015160001960f88460031b161c191690558d8080610d16565b92936020600181928786015181550195019301610d00565b909150836000526020600020601f840160051c81019160208510610d9d575b90601f859493920160051c01905b818110610d8e57506105c7565b60008155849350600101610d81565b9091508190610d73565b634e487b7160e01b600052600060045260246000fd5b60405162461bcd60e51b815260206004820152604960248201527f436f6e666c696374204572726f7220284854545020343039292e20557365722060448201527f616c7265616479206578697374732e20506c6561736520636865636b20746865606482015268103ab9b2b91024a21760b91b608482015260a490fd5b3461008757610140366003190112610087576004356001600160401b03811161008757610e6b903690600401611011565b602435906001600160801b031982168203610087576044356001600160801b031981168103610087576064356001600160801b031981168103610087576084356001600160401b03811161008757610ec7903690600401611011565b60a43580151581036100875760c4356001600160401b03811161008757610ef2903690600401611011565b9160e4356001600160401b03811161008757610f12903690600401611011565b93610104356001600160401b03811161008757610f33903690600401611011565b9561012435986001600160401b038a1161008757610f586100859a3690600401611011565b9861171c565b34610087576020366003190112610087576004356001600160401b03811161008757610f99610f94610267923690600401611011565b6116b4565b9960409d9b9d999199989298979397969496519d8e9d8e6110af565b34610087576020366003190112610087576004356001600160401b03811161008757610f99610feb610267923690600401611011565b611575565b90601f801991011681019081106001600160401b0382111761090757604052565b81601f82011215610087578035906001600160401b0382116109075760405192611045601f8401601f191660200185610ff0565b8284526020838301011161008757816000926020809301838601378301015290565b60005b83811061107a5750506000910152565b818101518382015260200161106a565b906020916110a381518092818552858086019101611067565b601f01601f1916010190565b9b98928c61115a976111879f9d99936111699b986111789e9861112e9561113c98611120946001600160801b03191687526001600160801b03191660208701526001600160801b03191660408601526001600160801b03191660608501526101a060808501526101a084019061108a565b9160a081840391015261108a565b8c810360c08e01529061108a565b92151560e08b015215156101008a01528882036101208a015261108a565b9086820361014088015261108a565b9084820361016086015261108a565b9161018081840391015261108a565b90565b6101a0600319820112610087576004356001600160801b03198116810361008757916024356001600160801b03198116810361008757916044356001600160801b03198116810361008757916064356001600160801b03198116810361008757916084356001600160401b038111610087578161120991600401611011565b9160a4356001600160401b038111610087578261122891600401611011565b9160c4356001600160401b038111610087578161124791600401611011565b9160e435801515810361008757916101043580151581036100875791610124356001600160401b038111610087578261128291600401611011565b91610144356001600160401b03811161008757816112a291600401611011565b91610164356001600160401b03811161008757826112c291600401611011565b9161018435906001600160401b0382116100875761118791600401611011565b906020808351928381520192019060005b8181106113005750505090565b82516001600160801b0319168452602093840193909201916001016112f3565b9080602083519182815201916020808360051b8301019401926000915b83831061134c57505050505090565b909192939460208061136a600193601f19868203018752895161108a565b9701930193019193929061133d565b906020808351928381520192019060005b8181106113975750505090565b8251151584526020938401939092019160010161138a565b6000548110156113e9576000808052600a919091027f290decd9548b62a8d60345a988386fc84ba6bc95484008f6362f93160ef3e5630191565b634e487b7160e01b600052603260045260246000fd5b90600182811c9216801561142f575b602083101461141957565b634e487b7160e01b600052602260045260246000fd5b91607f169161140e565b60009291815491611449836113ff565b9260018116908115611494575060011461146257505050565b909192935060005260206000206000905b8382106114805750500190565b600181602092548486015201910190611473565b60ff191683525050811515909102019150565b90604051918260008254926114bb846113ff565b808452936001811690811561152957506001146114e2575b506114e092500383610ff0565b565b90506000929192526020600020906000915b81831061150d5750509060206114e092820101386114d3565b60209193508060019154838589010152019101909184926114f4565b9050602092506114e094915060ff191682840152151560051b820101386114d3565b60609060208152600f60208201526e2ab9b2b9103737ba103337bab7321760891b60408201520190565b6000908154915b8281106115a05760405162461bcd60e51b81528061159c6004820161154b565b0390fd5b60026115c56115d36115b1846113af565b506040519283916020830195869101611439565b03601f198101835282610ff0565b519020604051602081019061160460208287516115f38187858c01611067565b81010301601f198101835282610ff0565b519020146116145760010161157c565b905061162091506113af565b509081549160018101549060058101548460801b946001600160801b031916938360801b936001600160801b0319169261165c600282016114a7565b92611669600383016114a7565b92611676600484016114a7565b9260ff8084169360081c169161168e600683016114a7565b9161169b600782016114a7565b9161118760096116ad600885016114a7565b93016114a7565b6000908154915b8281106116db5760405162461bcd60e51b81528061159c6004820161154b565b60036115c56116ec6115b1846113af565b519020604051602081019061170c60208287516115f38187858c01611067565b51902014611614576001016116bb565b9899979695949392919060005b600054811015611d985760026115c56117446115b1846113af565b5190208b604051611765602082816115f38183019687815193849201611067565b5190201461177557600101611729565b989950611781896113af565b50906001600160801b03825491811916911617905560016117a1896113af565b50019060801c6001600160801b031982541617905560016117c1886113af565b5001906001600160801b03825491811916911617905560036117e2876113af565b5001908051906001600160401b0382116109075761180083546113ff565b601f8111611d50575b50602090601f8311600114611ce45761185b9493929160009183611cd9575b50508160011b916000199060031b1c19161790555b6005611848876113af565b50019060ff801983541691151516179055565b6006611866856113af565b5001908051906001600160401b03821161090757819061188684546113ff565b601f8111611c86575b50602090601f8311600114611c2157600092611c16575b50508160011b916000199060031b1c19161790555b60076118c6846113af565b5001908051906001600160401b0382116109075781906118e684546113ff565b601f8111611bc3575b50602090601f8311600114611b5e57600092611b53575b50508160011b916000199060031b1c19161790555b6008611926836113af565b5001908051906001600160401b0382116109075761194483546113ff565b601f8111611b0b575b50602090601f8311600114611a9d579180611988949260099694600092611a92575b50508160011b916000199060031b1c19161790556113af565b500182516001600160401b038111610907576119a482546113ff565b601f8111611a4a575b506020601f82116001146119e857819293946000926119dd575b50508160011b916000199060031b1c1916179055565b0151905038806119c7565b601f1982169083600052806000209160005b818110611a3257509583600195969710611a19575b505050811b019055565b015160001960f88460031b161c19169055388080611a0f565b9192602060018192868b0151815501940192016119fa565b826000526020600020601f830160051c81019160208410611a88575b601f0160051c01905b818110611a7c57506119ad565b60008155600101611a6f565b9091508190611a66565b01519050388061196f565b90601f1983169184600052816000209260005b818110611af3575092600192859260099896611988989610611ada575b505050811b0190556113af565b015160001960f88460031b161c19169055388080611acd565b92936020600181928786015181550195019301611ab0565b836000526020600020601f840160051c81019160208510611b49575b601f0160051c01905b818110611b3d575061194d565b60008155600101611b30565b9091508190611b27565b015190503880611906565b60008581528281209350601f198516905b818110611bab5750908460019594939210611b92575b505050811b01905561191b565b015160001960f88460031b161c19169055388080611b85565b92936020600181928786015181550195019301611b6f565b909150836000526020600020601f840160051c81019160208510611c0c575b90601f859493920160051c01905b818110611bfd57506118ef565b60008155849350600101611bf0565b9091508190611be2565b0151905038806118a6565b60008581528281209350601f198516905b818110611c6e5750908460019594939210611c55575b505050811b0190556118bb565b015160001960f88460031b161c19169055388080611c48565b92936020600181928786015181550195019301611c32565b909150836000526020600020601f840160051c81019160208510611ccf575b90601f859493920160051c01905b818110611cc0575061188f565b60008155849350600101611cb3565b9091508190611ca5565b015190503880611828565b90601f1983169184600052816000209260005b818110611d38575091600193918561185b9897969410611d1f575b505050811b01905561183d565b015160001960f88460031b161c19169055388080611d12565b92936020600181928786015181550195019301611cf7565b836000526020600020601f840160051c81019160208510611d8e575b601f0160051c01905b818110611d825750611809565b60008155600101611d75565b9091508190611d6c565b60405162461bcd60e51b81528061159c6004820161154b565b6001600160401b0381116109075760051b60200190565b90611dd282611db1565b611ddf6040519182610ff0565b8281528092611df0601f1991611db1565b0190602036910137565b90611e0482611db1565b611e116040519182610ff0565b8281528092611e22601f1991611db1565b019060005b828110611e3357505050565b806060602080938501015201611e27565b80518210156113e95760209160051b010190565b9b9c9a9998979695949392919060005b600054811015611d98578d611e7c826113af565b505460801b906001600160801b031916906001600160801b03191614611ea457600101611e68565b9b9c50611eb08c6113af565b50906001600160801b0382549181191691161790556001611ed08c6113af565b50019060801c6001600160801b03198254161790556001611ef08b6113af565b5001906001600160801b0382549181191691161790556002611f118a6113af565b5001908051906001600160401b038211610907578190611f3184546113ff565b601f8111612689575b50602090601f831160011461262457600092612619575b50508160011b916000199060031b1c19161790555b6003611f71896113af565b5001908051906001600160401b038211610907578190611f9184546113ff565b601f81116125c6575b50602090601f831160011461256157600092612556575b50508160011b916000199060031b1c19161790555b6004611fd1886113af565b5001908051906001600160401b03821161090757611fef83546113ff565b601f811161250e575b50602090601f831160011461249e57918061203c9492612061979694600092612493575b50508160011b916000199060031b1c19161790555b6005611848896113af565b6005612047876113af565b50019061ff00825491151560081b169061ff001916179055565b600661206c856113af565b5001908051906001600160401b03821161090757819061208c84546113ff565b601f8111612440575b50602090601f83116001146123db576000926123d0575b50508160011b916000199060031b1c19161790555b60076120cc846113af565b5001908051906001600160401b0382116109075781906120ec84546113ff565b601f811161237d575b50602090601f83116001146123185760009261230d575b50508160011b916000199060031b1c19161790555b600861212c836113af565b5001908051906001600160401b0382116109075761214a83546113ff565b601f81116122c5575b50602090601f831160011461227157918061218d949260099694600092611a925750508160011b916000199060031b1c19161790556113af565b500182516001600160401b038111610907576121a982546113ff565b601f8111612229575b506020601f82116001146121e157819293946000926119dd5750508160011b916000199060031b1c1916179055565b601f1982169083600052806000209160005b81811061221157509583600195969710611a1957505050811b019055565b9192602060018192868b0151815501940192016121f3565b826000526020600020601f830160051c81019160208410612267575b601f0160051c01905b81811061225b57506121b2565b6000815560010161224e565b9091508190612245565b90601f1983169184600052816000209260005b8181106122ad57509260019285926009989661218d989610611ada57505050811b0190556113af565b92936020600181928786015181550195019301612284565b836000526020600020601f840160051c81019160208510612303575b601f0160051c01905b8181106122f75750612153565b600081556001016122ea565b90915081906122e1565b01519050388061210c565b60008581528281209350601f198516905b818110612365575090846001959493921061234c575b505050811b019055612121565b015160001960f88460031b161c1916905538808061233f565b92936020600181928786015181550195019301612329565b909150836000526020600020601f840160051c810191602085106123c6575b90601f859493920160051c01905b8181106123b757506120f5565b600081558493506001016123aa565b909150819061239c565b0151905038806120ac565b60008581528281209350601f198516905b818110612428575090846001959493921061240f575b505050811b0190556120c1565b015160001960f88460031b161c19169055388080612402565b929360206001819287860151815501950193016123ec565b909150836000526020600020601f840160051c81019160208510612489575b90601f859493920160051c01905b81811061247a5750612095565b6000815584935060010161246d565b909150819061245f565b01519050388061201c565b90601f1983169184600052816000209260005b8181106124f6575092600192859261206199989661203c9896106124dd575b505050811b019055612031565b015160001960f88460031b161c191690553880806124d0565b929360206001819287860151815501950193016124b1565b836000526020600020601f840160051c8101916020851061254c575b601f0160051c01905b8181106125405750611ff8565b60008155600101612533565b909150819061252a565b015190503880611fb1565b60008581528281209350601f198516905b8181106125ae5750908460019594939210612595575b505050811b019055611fc6565b015160001960f88460031b161c19169055388080612588565b92936020600181928786015181550195019301612572565b909150836000526020600020601f840160051c8101916020851061260f575b90601f859493920160051c01905b8181106126005750611f9a565b600081558493506001016125f3565b90915081906125e5565b015190503880611f51565b60008581528281209350601f198516905b8181106126715750908460019594939210612658575b505050811b019055611f66565b015160001960f88460031b161c1916905538808061264b565b92936020600181928786015181550195019301612635565b909150836000526020600020601f840160051c810191602085106126d2575b90601f859493920160051c01905b8181106126c35750611f3a565b600081558493506001016126b6565b90915081906126a856fea26469706673582212209551ba7b2204816ffaec42f515245ed3bc79bfc3f23081d6076a0ec10fe4f63b64736f6c634300081c0033","opcodes":"PUSH1 0x80 DUP1 PUSH1 0x40 MSTORE CALLVALUE PUSH1 0x15 JUMPI PUSH2 0x2712 SWAP1 DUP2 PUSH2 0x1B DUP3 CODECOPY RETURN JUMPDEST PUSH1 0x0 DUP1 REVERT INVALID PUSH2 0x200 PUSH1 0x40 MSTORE PUSH1 0x4 CALLDATASIZE LT ISZERO PUSH2 0x13 JUMPI PUSH1 0x0 DUP1 REVERT JUMPDEST PUSH1 0x0 CALLDATALOAD PUSH1 0xE0 SHR DUP1 PUSH4 0x1C7B3270 EQ PUSH2 0xFB5 JUMPI DUP1 PUSH4 0x4BFF5009 EQ PUSH2 0xF5E JUMPI DUP1 PUSH4 0x53DC393B EQ PUSH2 0xE3A JUMPI DUP1 PUSH4 0xDC4DB42A EQ PUSH2 0x473 JUMPI DUP1 PUSH4 0xE2842D79 EQ PUSH2 0x8C JUMPI PUSH4 0xEB6F9C3E EQ PUSH2 0x5F JUMPI PUSH1 0x0 DUP1 REVERT JUMPDEST CALLVALUE PUSH2 0x87 JUMPI PUSH2 0x85 PUSH2 0x70 CALLDATASIZE PUSH2 0x118A JUMP JUMPDEST SWAP12 SWAP11 SWAP1 SWAP11 SWAP10 SWAP2 SWAP10 SWAP9 SWAP3 SWAP9 SWAP8 SWAP4 SWAP8 SWAP7 SWAP5 SWAP7 PUSH2 0x1E58 JUMP JUMPDEST STOP JUMPDEST PUSH1 0x0 DUP1 REVERT JUMPDEST CALLVALUE PUSH2 0x87 JUMPI PUSH1 0x0 CALLDATASIZE PUSH1 0x3 NOT ADD SLT PUSH2 0x87 JUMPI PUSH1 0x0 SLOAD PUSH2 0xA9 DUP2 PUSH2 0x1DC8 JUMP JUMPDEST PUSH2 0xB2 DUP3 PUSH2 0x1DC8 JUMP JUMPDEST PUSH2 0x1E0 MSTORE PUSH2 0xBF DUP3 PUSH2 0x1DC8 JUMP JUMPDEST SWAP2 PUSH2 0xC9 DUP2 PUSH2 0x1DC8 JUMP JUMPDEST SWAP1 PUSH2 0xD3 DUP2 PUSH2 0x1DFA JUMP JUMPDEST PUSH1 0xE0 MSTORE PUSH2 0xDF DUP2 PUSH2 0x1DFA JUMP JUMPDEST PUSH2 0x100 MSTORE PUSH2 0xEC DUP2 PUSH2 0x1DFA JUMP JUMPDEST PUSH2 0x140 MSTORE PUSH2 0xF9 DUP2 PUSH2 0x1DC8 JUMP JUMPDEST PUSH2 0x180 MSTORE PUSH2 0x106 DUP2 PUSH2 0x1DC8 JUMP JUMPDEST PUSH2 0x160 MSTORE PUSH2 0x113 DUP2 PUSH2 0x1DFA JUMP JUMPDEST PUSH2 0x1A0 MSTORE PUSH2 0x120 DUP2 PUSH2 0x1DFA JUMP JUMPDEST PUSH2 0x1C0 MSTORE PUSH2 0x12D DUP2 PUSH2 0x1DFA JUMP JUMPDEST PUSH2 0x120 MSTORE PUSH2 0x13A DUP2 PUSH2 0x1DFA JUMP JUMPDEST PUSH1 0xC0 MSTORE PUSH1 0x0 PUSH1 0xA0 MSTORE JUMPDEST DUP1 PUSH1 0xA0 MLOAD LT PUSH2 0x26B JUMPI POP PUSH1 0x40 MLOAD SWAP3 DUP4 SWAP3 PUSH2 0x1A0 DUP5 MSTORE PUSH2 0x1A0 DUP5 ADD PUSH2 0x166 SWAP2 PUSH2 0x12E2 JUMP JUMPDEST DUP4 DUP2 SUB PUSH1 0x20 DUP6 ADD MSTORE PUSH2 0x1E0 MLOAD SWAP1 PUSH2 0x17C SWAP2 PUSH2 0x12E2 JUMP JUMPDEST DUP4 DUP2 SUB PUSH1 0x40 DUP6 ADD MSTORE PUSH2 0x18D SWAP2 PUSH2 0x12E2 JUMP JUMPDEST DUP3 DUP2 SUB PUSH1 0x60 DUP5 ADD MSTORE PUSH2 0x19E SWAP2 PUSH2 0x12E2 JUMP JUMPDEST DUP2 DUP2 SUB PUSH1 0x80 DUP4 ADD MSTORE PUSH1 0xE0 MLOAD SWAP1 PUSH2 0x1B3 SWAP2 PUSH2 0x1320 JUMP JUMPDEST DUP2 DUP2 SUB PUSH1 0xA0 DUP4 ADD MSTORE PUSH2 0x100 MLOAD SWAP1 PUSH2 0x1C9 SWAP2 PUSH2 0x1320 JUMP JUMPDEST DUP2 DUP2 SUB PUSH1 0xC0 DUP4 ADD MSTORE PUSH2 0x140 MLOAD SWAP1 PUSH2 0x1DF SWAP2 PUSH2 0x1320 JUMP JUMPDEST DUP2 DUP2 SUB PUSH1 0xE0 DUP4 ADD MSTORE PUSH2 0x180 MLOAD SWAP1 PUSH2 0x1F5 SWAP2 PUSH2 0x1379 JUMP JUMPDEST DUP2 DUP2 SUB PUSH2 0x100 DUP4 ADD MSTORE PUSH2 0x160 MLOAD SWAP1 PUSH2 0x20C SWAP2 PUSH2 0x1379 JUMP JUMPDEST DUP2 DUP2 SUB PUSH2 0x120 DUP4 ADD MSTORE PUSH2 0x1A0 MLOAD SWAP1 PUSH2 0x223 SWAP2 PUSH2 0x1320 JUMP JUMPDEST DUP2 DUP2 SUB PUSH2 0x140 DUP4 ADD MSTORE PUSH2 0x1C0 MLOAD SWAP1 PUSH2 0x23A SWAP2 PUSH2 0x1320 JUMP JUMPDEST DUP2 DUP2 SUB PUSH2 0x160 DUP4 ADD MSTORE PUSH2 0x120 MLOAD SWAP1 PUSH2 0x251 SWAP2 PUSH2 0x1320 JUMP JUMPDEST DUP2 DUP2 SUB PUSH2 0x180 DUP4 ADD MSTORE PUSH1 0xC0 MLOAD SWAP1 PUSH2 0x267 SWAP2 PUSH2 0x1320 JUMP JUMPDEST SUB SWAP1 RETURN JUMPDEST PUSH2 0x276 PUSH1 0xA0 MLOAD PUSH2 0x13AF JUMP JUMPDEST SWAP1 PUSH1 0x80 MSTORE POP PUSH1 0x80 MLOAD SLOAD PUSH2 0x28B PUSH1 0xA0 MLOAD DUP6 PUSH2 0x1E44 JUMP JUMPDEST PUSH1 0x1 PUSH1 0x1 PUSH1 0x80 SHL SUB NOT DUP3 PUSH1 0x80 SHL AND SWAP1 MSTORE PUSH1 0x1 PUSH1 0x1 PUSH1 0x80 SHL SUB NOT AND PUSH2 0x2B4 PUSH1 0xA0 MLOAD PUSH2 0x1E0 MLOAD PUSH2 0x1E44 JUMP JUMPDEST MSTORE PUSH1 0x1 PUSH1 0x80 MLOAD ADD SLOAD PUSH2 0x2C8 PUSH1 0xA0 MLOAD DUP7 PUSH2 0x1E44 JUMP JUMPDEST PUSH1 0x1 PUSH1 0x1 PUSH1 0x80 SHL SUB NOT DUP3 PUSH1 0x80 SHL AND SWAP1 MSTORE PUSH1 0x1 PUSH1 0x1 PUSH1 0x80 SHL SUB NOT AND PUSH2 0x2EE PUSH1 0xA0 MLOAD DUP5 PUSH2 0x1E44 JUMP JUMPDEST MSTORE PUSH2 0x2FD PUSH1 0x2 PUSH1 0x80 MLOAD ADD PUSH2 0x14A7 JUMP JUMPDEST PUSH2 0x30B PUSH1 0xA0 MLOAD PUSH1 0xE0 MLOAD PUSH2 0x1E44 JUMP JUMPDEST MSTORE PUSH2 0x31A PUSH1 0xA0 MLOAD PUSH1 0xE0 MLOAD PUSH2 0x1E44 JUMP JUMPDEST POP PUSH2 0x329 PUSH1 0x3 PUSH1 0x80 MLOAD ADD PUSH2 0x14A7 JUMP JUMPDEST PUSH2 0x338 PUSH1 0xA0 MLOAD PUSH2 0x100 MLOAD PUSH2 0x1E44 JUMP JUMPDEST MSTORE PUSH2 0x348 PUSH1 0xA0 MLOAD PUSH2 0x100 MLOAD PUSH2 0x1E44 JUMP JUMPDEST POP PUSH2 0x357 PUSH1 0x4 PUSH1 0x80 MLOAD ADD PUSH2 0x14A7 JUMP JUMPDEST PUSH2 0x366 PUSH1 0xA0 MLOAD PUSH2 0x140 MLOAD PUSH2 0x1E44 JUMP JUMPDEST MSTORE PUSH2 0x376 PUSH1 0xA0 MLOAD PUSH2 0x140 MLOAD PUSH2 0x1E44 JUMP JUMPDEST POP PUSH1 0x5 PUSH1 0x80 MLOAD ADD SLOAD PUSH2 0x38D PUSH1 0xA0 MLOAD PUSH2 0x180 MLOAD PUSH2 0x1E44 JUMP JUMPDEST PUSH1 0xFF DUP3 AND ISZERO ISZERO SWAP1 MSTORE PUSH1 0xFF PUSH2 0x3A6 PUSH1 0xA0 MLOAD PUSH2 0x160 MLOAD PUSH2 0x1E44 JUMP JUMPDEST SWAP2 PUSH1 0x8 SHR AND ISZERO ISZERO SWAP1 MSTORE PUSH2 0x3BD PUSH1 0x6 PUSH1 0x80 MLOAD ADD PUSH2 0x14A7 JUMP JUMPDEST PUSH2 0x3CC PUSH1 0xA0 MLOAD PUSH2 0x1A0 MLOAD PUSH2 0x1E44 JUMP JUMPDEST MSTORE PUSH2 0x3DC PUSH1 0xA0 MLOAD PUSH2 0x1A0 MLOAD PUSH2 0x1E44 JUMP JUMPDEST POP PUSH2 0x3EB PUSH1 0x7 PUSH1 0x80 MLOAD ADD PUSH2 0x14A7 JUMP JUMPDEST PUSH2 0x3FA PUSH1 0xA0 MLOAD PUSH2 0x1C0 MLOAD PUSH2 0x1E44 JUMP JUMPDEST MSTORE PUSH2 0x40A PUSH1 0xA0 MLOAD PUSH2 0x1C0 MLOAD PUSH2 0x1E44 JUMP JUMPDEST POP PUSH2 0x419 PUSH1 0x8 PUSH1 0x80 MLOAD ADD PUSH2 0x14A7 JUMP JUMPDEST PUSH2 0x428 PUSH1 0xA0 MLOAD PUSH2 0x120 MLOAD PUSH2 0x1E44 JUMP JUMPDEST MSTORE PUSH2 0x438 PUSH1 0xA0 MLOAD PUSH2 0x120 MLOAD PUSH2 0x1E44 JUMP JUMPDEST POP PUSH2 0x447 PUSH1 0x9 PUSH1 0x80 MLOAD ADD PUSH2 0x14A7 JUMP JUMPDEST PUSH2 0x455 PUSH1 0xA0 MLOAD PUSH1 0xC0 MLOAD PUSH2 0x1E44 JUMP JUMPDEST MSTORE PUSH2 0x464 PUSH1 0xA0 MLOAD PUSH1 0xC0 MLOAD PUSH2 0x1E44 JUMP JUMPDEST POP PUSH1 0x1 PUSH1 0xA0 MLOAD ADD PUSH1 0xA0 MSTORE PUSH2 0x143 JUMP JUMPDEST CALLVALUE PUSH2 0x87 JUMPI PUSH2 0x481 CALLDATASIZE PUSH2 0x118A JUMP JUMPDEST SWAP12 PUSH1 0x1 PUSH1 0x1 PUSH1 0x80 SHL SUB SWAP12 SWAP11 SWAP2 SWAP10 SWAP12 SWAP9 SWAP3 SWAP9 SWAP8 SWAP4 SWAP8 SWAP7 SWAP5 SWAP6 SWAP7 NOT AND SWAP11 DUP12 PUSH1 0x0 MSTORE PUSH1 0x1 PUSH1 0x20 MSTORE PUSH1 0x40 PUSH1 0x0 KECCAK256 SLOAD PUSH2 0xDBD JUMPI PUSH1 0x40 MLOAD SWAP11 PUSH2 0x1A0 DUP13 ADD DUP13 DUP2 LT PUSH1 0x1 PUSH1 0x1 PUSH1 0x40 SHL SUB DUP3 GT OR PUSH2 0x907 JUMPI PUSH1 0x40 MSTORE DUP13 DUP13 MSTORE PUSH1 0x20 DUP13 ADD SWAP1 PUSH1 0x1 PUSH1 0x1 PUSH1 0x80 SHL SUB NOT AND DUP2 MSTORE PUSH1 0x40 DUP13 ADD SWAP3 PUSH1 0x1 PUSH1 0x1 PUSH1 0x80 SHL SUB NOT AND DUP4 MSTORE PUSH1 0x60 DUP13 ADD SWAP2 PUSH1 0x1 PUSH1 0x1 PUSH1 0x80 SHL SUB NOT AND DUP3 MSTORE PUSH1 0x80 DUP13 ADD SWAP4 DUP5 MSTORE PUSH1 0xA0 DUP13 ADD SWAP5 DUP6 MSTORE PUSH1 0xC0 DUP13 ADD SWAP6 DUP7 MSTORE PUSH1 0xE0 DUP13 ADD SWAP8 ISZERO ISZERO DUP9 MSTORE PUSH2 0x100 DUP13 ADD SWAP7 ISZERO ISZERO DUP8 MSTORE PUSH2 0x120 DUP13 ADD SWAP9 DUP10 MSTORE PUSH2 0x140 DUP13 ADD SWAP10 DUP11 MSTORE PUSH2 0x160 DUP13 ADD SWAP11 DUP12 MSTORE PUSH2 0x180 DUP13 ADD SWAP14 DUP15 MSTORE PUSH1 0x0 SLOAD PUSH9 0x10000000000000000 DUP2 LT ISZERO PUSH2 0x907 JUMPI DUP1 PUSH1 0x1 PUSH2 0x56F SWAP3 ADD PUSH1 0x0 SSTORE PUSH2 0x13AF JUMP JUMPDEST SWAP13 SWAP1 SWAP13 PUSH2 0xDA7 JUMPI MLOAD SWAP1 MLOAD PUSH1 0x1 PUSH1 0x1 PUSH1 0x80 SHL SUB NOT SWAP1 DUP2 AND PUSH1 0x80 SWAP3 DUP4 SHR OR DUP14 SSTORE SWAP3 MLOAD SWAP2 MLOAD SWAP1 SWAP3 AND SWAP2 SHR OR PUSH1 0x1 DUP11 ADD SSTORE MLOAD DUP1 MLOAD PUSH1 0x2 DUP11 ADD SWAP2 PUSH1 0x1 PUSH1 0x1 PUSH1 0x40 SHL SUB DUP3 GT PUSH2 0x907 JUMPI DUP2 SWAP1 PUSH2 0x5BE DUP5 SLOAD PUSH2 0x13FF JUMP JUMPDEST PUSH1 0x1F DUP2 GT PUSH2 0xD54 JUMPI JUMPDEST POP PUSH1 0x20 SWAP1 PUSH1 0x1F DUP4 GT PUSH1 0x1 EQ PUSH2 0xCEF JUMPI PUSH1 0x0 SWAP3 PUSH2 0xCE4 JUMPI JUMPDEST POP POP DUP2 PUSH1 0x1 SHL SWAP2 PUSH1 0x0 NOT SWAP1 PUSH1 0x3 SHL SHR NOT AND OR SWAP1 SSTORE JUMPDEST MLOAD DUP1 MLOAD PUSH1 0x3 DUP10 ADD SWAP2 PUSH1 0x1 PUSH1 0x1 PUSH1 0x40 SHL SUB DUP3 GT PUSH2 0x907 JUMPI DUP2 SWAP1 PUSH2 0x615 DUP5 SLOAD PUSH2 0x13FF JUMP JUMPDEST PUSH1 0x1F DUP2 GT PUSH2 0xC91 JUMPI JUMPDEST POP PUSH1 0x20 SWAP1 PUSH1 0x1F DUP4 GT PUSH1 0x1 EQ PUSH2 0xC2C JUMPI PUSH1 0x0 SWAP3 PUSH2 0xC21 JUMPI JUMPDEST POP POP DUP2 PUSH1 0x1 SHL SWAP2 PUSH1 0x0 NOT SWAP1 PUSH1 0x3 SHL SHR NOT AND OR SWAP1 SSTORE JUMPDEST MLOAD DUP1 MLOAD PUSH1 0x4 DUP9 ADD SWAP2 PUSH1 0x1 PUSH1 0x1 PUSH1 0x40 SHL SUB DUP3 GT PUSH2 0x907 JUMPI PUSH2 0x66A DUP4 SLOAD PUSH2 0x13FF JUMP JUMPDEST PUSH1 0x1F DUP2 GT PUSH2 0xBD9 JUMPI JUMPDEST POP PUSH1 0x20 SWAP1 PUSH1 0x1F DUP4 GT PUSH1 0x1 EQ PUSH2 0xB6C JUMPI PUSH2 0x6DC SWAP6 SWAP5 SWAP4 SWAP3 SWAP2 PUSH1 0x0 SWAP2 DUP4 PUSH2 0xB61 JUMPI JUMPDEST POP POP DUP2 PUSH1 0x1 SHL SWAP2 PUSH1 0x0 NOT SWAP1 PUSH1 0x3 SHL SHR NOT AND OR SWAP1 SSTORE JUMPDEST PUSH2 0x6C5 PUSH1 0x5 DUP9 ADD SWAP3 MLOAD ISZERO ISZERO DUP4 SWAP1 PUSH1 0xFF DUP1 NOT DUP4 SLOAD AND SWAP2 ISZERO ISZERO AND OR SWAP1 SSTORE JUMP JUMPDEST MLOAD DUP2 SLOAD PUSH2 0xFF00 NOT AND SWAP1 ISZERO ISZERO PUSH1 0x8 SHL PUSH2 0xFF00 AND OR SWAP1 SSTORE JUMP JUMPDEST MLOAD DUP1 MLOAD PUSH1 0x6 DUP6 ADD SWAP2 PUSH1 0x1 PUSH1 0x1 PUSH1 0x40 SHL SUB DUP3 GT PUSH2 0x907 JUMPI DUP2 SWAP1 PUSH2 0x6FE DUP5 SLOAD PUSH2 0x13FF JUMP JUMPDEST PUSH1 0x1F DUP2 GT PUSH2 0xB0E JUMPI JUMPDEST POP PUSH1 0x20 SWAP1 PUSH1 0x1F DUP4 GT PUSH1 0x1 EQ PUSH2 0xAA9 JUMPI PUSH1 0x0 SWAP3 PUSH2 0xA9E JUMPI JUMPDEST POP POP DUP2 PUSH1 0x1 SHL SWAP2 PUSH1 0x0 NOT SWAP1 PUSH1 0x3 SHL SHR NOT AND OR SWAP1 SSTORE JUMPDEST MLOAD DUP1 MLOAD PUSH1 0x7 DUP5 ADD SWAP2 PUSH1 0x1 PUSH1 0x1 PUSH1 0x40 SHL SUB DUP3 GT PUSH2 0x907 JUMPI DUP2 SWAP1 PUSH2 0x755 DUP5 SLOAD PUSH2 0x13FF JUMP JUMPDEST PUSH1 0x1F DUP2 GT PUSH2 0xA4B JUMPI JUMPDEST POP PUSH1 0x20 SWAP1 PUSH1 0x1F DUP4 GT PUSH1 0x1 EQ PUSH2 0x9E6 JUMPI PUSH1 0x0 SWAP3 PUSH2 0x9DB JUMPI JUMPDEST POP POP DUP2 PUSH1 0x1 SHL SWAP2 PUSH1 0x0 NOT SWAP1 PUSH1 0x3 SHL SHR NOT AND OR SWAP1 SSTORE JUMPDEST MLOAD DUP1 MLOAD PUSH1 0x8 DUP4 ADD SWAP2 PUSH1 0x1 PUSH1 0x1 PUSH1 0x40 SHL SUB DUP3 GT PUSH2 0x907 JUMPI PUSH2 0x7AA DUP4 SLOAD PUSH2 0x13FF JUMP JUMPDEST PUSH1 0x1F DUP2 GT PUSH2 0x993 JUMPI JUMPDEST POP PUSH1 0x20 SWAP1 PUSH1 0x1F DUP4 GT PUSH1 0x1 EQ PUSH2 0x928 JUMPI PUSH1 0x9 SWAP5 SWAP4 SWAP3 SWAP2 PUSH1 0x0 SWAP2 DUP4 PUSH2 0x91D JUMPI JUMPDEST POP POP DUP2 PUSH1 0x1 SHL SWAP2 PUSH1 0x0 NOT SWAP1 PUSH1 0x3 SHL SHR NOT AND OR SWAP1 SSTORE JUMPDEST ADD SWAP2 MLOAD SWAP2 DUP3 MLOAD PUSH1 0x1 PUSH1 0x1 PUSH1 0x40 SHL SUB DUP2 GT PUSH2 0x907 JUMPI PUSH2 0x804 DUP3 SLOAD PUSH2 0x13FF JUMP JUMPDEST PUSH1 0x1F DUP2 GT PUSH2 0x8BF JUMPI JUMPDEST POP PUSH1 0x20 PUSH1 0x1F DUP3 GT PUSH1 0x1 EQ PUSH2 0x85A JUMPI DUP2 SWAP3 SWAP4 SWAP5 PUSH1 0x0 SWAP3 PUSH2 0x84F JUMPI JUMPDEST POP POP DUP2 PUSH1 0x1 SHL SWAP2 PUSH1 0x0 NOT SWAP1 PUSH1 0x3 SHL SHR NOT AND OR SWAP1 SSTORE JUMPDEST PUSH1 0x0 DUP1 SLOAD SWAP2 DUP2 MSTORE PUSH1 0x1 PUSH1 0x20 MSTORE PUSH1 0x40 SWAP1 KECCAK256 SSTORE STOP JUMPDEST ADD MLOAD SWAP1 POP DUP5 DUP1 PUSH2 0x827 JUMP JUMPDEST PUSH1 0x1F NOT DUP3 AND SWAP1 DUP4 PUSH1 0x0 MSTORE DUP1 PUSH1 0x0 KECCAK256 SWAP2 PUSH1 0x0 JUMPDEST DUP2 DUP2 LT PUSH2 0x8A7 JUMPI POP SWAP6 DUP4 PUSH1 0x1 SWAP6 SWAP7 SWAP8 LT PUSH2 0x88E JUMPI JUMPDEST POP POP POP DUP2 SHL ADD SWAP1 SSTORE PUSH2 0x83C JUMP JUMPDEST ADD MLOAD PUSH1 0x0 NOT PUSH1 0xF8 DUP5 PUSH1 0x3 SHL AND SHR NOT AND SWAP1 SSTORE DUP5 DUP1 DUP1 PUSH2 0x881 JUMP JUMPDEST SWAP2 SWAP3 PUSH1 0x20 PUSH1 0x1 DUP2 SWAP3 DUP7 DUP12 ADD MLOAD DUP2 SSTORE ADD SWAP5 ADD SWAP3 ADD PUSH2 0x86C JUMP JUMPDEST DUP3 PUSH1 0x0 MSTORE PUSH1 0x20 PUSH1 0x0 KECCAK256 PUSH1 0x1F DUP4 ADD PUSH1 0x5 SHR DUP2 ADD SWAP2 PUSH1 0x20 DUP5 LT PUSH2 0x8FD JUMPI JUMPDEST PUSH1 0x1F ADD PUSH1 0x5 SHR ADD SWAP1 JUMPDEST DUP2 DUP2 LT PUSH2 0x8F1 JUMPI POP PUSH2 0x80D JUMP JUMPDEST PUSH1 0x0 DUP2 SSTORE PUSH1 0x1 ADD PUSH2 0x8E4 JUMP JUMPDEST SWAP1 SWAP2 POP DUP2 SWAP1 PUSH2 0x8DB JUMP JUMPDEST PUSH4 0x4E487B71 PUSH1 0xE0 SHL PUSH1 0x0 MSTORE PUSH1 0x41 PUSH1 0x4 MSTORE PUSH1 0x24 PUSH1 0x0 REVERT JUMPDEST ADD MLOAD SWAP1 POP DUP8 DUP1 PUSH2 0x7D1 JUMP JUMPDEST SWAP1 PUSH1 0x1F NOT DUP4 AND SWAP2 DUP5 PUSH1 0x0 MSTORE DUP2 PUSH1 0x0 KECCAK256 SWAP3 PUSH1 0x0 JUMPDEST DUP2 DUP2 LT PUSH2 0x97B JUMPI POP SWAP2 PUSH1 0x1 SWAP4 SWAP2 DUP6 PUSH1 0x9 SWAP9 SWAP8 SWAP7 SWAP5 LT PUSH2 0x962 JUMPI JUMPDEST POP POP POP DUP2 SHL ADD SWAP1 SSTORE PUSH2 0x7E6 JUMP JUMPDEST ADD MLOAD PUSH1 0x0 NOT PUSH1 0xF8 DUP5 PUSH1 0x3 SHL AND SHR NOT AND SWAP1 SSTORE DUP8 DUP1 DUP1 PUSH2 0x955 JUMP JUMPDEST SWAP3 SWAP4 PUSH1 0x20 PUSH1 0x1 DUP2 SWAP3 DUP8 DUP7 ADD MLOAD DUP2 SSTORE ADD SWAP6 ADD SWAP4 ADD PUSH2 0x93B JUMP JUMPDEST DUP4 PUSH1 0x0 MSTORE PUSH1 0x20 PUSH1 0x0 KECCAK256 PUSH1 0x1F DUP5 ADD PUSH1 0x5 SHR DUP2 ADD SWAP2 PUSH1 0x20 DUP6 LT PUSH2 0x9D1 JUMPI JUMPDEST PUSH1 0x1F ADD PUSH1 0x5 SHR ADD SWAP1 JUMPDEST DUP2 DUP2 LT PUSH2 0x9C5 JUMPI POP PUSH2 0x7B3 JUMP JUMPDEST PUSH1 0x0 DUP2 SSTORE PUSH1 0x1 ADD PUSH2 0x9B8 JUMP JUMPDEST SWAP1 SWAP2 POP DUP2 SWAP1 PUSH2 0x9AF JUMP JUMPDEST ADD MLOAD SWAP1 POP DUP8 DUP1 PUSH2 0x775 JUMP JUMPDEST PUSH1 0x0 DUP6 DUP2 MSTORE DUP3 DUP2 KECCAK256 SWAP4 POP PUSH1 0x1F NOT DUP6 AND SWAP1 JUMPDEST DUP2 DUP2 LT PUSH2 0xA33 JUMPI POP SWAP1 DUP5 PUSH1 0x1 SWAP6 SWAP5 SWAP4 SWAP3 LT PUSH2 0xA1A JUMPI JUMPDEST POP POP POP DUP2 SHL ADD SWAP1 SSTORE PUSH2 0x78A JUMP JUMPDEST ADD MLOAD PUSH1 0x0 NOT PUSH1 0xF8 DUP5 PUSH1 0x3 SHL AND SHR NOT AND SWAP1 SSTORE DUP8 DUP1 DUP1 PUSH2 0xA0D JUMP JUMPDEST SWAP3 SWAP4 PUSH1 0x20 PUSH1 0x1 DUP2 SWAP3 DUP8 DUP7 ADD MLOAD DUP2 SSTORE ADD SWAP6 ADD SWAP4 ADD PUSH2 0x9F7 JUMP JUMPDEST SWAP1 SWAP2 POP DUP4 PUSH1 0x0 MSTORE PUSH1 0x20 PUSH1 0x0 KECCAK256 PUSH1 0x1F DUP5 ADD PUSH1 0x5 SHR DUP2 ADD SWAP2 PUSH1 0x20 DUP6 LT PUSH2 0xA94 JUMPI JUMPDEST SWAP1 PUSH1 0x1F DUP6 SWAP5 SWAP4 SWAP3 ADD PUSH1 0x5 SHR ADD SWAP1 JUMPDEST DUP2 DUP2 LT PUSH2 0xA85 JUMPI POP PUSH2 0x75E JUMP JUMPDEST PUSH1 0x0 DUP2 SSTORE DUP5 SWAP4 POP PUSH1 0x1 ADD PUSH2 0xA78 JUMP JUMPDEST SWAP1 SWAP2 POP DUP2 SWAP1 PUSH2 0xA6A JUMP JUMPDEST ADD MLOAD SWAP1 POP DUP9 DUP1 PUSH2 0x71E JUMP JUMPDEST PUSH1 0x0 DUP6 DUP2 MSTORE DUP3 DUP2 KECCAK256 SWAP4 POP PUSH1 0x1F NOT DUP6 AND SWAP1 JUMPDEST DUP2 DUP2 LT PUSH2 0xAF6 JUMPI POP SWAP1 DUP5 PUSH1 0x1 SWAP6 SWAP5 SWAP4 SWAP3 LT PUSH2 0xADD JUMPI JUMPDEST POP POP POP DUP2 SHL ADD SWAP1 SSTORE PUSH2 0x733 JUMP JUMPDEST ADD MLOAD PUSH1 0x0 NOT PUSH1 0xF8 DUP5 PUSH1 0x3 SHL AND SHR NOT AND SWAP1 SSTORE DUP9 DUP1 DUP1 PUSH2 0xAD0 JUMP JUMPDEST SWAP3 SWAP4 PUSH1 0x20 PUSH1 0x1 DUP2 SWAP3 DUP8 DUP7 ADD MLOAD DUP2 SSTORE ADD SWAP6 ADD SWAP4 ADD PUSH2 0xABA JUMP JUMPDEST SWAP1 SWAP2 POP DUP4 PUSH1 0x0 MSTORE PUSH1 0x20 PUSH1 0x0 KECCAK256 PUSH1 0x1F DUP5 ADD PUSH1 0x5 SHR DUP2 ADD SWAP2 PUSH1 0x20 DUP6 LT PUSH2 0xB57 JUMPI JUMPDEST SWAP1 PUSH1 0x1F DUP6 SWAP5 SWAP4 SWAP3 ADD PUSH1 0x5 SHR ADD SWAP1 JUMPDEST DUP2 DUP2 LT PUSH2 0xB48 JUMPI POP PUSH2 0x707 JUMP JUMPDEST PUSH1 0x0 DUP2 SSTORE DUP5 SWAP4 POP PUSH1 0x1 ADD PUSH2 0xB3B JUMP JUMPDEST SWAP1 SWAP2 POP DUP2 SWAP1 PUSH2 0xB2D JUMP JUMPDEST ADD MLOAD SWAP1 POP DUP13 DUP1 PUSH2 0x693 JUMP JUMPDEST SWAP1 PUSH1 0x1F NOT DUP4 AND SWAP2 DUP5 PUSH1 0x0 MSTORE DUP2 PUSH1 0x0 KECCAK256 SWAP3 PUSH1 0x0 JUMPDEST DUP2 DUP2 LT PUSH2 0xBC1 JUMPI POP SWAP2 PUSH1 0x1 SWAP4 SWAP2 DUP6 PUSH2 0x6DC SWAP10 SWAP9 SWAP8 SWAP7 SWAP5 LT PUSH2 0xBA8 JUMPI JUMPDEST POP POP POP DUP2 SHL ADD SWAP1 SSTORE PUSH2 0x6A8 JUMP JUMPDEST ADD MLOAD PUSH1 0x0 NOT PUSH1 0xF8 DUP5 PUSH1 0x3 SHL AND SHR NOT AND SWAP1 SSTORE DUP13 DUP1 DUP1 PUSH2 0xB9B JUMP JUMPDEST SWAP3 SWAP4 PUSH1 0x20 PUSH1 0x1 DUP2 SWAP3 DUP8 DUP7 ADD MLOAD DUP2 SSTORE ADD SWAP6 ADD SWAP4 ADD PUSH2 0xB7F JUMP JUMPDEST DUP4 PUSH1 0x0 MSTORE PUSH1 0x20 PUSH1 0x0 KECCAK256 PUSH1 0x1F DUP5 ADD PUSH1 0x5 SHR DUP2 ADD SWAP2 PUSH1 0x20 DUP6 LT PUSH2 0xC17 JUMPI JUMPDEST PUSH1 0x1F ADD PUSH1 0x5 SHR ADD SWAP1 JUMPDEST DUP2 DUP2 LT PUSH2 0xC0B JUMPI POP PUSH2 0x673 JUMP JUMPDEST PUSH1 0x0 DUP2 SSTORE PUSH1 0x1 ADD PUSH2 0xBFE JUMP JUMPDEST SWAP1 SWAP2 POP DUP2 SWAP1 PUSH2 0xBF5 JUMP JUMPDEST ADD MLOAD SWAP1 POP DUP13 DUP1 PUSH2 0x635 JUMP JUMPDEST PUSH1 0x0 DUP6 DUP2 MSTORE DUP3 DUP2 KECCAK256 SWAP4 POP PUSH1 0x1F NOT DUP6 AND SWAP1 JUMPDEST DUP2 DUP2 LT PUSH2 0xC79 JUMPI POP SWAP1 DUP5 PUSH1 0x1 SWAP6 SWAP5 SWAP4 SWAP3 LT PUSH2 0xC60 JUMPI JUMPDEST POP POP POP DUP2 SHL ADD SWAP1 SSTORE PUSH2 0x64A JUMP JUMPDEST ADD MLOAD PUSH1 0x0 NOT PUSH1 0xF8 DUP5 PUSH1 0x3 SHL AND SHR NOT AND SWAP1 SSTORE DUP13 DUP1 DUP1 PUSH2 0xC53 JUMP JUMPDEST SWAP3 SWAP4 PUSH1 0x20 PUSH1 0x1 DUP2 SWAP3 DUP8 DUP7 ADD MLOAD DUP2 SSTORE ADD SWAP6 ADD SWAP4 ADD PUSH2 0xC3D JUMP JUMPDEST SWAP1 SWAP2 POP DUP4 PUSH1 0x0 MSTORE PUSH1 0x20 PUSH1 0x0 KECCAK256 PUSH1 0x1F DUP5 ADD PUSH1 0x5 SHR DUP2 ADD SWAP2 PUSH1 0x20 DUP6 LT PUSH2 0xCDA JUMPI JUMPDEST SWAP1 PUSH1 0x1F DUP6 SWAP5 SWAP4 SWAP3 ADD PUSH1 0x5 SHR ADD SWAP1 JUMPDEST DUP2 DUP2 LT PUSH2 0xCCB JUMPI POP PUSH2 0x61E JUMP JUMPDEST PUSH1 0x0 DUP2 SSTORE DUP5 SWAP4 POP PUSH1 0x1 ADD PUSH2 0xCBE JUMP JUMPDEST SWAP1 SWAP2 POP DUP2 SWAP1 PUSH2 0xCB0 JUMP JUMPDEST ADD MLOAD SWAP1 POP DUP14 DUP1 PUSH2 0x5DE JUMP JUMPDEST PUSH1 0x0 DUP6 DUP2 MSTORE DUP3 DUP2 KECCAK256 SWAP4 POP PUSH1 0x1F NOT DUP6 AND SWAP1 JUMPDEST DUP2 DUP2 LT PUSH2 0xD3C JUMPI POP SWAP1 DUP5 PUSH1 0x1 SWAP6 SWAP5 SWAP4 SWAP3 LT PUSH2 0xD23 JUMPI JUMPDEST POP POP POP DUP2 SHL ADD SWAP1 SSTORE PUSH2 0x5F3 JUMP JUMPDEST ADD MLOAD PUSH1 0x0 NOT PUSH1 0xF8 DUP5 PUSH1 0x3 SHL AND SHR NOT AND SWAP1 SSTORE DUP14 DUP1 DUP1 PUSH2 0xD16 JUMP JUMPDEST SWAP3 SWAP4 PUSH1 0x20 PUSH1 0x1 DUP2 SWAP3 DUP8 DUP7 ADD MLOAD DUP2 SSTORE ADD SWAP6 ADD SWAP4 ADD PUSH2 0xD00 JUMP JUMPDEST SWAP1 SWAP2 POP DUP4 PUSH1 0x0 MSTORE PUSH1 0x20 PUSH1 0x0 KECCAK256 PUSH1 0x1F DUP5 ADD PUSH1 0x5 SHR DUP2 ADD SWAP2 PUSH1 0x20 DUP6 LT PUSH2 0xD9D JUMPI JUMPDEST SWAP1 PUSH1 0x1F DUP6 SWAP5 SWAP4 SWAP3 ADD PUSH1 0x5 SHR ADD SWAP1 JUMPDEST DUP2 DUP2 LT PUSH2 0xD8E JUMPI POP PUSH2 0x5C7 JUMP JUMPDEST PUSH1 0x0 DUP2 SSTORE DUP5 SWAP4 POP PUSH1 0x1 ADD PUSH2 0xD81 JUMP JUMPDEST SWAP1 SWAP2 POP DUP2 SWAP1 PUSH2 0xD73 JUMP JUMPDEST PUSH4 0x4E487B71 PUSH1 0xE0 SHL PUSH1 0x0 MSTORE PUSH1 0x0 PUSH1 0x4 MSTORE PUSH1 0x24 PUSH1 0x0 REVERT JUMPDEST PUSH1 0x40 MLOAD PUSH3 0x461BCD PUSH1 0xE5 SHL DUP2 MSTORE PUSH1 0x20 PUSH1 0x4 DUP3 ADD MSTORE PUSH1 0x49 PUSH1 0x24 DUP3 ADD MSTORE PUSH32 0x436F6E666C696374204572726F7220284854545020343039292E205573657220 PUSH1 0x44 DUP3 ADD MSTORE PUSH32 0x616C7265616479206578697374732E20506C6561736520636865636B20746865 PUSH1 0x64 DUP3 ADD MSTORE PUSH9 0x103AB9B2B91024A217 PUSH1 0xB9 SHL PUSH1 0x84 DUP3 ADD MSTORE PUSH1 0xA4 SWAP1 REVERT JUMPDEST CALLVALUE PUSH2 0x87 JUMPI PUSH2 0x140 CALLDATASIZE PUSH1 0x3 NOT ADD SLT PUSH2 0x87 JUMPI PUSH1 0x4 CALLDATALOAD PUSH1 0x1 PUSH1 0x1 PUSH1 0x40 SHL SUB DUP2 GT PUSH2 0x87 JUMPI PUSH2 0xE6B SWAP1 CALLDATASIZE SWAP1 PUSH1 0x4 ADD PUSH2 0x1011 JUMP JUMPDEST PUSH1 0x24 CALLDATALOAD SWAP1 PUSH1 0x1 PUSH1 0x1 PUSH1 0x80 SHL SUB NOT DUP3 AND DUP3 SUB PUSH2 0x87 JUMPI PUSH1 0x44 CALLDATALOAD PUSH1 0x1 PUSH1 0x1 PUSH1 0x80 SHL SUB NOT DUP2 AND DUP2 SUB PUSH2 0x87 JUMPI PUSH1 0x64 CALLDATALOAD PUSH1 0x1 PUSH1 0x1 PUSH1 0x80 SHL SUB NOT DUP2 AND DUP2 SUB PUSH2 0x87 JUMPI PUSH1 0x84 CALLDATALOAD PUSH1 0x1 PUSH1 0x1 PUSH1 0x40 SHL SUB DUP2 GT PUSH2 0x87 JUMPI PUSH2 0xEC7 SWAP1 CALLDATASIZE SWAP1 PUSH1 0x4 ADD PUSH2 0x1011 JUMP JUMPDEST PUSH1 0xA4 CALLDATALOAD DUP1 ISZERO ISZERO DUP2 SUB PUSH2 0x87 JUMPI PUSH1 0xC4 CALLDATALOAD PUSH1 0x1 PUSH1 0x1 PUSH1 0x40 SHL SUB DUP2 GT PUSH2 0x87 JUMPI PUSH2 0xEF2 SWAP1 CALLDATASIZE SWAP1 PUSH1 0x4 ADD PUSH2 0x1011 JUMP JUMPDEST SWAP2 PUSH1 0xE4 CALLDATALOAD PUSH1 0x1 PUSH1 0x1 PUSH1 0x40 SHL SUB DUP2 GT PUSH2 0x87 JUMPI PUSH2 0xF12 SWAP1 CALLDATASIZE SWAP1 PUSH1 0x4 ADD PUSH2 0x1011 JUMP JUMPDEST SWAP4 PUSH2 0x104 CALLDATALOAD PUSH1 0x1 PUSH1 0x1 PUSH1 0x40 SHL SUB DUP2 GT PUSH2 0x87 JUMPI PUSH2 0xF33 SWAP1 CALLDATASIZE SWAP1 PUSH1 0x4 ADD PUSH2 0x1011 JUMP JUMPDEST SWAP6 PUSH2 0x124 CALLDATALOAD SWAP9 PUSH1 0x1 PUSH1 0x1 PUSH1 0x40 SHL SUB DUP11 GT PUSH2 0x87 JUMPI PUSH2 0xF58 PUSH2 0x85 SWAP11 CALLDATASIZE SWAP1 PUSH1 0x4 ADD PUSH2 0x1011 JUMP JUMPDEST SWAP9 PUSH2 0x171C JUMP JUMPDEST CALLVALUE PUSH2 0x87 JUMPI PUSH1 0x20 CALLDATASIZE PUSH1 0x3 NOT ADD SLT PUSH2 0x87 JUMPI PUSH1 0x4 CALLDATALOAD PUSH1 0x1 PUSH1 0x1 PUSH1 0x40 SHL SUB DUP2 GT PUSH2 0x87 JUMPI PUSH2 0xF99 PUSH2 0xF94 PUSH2 0x267 SWAP3 CALLDATASIZE SWAP1 PUSH1 0x4 ADD PUSH2 0x1011 JUMP JUMPDEST PUSH2 0x16B4 JUMP JUMPDEST SWAP10 PUSH1 0x40 SWAP14 SWAP12 SWAP14 SWAP10 SWAP2 SWAP10 SWAP9 SWAP3 SWAP9 SWAP8 SWAP4 SWAP8 SWAP7 SWAP5 SWAP7 MLOAD SWAP14 DUP15 SWAP14 DUP15 PUSH2 0x10AF JUMP JUMPDEST CALLVALUE PUSH2 0x87 JUMPI PUSH1 0x20 CALLDATASIZE PUSH1 0x3 NOT ADD SLT PUSH2 0x87 JUMPI PUSH1 0x4 CALLDATALOAD PUSH1 0x1 PUSH1 0x1 PUSH1 0x40 SHL SUB DUP2 GT PUSH2 0x87 JUMPI PUSH2 0xF99 PUSH2 0xFEB PUSH2 0x267 SWAP3 CALLDATASIZE SWAP1 PUSH1 0x4 ADD PUSH2 0x1011 JUMP JUMPDEST PUSH2 0x1575 JUMP JUMPDEST SWAP1 PUSH1 0x1F DUP1 NOT SWAP2 ADD AND DUP2 ADD SWAP1 DUP2 LT PUSH1 0x1 PUSH1 0x1 PUSH1 0x40 SHL SUB DUP3 GT OR PUSH2 0x907 JUMPI PUSH1 0x40 MSTORE JUMP JUMPDEST DUP2 PUSH1 0x1F DUP3 ADD SLT ISZERO PUSH2 0x87 JUMPI DUP1 CALLDATALOAD SWAP1 PUSH1 0x1 PUSH1 0x1 PUSH1 0x40 SHL SUB DUP3 GT PUSH2 0x907 JUMPI PUSH1 0x40 MLOAD SWAP3 PUSH2 0x1045 PUSH1 0x1F DUP5 ADD PUSH1 0x1F NOT AND PUSH1 0x20 ADD DUP6 PUSH2 0xFF0 JUMP JUMPDEST DUP3 DUP5 MSTORE PUSH1 0x20 DUP4 DUP4 ADD ADD GT PUSH2 0x87 JUMPI DUP2 PUSH1 0x0 SWAP3 PUSH1 0x20 DUP1 SWAP4 ADD DUP4 DUP7 ADD CALLDATACOPY DUP4 ADD ADD MSTORE SWAP1 JUMP JUMPDEST PUSH1 0x0 JUMPDEST DUP4 DUP2 LT PUSH2 0x107A JUMPI POP POP PUSH1 0x0 SWAP2 ADD MSTORE JUMP JUMPDEST DUP2 DUP2 ADD MLOAD DUP4 DUP3 ADD MSTORE PUSH1 0x20 ADD PUSH2 0x106A JUMP JUMPDEST SWAP1 PUSH1 0x20 SWAP2 PUSH2 0x10A3 DUP2 MLOAD DUP1 SWAP3 DUP2 DUP6 MSTORE DUP6 DUP1 DUP7 ADD SWAP2 ADD PUSH2 0x1067 JUMP JUMPDEST PUSH1 0x1F ADD PUSH1 0x1F NOT AND ADD ADD SWAP1 JUMP JUMPDEST SWAP12 SWAP9 SWAP3 DUP13 PUSH2 0x115A SWAP8 PUSH2 0x1187 SWAP16 SWAP14 SWAP10 SWAP4 PUSH2 0x1169 SWAP12 SWAP9 PUSH2 0x1178 SWAP15 SWAP9 PUSH2 0x112E SWAP6 PUSH2 0x113C SWAP9 PUSH2 0x1120 SWAP5 PUSH1 0x1 PUSH1 0x1 PUSH1 0x80 SHL SUB NOT AND DUP8 MSTORE PUSH1 0x1 PUSH1 0x1 PUSH1 0x80 SHL SUB NOT AND PUSH1 0x20 DUP8 ADD MSTORE PUSH1 0x1 PUSH1 0x1 PUSH1 0x80 SHL SUB NOT AND PUSH1 0x40 DUP7 ADD MSTORE PUSH1 0x1 PUSH1 0x1 PUSH1 0x80 SHL SUB NOT AND PUSH1 0x60 DUP6 ADD MSTORE PUSH2 0x1A0 PUSH1 0x80 DUP6 ADD MSTORE PUSH2 0x1A0 DUP5 ADD SWAP1 PUSH2 0x108A JUMP JUMPDEST SWAP2 PUSH1 0xA0 DUP2 DUP5 SUB SWAP2 ADD MSTORE PUSH2 0x108A JUMP JUMPDEST DUP13 DUP2 SUB PUSH1 0xC0 DUP15 ADD MSTORE SWAP1 PUSH2 0x108A JUMP JUMPDEST SWAP3 ISZERO ISZERO PUSH1 0xE0 DUP12 ADD MSTORE ISZERO ISZERO PUSH2 0x100 DUP11 ADD MSTORE DUP9 DUP3 SUB PUSH2 0x120 DUP11 ADD MSTORE PUSH2 0x108A JUMP JUMPDEST SWAP1 DUP7 DUP3 SUB PUSH2 0x140 DUP9 ADD MSTORE PUSH2 0x108A JUMP JUMPDEST SWAP1 DUP5 DUP3 SUB PUSH2 0x160 DUP7 ADD MSTORE PUSH2 0x108A JUMP JUMPDEST SWAP2 PUSH2 0x180 DUP2 DUP5 SUB SWAP2 ADD MSTORE PUSH2 0x108A JUMP JUMPDEST SWAP1 JUMP JUMPDEST PUSH2 0x1A0 PUSH1 0x3 NOT DUP3 ADD SLT PUSH2 0x87 JUMPI PUSH1 0x4 CALLDATALOAD PUSH1 0x1 PUSH1 0x1 PUSH1 0x80 SHL SUB NOT DUP2 AND DUP2 SUB PUSH2 0x87 JUMPI SWAP2 PUSH1 0x24 CALLDATALOAD PUSH1 0x1 PUSH1 0x1 PUSH1 0x80 SHL SUB NOT DUP2 AND DUP2 SUB PUSH2 0x87 JUMPI SWAP2 PUSH1 0x44 CALLDATALOAD PUSH1 0x1 PUSH1 0x1 PUSH1 0x80 SHL SUB NOT DUP2 AND DUP2 SUB PUSH2 0x87 JUMPI SWAP2 PUSH1 0x64 CALLDATALOAD PUSH1 0x1 PUSH1 0x1 PUSH1 0x80 SHL SUB NOT DUP2 AND DUP2 SUB PUSH2 0x87 JUMPI SWAP2 PUSH1 0x84 CALLDATALOAD PUSH1 0x1 PUSH1 0x1 PUSH1 0x40 SHL SUB DUP2 GT PUSH2 0x87 JUMPI DUP2 PUSH2 0x1209 SWAP2 PUSH1 0x4 ADD PUSH2 0x1011 JUMP JUMPDEST SWAP2 PUSH1 0xA4 CALLDATALOAD PUSH1 0x1 PUSH1 0x1 PUSH1 0x40 SHL SUB DUP2 GT PUSH2 0x87 JUMPI DUP3 PUSH2 0x1228 SWAP2 PUSH1 0x4 ADD PUSH2 0x1011 JUMP JUMPDEST SWAP2 PUSH1 0xC4 CALLDATALOAD PUSH1 0x1 PUSH1 0x1 PUSH1 0x40 SHL SUB DUP2 GT PUSH2 0x87 JUMPI DUP2 PUSH2 0x1247 SWAP2 PUSH1 0x4 ADD PUSH2 0x1011 JUMP JUMPDEST SWAP2 PUSH1 0xE4 CALLDATALOAD DUP1 ISZERO ISZERO DUP2 SUB PUSH2 0x87 JUMPI SWAP2 PUSH2 0x104 CALLDATALOAD DUP1 ISZERO ISZERO DUP2 SUB PUSH2 0x87 JUMPI SWAP2 PUSH2 0x124 CALLDATALOAD PUSH1 0x1 PUSH1 0x1 PUSH1 0x40 SHL SUB DUP2 GT PUSH2 0x87 JUMPI DUP3 PUSH2 0x1282 SWAP2 PUSH1 0x4 ADD PUSH2 0x1011 JUMP JUMPDEST SWAP2 PUSH2 0x144 CALLDATALOAD PUSH1 0x1 PUSH1 0x1 PUSH1 0x40 SHL SUB DUP2 GT PUSH2 0x87 JUMPI DUP2 PUSH2 0x12A2 SWAP2 PUSH1 0x4 ADD PUSH2 0x1011 JUMP JUMPDEST SWAP2 PUSH2 0x164 CALLDATALOAD PUSH1 0x1 PUSH1 0x1 PUSH1 0x40 SHL SUB DUP2 GT PUSH2 0x87 JUMPI DUP3 PUSH2 0x12C2 SWAP2 PUSH1 0x4 ADD PUSH2 0x1011 JUMP JUMPDEST SWAP2 PUSH2 0x184 CALLDATALOAD SWAP1 PUSH1 0x1 PUSH1 0x1 PUSH1 0x40 SHL SUB DUP3 GT PUSH2 0x87 JUMPI PUSH2 0x1187 SWAP2 PUSH1 0x4 ADD PUSH2 0x1011 JUMP JUMPDEST SWAP1 PUSH1 0x20 DUP1 DUP4 MLOAD SWAP3 DUP4 DUP2 MSTORE ADD SWAP3 ADD SWAP1 PUSH1 0x0 JUMPDEST DUP2 DUP2 LT PUSH2 0x1300 JUMPI POP POP POP SWAP1 JUMP JUMPDEST DUP3 MLOAD PUSH1 0x1 PUSH1 0x1 PUSH1 0x80 SHL SUB NOT AND DUP5 MSTORE PUSH1 0x20 SWAP4 DUP5 ADD SWAP4 SWAP1 SWAP3 ADD SWAP2 PUSH1 0x1 ADD PUSH2 0x12F3 JUMP JUMPDEST SWAP1 DUP1 PUSH1 0x20 DUP4 MLOAD SWAP2 DUP3 DUP2 MSTORE ADD SWAP2 PUSH1 0x20 DUP1 DUP4 PUSH1 0x5 SHL DUP4 ADD ADD SWAP5 ADD SWAP3 PUSH1 0x0 SWAP2 JUMPDEST DUP4 DUP4 LT PUSH2 0x134C JUMPI POP POP POP POP POP SWAP1 JUMP JUMPDEST SWAP1 SWAP2 SWAP3 SWAP4 SWAP5 PUSH1 0x20 DUP1 PUSH2 0x136A PUSH1 0x1 SWAP4 PUSH1 0x1F NOT DUP7 DUP3 SUB ADD DUP8 MSTORE DUP10 MLOAD PUSH2 0x108A JUMP JUMPDEST SWAP8 ADD SWAP4 ADD SWAP4 ADD SWAP2 SWAP4 SWAP3 SWAP1 PUSH2 0x133D JUMP JUMPDEST SWAP1 PUSH1 0x20 DUP1 DUP4 MLOAD SWAP3 DUP4 DUP2 MSTORE ADD SWAP3 ADD SWAP1 PUSH1 0x0 JUMPDEST DUP2 DUP2 LT PUSH2 0x1397 JUMPI POP POP POP SWAP1 JUMP JUMPDEST DUP3 MLOAD ISZERO ISZERO DUP5 MSTORE PUSH1 0x20 SWAP4 DUP5 ADD SWAP4 SWAP1 SWAP3 ADD SWAP2 PUSH1 0x1 ADD PUSH2 0x138A JUMP JUMPDEST PUSH1 0x0 SLOAD DUP2 LT ISZERO PUSH2 0x13E9 JUMPI PUSH1 0x0 DUP1 DUP1 MSTORE PUSH1 0xA SWAP2 SWAP1 SWAP2 MUL PUSH32 0x290DECD9548B62A8D60345A988386FC84BA6BC95484008F6362F93160EF3E563 ADD SWAP2 JUMP JUMPDEST PUSH4 0x4E487B71 PUSH1 0xE0 SHL PUSH1 0x0 MSTORE PUSH1 0x32 PUSH1 0x4 MSTORE PUSH1 0x24 PUSH1 0x0 REVERT JUMPDEST SWAP1 PUSH1 0x1 DUP3 DUP2 SHR SWAP3 AND DUP1 ISZERO PUSH2 0x142F JUMPI JUMPDEST PUSH1 0x20 DUP4 LT EQ PUSH2 0x1419 JUMPI JUMP JUMPDEST PUSH4 0x4E487B71 PUSH1 0xE0 SHL PUSH1 0x0 MSTORE PUSH1 0x22 PUSH1 0x4 MSTORE PUSH1 0x24 PUSH1 0x0 REVERT JUMPDEST SWAP2 PUSH1 0x7F AND SWAP2 PUSH2 0x140E JUMP JUMPDEST PUSH1 0x0 SWAP3 SWAP2 DUP2 SLOAD SWAP2 PUSH2 0x1449 DUP4 PUSH2 0x13FF JUMP JUMPDEST SWAP3 PUSH1 0x1 DUP2 AND SWAP1 DUP2 ISZERO PUSH2 0x1494 JUMPI POP PUSH1 0x1 EQ PUSH2 0x1462 JUMPI POP POP POP JUMP JUMPDEST SWAP1 SWAP2 SWAP3 SWAP4 POP PUSH1 0x0 MSTORE PUSH1 0x20 PUSH1 0x0 KECCAK256 PUSH1 0x0 SWAP1 JUMPDEST DUP4 DUP3 LT PUSH2 0x1480 JUMPI POP POP ADD SWAP1 JUMP JUMPDEST PUSH1 0x1 DUP2 PUSH1 0x20 SWAP3 SLOAD DUP5 DUP7 ADD MSTORE ADD SWAP2 ADD SWAP1 PUSH2 0x1473 JUMP JUMPDEST PUSH1 0xFF NOT AND DUP4 MSTORE POP POP DUP2 ISZERO ISZERO SWAP1 SWAP2 MUL ADD SWAP2 POP JUMP JUMPDEST SWAP1 PUSH1 0x40 MLOAD SWAP2 DUP3 PUSH1 0x0 DUP3 SLOAD SWAP3 PUSH2 0x14BB DUP5 PUSH2 0x13FF JUMP JUMPDEST DUP1 DUP5 MSTORE SWAP4 PUSH1 0x1 DUP2 AND SWAP1 DUP2 ISZERO PUSH2 0x1529 JUMPI POP PUSH1 0x1 EQ PUSH2 0x14E2 JUMPI JUMPDEST POP PUSH2 0x14E0 SWAP3 POP SUB DUP4 PUSH2 0xFF0 JUMP JUMPDEST JUMP JUMPDEST SWAP1 POP PUSH1 0x0 SWAP3 SWAP2 SWAP3 MSTORE PUSH1 0x20 PUSH1 0x0 KECCAK256 SWAP1 PUSH1 0x0 SWAP2 JUMPDEST DUP2 DUP4 LT PUSH2 0x150D JUMPI POP POP SWAP1 PUSH1 0x20 PUSH2 0x14E0 SWAP3 DUP3 ADD ADD CODESIZE PUSH2 0x14D3 JUMP JUMPDEST PUSH1 0x20 SWAP2 SWAP4 POP DUP1 PUSH1 0x1 SWAP2 SLOAD DUP4 DUP6 DUP10 ADD ADD MSTORE ADD SWAP2 ADD SWAP1 SWAP2 DUP5 SWAP3 PUSH2 0x14F4 JUMP JUMPDEST SWAP1 POP PUSH1 0x20 SWAP3 POP PUSH2 0x14E0 SWAP5 SWAP2 POP PUSH1 0xFF NOT AND DUP3 DUP5 ADD MSTORE ISZERO ISZERO PUSH1 0x5 SHL DUP3 ADD ADD CODESIZE PUSH2 0x14D3 JUMP JUMPDEST PUSH1 0x60 SWAP1 PUSH1 0x20 DUP2 MSTORE PUSH1 0xF PUSH1 0x20 DUP3 ADD MSTORE PUSH15 0x2AB9B2B9103737BA103337BAB73217 PUSH1 0x89 SHL PUSH1 0x40 DUP3 ADD MSTORE ADD SWAP1 JUMP JUMPDEST PUSH1 0x0 SWAP1 DUP2 SLOAD SWAP2 JUMPDEST DUP3 DUP2 LT PUSH2 0x15A0 JUMPI PUSH1 0x40 MLOAD PUSH3 0x461BCD PUSH1 0xE5 SHL DUP2 MSTORE DUP1 PUSH2 0x159C PUSH1 0x4 DUP3 ADD PUSH2 0x154B JUMP JUMPDEST SUB SWAP1 REVERT JUMPDEST PUSH1 0x2 PUSH2 0x15C5 PUSH2 0x15D3 PUSH2 0x15B1 DUP5 PUSH2 0x13AF JUMP JUMPDEST POP PUSH1 0x40 MLOAD SWAP3 DUP4 SWAP2 PUSH1 0x20 DUP4 ADD SWAP6 DUP7 SWAP2 ADD PUSH2 0x1439 JUMP JUMPDEST SUB PUSH1 0x1F NOT DUP2 ADD DUP4 MSTORE DUP3 PUSH2 0xFF0 JUMP JUMPDEST MLOAD SWAP1 KECCAK256 PUSH1 0x40 MLOAD PUSH1 0x20 DUP2 ADD SWAP1 PUSH2 0x1604 PUSH1 0x20 DUP3 DUP8 MLOAD PUSH2 0x15F3 DUP2 DUP8 DUP6 DUP13 ADD PUSH2 0x1067 JUMP JUMPDEST DUP2 ADD SUB ADD PUSH1 0x1F NOT DUP2 ADD DUP4 MSTORE DUP3 PUSH2 0xFF0 JUMP JUMPDEST MLOAD SWAP1 KECCAK256 EQ PUSH2 0x1614 JUMPI PUSH1 0x1 ADD PUSH2 0x157C JUMP JUMPDEST SWAP1 POP PUSH2 0x1620 SWAP2 POP PUSH2 0x13AF JUMP JUMPDEST POP SWAP1 DUP2 SLOAD SWAP2 PUSH1 0x1 DUP2 ADD SLOAD SWAP1 PUSH1 0x5 DUP2 ADD SLOAD DUP5 PUSH1 0x80 SHL SWAP5 PUSH1 0x1 PUSH1 0x1 PUSH1 0x80 SHL SUB NOT AND SWAP4 DUP4 PUSH1 0x80 SHL SWAP4 PUSH1 0x1 PUSH1 0x1 PUSH1 0x80 SHL SUB NOT AND SWAP3 PUSH2 0x165C PUSH1 0x2 DUP3 ADD PUSH2 0x14A7 JUMP JUMPDEST SWAP3 PUSH2 0x1669 PUSH1 0x3 DUP4 ADD PUSH2 0x14A7 JUMP JUMPDEST SWAP3 PUSH2 0x1676 PUSH1 0x4 DUP5 ADD PUSH2 0x14A7 JUMP JUMPDEST SWAP3 PUSH1 0xFF DUP1 DUP5 AND SWAP4 PUSH1 0x8 SHR AND SWAP2 PUSH2 0x168E PUSH1 0x6 DUP4 ADD PUSH2 0x14A7 JUMP JUMPDEST SWAP2 PUSH2 0x169B PUSH1 0x7 DUP3 ADD PUSH2 0x14A7 JUMP JUMPDEST SWAP2 PUSH2 0x1187 PUSH1 0x9 PUSH2 0x16AD PUSH1 0x8 DUP6 ADD PUSH2 0x14A7 JUMP JUMPDEST SWAP4 ADD PUSH2 0x14A7 JUMP JUMPDEST PUSH1 0x0 SWAP1 DUP2 SLOAD SWAP2 JUMPDEST DUP3 DUP2 LT PUSH2 0x16DB JUMPI PUSH1 0x40 MLOAD PUSH3 0x461BCD PUSH1 0xE5 SHL DUP2 MSTORE DUP1 PUSH2 0x159C PUSH1 0x4 DUP3 ADD PUSH2 0x154B JUMP JUMPDEST PUSH1 0x3 PUSH2 0x15C5 PUSH2 0x16EC PUSH2 0x15B1 DUP5 PUSH2 0x13AF JUMP JUMPDEST MLOAD SWAP1 KECCAK256 PUSH1 0x40 MLOAD PUSH1 0x20 DUP2 ADD SWAP1 PUSH2 0x170C PUSH1 0x20 DUP3 DUP8 MLOAD PUSH2 0x15F3 DUP2 DUP8 DUP6 DUP13 ADD PUSH2 0x1067 JUMP JUMPDEST MLOAD SWAP1 KECCAK256 EQ PUSH2 0x1614 JUMPI PUSH1 0x1 ADD PUSH2 0x16BB JUMP JUMPDEST SWAP9 SWAP10 SWAP8 SWAP7 SWAP6 SWAP5 SWAP4 SWAP3 SWAP2 SWAP1 PUSH1 0x0 JUMPDEST PUSH1 0x0 SLOAD DUP2 LT ISZERO PUSH2 0x1D98 JUMPI PUSH1 0x2 PUSH2 0x15C5 PUSH2 0x1744 PUSH2 0x15B1 DUP5 PUSH2 0x13AF JUMP JUMPDEST MLOAD SWAP1 KECCAK256 DUP12 PUSH1 0x40 MLOAD PUSH2 0x1765 PUSH1 0x20 DUP3 DUP2 PUSH2 0x15F3 DUP2 DUP4 ADD SWAP7 DUP8 DUP2 MLOAD SWAP4 DUP5 SWAP3 ADD PUSH2 0x1067 JUMP JUMPDEST MLOAD SWAP1 KECCAK256 EQ PUSH2 0x1775 JUMPI PUSH1 0x1 ADD PUSH2 0x1729 JUMP JUMPDEST SWAP9 SWAP10 POP PUSH2 0x1781 DUP10 PUSH2 0x13AF JUMP JUMPDEST POP SWAP1 PUSH1 0x1 PUSH1 0x1 PUSH1 0x80 SHL SUB DUP3 SLOAD SWAP2 DUP2 NOT AND SWAP2 AND OR SWAP1 SSTORE PUSH1 0x1 PUSH2 0x17A1 DUP10 PUSH2 0x13AF JUMP JUMPDEST POP ADD SWAP1 PUSH1 0x80 SHR PUSH1 0x1 PUSH1 0x1 PUSH1 0x80 SHL SUB NOT DUP3 SLOAD AND OR SWAP1 SSTORE PUSH1 0x1 PUSH2 0x17C1 DUP9 PUSH2 0x13AF JUMP JUMPDEST POP ADD SWAP1 PUSH1 0x1 PUSH1 0x1 PUSH1 0x80 SHL SUB DUP3 SLOAD SWAP2 DUP2 NOT AND SWAP2 AND OR SWAP1 SSTORE PUSH1 0x3 PUSH2 0x17E2 DUP8 PUSH2 0x13AF JUMP JUMPDEST POP ADD SWAP1 DUP1 MLOAD SWAP1 PUSH1 0x1 PUSH1 0x1 PUSH1 0x40 SHL SUB DUP3 GT PUSH2 0x907 JUMPI PUSH2 0x1800 DUP4 SLOAD PUSH2 0x13FF JUMP JUMPDEST PUSH1 0x1F DUP2 GT PUSH2 0x1D50 JUMPI JUMPDEST POP PUSH1 0x20 SWAP1 PUSH1 0x1F DUP4 GT PUSH1 0x1 EQ PUSH2 0x1CE4 JUMPI PUSH2 0x185B SWAP5 SWAP4 SWAP3 SWAP2 PUSH1 0x0 SWAP2 DUP4 PUSH2 0x1CD9 JUMPI JUMPDEST POP POP DUP2 PUSH1 0x1 SHL SWAP2 PUSH1 0x0 NOT SWAP1 PUSH1 0x3 SHL SHR NOT AND OR SWAP1 SSTORE JUMPDEST PUSH1 0x5 PUSH2 0x1848 DUP8 PUSH2 0x13AF JUMP JUMPDEST POP ADD SWAP1 PUSH1 0xFF DUP1 NOT DUP4 SLOAD AND SWAP2 ISZERO ISZERO AND OR SWAP1 SSTORE JUMP JUMPDEST PUSH1 0x6 PUSH2 0x1866 DUP6 PUSH2 0x13AF JUMP JUMPDEST POP ADD SWAP1 DUP1 MLOAD SWAP1 PUSH1 0x1 PUSH1 0x1 PUSH1 0x40 SHL SUB DUP3 GT PUSH2 0x907 JUMPI DUP2 SWAP1 PUSH2 0x1886 DUP5 SLOAD PUSH2 0x13FF JUMP JUMPDEST PUSH1 0x1F DUP2 GT PUSH2 0x1C86 JUMPI JUMPDEST POP PUSH1 0x20 SWAP1 PUSH1 0x1F DUP4 GT PUSH1 0x1 EQ PUSH2 0x1C21 JUMPI PUSH1 0x0 SWAP3 PUSH2 0x1C16 JUMPI JUMPDEST POP POP DUP2 PUSH1 0x1 SHL SWAP2 PUSH1 0x0 NOT SWAP1 PUSH1 0x3 SHL SHR NOT AND OR SWAP1 SSTORE JUMPDEST PUSH1 0x7 PUSH2 0x18C6 DUP5 PUSH2 0x13AF JUMP JUMPDEST POP ADD SWAP1 DUP1 MLOAD SWAP1 PUSH1 0x1 PUSH1 0x1 PUSH1 0x40 SHL SUB DUP3 GT PUSH2 0x907 JUMPI DUP2 SWAP1 PUSH2 0x18E6 DUP5 SLOAD PUSH2 0x13FF JUMP JUMPDEST PUSH1 0x1F DUP2 GT PUSH2 0x1BC3 JUMPI JUMPDEST POP PUSH1 0x20 SWAP1 PUSH1 0x1F DUP4 GT PUSH1 0x1 EQ PUSH2 0x1B5E JUMPI PUSH1 0x0 SWAP3 PUSH2 0x1B53 JUMPI JUMPDEST POP POP DUP2 PUSH1 0x1 SHL SWAP2 PUSH1 0x0 NOT SWAP1 PUSH1 0x3 SHL SHR NOT AND OR SWAP1 SSTORE JUMPDEST PUSH1 0x8 PUSH2 0x1926 DUP4 PUSH2 0x13AF JUMP JUMPDEST POP ADD SWAP1 DUP1 MLOAD SWAP1 PUSH1 0x1 PUSH1 0x1 PUSH1 0x40 SHL SUB DUP3 GT PUSH2 0x907 JUMPI PUSH2 0x1944 DUP4 SLOAD PUSH2 0x13FF JUMP JUMPDEST PUSH1 0x1F DUP2 GT PUSH2 0x1B0B JUMPI JUMPDEST POP PUSH1 0x20 SWAP1 PUSH1 0x1F DUP4 GT PUSH1 0x1 EQ PUSH2 0x1A9D JUMPI SWAP2 DUP1 PUSH2 0x1988 SWAP5 SWAP3 PUSH1 0x9 SWAP7 SWAP5 PUSH1 0x0 SWAP3 PUSH2 0x1A92 JUMPI JUMPDEST POP POP DUP2 PUSH1 0x1 SHL SWAP2 PUSH1 0x0 NOT SWAP1 PUSH1 0x3 SHL SHR NOT AND OR SWAP1 SSTORE PUSH2 0x13AF JUMP JUMPDEST POP ADD DUP3 MLOAD PUSH1 0x1 PUSH1 0x1 PUSH1 0x40 SHL SUB DUP2 GT PUSH2 0x907 JUMPI PUSH2 0x19A4 DUP3 SLOAD PUSH2 0x13FF JUMP JUMPDEST PUSH1 0x1F DUP2 GT PUSH2 0x1A4A JUMPI JUMPDEST POP PUSH1 0x20 PUSH1 0x1F DUP3 GT PUSH1 0x1 EQ PUSH2 0x19E8 JUMPI DUP2 SWAP3 SWAP4 SWAP5 PUSH1 0x0 SWAP3 PUSH2 0x19DD JUMPI JUMPDEST POP POP DUP2 PUSH1 0x1 SHL SWAP2 PUSH1 0x0 NOT SWAP1 PUSH1 0x3 SHL SHR NOT AND OR SWAP1 SSTORE JUMP JUMPDEST ADD MLOAD SWAP1 POP CODESIZE DUP1 PUSH2 0x19C7 JUMP JUMPDEST PUSH1 0x1F NOT DUP3 AND SWAP1 DUP4 PUSH1 0x0 MSTORE DUP1 PUSH1 0x0 KECCAK256 SWAP2 PUSH1 0x0 JUMPDEST DUP2 DUP2 LT PUSH2 0x1A32 JUMPI POP SWAP6 DUP4 PUSH1 0x1 SWAP6 SWAP7 SWAP8 LT PUSH2 0x1A19 JUMPI JUMPDEST POP POP POP DUP2 SHL ADD SWAP1 SSTORE JUMP JUMPDEST ADD MLOAD PUSH1 0x0 NOT PUSH1 0xF8 DUP5 PUSH1 0x3 SHL AND SHR NOT AND SWAP1 SSTORE CODESIZE DUP1 DUP1 PUSH2 0x1A0F JUMP JUMPDEST SWAP2 SWAP3 PUSH1 0x20 PUSH1 0x1 DUP2 SWAP3 DUP7 DUP12 ADD MLOAD DUP2 SSTORE ADD SWAP5 ADD SWAP3 ADD PUSH2 0x19FA JUMP JUMPDEST DUP3 PUSH1 0x0 MSTORE PUSH1 0x20 PUSH1 0x0 KECCAK256 PUSH1 0x1F DUP4 ADD PUSH1 0x5 SHR DUP2 ADD SWAP2 PUSH1 0x20 DUP5 LT PUSH2 0x1A88 JUMPI JUMPDEST PUSH1 0x1F ADD PUSH1 0x5 SHR ADD SWAP1 JUMPDEST DUP2 DUP2 LT PUSH2 0x1A7C JUMPI POP PUSH2 0x19AD JUMP JUMPDEST PUSH1 0x0 DUP2 SSTORE PUSH1 0x1 ADD PUSH2 0x1A6F JUMP JUMPDEST SWAP1 SWAP2 POP DUP2 SWAP1 PUSH2 0x1A66 JUMP JUMPDEST ADD MLOAD SWAP1 POP CODESIZE DUP1 PUSH2 0x196F JUMP JUMPDEST SWAP1 PUSH1 0x1F NOT DUP4 AND SWAP2 DUP5 PUSH1 0x0 MSTORE DUP2 PUSH1 0x0 KECCAK256 SWAP3 PUSH1 0x0 JUMPDEST DUP2 DUP2 LT PUSH2 0x1AF3 JUMPI POP SWAP3 PUSH1 0x1 SWAP3 DUP6 SWAP3 PUSH1 0x9 SWAP9 SWAP7 PUSH2 0x1988 SWAP9 SWAP7 LT PUSH2 0x1ADA JUMPI JUMPDEST POP POP POP DUP2 SHL ADD SWAP1 SSTORE PUSH2 0x13AF JUMP JUMPDEST ADD MLOAD PUSH1 0x0 NOT PUSH1 0xF8 DUP5 PUSH1 0x3 SHL AND SHR NOT AND SWAP1 SSTORE CODESIZE DUP1 DUP1 PUSH2 0x1ACD JUMP JUMPDEST SWAP3 SWAP4 PUSH1 0x20 PUSH1 0x1 DUP2 SWAP3 DUP8 DUP7 ADD MLOAD DUP2 SSTORE ADD SWAP6 ADD SWAP4 ADD PUSH2 0x1AB0 JUMP JUMPDEST DUP4 PUSH1 0x0 MSTORE PUSH1 0x20 PUSH1 0x0 KECCAK256 PUSH1 0x1F DUP5 ADD PUSH1 0x5 SHR DUP2 ADD SWAP2 PUSH1 0x20 DUP6 LT PUSH2 0x1B49 JUMPI JUMPDEST PUSH1 0x1F ADD PUSH1 0x5 SHR ADD SWAP1 JUMPDEST DUP2 DUP2 LT PUSH2 0x1B3D JUMPI POP PUSH2 0x194D JUMP JUMPDEST PUSH1 0x0 DUP2 SSTORE PUSH1 0x1 ADD PUSH2 0x1B30 JUMP JUMPDEST SWAP1 SWAP2 POP DUP2 SWAP1 PUSH2 0x1B27 JUMP JUMPDEST ADD MLOAD SWAP1 POP CODESIZE DUP1 PUSH2 0x1906 JUMP JUMPDEST PUSH1 0x0 DUP6 DUP2 MSTORE DUP3 DUP2 KECCAK256 SWAP4 POP PUSH1 0x1F NOT DUP6 AND SWAP1 JUMPDEST DUP2 DUP2 LT PUSH2 0x1BAB JUMPI POP SWAP1 DUP5 PUSH1 0x1 SWAP6 SWAP5 SWAP4 SWAP3 LT PUSH2 0x1B92 JUMPI JUMPDEST POP POP POP DUP2 SHL ADD SWAP1 SSTORE PUSH2 0x191B JUMP JUMPDEST ADD MLOAD PUSH1 0x0 NOT PUSH1 0xF8 DUP5 PUSH1 0x3 SHL AND SHR NOT AND SWAP1 SSTORE CODESIZE DUP1 DUP1 PUSH2 0x1B85 JUMP JUMPDEST SWAP3 SWAP4 PUSH1 0x20 PUSH1 0x1 DUP2 SWAP3 DUP8 DUP7 ADD MLOAD DUP2 SSTORE ADD SWAP6 ADD SWAP4 ADD PUSH2 0x1B6F JUMP JUMPDEST SWAP1 SWAP2 POP DUP4 PUSH1 0x0 MSTORE PUSH1 0x20 PUSH1 0x0 KECCAK256 PUSH1 0x1F DUP5 ADD PUSH1 0x5 SHR DUP2 ADD SWAP2 PUSH1 0x20 DUP6 LT PUSH2 0x1C0C JUMPI JUMPDEST SWAP1 PUSH1 0x1F DUP6 SWAP5 SWAP4 SWAP3 ADD PUSH1 0x5 SHR ADD SWAP1 JUMPDEST DUP2 DUP2 LT PUSH2 0x1BFD JUMPI POP PUSH2 0x18EF JUMP JUMPDEST PUSH1 0x0 DUP2 SSTORE DUP5 SWAP4 POP PUSH1 0x1 ADD PUSH2 0x1BF0 JUMP JUMPDEST SWAP1 SWAP2 POP DUP2 SWAP1 PUSH2 0x1BE2 JUMP JUMPDEST ADD MLOAD SWAP1 POP CODESIZE DUP1 PUSH2 0x18A6 JUMP JUMPDEST PUSH1 0x0 DUP6 DUP2 MSTORE DUP3 DUP2 KECCAK256 SWAP4 POP PUSH1 0x1F NOT DUP6 AND SWAP1 JUMPDEST DUP2 DUP2 LT PUSH2 0x1C6E JUMPI POP SWAP1 DUP5 PUSH1 0x1 SWAP6 SWAP5 SWAP4 SWAP3 LT PUSH2 0x1C55 JUMPI JUMPDEST POP POP POP DUP2 SHL ADD SWAP1 SSTORE PUSH2 0x18BB JUMP JUMPDEST ADD MLOAD PUSH1 0x0 NOT PUSH1 0xF8 DUP5 PUSH1 0x3 SHL AND SHR NOT AND SWAP1 SSTORE CODESIZE DUP1 DUP1 PUSH2 0x1C48 JUMP JUMPDEST SWAP3 SWAP4 PUSH1 0x20 PUSH1 0x1 DUP2 SWAP3 DUP8 DUP7 ADD MLOAD DUP2 SSTORE ADD SWAP6 ADD SWAP4 ADD PUSH2 0x1C32 JUMP JUMPDEST SWAP1 SWAP2 POP DUP4 PUSH1 0x0 MSTORE PUSH1 0x20 PUSH1 0x0 KECCAK256 PUSH1 0x1F DUP5 ADD PUSH1 0x5 SHR DUP2 ADD SWAP2 PUSH1 0x20 DUP6 LT PUSH2 0x1CCF JUMPI JUMPDEST SWAP1 PUSH1 0x1F DUP6 SWAP5 SWAP4 SWAP3 ADD PUSH1 0x5 SHR ADD SWAP1 JUMPDEST DUP2 DUP2 LT PUSH2 0x1CC0 JUMPI POP PUSH2 0x188F JUMP JUMPDEST PUSH1 0x0 DUP2 SSTORE DUP5 SWAP4 POP PUSH1 0x1 ADD PUSH2 0x1CB3 JUMP JUMPDEST SWAP1 SWAP2 POP DUP2 SWAP1 PUSH2 0x1CA5 JUMP JUMPDEST ADD MLOAD SWAP1 POP CODESIZE DUP1 PUSH2 0x1828 JUMP JUMPDEST SWAP1 PUSH1 0x1F NOT DUP4 AND SWAP2 DUP5 PUSH1 0x0 MSTORE DUP2 PUSH1 0x0 KECCAK256 SWAP3 PUSH1 0x0 JUMPDEST DUP2 DUP2 LT PUSH2 0x1D38 JUMPI POP SWAP2 PUSH1 0x1 SWAP4 SWAP2 DUP6 PUSH2 0x185B SWAP9 SWAP8 SWAP7 SWAP5 LT PUSH2 0x1D1F JUMPI JUMPDEST POP POP POP DUP2 SHL ADD SWAP1 SSTORE PUSH2 0x183D JUMP JUMPDEST ADD MLOAD PUSH1 0x0 NOT PUSH1 0xF8 DUP5 PUSH1 0x3 SHL AND SHR NOT AND SWAP1 SSTORE CODESIZE DUP1 DUP1 PUSH2 0x1D12 JUMP JUMPDEST SWAP3 SWAP4 PUSH1 0x20 PUSH1 0x1 DUP2 SWAP3 DUP8 DUP7 ADD MLOAD DUP2 SSTORE ADD SWAP6 ADD SWAP4 ADD PUSH2 0x1CF7 JUMP JUMPDEST DUP4 PUSH1 0x0 MSTORE PUSH1 0x20 PUSH1 0x0 KECCAK256 PUSH1 0x1F DUP5 ADD PUSH1 0x5 SHR DUP2 ADD SWAP2 PUSH1 0x20 DUP6 LT PUSH2 0x1D8E JUMPI JUMPDEST PUSH1 0x1F ADD PUSH1 0x5 SHR ADD SWAP1 JUMPDEST DUP2 DUP2 LT PUSH2 0x1D82 JUMPI POP PUSH2 0x1809 JUMP JUMPDEST PUSH1 0x0 DUP2 SSTORE PUSH1 0x1 ADD PUSH2 0x1D75 JUMP JUMPDEST SWAP1 SWAP2 POP DUP2 SWAP1 PUSH2 0x1D6C JUMP JUMPDEST PUSH1 0x40 MLOAD PUSH3 0x461BCD PUSH1 0xE5 SHL DUP2 MSTORE DUP1 PUSH2 0x159C PUSH1 0x4 DUP3 ADD PUSH2 0x154B JUMP JUMPDEST PUSH1 0x1 PUSH1 0x1 PUSH1 0x40 SHL SUB DUP2 GT PUSH2 0x907 JUMPI PUSH1 0x5 SHL PUSH1 0x20 ADD SWAP1 JUMP JUMPDEST SWAP1 PUSH2 0x1DD2 DUP3 PUSH2 0x1DB1 JUMP JUMPDEST PUSH2 0x1DDF PUSH1 0x40 MLOAD SWAP2 DUP3 PUSH2 0xFF0 JUMP JUMPDEST DUP3 DUP2 MSTORE DUP1 SWAP3 PUSH2 0x1DF0 PUSH1 0x1F NOT SWAP2 PUSH2 0x1DB1 JUMP JUMPDEST ADD SWAP1 PUSH1 0x20 CALLDATASIZE SWAP2 ADD CALLDATACOPY JUMP JUMPDEST SWAP1 PUSH2 0x1E04 DUP3 PUSH2 0x1DB1 JUMP JUMPDEST PUSH2 0x1E11 PUSH1 0x40 MLOAD SWAP2 DUP3 PUSH2 0xFF0 JUMP JUMPDEST DUP3 DUP2 MSTORE DUP1 SWAP3 PUSH2 0x1E22 PUSH1 0x1F NOT SWAP2 PUSH2 0x1DB1 JUMP JUMPDEST ADD SWAP1 PUSH1 0x0 JUMPDEST DUP3 DUP2 LT PUSH2 0x1E33 JUMPI POP POP POP JUMP JUMPDEST DUP1 PUSH1 0x60 PUSH1 0x20 DUP1 SWAP4 DUP6 ADD ADD MSTORE ADD PUSH2 0x1E27 JUMP JUMPDEST DUP1 MLOAD DUP3 LT ISZERO PUSH2 0x13E9 JUMPI PUSH1 0x20 SWAP2 PUSH1 0x5 SHL ADD ADD SWAP1 JUMP JUMPDEST SWAP12 SWAP13 SWAP11 SWAP10 SWAP9 SWAP8 SWAP7 SWAP6 SWAP5 SWAP4 SWAP3 SWAP2 SWAP1 PUSH1 0x0 JUMPDEST PUSH1 0x0 SLOAD DUP2 LT ISZERO PUSH2 0x1D98 JUMPI DUP14 PUSH2 0x1E7C DUP3 PUSH2 0x13AF JUMP JUMPDEST POP SLOAD PUSH1 0x80 SHL SWAP1 PUSH1 0x1 PUSH1 0x1 PUSH1 0x80 SHL SUB NOT AND SWAP1 PUSH1 0x1 PUSH1 0x1 PUSH1 0x80 SHL SUB NOT AND EQ PUSH2 0x1EA4 JUMPI PUSH1 0x1 ADD PUSH2 0x1E68 JUMP JUMPDEST SWAP12 SWAP13 POP PUSH2 0x1EB0 DUP13 PUSH2 0x13AF JUMP JUMPDEST POP SWAP1 PUSH1 0x1 PUSH1 0x1 PUSH1 0x80 SHL SUB DUP3 SLOAD SWAP2 DUP2 NOT AND SWAP2 AND OR SWAP1 SSTORE PUSH1 0x1 PUSH2 0x1ED0 DUP13 PUSH2 0x13AF JUMP JUMPDEST POP ADD SWAP1 PUSH1 0x80 SHR PUSH1 0x1 PUSH1 0x1 PUSH1 0x80 SHL SUB NOT DUP3 SLOAD AND OR SWAP1 SSTORE PUSH1 0x1 PUSH2 0x1EF0 DUP12 PUSH2 0x13AF JUMP JUMPDEST POP ADD SWAP1 PUSH1 0x1 PUSH1 0x1 PUSH1 0x80 SHL SUB DUP3 SLOAD SWAP2 DUP2 NOT AND SWAP2 AND OR SWAP1 SSTORE PUSH1 0x2 PUSH2 0x1F11 DUP11 PUSH2 0x13AF JUMP JUMPDEST POP ADD SWAP1 DUP1 MLOAD SWAP1 PUSH1 0x1 PUSH1 0x1 PUSH1 0x40 SHL SUB DUP3 GT PUSH2 0x907 JUMPI DUP2 SWAP1 PUSH2 0x1F31 DUP5 SLOAD PUSH2 0x13FF JUMP JUMPDEST PUSH1 0x1F DUP2 GT PUSH2 0x2689 JUMPI JUMPDEST POP PUSH1 0x20 SWAP1 PUSH1 0x1F DUP4 GT PUSH1 0x1 EQ PUSH2 0x2624 JUMPI PUSH1 0x0 SWAP3 PUSH2 0x2619 JUMPI JUMPDEST POP POP DUP2 PUSH1 0x1 SHL SWAP2 PUSH1 0x0 NOT SWAP1 PUSH1 0x3 SHL SHR NOT AND OR SWAP1 SSTORE JUMPDEST PUSH1 0x3 PUSH2 0x1F71 DUP10 PUSH2 0x13AF JUMP JUMPDEST POP ADD SWAP1 DUP1 MLOAD SWAP1 PUSH1 0x1 PUSH1 0x1 PUSH1 0x40 SHL SUB DUP3 GT PUSH2 0x907 JUMPI DUP2 SWAP1 PUSH2 0x1F91 DUP5 SLOAD PUSH2 0x13FF JUMP JUMPDEST PUSH1 0x1F DUP2 GT PUSH2 0x25C6 JUMPI JUMPDEST POP PUSH1 0x20 SWAP1 PUSH1 0x1F DUP4 GT PUSH1 0x1 EQ PUSH2 0x2561 JUMPI PUSH1 0x0 SWAP3 PUSH2 0x2556 JUMPI JUMPDEST POP POP DUP2 PUSH1 0x1 SHL SWAP2 PUSH1 0x0 NOT SWAP1 PUSH1 0x3 SHL SHR NOT AND OR SWAP1 SSTORE JUMPDEST PUSH1 0x4 PUSH2 0x1FD1 DUP9 PUSH2 0x13AF JUMP JUMPDEST POP ADD SWAP1 DUP1 MLOAD SWAP1 PUSH1 0x1 PUSH1 0x1 PUSH1 0x40 SHL SUB DUP3 GT PUSH2 0x907 JUMPI PUSH2 0x1FEF DUP4 SLOAD PUSH2 0x13FF JUMP JUMPDEST PUSH1 0x1F DUP2 GT PUSH2 0x250E JUMPI JUMPDEST POP PUSH1 0x20 SWAP1 PUSH1 0x1F DUP4 GT PUSH1 0x1 EQ PUSH2 0x249E JUMPI SWAP2 DUP1 PUSH2 0x203C SWAP5 SWAP3 PUSH2 0x2061 SWAP8 SWAP7 SWAP5 PUSH1 0x0 SWAP3 PUSH2 0x2493 JUMPI JUMPDEST POP POP DUP2 PUSH1 0x1 SHL SWAP2 PUSH1 0x0 NOT SWAP1 PUSH1 0x3 SHL SHR NOT AND OR SWAP1 SSTORE JUMPDEST PUSH1 0x5 PUSH2 0x1848 DUP10 PUSH2 0x13AF JUMP JUMPDEST PUSH1 0x5 PUSH2 0x2047 DUP8 PUSH2 0x13AF JUMP JUMPDEST POP ADD SWAP1 PUSH2 0xFF00 DUP3 SLOAD SWAP2 ISZERO ISZERO PUSH1 0x8 SHL AND SWAP1 PUSH2 0xFF00 NOT AND OR SWAP1 SSTORE JUMP JUMPDEST PUSH1 0x6 PUSH2 0x206C DUP6 PUSH2 0x13AF JUMP JUMPDEST POP ADD SWAP1 DUP1 MLOAD SWAP1 PUSH1 0x1 PUSH1 0x1 PUSH1 0x40 SHL SUB DUP3 GT PUSH2 0x907 JUMPI DUP2 SWAP1 PUSH2 0x208C DUP5 SLOAD PUSH2 0x13FF JUMP JUMPDEST PUSH1 0x1F DUP2 GT PUSH2 0x2440 JUMPI JUMPDEST POP PUSH1 0x20 SWAP1 PUSH1 0x1F DUP4 GT PUSH1 0x1 EQ PUSH2 0x23DB JUMPI PUSH1 0x0 SWAP3 PUSH2 0x23D0 JUMPI JUMPDEST POP POP DUP2 PUSH1 0x1 SHL SWAP2 PUSH1 0x0 NOT SWAP1 PUSH1 0x3 SHL SHR NOT AND OR SWAP1 SSTORE JUMPDEST PUSH1 0x7 PUSH2 0x20CC DUP5 PUSH2 0x13AF JUMP JUMPDEST POP ADD SWAP1 DUP1 MLOAD SWAP1 PUSH1 0x1 PUSH1 0x1 PUSH1 0x40 SHL SUB DUP3 GT PUSH2 0x907 JUMPI DUP2 SWAP1 PUSH2 0x20EC DUP5 SLOAD PUSH2 0x13FF JUMP JUMPDEST PUSH1 0x1F DUP2 GT PUSH2 0x237D JUMPI JUMPDEST POP PUSH1 0x20 SWAP1 PUSH1 0x1F DUP4 GT PUSH1 0x1 EQ PUSH2 0x2318 JUMPI PUSH1 0x0 SWAP3 PUSH2 0x230D JUMPI JUMPDEST POP POP DUP2 PUSH1 0x1 SHL SWAP2 PUSH1 0x0 NOT SWAP1 PUSH1 0x3 SHL SHR NOT AND OR SWAP1 SSTORE JUMPDEST PUSH1 0x8 PUSH2 0x212C DUP4 PUSH2 0x13AF JUMP JUMPDEST POP ADD SWAP1 DUP1 MLOAD SWAP1 PUSH1 0x1 PUSH1 0x1 PUSH1 0x40 SHL SUB DUP3 GT PUSH2 0x907 JUMPI PUSH2 0x214A DUP4 SLOAD PUSH2 0x13FF JUMP JUMPDEST PUSH1 0x1F DUP2 GT PUSH2 0x22C5 JUMPI JUMPDEST POP PUSH1 0x20 SWAP1 PUSH1 0x1F DUP4 GT PUSH1 0x1 EQ PUSH2 0x2271 JUMPI SWAP2 DUP1 PUSH2 0x218D SWAP5 SWAP3 PUSH1 0x9 SWAP7 SWAP5 PUSH1 0x0 SWAP3 PUSH2 0x1A92 JUMPI POP POP DUP2 PUSH1 0x1 SHL SWAP2 PUSH1 0x0 NOT SWAP1 PUSH1 0x3 SHL SHR NOT AND OR SWAP1 SSTORE PUSH2 0x13AF JUMP JUMPDEST POP ADD DUP3 MLOAD PUSH1 0x1 PUSH1 0x1 PUSH1 0x40 SHL SUB DUP2 GT PUSH2 0x907 JUMPI PUSH2 0x21A9 DUP3 SLOAD PUSH2 0x13FF JUMP JUMPDEST PUSH1 0x1F DUP2 GT PUSH2 0x2229 JUMPI JUMPDEST POP PUSH1 0x20 PUSH1 0x1F DUP3 GT PUSH1 0x1 EQ PUSH2 0x21E1 JUMPI DUP2 SWAP3 SWAP4 SWAP5 PUSH1 0x0 SWAP3 PUSH2 0x19DD JUMPI POP POP DUP2 PUSH1 0x1 SHL SWAP2 PUSH1 0x0 NOT SWAP1 PUSH1 0x3 SHL SHR NOT AND OR SWAP1 SSTORE JUMP JUMPDEST PUSH1 0x1F NOT DUP3 AND SWAP1 DUP4 PUSH1 0x0 MSTORE DUP1 PUSH1 0x0 KECCAK256 SWAP2 PUSH1 0x0 JUMPDEST DUP2 DUP2 LT PUSH2 0x2211 JUMPI POP SWAP6 DUP4 PUSH1 0x1 SWAP6 SWAP7 SWAP8 LT PUSH2 0x1A19 JUMPI POP POP POP DUP2 SHL ADD SWAP1 SSTORE JUMP JUMPDEST SWAP2 SWAP3 PUSH1 0x20 PUSH1 0x1 DUP2 SWAP3 DUP7 DUP12 ADD MLOAD DUP2 SSTORE ADD SWAP5 ADD SWAP3 ADD PUSH2 0x21F3 JUMP JUMPDEST DUP3 PUSH1 0x0 MSTORE PUSH1 0x20 PUSH1 0x0 KECCAK256 PUSH1 0x1F DUP4 ADD PUSH1 0x5 SHR DUP2 ADD SWAP2 PUSH1 0x20 DUP5 LT PUSH2 0x2267 JUMPI JUMPDEST PUSH1 0x1F ADD PUSH1 0x5 SHR ADD SWAP1 JUMPDEST DUP2 DUP2 LT PUSH2 0x225B JUMPI POP PUSH2 0x21B2 JUMP JUMPDEST PUSH1 0x0 DUP2 SSTORE PUSH1 0x1 ADD PUSH2 0x224E JUMP JUMPDEST SWAP1 SWAP2 POP DUP2 SWAP1 PUSH2 0x2245 JUMP JUMPDEST SWAP1 PUSH1 0x1F NOT DUP4 AND SWAP2 DUP5 PUSH1 0x0 MSTORE DUP2 PUSH1 0x0 KECCAK256 SWAP3 PUSH1 0x0 JUMPDEST DUP2 DUP2 LT PUSH2 0x22AD JUMPI POP SWAP3 PUSH1 0x1 SWAP3 DUP6 SWAP3 PUSH1 0x9 SWAP9 SWAP7 PUSH2 0x218D SWAP9 SWAP7 LT PUSH2 0x1ADA JUMPI POP POP POP DUP2 SHL ADD SWAP1 SSTORE PUSH2 0x13AF JUMP JUMPDEST SWAP3 SWAP4 PUSH1 0x20 PUSH1 0x1 DUP2 SWAP3 DUP8 DUP7 ADD MLOAD DUP2 SSTORE ADD SWAP6 ADD SWAP4 ADD PUSH2 0x2284 JUMP JUMPDEST DUP4 PUSH1 0x0 MSTORE PUSH1 0x20 PUSH1 0x0 KECCAK256 PUSH1 0x1F DUP5 ADD PUSH1 0x5 SHR DUP2 ADD SWAP2 PUSH1 0x20 DUP6 LT PUSH2 0x2303 JUMPI JUMPDEST PUSH1 0x1F ADD PUSH1 0x5 SHR ADD SWAP1 JUMPDEST DUP2 DUP2 LT PUSH2 0x22F7 JUMPI POP PUSH2 0x2153 JUMP JUMPDEST PUSH1 0x0 DUP2 SSTORE PUSH1 0x1 ADD PUSH2 0x22EA JUMP JUMPDEST SWAP1 SWAP2 POP DUP2 SWAP1 PUSH2 0x22E1 JUMP JUMPDEST ADD MLOAD SWAP1 POP CODESIZE DUP1 PUSH2 0x210C JUMP JUMPDEST PUSH1 0x0 DUP6 DUP2 MSTORE DUP3 DUP2 KECCAK256 SWAP4 POP PUSH1 0x1F NOT DUP6 AND SWAP1 JUMPDEST DUP2 DUP2 LT PUSH2 0x2365 JUMPI POP SWAP1 DUP5 PUSH1 0x1 SWAP6 SWAP5 SWAP4 SWAP3 LT PUSH2 0x234C JUMPI JUMPDEST POP POP POP DUP2 SHL ADD SWAP1 SSTORE PUSH2 0x2121 JUMP JUMPDEST ADD MLOAD PUSH1 0x0 NOT PUSH1 0xF8 DUP5 PUSH1 0x3 SHL AND SHR NOT AND SWAP1 SSTORE CODESIZE DUP1 DUP1 PUSH2 0x233F JUMP JUMPDEST SWAP3 SWAP4 PUSH1 0x20 PUSH1 0x1 DUP2 SWAP3 DUP8 DUP7 ADD MLOAD DUP2 SSTORE ADD SWAP6 ADD SWAP4 ADD PUSH2 0x2329 JUMP JUMPDEST SWAP1 SWAP2 POP DUP4 PUSH1 0x0 MSTORE PUSH1 0x20 PUSH1 0x0 KECCAK256 PUSH1 0x1F DUP5 ADD PUSH1 0x5 SHR DUP2 ADD SWAP2 PUSH1 0x20 DUP6 LT PUSH2 0x23C6 JUMPI JUMPDEST SWAP1 PUSH1 0x1F DUP6 SWAP5 SWAP4 SWAP3 ADD PUSH1 0x5 SHR ADD SWAP1 JUMPDEST DUP2 DUP2 LT PUSH2 0x23B7 JUMPI POP PUSH2 0x20F5 JUMP JUMPDEST PUSH1 0x0 DUP2 SSTORE DUP5 SWAP4 POP PUSH1 0x1 ADD PUSH2 0x23AA JUMP JUMPDEST SWAP1 SWAP2 POP DUP2 SWAP1 PUSH2 0x239C JUMP JUMPDEST ADD MLOAD SWAP1 POP CODESIZE DUP1 PUSH2 0x20AC JUMP JUMPDEST PUSH1 0x0 DUP6 DUP2 MSTORE DUP3 DUP2 KECCAK256 SWAP4 POP PUSH1 0x1F NOT DUP6 AND SWAP1 JUMPDEST DUP2 DUP2 LT PUSH2 0x2428 JUMPI POP SWAP1 DUP5 PUSH1 0x1 SWAP6 SWAP5 SWAP4 SWAP3 LT PUSH2 0x240F JUMPI JUMPDEST POP POP POP DUP2 SHL ADD SWAP1 SSTORE PUSH2 0x20C1 JUMP JUMPDEST ADD MLOAD PUSH1 0x0 NOT PUSH1 0xF8 DUP5 PUSH1 0x3 SHL AND SHR NOT AND SWAP1 SSTORE CODESIZE DUP1 DUP1 PUSH2 0x2402 JUMP JUMPDEST SWAP3 SWAP4 PUSH1 0x20 PUSH1 0x1 DUP2 SWAP3 DUP8 DUP7 ADD MLOAD DUP2 SSTORE ADD SWAP6 ADD SWAP4 ADD PUSH2 0x23EC JUMP JUMPDEST SWAP1 SWAP2 POP DUP4 PUSH1 0x0 MSTORE PUSH1 0x20 PUSH1 0x0 KECCAK256 PUSH1 0x1F DUP5 ADD PUSH1 0x5 SHR DUP2 ADD SWAP2 PUSH1 0x20 DUP6 LT PUSH2 0x2489 JUMPI JUMPDEST SWAP1 PUSH1 0x1F DUP6 SWAP5 SWAP4 SWAP3 ADD PUSH1 0x5 SHR ADD SWAP1 JUMPDEST DUP2 DUP2 LT PUSH2 0x247A JUMPI POP PUSH2 0x2095 JUMP JUMPDEST PUSH1 0x0 DUP2 SSTORE DUP5 SWAP4 POP PUSH1 0x1 ADD PUSH2 0x246D JUMP JUMPDEST SWAP1 SWAP2 POP DUP2 SWAP1 PUSH2 0x245F JUMP JUMPDEST ADD MLOAD SWAP1 POP CODESIZE DUP1 PUSH2 0x201C JUMP JUMPDEST SWAP1 PUSH1 0x1F NOT DUP4 AND SWAP2 DUP5 PUSH1 0x0 MSTORE DUP2 PUSH1 0x0 KECCAK256 SWAP3 PUSH1 0x0 JUMPDEST DUP2 DUP2 LT PUSH2 0x24F6 JUMPI POP SWAP3 PUSH1 0x1 SWAP3 DUP6 SWAP3 PUSH2 0x2061 SWAP10 SWAP9 SWAP7 PUSH2 0x203C SWAP9 SWAP7 LT PUSH2 0x24DD JUMPI JUMPDEST POP POP POP DUP2 SHL ADD SWAP1 SSTORE PUSH2 0x2031 JUMP JUMPDEST ADD MLOAD PUSH1 0x0 NOT PUSH1 0xF8 DUP5 PUSH1 0x3 SHL AND SHR NOT AND SWAP1 SSTORE CODESIZE DUP1 DUP1 PUSH2 0x24D0 JUMP JUMPDEST SWAP3 SWAP4 PUSH1 0x20 PUSH1 0x1 DUP2 SWAP3 DUP8 DUP7 ADD MLOAD DUP2 SSTORE ADD SWAP6 ADD SWAP4 ADD PUSH2 0x24B1 JUMP JUMPDEST DUP4 PUSH1 0x0 MSTORE PUSH1 0x20 PUSH1 0x0 KECCAK256 PUSH1 0x1F DUP5 ADD PUSH1 0x5 SHR DUP2 ADD SWAP2 PUSH1 0x20 DUP6 LT PUSH2 0x254C JUMPI JUMPDEST PUSH1 0x1F ADD PUSH1 0x5 SHR ADD SWAP1 JUMPDEST DUP2 DUP2 LT PUSH2 0x2540 JUMPI POP PUSH2 0x1FF8 JUMP JUMPDEST PUSH1 0x0 DUP2 SSTORE PUSH1 0x1 ADD PUSH2 0x2533 JUMP JUMPDEST SWAP1 SWAP2 POP DUP2 SWAP1 PUSH2 0x252A JUMP JUMPDEST ADD MLOAD SWAP1 POP CODESIZE DUP1 PUSH2 0x1FB1 JUMP JUMPDEST PUSH1 0x0 DUP6 DUP2 MSTORE DUP3 DUP2 KECCAK256 SWAP4 POP PUSH1 0x1F NOT DUP6 AND SWAP1 JUMPDEST DUP2 DUP2 LT PUSH2 0x25AE JUMPI POP SWAP1 DUP5 PUSH1 0x1 SWAP6 SWAP5 SWAP4 SWAP3 LT PUSH2 0x2595 JUMPI JUMPDEST POP POP POP DUP2 SHL ADD SWAP1 SSTORE PUSH2 0x1FC6 JUMP JUMPDEST ADD MLOAD PUSH1 0x0 NOT PUSH1 0xF8 DUP5 PUSH1 0x3 SHL AND SHR NOT AND SWAP1 SSTORE CODESIZE DUP1 DUP1 PUSH2 0x2588 JUMP JUMPDEST SWAP3 SWAP4 PUSH1 0x20 PUSH1 0x1 DUP2 SWAP3 DUP8 DUP7 ADD MLOAD DUP2 SSTORE ADD SWAP6 ADD SWAP4 ADD PUSH2 0x2572 JUMP JUMPDEST SWAP1 SWAP2 POP DUP4 PUSH1 0x0 MSTORE PUSH1 0x20 PUSH1 0x0 KECCAK256 PUSH1 0x1F DUP5 ADD PUSH1 0x5 SHR DUP2 ADD SWAP2 PUSH1 0x20 DUP6 LT PUSH2 0x260F JUMPI JUMPDEST SWAP1 PUSH1 0x1F DUP6 SWAP5 SWAP4 SWAP3 ADD PUSH1 0x5 SHR ADD SWAP1 JUMPDEST DUP2 DUP2 LT PUSH2 0x2600 JUMPI POP PUSH2 0x1F9A JUMP JUMPDEST PUSH1 0x0 DUP2 SSTORE DUP5 SWAP4 POP PUSH1 0x1 ADD PUSH2 0x25F3 JUMP JUMPDEST SWAP1 SWAP2 POP DUP2 SWAP1 PUSH2 0x25E5 JUMP JUMPDEST ADD MLOAD SWAP1 POP CODESIZE DUP1 PUSH2 0x1F51 JUMP JUMPDEST PUSH1 0x0 DUP6 DUP2 MSTORE DUP3 DUP2 KECCAK256 SWAP4 POP PUSH1 0x1F NOT DUP6 AND SWAP1 JUMPDEST DUP2 DUP2 LT PUSH2 0x2671 JUMPI POP SWAP1 DUP5 PUSH1 0x1 SWAP6 SWAP5 SWAP4 SWAP3 LT PUSH2 0x2658 JUMPI JUMPDEST POP POP POP DUP2 SHL ADD SWAP1 SSTORE PUSH2 0x1F66 JUMP JUMPDEST ADD MLOAD PUSH1 0x0 NOT PUSH1 0xF8 DUP5 PUSH1 0x3 SHL AND SHR NOT AND SWAP1 SSTORE CODESIZE DUP1 DUP1 PUSH2 0x264B JUMP JUMPDEST SWAP3 SWAP4 PUSH1 0x20 PUSH1 0x1 DUP2 SWAP3 DUP8 DUP7 ADD MLOAD DUP2 SSTORE ADD SWAP6 ADD SWAP4 ADD PUSH2 0x2635 JUMP JUMPDEST SWAP1 SWAP2 POP DUP4 PUSH1 0x0 MSTORE PUSH1 0x20 PUSH1 0x0 KECCAK256 PUSH1 0x1F DUP5 ADD PUSH1 0x5 SHR DUP2 ADD SWAP2 PUSH1 0x20 DUP6 LT PUSH2 0x26D2 JUMPI JUMPDEST SWAP1 PUSH1 0x1F DUP6 SWAP5 SWAP4 SWAP3 ADD PUSH1 0x5 SHR ADD SWAP1 JUMPDEST DUP2 DUP2 LT PUSH2 0x26C3 JUMPI POP PUSH2 0x1F3A JUMP JUMPDEST PUSH1 0x0 DUP2 SSTORE DUP5 SWAP4 POP PUSH1 0x1 ADD PUSH2 0x26B6 JUMP JUMPDEST SWAP1 SWAP2 POP DUP2 SWAP1 PUSH2 0x26A8 JUMP INVALID LOG2 PUSH5 0x6970667358 0x22 SLT KECCAK256 SWAP6 MLOAD 0xBA PUSH28 0x2204816FFAEC42F515245ED3BC79BFC3F23081D6076A0EC10FE4F63B PUSH5 0x736F6C6343 STOP ADDMOD SHR STOP CALLER "},"methodIdentifiers":{"addUser(bytes16,bytes16,bytes16,bytes16,string,string,string,bool,bool,string,string,string,string)":"dc4db42a","getAllUsers()":"e2842d79","getUserByName(string)":"4bff5009","getUserByStudentNumber(string)":"1c7b3270","updateUser(bytes16,bytes16,bytes16,bytes16,string,string,string,bool,bool,string,string,string,string)":"eb6f9c3e","updateUserByStudentNumber(string,bytes16,bytes16,bytes16,string,bool,string,string,string,string)":"53dc393b"}}}}}