{"contracts/FunderRegistry.sol":{"FunderRegistry":{"abi":[{"anonymous":false,"inputs":[{"indexed":true,"internalType":"bytes16","name":"id","type":"bytes16"},{"indexed":false,"internalType":"string","name":"name","type":"string"}],"name":"FunderAdded","type":"event"},{"inputs":[{"internalType":"bytes16","name":"_id","type":"bytes16"},{"internalType":"string","name":"_name","type":"string"},{"internalType":"bool","name":"_isActive","type":"bool"},{"internalType":"bytes16","name":"_funderContractId","type":"bytes16"},{"internalType":"bool","name":"_isChangeConfirmed","type":"bool"},{"internalType":"string","name":"_paymentDate","type":"string"},{"internalType":"string","name":"_modifiedBy","type":"string"},{"internalType":"string","name":"_updatedAt","type":"string"}],"name":"addFunder","outputs":[],"stateMutability":"nonpayable","type":"function"},{"inputs":[],"name":"getAllFunders","outputs":[{"internalType":"bytes16[]","name":"ids","type":"bytes16[]"},{"internalType":"string[]","name":"names","type":"string[]"},{"internalType":"string[]","name":"isActives","type":"string[]"},{"internalType":"bytes16[]","name":"funderContractIds","type":"bytes16[]"},{"internalType":"bool[]","name":"isChangeConfirmeds","type":"bool[]"},{"internalType":"string[]","name":"paymentDates","type":"string[]"},{"internalType":"string[]","name":"modifiedBys","type":"string[]"},{"internalType":"string[]","name":"updatedAts","type":"string[]"}],"stateMutability":"view","type":"function"},{"inputs":[{"internalType":"bytes16","name":"_id","type":"bytes16"}],"name":"getFunderById","outputs":[{"internalType":"bytes16","name":"id","type":"bytes16"},{"internalType":"string","name":"name","type":"string"},{"internalType":"string","name":"isActive","type":"string"},{"internalType":"bytes16","name":"funderContractId","type":"bytes16"},{"internalType":"bool","name":"isChangeConfirmed","type":"bool"},{"internalType":"string","name":"paymentDate","type":"string"},{"internalType":"string","name":"modifiedBy","type":"string"},{"internalType":"string","name":"updatedAt","type":"string"}],"stateMutability":"view","type":"function"},{"inputs":[{"internalType":"string","name":"_name","type":"string"}],"name":"getFunderByName","outputs":[{"internalType":"bytes16","name":"id","type":"bytes16"},{"internalType":"string","name":"name","type":"string"},{"internalType":"string","name":"isActive","type":"string"},{"internalType":"bytes16","name":"funderContractId","type":"bytes16"},{"internalType":"bool","name":"isChangeConfirmed","type":"bool"},{"internalType":"string","name":"paymentDate","type":"string"},{"internalType":"string","name":"modifiedBy","type":"string"},{"internalType":"string","name":"updatedAt","type":"string"}],"stateMutability":"view","type":"function"},{"inputs":[{"internalType":"bytes16","name":"_id","type":"bytes16"},{"internalType":"string","name":"_name","type":"string"},{"internalType":"bool","name":"_isActive","type":"bool"},{"internalType":"bytes16","name":"_funderContractId","type":"bytes16"},{"internalType":"bool","name":"_isChangeConfirmed","type":"bool"},{"internalType":"string","name":"_paymentDate","type":"string"},{"internalType":"string","name":"_modifiedBy","type":"string"},{"internalType":"string","name":"_updatedAt","type":"string"}],"name":"updateFunderById","outputs":[],"stateMutability":"nonpayable","type":"function"}],"evm":{"bytecode":{"linkReferences":{},"object":"6080806040523460155761163b908161001b8239f35b600080fdfe6080604052600436101561001257600080fd5b60003560e01c80636fbbb55d14610d6f578063862b7b9514610c575780639b9509fa1461073c578063c06dce8b146100ad5763e86e356b1461005357600080fd5b346100a85760203660031901126100a8576004356001600160401b0381116100a85761008e6100896100a4923690600401611187565b6114f9565b94604098969894919493929351988998896110de565b0390f35b600080fd5b346100a8576100bb366111dd565b966001600160801b0396959193961916958660005260016020526040600020546106e8576040519461010086018681106001600160401b03821117610477576040528786526020860187815260408701931515845260608701916001600160801b031916825260808701921515835260a0870194855260c0870195865260e08701998a526000546801000000000000000081101561047757806001610163920160005561133d565b9790976106d2575160801c6001600160801b03198854161787556001870190518051906001600160401b0382116104775761019e83546113a1565b601f811161068a575b50602090601f8311600114610619579180610221949261023c9897969460009261060e575b50508160011b916000199060031b1c19161790555b6101fe6002890194511515859060ff801983541691151516179055565b518354610100600160881b03191660789190911c610100600160881b0316178355565b51815460ff60881b191690151560881b60ff60881b16179055565b51805160038401916001600160401b03821161047757819061025e84546113a1565b601f81116105bb575b50602090601f83116001146105565760009261054b575b50508160011b916000199060031b1c19161790555b51805160048301916001600160401b038211610477576102b383546113a1565b601f8111610503575b50602090601f8311600114610498576005949392916000918361048d575b50508160011b916000199060031b1c19161790555b0192519283516001600160401b0381116104775761030d82546113a1565b601f811161042f575b506020601f82116001146103a25790806103929493927fc68ed793f5f5e55bf2fec97d11d74cdd6c148a5cae3073e7d39609ba260134c69697600092610397575b50508160011b916000199060031b1c19161790555b600054846000526001602052604060002055604051918291602083526020830190611044565b0390a2005b015190508780610357565b601f1982169583600052816000209660005b81811061041757509660019284926103929796957fc68ed793f5f5e55bf2fec97d11d74cdd6c148a5cae3073e7d39609ba260134c6999a106103fe575b505050811b01905561036c565b015160001960f88460031b161c191690558780806103f1565b838301518955600190980197602093840193016103b4565b826000526020600020601f830160051c8101916020841061046d575b601f0160051c01905b8181106104615750610316565b60008155600101610454565b909150819061044b565b634e487b7160e01b600052604160045260246000fd5b0151905088806102da565b90601f1983169184600052816000209260005b8181106104eb5750916001939185600598979694106104d2575b505050811b0190556102ef565b015160001960f88460031b161c191690558880806104c5565b929360206001819287860151815501950193016104ab565b836000526020600020601f840160051c81019160208510610541575b601f0160051c01905b81811061053557506102bc565b60008155600101610528565b909150819061051f565b01519050888061027e565b60008581528281209350601f198516905b8181106105a3575090846001959493921061058a575b505050811b019055610293565b015160001960f88460031b161c1916905588808061057d565b92936020600181928786015181550195019301610567565b909150836000526020600020601f840160051c81019160208510610604575b90601f859493920160051c01905b8181106105f55750610267565b600081558493506001016105e8565b90915081906105da565b015190508e806101cc565b90601f1983169184600052816000209260005b818110610672575092600192859261023c9a999896610221989610610659575b505050811b0190556101e1565b015160001960f88460031b161c191690558e808061064c565b9293602060018192878601518155019501930161062c565b836000526020600020601f840160051c810191602085106106c8575b601f0160051c01905b8181106106bc57506101a7565b600081556001016106af565b90915081906106a6565b634e487b7160e01b600052600060045260246000fd5b60405162461bcd60e51b815260206004820152602660248201527f46756e64657252656769737472793a2046756e64657220616c726561647920656044820152653c34b9ba399760d11b6064820152608490fd5b346100a85761074a366111dd565b9594919390966001600160801b03191660005260016020526040600020546107738115156114a3565b6000198101908111610c41576107889061133d565b509460018601908051906001600160401b038211610477576107aa83546113a1565b601f8111610bf9575b50602090601f8311600114610b88579180610829949261084698979694600092610b7d575b50508160011b916000199060031b1c19161790555b6108076002880193849060ff801983541691151516179055565b8254610100600160881b03191660789190911c610100600160881b0316178255565b805460ff60881b191691151560881b60ff60881b16919091179055565b805160038301916001600160401b03821161047757819061086784546113a1565b601f8111610b2a575b50602090601f8311600114610ac557600092610aba575b50508160011b916000199060031b1c19161790555b6004810183516001600160401b038111610477576108ba82546113a1565b601f8111610a72575b506020601f8211600114610a09578190600595966000926109fe575b50508160011b916000199060031b1c19161790555b0181516001600160401b0381116104775761090f82546113a1565b601f81116109b6575b50602092601f8211600114610956579281929360009261094b575b5050600019600383901b1c191660019190911b179055005b015190508380610933565b601f1982169383600052806000209160005b86811061099e5750836001959610610985575b505050811b019055005b015160001960f88460031b161c1916905583808061097b565b91926020600181928685015181550194019201610968565b826000526020600020601f830160051c810191602084106109f4575b601f0160051c01905b8181106109e85750610918565b600081556001016109db565b90915081906109d2565b0151905086806108df565b601f1982169583600052816000209660005b818110610a5a5750916005969791846001959410610a41575b505050811b0190556108f4565b015160001960f88460031b161c19169055868080610a34565b83830151895560019098019760209384019301610a1b565b826000526020600020601f830160051c81019160208410610ab0575b601f0160051c01905b818110610aa457506108c3565b60008155600101610a97565b9091508190610a8e565b015190508680610887565b60008581528281209350601f198516905b818110610b125750908460019594939210610af9575b505050811b01905561089c565b015160001960f88460031b161c19169055868080610aec565b92936020600181928786015181550195019301610ad6565b909150836000526020600020601f840160051c81019160208510610b73575b90601f859493920160051c01905b818110610b645750610870565b60008155849350600101610b57565b9091508190610b49565b015190508c806107d8565b90601f1983169184600052816000209260005b818110610be157509260019285926108469a999896610829989610610bc8575b505050811b0190556107ed565b015160001960f88460031b161c191690558c8080610bbb565b92936020600181928786015181550195019301610b9b565b836000526020600020601f840160051c81019160208510610c37575b601f0160051c01905b818110610c2b57506107b3565b60008155600101610c1e565b9091508190610c15565b634e487b7160e01b600052601160045260246000fd5b346100a85760203660031901126100a8576004356001600160801b031981168091036100a8576000526001602052604060002054610c968115156114a3565b6000198101908111610c4157610cab9061133d565b50805460801b906100a4600560405192610cd384610ccc81600185016113db565b0385611166565b60028101549460ff861615610d6157610cea611481565b955b60405191610d0883610d0181600388016113db565b0384611166565b610d3e60405194610d2786610d2081600485016113db565b0387611166565b610d3760405180988193016113db565b0386611166565b604051978897608884901c60ff169360781b6001600160801b03191692896110de565b610d6961145e565b95610cec565b346100a85760003660031901126100a857600054610d8c816112c1565b90610d96816112f3565b90610da0816112f3565b92610daa826112c1565b92610db4836112aa565b610dc16040519182611166565b838152610dcd846112aa565b602082019590601f1901368737610de3856112f3565b92610ded866112f3565b94610df7876112f3565b9660005b818110610ebd57505091610e446101009899610e36610e5294610e296020976040519d8e8181520190611006565b8c8103888e015290611085565b908a820360408c0152611085565b9088820360608a0152611006565b918683036080880152519182815201959060005b818110610ea55786806100a488610e9789610e898e8b87820360a0890152611085565b9085820360c0870152611085565b9083820360e0850152611085565b82511515885260209788019790920191600101610e66565b806005610fdd8d610ecf60019561133d565b5090815460801b610ee0868a61138d565b906001600160801b0319169052604051610f0781610f00818a87016113db565b0382611166565b610f11868b61138d565b52610f1c858a61138d565b50610f4a8560028401549260ff8416600014610ff957610f3a611481565b610f44838361138d565b5261138d565b506001600160801b03198160781b16610f63868c61138d565b5260ff610f70868d61138d565b9160881c1615159052604051610f8d81610f0081600386016113db565b610f97858d61138d565b52610fa2848c61138d565b50604051610fc1858e610fbc84610ccc81600489016113db565b61138d565b52610fcc848d61138d565b50610f0060405180948193016113db565b610fe7828c61138d565b52610ff2818b61138d565b5001610dfb565b61100161145e565b610f3a565b906020808351928381520192019060005b8181106110245750505090565b82516001600160801b031916845260209384019390920191600101611017565b919082519283825260005b848110611070575050826000602080949584010152601f8019910116010190565b8060208092840101518282860101520161104f565b9080602083519182815201916020808360051b8301019401926000915b8383106110b157505050505090565b90919293946020806110cf600193601f198682030187528951611044565b970193019301919392906110a2565b9693919461112361114794611115611155986111639c9a956001600160801b0319168c5261010060208d01526101008c0190611044565b908a820360408c0152611044565b926001600160801b03191660608901521515608088015286820360a0880152611044565b9084820360c0860152611044565b9160e0818403910152611044565b90565b90601f801991011681019081106001600160401b0382111761047757604052565b81601f820112156100a8578035906001600160401b03821161047757604051926111bb601f8401601f191660200185611166565b828452602083830101116100a857816000926020809301838601378301015290565b906101006003198301126100a8576004356001600160801b0319811681036100a857916024356001600160401b0381116100a8578161121e91600401611187565b9160443580151581036100a857916064356001600160801b0319811681036100a8579160843580151581036100a8579160a4356001600160401b0381116100a8578161126c91600401611187565b9160c4356001600160401b0381116100a8578261128b91600401611187565b9160e435906001600160401b0382116100a85761116391600401611187565b6001600160401b0381116104775760051b60200190565b906112cb826112aa565b6112d86040519182611166565b82815280926112e9601f19916112aa565b0190602036910137565b906112fd826112aa565b61130a6040519182611166565b828152809261131b601f19916112aa565b019060005b82811061132c57505050565b806060602080938501015201611320565b6000548110156113775760008080526006919091027f290decd9548b62a8d60345a988386fc84ba6bc95484008f6362f93160ef3e5630191565b634e487b7160e01b600052603260045260246000fd5b80518210156113775760209160051b010190565b90600182811c921680156113d1575b60208310146113bb57565b634e487b7160e01b600052602260045260246000fd5b91607f16916113b0565b600092918154916113eb836113a1565b8083529260018116908115611441575060011461140757505050565b60009081526020812093945091925b838310611427575060209250010190565b600181602092949394548385870101520191019190611416565b915050602093945060ff929192191683830152151560051b010190565b6040519061146d604083611166565b600582526466616c736560d81b6020830152565b60405190611490604083611166565b60048252637472756560e01b6020830152565b156114aa57565b60405162461bcd60e51b815260206004820152602160248201527f46756e64657252656769737472793a2046756e646572206e6f7420666f756e646044820152601760f91b6064820152608490fd5b60009160609182916000916000918591869187916000908154915b82811061152057505050565b600161152e610fcc8361133d565b60208151910120825160208401201461154957600101611514565b985050509750505050505061155e915061133d565b50805460801b916040519261157a84610ccc81600187016113db565b60028301549060ff8216156115f757611591611481565b935b6005604051926115aa84610ccc81600387016113db565b6115d9604051936115c285610d3781600485016113db565b6115d260405180958193016113db565b0383611166565b96959460ff6001600160801b03198660781b169560881c1693929190565b6115ff61145e565b9361159356fea26469706673582212209ce911d91e2c9524ae7821317c2dd26e476a6aedf5fb65880d9e58bb2572c12c64736f6c634300081c0033","opcodes":"PUSH1 0x80 DUP1 PUSH1 0x40 MSTORE CALLVALUE PUSH1 0x15 JUMPI PUSH2 0x163B SWAP1 DUP2 PUSH2 0x1B DUP3 CODECOPY RETURN JUMPDEST PUSH1 0x0 DUP1 REVERT INVALID PUSH1 0x80 PUSH1 0x40 MSTORE PUSH1 0x4 CALLDATASIZE LT ISZERO PUSH2 0x12 JUMPI PUSH1 0x0 DUP1 REVERT JUMPDEST PUSH1 0x0 CALLDATALOAD PUSH1 0xE0 SHR DUP1 PUSH4 0x6FBBB55D EQ PUSH2 0xD6F JUMPI DUP1 PUSH4 0x862B7B95 EQ PUSH2 0xC57 JUMPI DUP1 PUSH4 0x9B9509FA EQ PUSH2 0x73C JUMPI DUP1 PUSH4 0xC06DCE8B EQ PUSH2 0xAD JUMPI PUSH4 0xE86E356B EQ PUSH2 0x53 JUMPI PUSH1 0x0 DUP1 REVERT JUMPDEST CALLVALUE PUSH2 0xA8 JUMPI PUSH1 0x20 CALLDATASIZE PUSH1 0x3 NOT ADD SLT PUSH2 0xA8 JUMPI PUSH1 0x4 CALLDATALOAD PUSH1 0x1 PUSH1 0x1 PUSH1 0x40 SHL SUB DUP2 GT PUSH2 0xA8 JUMPI PUSH2 0x8E PUSH2 0x89 PUSH2 0xA4 SWAP3 CALLDATASIZE SWAP1 PUSH1 0x4 ADD PUSH2 0x1187 JUMP JUMPDEST PUSH2 0x14F9 JUMP JUMPDEST SWAP5 PUSH1 0x40 SWAP9 SWAP7 SWAP9 SWAP5 SWAP2 SWAP5 SWAP4 SWAP3 SWAP4 MLOAD SWAP9 DUP10 SWAP9 DUP10 PUSH2 0x10DE JUMP JUMPDEST SUB SWAP1 RETURN JUMPDEST PUSH1 0x0 DUP1 REVERT JUMPDEST CALLVALUE PUSH2 0xA8 JUMPI PUSH2 0xBB CALLDATASIZE PUSH2 0x11DD JUMP JUMPDEST SWAP7 PUSH1 0x1 PUSH1 0x1 PUSH1 0x80 SHL SUB SWAP7 SWAP6 SWAP2 SWAP4 SWAP7 NOT AND SWAP6 DUP7 PUSH1 0x0 MSTORE PUSH1 0x1 PUSH1 0x20 MSTORE PUSH1 0x40 PUSH1 0x0 KECCAK256 SLOAD PUSH2 0x6E8 JUMPI PUSH1 0x40 MLOAD SWAP5 PUSH2 0x100 DUP7 ADD DUP7 DUP2 LT PUSH1 0x1 PUSH1 0x1 PUSH1 0x40 SHL SUB DUP3 GT OR PUSH2 0x477 JUMPI PUSH1 0x40 MSTORE DUP8 DUP7 MSTORE PUSH1 0x20 DUP7 ADD DUP8 DUP2 MSTORE PUSH1 0x40 DUP8 ADD SWAP4 ISZERO ISZERO DUP5 MSTORE PUSH1 0x60 DUP8 ADD SWAP2 PUSH1 0x1 PUSH1 0x1 PUSH1 0x80 SHL SUB NOT AND DUP3 MSTORE PUSH1 0x80 DUP8 ADD SWAP3 ISZERO ISZERO DUP4 MSTORE PUSH1 0xA0 DUP8 ADD SWAP5 DUP6 MSTORE PUSH1 0xC0 DUP8 ADD SWAP6 DUP7 MSTORE PUSH1 0xE0 DUP8 ADD SWAP10 DUP11 MSTORE PUSH1 0x0 SLOAD PUSH9 0x10000000000000000 DUP2 LT ISZERO PUSH2 0x477 JUMPI DUP1 PUSH1 0x1 PUSH2 0x163 SWAP3 ADD PUSH1 0x0 SSTORE PUSH2 0x133D JUMP JUMPDEST SWAP8 SWAP1 SWAP8 PUSH2 0x6D2 JUMPI MLOAD PUSH1 0x80 SHR PUSH1 0x1 PUSH1 0x1 PUSH1 0x80 SHL SUB NOT DUP9 SLOAD AND OR DUP8 SSTORE PUSH1 0x1 DUP8 ADD SWAP1 MLOAD DUP1 MLOAD SWAP1 PUSH1 0x1 PUSH1 0x1 PUSH1 0x40 SHL SUB DUP3 GT PUSH2 0x477 JUMPI PUSH2 0x19E DUP4 SLOAD PUSH2 0x13A1 JUMP JUMPDEST PUSH1 0x1F DUP2 GT PUSH2 0x68A JUMPI JUMPDEST POP PUSH1 0x20 SWAP1 PUSH1 0x1F DUP4 GT PUSH1 0x1 EQ PUSH2 0x619 JUMPI SWAP2 DUP1 PUSH2 0x221 SWAP5 SWAP3 PUSH2 0x23C SWAP9 SWAP8 SWAP7 SWAP5 PUSH1 0x0 SWAP3 PUSH2 0x60E JUMPI JUMPDEST POP POP DUP2 PUSH1 0x1 SHL SWAP2 PUSH1 0x0 NOT SWAP1 PUSH1 0x3 SHL SHR NOT AND OR SWAP1 SSTORE JUMPDEST PUSH2 0x1FE PUSH1 0x2 DUP10 ADD SWAP5 MLOAD ISZERO ISZERO DUP6 SWAP1 PUSH1 0xFF DUP1 NOT DUP4 SLOAD AND SWAP2 ISZERO ISZERO AND OR SWAP1 SSTORE JUMP JUMPDEST MLOAD DUP4 SLOAD PUSH2 0x100 PUSH1 0x1 PUSH1 0x88 SHL SUB NOT AND PUSH1 0x78 SWAP2 SWAP1 SWAP2 SHR PUSH2 0x100 PUSH1 0x1 PUSH1 0x88 SHL SUB AND OR DUP4 SSTORE JUMP JUMPDEST MLOAD DUP2 SLOAD PUSH1 0xFF PUSH1 0x88 SHL NOT AND SWAP1 ISZERO ISZERO PUSH1 0x88 SHL PUSH1 0xFF PUSH1 0x88 SHL AND OR SWAP1 SSTORE JUMP JUMPDEST MLOAD DUP1 MLOAD PUSH1 0x3 DUP5 ADD SWAP2 PUSH1 0x1 PUSH1 0x1 PUSH1 0x40 SHL SUB DUP3 GT PUSH2 0x477 JUMPI DUP2 SWAP1 PUSH2 0x25E DUP5 SLOAD PUSH2 0x13A1 JUMP JUMPDEST PUSH1 0x1F DUP2 GT PUSH2 0x5BB JUMPI JUMPDEST POP PUSH1 0x20 SWAP1 PUSH1 0x1F DUP4 GT PUSH1 0x1 EQ PUSH2 0x556 JUMPI PUSH1 0x0 SWAP3 PUSH2 0x54B JUMPI JUMPDEST POP POP DUP2 PUSH1 0x1 SHL SWAP2 PUSH1 0x0 NOT SWAP1 PUSH1 0x3 SHL SHR NOT AND OR SWAP1 SSTORE JUMPDEST MLOAD DUP1 MLOAD PUSH1 0x4 DUP4 ADD SWAP2 PUSH1 0x1 PUSH1 0x1 PUSH1 0x40 SHL SUB DUP3 GT PUSH2 0x477 JUMPI PUSH2 0x2B3 DUP4 SLOAD PUSH2 0x13A1 JUMP JUMPDEST PUSH1 0x1F DUP2 GT PUSH2 0x503 JUMPI JUMPDEST POP PUSH1 0x20 SWAP1 PUSH1 0x1F DUP4 GT PUSH1 0x1 EQ PUSH2 0x498 JUMPI PUSH1 0x5 SWAP5 SWAP4 SWAP3 SWAP2 PUSH1 0x0 SWAP2 DUP4 PUSH2 0x48D JUMPI JUMPDEST POP POP DUP2 PUSH1 0x1 SHL SWAP2 PUSH1 0x0 NOT SWAP1 PUSH1 0x3 SHL SHR NOT AND OR SWAP1 SSTORE JUMPDEST ADD SWAP3 MLOAD SWAP3 DUP4 MLOAD PUSH1 0x1 PUSH1 0x1 PUSH1 0x40 SHL SUB DUP2 GT PUSH2 0x477 JUMPI PUSH2 0x30D DUP3 SLOAD PUSH2 0x13A1 JUMP JUMPDEST PUSH1 0x1F DUP2 GT PUSH2 0x42F JUMPI JUMPDEST POP PUSH1 0x20 PUSH1 0x1F DUP3 GT PUSH1 0x1 EQ PUSH2 0x3A2 JUMPI SWAP1 DUP1 PUSH2 0x392 SWAP5 SWAP4 SWAP3 PUSH32 0xC68ED793F5F5E55BF2FEC97D11D74CDD6C148A5CAE3073E7D39609BA260134C6 SWAP7 SWAP8 PUSH1 0x0 SWAP3 PUSH2 0x397 JUMPI JUMPDEST POP POP DUP2 PUSH1 0x1 SHL SWAP2 PUSH1 0x0 NOT SWAP1 PUSH1 0x3 SHL SHR NOT AND OR SWAP1 SSTORE JUMPDEST PUSH1 0x0 SLOAD DUP5 PUSH1 0x0 MSTORE PUSH1 0x1 PUSH1 0x20 MSTORE PUSH1 0x40 PUSH1 0x0 KECCAK256 SSTORE PUSH1 0x40 MLOAD SWAP2 DUP3 SWAP2 PUSH1 0x20 DUP4 MSTORE PUSH1 0x20 DUP4 ADD SWAP1 PUSH2 0x1044 JUMP JUMPDEST SUB SWAP1 LOG2 STOP JUMPDEST ADD MLOAD SWAP1 POP DUP8 DUP1 PUSH2 0x357 JUMP JUMPDEST PUSH1 0x1F NOT DUP3 AND SWAP6 DUP4 PUSH1 0x0 MSTORE DUP2 PUSH1 0x0 KECCAK256 SWAP7 PUSH1 0x0 JUMPDEST DUP2 DUP2 LT PUSH2 0x417 JUMPI POP SWAP7 PUSH1 0x1 SWAP3 DUP5 SWAP3 PUSH2 0x392 SWAP8 SWAP7 SWAP6 PUSH32 0xC68ED793F5F5E55BF2FEC97D11D74CDD6C148A5CAE3073E7D39609BA260134C6 SWAP10 SWAP11 LT PUSH2 0x3FE JUMPI JUMPDEST POP POP POP DUP2 SHL ADD SWAP1 SSTORE PUSH2 0x36C JUMP JUMPDEST ADD MLOAD PUSH1 0x0 NOT PUSH1 0xF8 DUP5 PUSH1 0x3 SHL AND SHR NOT AND SWAP1 SSTORE DUP8 DUP1 DUP1 PUSH2 0x3F1 JUMP JUMPDEST DUP4 DUP4 ADD MLOAD DUP10 SSTORE PUSH1 0x1 SWAP1 SWAP9 ADD SWAP8 PUSH1 0x20 SWAP4 DUP5 ADD SWAP4 ADD PUSH2 0x3B4 JUMP JUMPDEST DUP3 PUSH1 0x0 MSTORE PUSH1 0x20 PUSH1 0x0 KECCAK256 PUSH1 0x1F DUP4 ADD PUSH1 0x5 SHR DUP2 ADD SWAP2 PUSH1 0x20 DUP5 LT PUSH2 0x46D JUMPI JUMPDEST PUSH1 0x1F ADD PUSH1 0x5 SHR ADD SWAP1 JUMPDEST DUP2 DUP2 LT PUSH2 0x461 JUMPI POP PUSH2 0x316 JUMP JUMPDEST PUSH1 0x0 DUP2 SSTORE PUSH1 0x1 ADD PUSH2 0x454 JUMP JUMPDEST SWAP1 SWAP2 POP DUP2 SWAP1 PUSH2 0x44B JUMP JUMPDEST PUSH4 0x4E487B71 PUSH1 0xE0 SHL PUSH1 0x0 MSTORE PUSH1 0x41 PUSH1 0x4 MSTORE PUSH1 0x24 PUSH1 0x0 REVERT JUMPDEST ADD MLOAD SWAP1 POP DUP9 DUP1 PUSH2 0x2DA JUMP JUMPDEST SWAP1 PUSH1 0x1F NOT DUP4 AND SWAP2 DUP5 PUSH1 0x0 MSTORE DUP2 PUSH1 0x0 KECCAK256 SWAP3 PUSH1 0x0 JUMPDEST DUP2 DUP2 LT PUSH2 0x4EB JUMPI POP SWAP2 PUSH1 0x1 SWAP4 SWAP2 DUP6 PUSH1 0x5 SWAP9 SWAP8 SWAP7 SWAP5 LT PUSH2 0x4D2 JUMPI JUMPDEST POP POP POP DUP2 SHL ADD SWAP1 SSTORE PUSH2 0x2EF JUMP JUMPDEST ADD MLOAD PUSH1 0x0 NOT PUSH1 0xF8 DUP5 PUSH1 0x3 SHL AND SHR NOT AND SWAP1 SSTORE DUP9 DUP1 DUP1 PUSH2 0x4C5 JUMP JUMPDEST SWAP3 SWAP4 PUSH1 0x20 PUSH1 0x1 DUP2 SWAP3 DUP8 DUP7 ADD MLOAD DUP2 SSTORE ADD SWAP6 ADD SWAP4 ADD PUSH2 0x4AB JUMP JUMPDEST DUP4 PUSH1 0x0 MSTORE PUSH1 0x20 PUSH1 0x0 KECCAK256 PUSH1 0x1F DUP5 ADD PUSH1 0x5 SHR DUP2 ADD SWAP2 PUSH1 0x20 DUP6 LT PUSH2 0x541 JUMPI JUMPDEST PUSH1 0x1F ADD PUSH1 0x5 SHR ADD SWAP1 JUMPDEST DUP2 DUP2 LT PUSH2 0x535 JUMPI POP PUSH2 0x2BC JUMP JUMPDEST PUSH1 0x0 DUP2 SSTORE PUSH1 0x1 ADD PUSH2 0x528 JUMP JUMPDEST SWAP1 SWAP2 POP DUP2 SWAP1 PUSH2 0x51F JUMP JUMPDEST ADD MLOAD SWAP1 POP DUP9 DUP1 PUSH2 0x27E JUMP JUMPDEST PUSH1 0x0 DUP6 DUP2 MSTORE DUP3 DUP2 KECCAK256 SWAP4 POP PUSH1 0x1F NOT DUP6 AND SWAP1 JUMPDEST DUP2 DUP2 LT PUSH2 0x5A3 JUMPI POP SWAP1 DUP5 PUSH1 0x1 SWAP6 SWAP5 SWAP4 SWAP3 LT PUSH2 0x58A JUMPI JUMPDEST POP POP POP DUP2 SHL ADD SWAP1 SSTORE PUSH2 0x293 JUMP JUMPDEST ADD MLOAD PUSH1 0x0 NOT PUSH1 0xF8 DUP5 PUSH1 0x3 SHL AND SHR NOT AND SWAP1 SSTORE DUP9 DUP1 DUP1 PUSH2 0x57D JUMP JUMPDEST SWAP3 SWAP4 PUSH1 0x20 PUSH1 0x1 DUP2 SWAP3 DUP8 DUP7 ADD MLOAD DUP2 SSTORE ADD SWAP6 ADD SWAP4 ADD PUSH2 0x567 JUMP JUMPDEST SWAP1 SWAP2 POP DUP4 PUSH1 0x0 MSTORE PUSH1 0x20 PUSH1 0x0 KECCAK256 PUSH1 0x1F DUP5 ADD PUSH1 0x5 SHR DUP2 ADD SWAP2 PUSH1 0x20 DUP6 LT PUSH2 0x604 JUMPI JUMPDEST SWAP1 PUSH1 0x1F DUP6 SWAP5 SWAP4 SWAP3 ADD PUSH1 0x5 SHR ADD SWAP1 JUMPDEST DUP2 DUP2 LT PUSH2 0x5F5 JUMPI POP PUSH2 0x267 JUMP JUMPDEST PUSH1 0x0 DUP2 SSTORE DUP5 SWAP4 POP PUSH1 0x1 ADD PUSH2 0x5E8 JUMP JUMPDEST SWAP1 SWAP2 POP DUP2 SWAP1 PUSH2 0x5DA JUMP JUMPDEST ADD MLOAD SWAP1 POP DUP15 DUP1 PUSH2 0x1CC JUMP JUMPDEST SWAP1 PUSH1 0x1F NOT DUP4 AND SWAP2 DUP5 PUSH1 0x0 MSTORE DUP2 PUSH1 0x0 KECCAK256 SWAP3 PUSH1 0x0 JUMPDEST DUP2 DUP2 LT PUSH2 0x672 JUMPI POP SWAP3 PUSH1 0x1 SWAP3 DUP6 SWAP3 PUSH2 0x23C SWAP11 SWAP10 SWAP9 SWAP7 PUSH2 0x221 SWAP9 SWAP7 LT PUSH2 0x659 JUMPI JUMPDEST POP POP POP DUP2 SHL ADD SWAP1 SSTORE PUSH2 0x1E1 JUMP JUMPDEST ADD MLOAD PUSH1 0x0 NOT PUSH1 0xF8 DUP5 PUSH1 0x3 SHL AND SHR NOT AND SWAP1 SSTORE DUP15 DUP1 DUP1 PUSH2 0x64C JUMP JUMPDEST SWAP3 SWAP4 PUSH1 0x20 PUSH1 0x1 DUP2 SWAP3 DUP8 DUP7 ADD MLOAD DUP2 SSTORE ADD SWAP6 ADD SWAP4 ADD PUSH2 0x62C JUMP JUMPDEST DUP4 PUSH1 0x0 MSTORE PUSH1 0x20 PUSH1 0x0 KECCAK256 PUSH1 0x1F DUP5 ADD PUSH1 0x5 SHR DUP2 ADD SWAP2 PUSH1 0x20 DUP6 LT PUSH2 0x6C8 JUMPI JUMPDEST PUSH1 0x1F ADD PUSH1 0x5 SHR ADD SWAP1 JUMPDEST DUP2 DUP2 LT PUSH2 0x6BC JUMPI POP PUSH2 0x1A7 JUMP JUMPDEST PUSH1 0x0 DUP2 SSTORE PUSH1 0x1 ADD PUSH2 0x6AF JUMP JUMPDEST SWAP1 SWAP2 POP DUP2 SWAP1 PUSH2 0x6A6 JUMP JUMPDEST PUSH4 0x4E487B71 PUSH1 0xE0 SHL PUSH1 0x0 MSTORE PUSH1 0x0 PUSH1 0x4 MSTORE PUSH1 0x24 PUSH1 0x0 REVERT JUMPDEST PUSH1 0x40 MLOAD PUSH3 0x461BCD PUSH1 0xE5 SHL DUP2 MSTORE PUSH1 0x20 PUSH1 0x4 DUP3 ADD MSTORE PUSH1 0x26 PUSH1 0x24 DUP3 ADD MSTORE PUSH32 0x46756E64657252656769737472793A2046756E64657220616C72656164792065 PUSH1 0x44 DUP3 ADD MSTORE PUSH6 0x3C34B9BA3997 PUSH1 0xD1 SHL PUSH1 0x64 DUP3 ADD MSTORE PUSH1 0x84 SWAP1 REVERT JUMPDEST CALLVALUE PUSH2 0xA8 JUMPI PUSH2 0x74A CALLDATASIZE PUSH2 0x11DD JUMP JUMPDEST SWAP6 SWAP5 SWAP2 SWAP4 SWAP1 SWAP7 PUSH1 0x1 PUSH1 0x1 PUSH1 0x80 SHL SUB NOT AND PUSH1 0x0 MSTORE PUSH1 0x1 PUSH1 0x20 MSTORE PUSH1 0x40 PUSH1 0x0 KECCAK256 SLOAD PUSH2 0x773 DUP2 ISZERO ISZERO PUSH2 0x14A3 JUMP JUMPDEST PUSH1 0x0 NOT DUP2 ADD SWAP1 DUP2 GT PUSH2 0xC41 JUMPI PUSH2 0x788 SWAP1 PUSH2 0x133D JUMP JUMPDEST POP SWAP5 PUSH1 0x1 DUP7 ADD SWAP1 DUP1 MLOAD SWAP1 PUSH1 0x1 PUSH1 0x1 PUSH1 0x40 SHL SUB DUP3 GT PUSH2 0x477 JUMPI PUSH2 0x7AA DUP4 SLOAD PUSH2 0x13A1 JUMP JUMPDEST PUSH1 0x1F DUP2 GT PUSH2 0xBF9 JUMPI JUMPDEST POP PUSH1 0x20 SWAP1 PUSH1 0x1F DUP4 GT PUSH1 0x1 EQ PUSH2 0xB88 JUMPI SWAP2 DUP1 PUSH2 0x829 SWAP5 SWAP3 PUSH2 0x846 SWAP9 SWAP8 SWAP7 SWAP5 PUSH1 0x0 SWAP3 PUSH2 0xB7D JUMPI JUMPDEST POP POP DUP2 PUSH1 0x1 SHL SWAP2 PUSH1 0x0 NOT SWAP1 PUSH1 0x3 SHL SHR NOT AND OR SWAP1 SSTORE JUMPDEST PUSH2 0x807 PUSH1 0x2 DUP9 ADD SWAP4 DUP5 SWAP1 PUSH1 0xFF DUP1 NOT DUP4 SLOAD AND SWAP2 ISZERO ISZERO AND OR SWAP1 SSTORE JUMP JUMPDEST DUP3 SLOAD PUSH2 0x100 PUSH1 0x1 PUSH1 0x88 SHL SUB NOT AND PUSH1 0x78 SWAP2 SWAP1 SWAP2 SHR PUSH2 0x100 PUSH1 0x1 PUSH1 0x88 SHL SUB AND OR DUP3 SSTORE JUMP JUMPDEST DUP1 SLOAD PUSH1 0xFF PUSH1 0x88 SHL NOT AND SWAP2 ISZERO ISZERO PUSH1 0x88 SHL PUSH1 0xFF PUSH1 0x88 SHL AND SWAP2 SWAP1 SWAP2 OR SWAP1 SSTORE JUMP JUMPDEST DUP1 MLOAD PUSH1 0x3 DUP4 ADD SWAP2 PUSH1 0x1 PUSH1 0x1 PUSH1 0x40 SHL SUB DUP3 GT PUSH2 0x477 JUMPI DUP2 SWAP1 PUSH2 0x867 DUP5 SLOAD PUSH2 0x13A1 JUMP JUMPDEST PUSH1 0x1F DUP2 GT PUSH2 0xB2A JUMPI JUMPDEST POP PUSH1 0x20 SWAP1 PUSH1 0x1F DUP4 GT PUSH1 0x1 EQ PUSH2 0xAC5 JUMPI PUSH1 0x0 SWAP3 PUSH2 0xABA JUMPI JUMPDEST POP POP DUP2 PUSH1 0x1 SHL SWAP2 PUSH1 0x0 NOT SWAP1 PUSH1 0x3 SHL SHR NOT AND OR SWAP1 SSTORE JUMPDEST PUSH1 0x4 DUP2 ADD DUP4 MLOAD PUSH1 0x1 PUSH1 0x1 PUSH1 0x40 SHL SUB DUP2 GT PUSH2 0x477 JUMPI PUSH2 0x8BA DUP3 SLOAD PUSH2 0x13A1 JUMP JUMPDEST PUSH1 0x1F DUP2 GT PUSH2 0xA72 JUMPI JUMPDEST POP PUSH1 0x20 PUSH1 0x1F DUP3 GT PUSH1 0x1 EQ PUSH2 0xA09 JUMPI DUP2 SWAP1 PUSH1 0x5 SWAP6 SWAP7 PUSH1 0x0 SWAP3 PUSH2 0x9FE JUMPI JUMPDEST POP POP DUP2 PUSH1 0x1 SHL SWAP2 PUSH1 0x0 NOT SWAP1 PUSH1 0x3 SHL SHR NOT AND OR SWAP1 SSTORE JUMPDEST ADD DUP2 MLOAD PUSH1 0x1 PUSH1 0x1 PUSH1 0x40 SHL SUB DUP2 GT PUSH2 0x477 JUMPI PUSH2 0x90F DUP3 SLOAD PUSH2 0x13A1 JUMP JUMPDEST PUSH1 0x1F DUP2 GT PUSH2 0x9B6 JUMPI JUMPDEST POP PUSH1 0x20 SWAP3 PUSH1 0x1F DUP3 GT PUSH1 0x1 EQ PUSH2 0x956 JUMPI SWAP3 DUP2 SWAP3 SWAP4 PUSH1 0x0 SWAP3 PUSH2 0x94B JUMPI JUMPDEST POP POP PUSH1 0x0 NOT PUSH1 0x3 DUP4 SWAP1 SHL SHR NOT AND PUSH1 0x1 SWAP2 SWAP1 SWAP2 SHL OR SWAP1 SSTORE STOP JUMPDEST ADD MLOAD SWAP1 POP DUP4 DUP1 PUSH2 0x933 JUMP JUMPDEST PUSH1 0x1F NOT DUP3 AND SWAP4 DUP4 PUSH1 0x0 MSTORE DUP1 PUSH1 0x0 KECCAK256 SWAP2 PUSH1 0x0 JUMPDEST DUP7 DUP2 LT PUSH2 0x99E JUMPI POP DUP4 PUSH1 0x1 SWAP6 SWAP7 LT PUSH2 0x985 JUMPI JUMPDEST POP POP POP DUP2 SHL ADD SWAP1 SSTORE STOP JUMPDEST ADD MLOAD PUSH1 0x0 NOT PUSH1 0xF8 DUP5 PUSH1 0x3 SHL AND SHR NOT AND SWAP1 SSTORE DUP4 DUP1 DUP1 PUSH2 0x97B JUMP JUMPDEST SWAP2 SWAP3 PUSH1 0x20 PUSH1 0x1 DUP2 SWAP3 DUP7 DUP6 ADD MLOAD DUP2 SSTORE ADD SWAP5 ADD SWAP3 ADD PUSH2 0x968 JUMP JUMPDEST DUP3 PUSH1 0x0 MSTORE PUSH1 0x20 PUSH1 0x0 KECCAK256 PUSH1 0x1F DUP4 ADD PUSH1 0x5 SHR DUP2 ADD SWAP2 PUSH1 0x20 DUP5 LT PUSH2 0x9F4 JUMPI JUMPDEST PUSH1 0x1F ADD PUSH1 0x5 SHR ADD SWAP1 JUMPDEST DUP2 DUP2 LT PUSH2 0x9E8 JUMPI POP PUSH2 0x918 JUMP JUMPDEST PUSH1 0x0 DUP2 SSTORE PUSH1 0x1 ADD PUSH2 0x9DB JUMP JUMPDEST SWAP1 SWAP2 POP DUP2 SWAP1 PUSH2 0x9D2 JUMP JUMPDEST ADD MLOAD SWAP1 POP DUP7 DUP1 PUSH2 0x8DF JUMP JUMPDEST PUSH1 0x1F NOT DUP3 AND SWAP6 DUP4 PUSH1 0x0 MSTORE DUP2 PUSH1 0x0 KECCAK256 SWAP7 PUSH1 0x0 JUMPDEST DUP2 DUP2 LT PUSH2 0xA5A JUMPI POP SWAP2 PUSH1 0x5 SWAP7 SWAP8 SWAP2 DUP5 PUSH1 0x1 SWAP6 SWAP5 LT PUSH2 0xA41 JUMPI JUMPDEST POP POP POP DUP2 SHL ADD SWAP1 SSTORE PUSH2 0x8F4 JUMP JUMPDEST ADD MLOAD PUSH1 0x0 NOT PUSH1 0xF8 DUP5 PUSH1 0x3 SHL AND SHR NOT AND SWAP1 SSTORE DUP7 DUP1 DUP1 PUSH2 0xA34 JUMP JUMPDEST DUP4 DUP4 ADD MLOAD DUP10 SSTORE PUSH1 0x1 SWAP1 SWAP9 ADD SWAP8 PUSH1 0x20 SWAP4 DUP5 ADD SWAP4 ADD PUSH2 0xA1B JUMP JUMPDEST DUP3 PUSH1 0x0 MSTORE PUSH1 0x20 PUSH1 0x0 KECCAK256 PUSH1 0x1F DUP4 ADD PUSH1 0x5 SHR DUP2 ADD SWAP2 PUSH1 0x20 DUP5 LT PUSH2 0xAB0 JUMPI JUMPDEST PUSH1 0x1F ADD PUSH1 0x5 SHR ADD SWAP1 JUMPDEST DUP2 DUP2 LT PUSH2 0xAA4 JUMPI POP PUSH2 0x8C3 JUMP JUMPDEST PUSH1 0x0 DUP2 SSTORE PUSH1 0x1 ADD PUSH2 0xA97 JUMP JUMPDEST SWAP1 SWAP2 POP DUP2 SWAP1 PUSH2 0xA8E JUMP JUMPDEST ADD MLOAD SWAP1 POP DUP7 DUP1 PUSH2 0x887 JUMP JUMPDEST PUSH1 0x0 DUP6 DUP2 MSTORE DUP3 DUP2 KECCAK256 SWAP4 POP PUSH1 0x1F NOT DUP6 AND SWAP1 JUMPDEST DUP2 DUP2 LT PUSH2 0xB12 JUMPI POP SWAP1 DUP5 PUSH1 0x1 SWAP6 SWAP5 SWAP4 SWAP3 LT PUSH2 0xAF9 JUMPI JUMPDEST POP POP POP DUP2 SHL ADD SWAP1 SSTORE PUSH2 0x89C JUMP JUMPDEST ADD MLOAD PUSH1 0x0 NOT PUSH1 0xF8 DUP5 PUSH1 0x3 SHL AND SHR NOT AND SWAP1 SSTORE DUP7 DUP1 DUP1 PUSH2 0xAEC JUMP JUMPDEST SWAP3 SWAP4 PUSH1 0x20 PUSH1 0x1 DUP2 SWAP3 DUP8 DUP7 ADD MLOAD DUP2 SSTORE ADD SWAP6 ADD SWAP4 ADD PUSH2 0xAD6 JUMP JUMPDEST SWAP1 SWAP2 POP DUP4 PUSH1 0x0 MSTORE PUSH1 0x20 PUSH1 0x0 KECCAK256 PUSH1 0x1F DUP5 ADD PUSH1 0x5 SHR DUP2 ADD SWAP2 PUSH1 0x20 DUP6 LT PUSH2 0xB73 JUMPI JUMPDEST SWAP1 PUSH1 0x1F DUP6 SWAP5 SWAP4 SWAP3 ADD PUSH1 0x5 SHR ADD SWAP1 JUMPDEST DUP2 DUP2 LT PUSH2 0xB64 JUMPI POP PUSH2 0x870 JUMP JUMPDEST PUSH1 0x0 DUP2 SSTORE DUP5 SWAP4 POP PUSH1 0x1 ADD PUSH2 0xB57 JUMP JUMPDEST SWAP1 SWAP2 POP DUP2 SWAP1 PUSH2 0xB49 JUMP JUMPDEST ADD MLOAD SWAP1 POP DUP13 DUP1 PUSH2 0x7D8 JUMP JUMPDEST SWAP1 PUSH1 0x1F NOT DUP4 AND SWAP2 DUP5 PUSH1 0x0 MSTORE DUP2 PUSH1 0x0 KECCAK256 SWAP3 PUSH1 0x0 JUMPDEST DUP2 DUP2 LT PUSH2 0xBE1 JUMPI POP SWAP3 PUSH1 0x1 SWAP3 DUP6 SWAP3 PUSH2 0x846 SWAP11 SWAP10 SWAP9 SWAP7 PUSH2 0x829 SWAP9 SWAP7 LT PUSH2 0xBC8 JUMPI JUMPDEST POP POP POP DUP2 SHL ADD SWAP1 SSTORE PUSH2 0x7ED JUMP JUMPDEST ADD MLOAD PUSH1 0x0 NOT PUSH1 0xF8 DUP5 PUSH1 0x3 SHL AND SHR NOT AND SWAP1 SSTORE DUP13 DUP1 DUP1 PUSH2 0xBBB JUMP JUMPDEST SWAP3 SWAP4 PUSH1 0x20 PUSH1 0x1 DUP2 SWAP3 DUP8 DUP7 ADD MLOAD DUP2 SSTORE ADD SWAP6 ADD SWAP4 ADD PUSH2 0xB9B JUMP JUMPDEST DUP4 PUSH1 0x0 MSTORE PUSH1 0x20 PUSH1 0x0 KECCAK256 PUSH1 0x1F DUP5 ADD PUSH1 0x5 SHR DUP2 ADD SWAP2 PUSH1 0x20 DUP6 LT PUSH2 0xC37 JUMPI JUMPDEST PUSH1 0x1F ADD PUSH1 0x5 SHR ADD SWAP1 JUMPDEST DUP2 DUP2 LT PUSH2 0xC2B JUMPI POP PUSH2 0x7B3 JUMP JUMPDEST PUSH1 0x0 DUP2 SSTORE PUSH1 0x1 ADD PUSH2 0xC1E JUMP JUMPDEST SWAP1 SWAP2 POP DUP2 SWAP1 PUSH2 0xC15 JUMP JUMPDEST PUSH4 0x4E487B71 PUSH1 0xE0 SHL PUSH1 0x0 MSTORE PUSH1 0x11 PUSH1 0x4 MSTORE PUSH1 0x24 PUSH1 0x0 REVERT JUMPDEST CALLVALUE PUSH2 0xA8 JUMPI PUSH1 0x20 CALLDATASIZE PUSH1 0x3 NOT ADD SLT PUSH2 0xA8 JUMPI PUSH1 0x4 CALLDATALOAD PUSH1 0x1 PUSH1 0x1 PUSH1 0x80 SHL SUB NOT DUP2 AND DUP1 SWAP2 SUB PUSH2 0xA8 JUMPI PUSH1 0x0 MSTORE PUSH1 0x1 PUSH1 0x20 MSTORE PUSH1 0x40 PUSH1 0x0 KECCAK256 SLOAD PUSH2 0xC96 DUP2 ISZERO ISZERO PUSH2 0x14A3 JUMP JUMPDEST PUSH1 0x0 NOT DUP2 ADD SWAP1 DUP2 GT PUSH2 0xC41 JUMPI PUSH2 0xCAB SWAP1 PUSH2 0x133D JUMP JUMPDEST POP DUP1 SLOAD PUSH1 0x80 SHL SWAP1 PUSH2 0xA4 PUSH1 0x5 PUSH1 0x40 MLOAD SWAP3 PUSH2 0xCD3 DUP5 PUSH2 0xCCC DUP2 PUSH1 0x1 DUP6 ADD PUSH2 0x13DB JUMP JUMPDEST SUB DUP6 PUSH2 0x1166 JUMP JUMPDEST PUSH1 0x2 DUP2 ADD SLOAD SWAP5 PUSH1 0xFF DUP7 AND ISZERO PUSH2 0xD61 JUMPI PUSH2 0xCEA PUSH2 0x1481 JUMP JUMPDEST SWAP6 JUMPDEST PUSH1 0x40 MLOAD SWAP2 PUSH2 0xD08 DUP4 PUSH2 0xD01 DUP2 PUSH1 0x3 DUP9 ADD PUSH2 0x13DB JUMP JUMPDEST SUB DUP5 PUSH2 0x1166 JUMP JUMPDEST PUSH2 0xD3E PUSH1 0x40 MLOAD SWAP5 PUSH2 0xD27 DUP7 PUSH2 0xD20 DUP2 PUSH1 0x4 DUP6 ADD PUSH2 0x13DB JUMP JUMPDEST SUB DUP8 PUSH2 0x1166 JUMP JUMPDEST PUSH2 0xD37 PUSH1 0x40 MLOAD DUP1 SWAP9 DUP2 SWAP4 ADD PUSH2 0x13DB JUMP JUMPDEST SUB DUP7 PUSH2 0x1166 JUMP JUMPDEST PUSH1 0x40 MLOAD SWAP8 DUP9 SWAP8 PUSH1 0x88 DUP5 SWAP1 SHR PUSH1 0xFF AND SWAP4 PUSH1 0x78 SHL PUSH1 0x1 PUSH1 0x1 PUSH1 0x80 SHL SUB NOT AND SWAP3 DUP10 PUSH2 0x10DE JUMP JUMPDEST PUSH2 0xD69 PUSH2 0x145E JUMP JUMPDEST SWAP6 PUSH2 0xCEC JUMP JUMPDEST CALLVALUE PUSH2 0xA8 JUMPI PUSH1 0x0 CALLDATASIZE PUSH1 0x3 NOT ADD SLT PUSH2 0xA8 JUMPI PUSH1 0x0 SLOAD PUSH2 0xD8C DUP2 PUSH2 0x12C1 JUMP JUMPDEST SWAP1 PUSH2 0xD96 DUP2 PUSH2 0x12F3 JUMP JUMPDEST SWAP1 PUSH2 0xDA0 DUP2 PUSH2 0x12F3 JUMP JUMPDEST SWAP3 PUSH2 0xDAA DUP3 PUSH2 0x12C1 JUMP JUMPDEST SWAP3 PUSH2 0xDB4 DUP4 PUSH2 0x12AA JUMP JUMPDEST PUSH2 0xDC1 PUSH1 0x40 MLOAD SWAP2 DUP3 PUSH2 0x1166 JUMP JUMPDEST DUP4 DUP2 MSTORE PUSH2 0xDCD DUP5 PUSH2 0x12AA JUMP JUMPDEST PUSH1 0x20 DUP3 ADD SWAP6 SWAP1 PUSH1 0x1F NOT ADD CALLDATASIZE DUP8 CALLDATACOPY PUSH2 0xDE3 DUP6 PUSH2 0x12F3 JUMP JUMPDEST SWAP3 PUSH2 0xDED DUP7 PUSH2 0x12F3 JUMP JUMPDEST SWAP5 PUSH2 0xDF7 DUP8 PUSH2 0x12F3 JUMP JUMPDEST SWAP7 PUSH1 0x0 JUMPDEST DUP2 DUP2 LT PUSH2 0xEBD JUMPI POP POP SWAP2 PUSH2 0xE44 PUSH2 0x100 SWAP9 SWAP10 PUSH2 0xE36 PUSH2 0xE52 SWAP5 PUSH2 0xE29 PUSH1 0x20 SWAP8 PUSH1 0x40 MLOAD SWAP14 DUP15 DUP2 DUP2 MSTORE ADD SWAP1 PUSH2 0x1006 JUMP JUMPDEST DUP13 DUP2 SUB DUP9 DUP15 ADD MSTORE SWAP1 PUSH2 0x1085 JUMP JUMPDEST SWAP1 DUP11 DUP3 SUB PUSH1 0x40 DUP13 ADD MSTORE PUSH2 0x1085 JUMP JUMPDEST SWAP1 DUP9 DUP3 SUB PUSH1 0x60 DUP11 ADD MSTORE PUSH2 0x1006 JUMP JUMPDEST SWAP2 DUP7 DUP4 SUB PUSH1 0x80 DUP9 ADD MSTORE MLOAD SWAP2 DUP3 DUP2 MSTORE ADD SWAP6 SWAP1 PUSH1 0x0 JUMPDEST DUP2 DUP2 LT PUSH2 0xEA5 JUMPI DUP7 DUP1 PUSH2 0xA4 DUP9 PUSH2 0xE97 DUP10 PUSH2 0xE89 DUP15 DUP12 DUP8 DUP3 SUB PUSH1 0xA0 DUP10 ADD MSTORE PUSH2 0x1085 JUMP JUMPDEST SWAP1 DUP6 DUP3 SUB PUSH1 0xC0 DUP8 ADD MSTORE PUSH2 0x1085 JUMP JUMPDEST SWAP1 DUP4 DUP3 SUB PUSH1 0xE0 DUP6 ADD MSTORE PUSH2 0x1085 JUMP JUMPDEST DUP3 MLOAD ISZERO ISZERO DUP9 MSTORE PUSH1 0x20 SWAP8 DUP9 ADD SWAP8 SWAP1 SWAP3 ADD SWAP2 PUSH1 0x1 ADD PUSH2 0xE66 JUMP JUMPDEST DUP1 PUSH1 0x5 PUSH2 0xFDD DUP14 PUSH2 0xECF PUSH1 0x1 SWAP6 PUSH2 0x133D JUMP JUMPDEST POP SWAP1 DUP2 SLOAD PUSH1 0x80 SHL PUSH2 0xEE0 DUP7 DUP11 PUSH2 0x138D JUMP JUMPDEST SWAP1 PUSH1 0x1 PUSH1 0x1 PUSH1 0x80 SHL SUB NOT AND SWAP1 MSTORE PUSH1 0x40 MLOAD PUSH2 0xF07 DUP2 PUSH2 0xF00 DUP2 DUP11 DUP8 ADD PUSH2 0x13DB JUMP JUMPDEST SUB DUP3 PUSH2 0x1166 JUMP JUMPDEST PUSH2 0xF11 DUP7 DUP12 PUSH2 0x138D JUMP JUMPDEST MSTORE PUSH2 0xF1C DUP6 DUP11 PUSH2 0x138D JUMP JUMPDEST POP PUSH2 0xF4A DUP6 PUSH1 0x2 DUP5 ADD SLOAD SWAP3 PUSH1 0xFF DUP5 AND PUSH1 0x0 EQ PUSH2 0xFF9 JUMPI PUSH2 0xF3A PUSH2 0x1481 JUMP JUMPDEST PUSH2 0xF44 DUP4 DUP4 PUSH2 0x138D JUMP JUMPDEST MSTORE PUSH2 0x138D JUMP JUMPDEST POP PUSH1 0x1 PUSH1 0x1 PUSH1 0x80 SHL SUB NOT DUP2 PUSH1 0x78 SHL AND PUSH2 0xF63 DUP7 DUP13 PUSH2 0x138D JUMP JUMPDEST MSTORE PUSH1 0xFF PUSH2 0xF70 DUP7 DUP14 PUSH2 0x138D JUMP JUMPDEST SWAP2 PUSH1 0x88 SHR AND ISZERO ISZERO SWAP1 MSTORE PUSH1 0x40 MLOAD PUSH2 0xF8D DUP2 PUSH2 0xF00 DUP2 PUSH1 0x3 DUP7 ADD PUSH2 0x13DB JUMP JUMPDEST PUSH2 0xF97 DUP6 DUP14 PUSH2 0x138D JUMP JUMPDEST MSTORE PUSH2 0xFA2 DUP5 DUP13 PUSH2 0x138D JUMP JUMPDEST POP PUSH1 0x40 MLOAD PUSH2 0xFC1 DUP6 DUP15 PUSH2 0xFBC DUP5 PUSH2 0xCCC DUP2 PUSH1 0x4 DUP10 ADD PUSH2 0x13DB JUMP JUMPDEST PUSH2 0x138D JUMP JUMPDEST MSTORE PUSH2 0xFCC DUP5 DUP14 PUSH2 0x138D JUMP JUMPDEST POP PUSH2 0xF00 PUSH1 0x40 MLOAD DUP1 SWAP5 DUP2 SWAP4 ADD PUSH2 0x13DB JUMP JUMPDEST PUSH2 0xFE7 DUP3 DUP13 PUSH2 0x138D JUMP JUMPDEST MSTORE PUSH2 0xFF2 DUP2 DUP12 PUSH2 0x138D JUMP JUMPDEST POP ADD PUSH2 0xDFB JUMP JUMPDEST PUSH2 0x1001 PUSH2 0x145E JUMP JUMPDEST PUSH2 0xF3A JUMP JUMPDEST SWAP1 PUSH1 0x20 DUP1 DUP4 MLOAD SWAP3 DUP4 DUP2 MSTORE ADD SWAP3 ADD SWAP1 PUSH1 0x0 JUMPDEST DUP2 DUP2 LT PUSH2 0x1024 JUMPI POP POP POP SWAP1 JUMP JUMPDEST DUP3 MLOAD PUSH1 0x1 PUSH1 0x1 PUSH1 0x80 SHL SUB NOT AND DUP5 MSTORE PUSH1 0x20 SWAP4 DUP5 ADD SWAP4 SWAP1 SWAP3 ADD SWAP2 PUSH1 0x1 ADD PUSH2 0x1017 JUMP JUMPDEST SWAP2 SWAP1 DUP3 MLOAD SWAP3 DUP4 DUP3 MSTORE PUSH1 0x0 JUMPDEST DUP5 DUP2 LT PUSH2 0x1070 JUMPI POP POP DUP3 PUSH1 0x0 PUSH1 0x20 DUP1 SWAP5 SWAP6 DUP5 ADD ADD MSTORE PUSH1 0x1F DUP1 NOT SWAP2 ADD AND ADD ADD SWAP1 JUMP JUMPDEST DUP1 PUSH1 0x20 DUP1 SWAP3 DUP5 ADD ADD MLOAD DUP3 DUP3 DUP7 ADD ADD MSTORE ADD PUSH2 0x104F JUMP JUMPDEST SWAP1 DUP1 PUSH1 0x20 DUP4 MLOAD SWAP2 DUP3 DUP2 MSTORE ADD SWAP2 PUSH1 0x20 DUP1 DUP4 PUSH1 0x5 SHL DUP4 ADD ADD SWAP5 ADD SWAP3 PUSH1 0x0 SWAP2 JUMPDEST DUP4 DUP4 LT PUSH2 0x10B1 JUMPI POP POP POP POP POP SWAP1 JUMP JUMPDEST SWAP1 SWAP2 SWAP3 SWAP4 SWAP5 PUSH1 0x20 DUP1 PUSH2 0x10CF PUSH1 0x1 SWAP4 PUSH1 0x1F NOT DUP7 DUP3 SUB ADD DUP8 MSTORE DUP10 MLOAD PUSH2 0x1044 JUMP JUMPDEST SWAP8 ADD SWAP4 ADD SWAP4 ADD SWAP2 SWAP4 SWAP3 SWAP1 PUSH2 0x10A2 JUMP JUMPDEST SWAP7 SWAP4 SWAP2 SWAP5 PUSH2 0x1123 PUSH2 0x1147 SWAP5 PUSH2 0x1115 PUSH2 0x1155 SWAP9 PUSH2 0x1163 SWAP13 SWAP11 SWAP6 PUSH1 0x1 PUSH1 0x1 PUSH1 0x80 SHL SUB NOT AND DUP13 MSTORE PUSH2 0x100 PUSH1 0x20 DUP14 ADD MSTORE PUSH2 0x100 DUP13 ADD SWAP1 PUSH2 0x1044 JUMP JUMPDEST SWAP1 DUP11 DUP3 SUB PUSH1 0x40 DUP13 ADD MSTORE PUSH2 0x1044 JUMP JUMPDEST SWAP3 PUSH1 0x1 PUSH1 0x1 PUSH1 0x80 SHL SUB NOT AND PUSH1 0x60 DUP10 ADD MSTORE ISZERO ISZERO PUSH1 0x80 DUP9 ADD MSTORE DUP7 DUP3 SUB PUSH1 0xA0 DUP9 ADD MSTORE PUSH2 0x1044 JUMP JUMPDEST SWAP1 DUP5 DUP3 SUB PUSH1 0xC0 DUP7 ADD MSTORE PUSH2 0x1044 JUMP JUMPDEST SWAP2 PUSH1 0xE0 DUP2 DUP5 SUB SWAP2 ADD MSTORE PUSH2 0x1044 JUMP JUMPDEST SWAP1 JUMP JUMPDEST SWAP1 PUSH1 0x1F DUP1 NOT SWAP2 ADD AND DUP2 ADD SWAP1 DUP2 LT PUSH1 0x1 PUSH1 0x1 PUSH1 0x40 SHL SUB DUP3 GT OR PUSH2 0x477 JUMPI PUSH1 0x40 MSTORE JUMP JUMPDEST DUP2 PUSH1 0x1F DUP3 ADD SLT ISZERO PUSH2 0xA8 JUMPI DUP1 CALLDATALOAD SWAP1 PUSH1 0x1 PUSH1 0x1 PUSH1 0x40 SHL SUB DUP3 GT PUSH2 0x477 JUMPI PUSH1 0x40 MLOAD SWAP3 PUSH2 0x11BB PUSH1 0x1F DUP5 ADD PUSH1 0x1F NOT AND PUSH1 0x20 ADD DUP6 PUSH2 0x1166 JUMP JUMPDEST DUP3 DUP5 MSTORE PUSH1 0x20 DUP4 DUP4 ADD ADD GT PUSH2 0xA8 JUMPI DUP2 PUSH1 0x0 SWAP3 PUSH1 0x20 DUP1 SWAP4 ADD DUP4 DUP7 ADD CALLDATACOPY DUP4 ADD ADD MSTORE SWAP1 JUMP JUMPDEST SWAP1 PUSH2 0x100 PUSH1 0x3 NOT DUP4 ADD SLT PUSH2 0xA8 JUMPI PUSH1 0x4 CALLDATALOAD PUSH1 0x1 PUSH1 0x1 PUSH1 0x80 SHL SUB NOT DUP2 AND DUP2 SUB PUSH2 0xA8 JUMPI SWAP2 PUSH1 0x24 CALLDATALOAD PUSH1 0x1 PUSH1 0x1 PUSH1 0x40 SHL SUB DUP2 GT PUSH2 0xA8 JUMPI DUP2 PUSH2 0x121E SWAP2 PUSH1 0x4 ADD PUSH2 0x1187 JUMP JUMPDEST SWAP2 PUSH1 0x44 CALLDATALOAD DUP1 ISZERO ISZERO DUP2 SUB PUSH2 0xA8 JUMPI SWAP2 PUSH1 0x64 CALLDATALOAD PUSH1 0x1 PUSH1 0x1 PUSH1 0x80 SHL SUB NOT DUP2 AND DUP2 SUB PUSH2 0xA8 JUMPI SWAP2 PUSH1 0x84 CALLDATALOAD DUP1 ISZERO ISZERO DUP2 SUB PUSH2 0xA8 JUMPI SWAP2 PUSH1 0xA4 CALLDATALOAD PUSH1 0x1 PUSH1 0x1 PUSH1 0x40 SHL SUB DUP2 GT PUSH2 0xA8 JUMPI DUP2 PUSH2 0x126C SWAP2 PUSH1 0x4 ADD PUSH2 0x1187 JUMP JUMPDEST SWAP2 PUSH1 0xC4 CALLDATALOAD PUSH1 0x1 PUSH1 0x1 PUSH1 0x40 SHL SUB DUP2 GT PUSH2 0xA8 JUMPI DUP3 PUSH2 0x128B SWAP2 PUSH1 0x4 ADD PUSH2 0x1187 JUMP JUMPDEST SWAP2 PUSH1 0xE4 CALLDATALOAD SWAP1 PUSH1 0x1 PUSH1 0x1 PUSH1 0x40 SHL SUB DUP3 GT PUSH2 0xA8 JUMPI PUSH2 0x1163 SWAP2 PUSH1 0x4 ADD PUSH2 0x1187 JUMP JUMPDEST PUSH1 0x1 PUSH1 0x1 PUSH1 0x40 SHL SUB DUP2 GT PUSH2 0x477 JUMPI PUSH1 0x5 SHL PUSH1 0x20 ADD SWAP1 JUMP JUMPDEST SWAP1 PUSH2 0x12CB DUP3 PUSH2 0x12AA JUMP JUMPDEST PUSH2 0x12D8 PUSH1 0x40 MLOAD SWAP2 DUP3 PUSH2 0x1166 JUMP JUMPDEST DUP3 DUP2 MSTORE DUP1 SWAP3 PUSH2 0x12E9 PUSH1 0x1F NOT SWAP2 PUSH2 0x12AA JUMP JUMPDEST ADD SWAP1 PUSH1 0x20 CALLDATASIZE SWAP2 ADD CALLDATACOPY JUMP JUMPDEST SWAP1 PUSH2 0x12FD DUP3 PUSH2 0x12AA JUMP JUMPDEST PUSH2 0x130A PUSH1 0x40 MLOAD SWAP2 DUP3 PUSH2 0x1166 JUMP JUMPDEST DUP3 DUP2 MSTORE DUP1 SWAP3 PUSH2 0x131B PUSH1 0x1F NOT SWAP2 PUSH2 0x12AA JUMP JUMPDEST ADD SWAP1 PUSH1 0x0 JUMPDEST DUP3 DUP2 LT PUSH2 0x132C JUMPI POP POP POP JUMP JUMPDEST DUP1 PUSH1 0x60 PUSH1 0x20 DUP1 SWAP4 DUP6 ADD ADD MSTORE ADD PUSH2 0x1320 JUMP JUMPDEST PUSH1 0x0 SLOAD DUP2 LT ISZERO PUSH2 0x1377 JUMPI PUSH1 0x0 DUP1 DUP1 MSTORE PUSH1 0x6 SWAP2 SWAP1 SWAP2 MUL PUSH32 0x290DECD9548B62A8D60345A988386FC84BA6BC95484008F6362F93160EF3E563 ADD SWAP2 JUMP JUMPDEST PUSH4 0x4E487B71 PUSH1 0xE0 SHL PUSH1 0x0 MSTORE PUSH1 0x32 PUSH1 0x4 MSTORE PUSH1 0x24 PUSH1 0x0 REVERT JUMPDEST DUP1 MLOAD DUP3 LT ISZERO PUSH2 0x1377 JUMPI PUSH1 0x20 SWAP2 PUSH1 0x5 SHL ADD ADD SWAP1 JUMP JUMPDEST SWAP1 PUSH1 0x1 DUP3 DUP2 SHR SWAP3 AND DUP1 ISZERO PUSH2 0x13D1 JUMPI JUMPDEST PUSH1 0x20 DUP4 LT EQ PUSH2 0x13BB JUMPI JUMP JUMPDEST PUSH4 0x4E487B71 PUSH1 0xE0 SHL PUSH1 0x0 MSTORE PUSH1 0x22 PUSH1 0x4 MSTORE PUSH1 0x24 PUSH1 0x0 REVERT JUMPDEST SWAP2 PUSH1 0x7F AND SWAP2 PUSH2 0x13B0 JUMP JUMPDEST PUSH1 0x0 SWAP3 SWAP2 DUP2 SLOAD SWAP2 PUSH2 0x13EB DUP4 PUSH2 0x13A1 JUMP JUMPDEST DUP1 DUP4 MSTORE SWAP3 PUSH1 0x1 DUP2 AND SWAP1 DUP2 ISZERO PUSH2 0x1441 JUMPI POP PUSH1 0x1 EQ PUSH2 0x1407 JUMPI POP POP POP JUMP JUMPDEST PUSH1 0x0 SWAP1 DUP2 MSTORE PUSH1 0x20 DUP2 KECCAK256 SWAP4 SWAP5 POP SWAP2 SWAP3 JUMPDEST DUP4 DUP4 LT PUSH2 0x1427 JUMPI POP PUSH1 0x20 SWAP3 POP ADD ADD SWAP1 JUMP JUMPDEST PUSH1 0x1 DUP2 PUSH1 0x20 SWAP3 SWAP5 SWAP4 SWAP5 SLOAD DUP4 DUP6 DUP8 ADD ADD MSTORE ADD SWAP2 ADD SWAP2 SWAP1 PUSH2 0x1416 JUMP JUMPDEST SWAP2 POP POP PUSH1 0x20 SWAP4 SWAP5 POP PUSH1 0xFF SWAP3 SWAP2 SWAP3 NOT AND DUP4 DUP4 ADD MSTORE ISZERO ISZERO PUSH1 0x5 SHL ADD ADD SWAP1 JUMP JUMPDEST PUSH1 0x40 MLOAD SWAP1 PUSH2 0x146D PUSH1 0x40 DUP4 PUSH2 0x1166 JUMP JUMPDEST PUSH1 0x5 DUP3 MSTORE PUSH5 0x66616C7365 PUSH1 0xD8 SHL PUSH1 0x20 DUP4 ADD MSTORE JUMP JUMPDEST PUSH1 0x40 MLOAD SWAP1 PUSH2 0x1490 PUSH1 0x40 DUP4 PUSH2 0x1166 JUMP JUMPDEST PUSH1 0x4 DUP3 MSTORE PUSH4 0x74727565 PUSH1 0xE0 SHL PUSH1 0x20 DUP4 ADD MSTORE JUMP JUMPDEST ISZERO PUSH2 0x14AA JUMPI JUMP JUMPDEST PUSH1 0x40 MLOAD PUSH3 0x461BCD PUSH1 0xE5 SHL DUP2 MSTORE PUSH1 0x20 PUSH1 0x4 DUP3 ADD MSTORE PUSH1 0x21 PUSH1 0x24 DUP3 ADD MSTORE PUSH32 0x46756E64657252656769737472793A2046756E646572206E6F7420666F756E64 PUSH1 0x44 DUP3 ADD MSTORE PUSH1 0x17 PUSH1 0xF9 SHL PUSH1 0x64 DUP3 ADD MSTORE PUSH1 0x84 SWAP1 REVERT JUMPDEST PUSH1 0x0 SWAP2 PUSH1 0x60 SWAP2 DUP3 SWAP2 PUSH1 0x0 SWAP2 PUSH1 0x0 SWAP2 DUP6 SWAP2 DUP7 SWAP2 DUP8 SWAP2 PUSH1 0x0 SWAP1 DUP2 SLOAD SWAP2 JUMPDEST DUP3 DUP2 LT PUSH2 0x1520 JUMPI POP POP POP JUMP JUMPDEST PUSH1 0x1 PUSH2 0x152E PUSH2 0xFCC DUP4 PUSH2 0x133D JUMP JUMPDEST PUSH1 0x20 DUP2 MLOAD SWAP2 ADD KECCAK256 DUP3 MLOAD PUSH1 0x20 DUP5 ADD KECCAK256 EQ PUSH2 0x1549 JUMPI PUSH1 0x1 ADD PUSH2 0x1514 JUMP JUMPDEST SWAP9 POP POP POP SWAP8 POP POP POP POP POP POP PUSH2 0x155E SWAP2 POP PUSH2 0x133D JUMP JUMPDEST POP DUP1 SLOAD PUSH1 0x80 SHL SWAP2 PUSH1 0x40 MLOAD SWAP3 PUSH2 0x157A DUP5 PUSH2 0xCCC DUP2 PUSH1 0x1 DUP8 ADD PUSH2 0x13DB JUMP JUMPDEST PUSH1 0x2 DUP4 ADD SLOAD SWAP1 PUSH1 0xFF DUP3 AND ISZERO PUSH2 0x15F7 JUMPI PUSH2 0x1591 PUSH2 0x1481 JUMP JUMPDEST SWAP4 JUMPDEST PUSH1 0x5 PUSH1 0x40 MLOAD SWAP3 PUSH2 0x15AA DUP5 PUSH2 0xCCC DUP2 PUSH1 0x3 DUP8 ADD PUSH2 0x13DB JUMP JUMPDEST PUSH2 0x15D9 PUSH1 0x40 MLOAD SWAP4 PUSH2 0x15C2 DUP6 PUSH2 0xD37 DUP2 PUSH1 0x4 DUP6 ADD PUSH2 0x13DB JUMP JUMPDEST PUSH2 0x15D2 PUSH1 0x40 MLOAD DUP1 SWAP6 DUP2 SWAP4 ADD PUSH2 0x13DB JUMP JUMPDEST SUB DUP4 PUSH2 0x1166 JUMP JUMPDEST SWAP7 SWAP6 SWAP5 PUSH1 0xFF PUSH1 0x1 PUSH1 0x1 PUSH1 0x80 SHL SUB NOT DUP7 PUSH1 0x78 SHL AND SWAP6 PUSH1 0x88 SHR AND SWAP4 SWAP3 SWAP2 SWAP1 JUMP JUMPDEST PUSH2 0x15FF PUSH2 0x145E JUMP JUMPDEST SWAP4 PUSH2 0x1593 JUMP INVALID LOG2 PUSH5 0x6970667358 0x22 SLT KECCAK256 SWAP13 0xE9 GT 0xD9 0x1E 0x2C SWAP6 0x24 0xAE PUSH25 0x21317C2DD26E476A6AEDF5FB65880D9E58BB2572C12C64736F PUSH13 0x634300081C0033000000000000 "},"methodIdentifiers":{"addFunder(bytes16,string,bool,bytes16,bool,string,string,string)":"c06dce8b","getAllFunders()":"6fbbb55d","getFunderById(bytes16)":"862b7b95","getFunderByName(string)":"e86e356b","updateFunderById(bytes16,string,bool,bytes16,bool,string,string,string)":"9b9509fa"}}}}}