{"contracts/BankAccountRegistry.sol":{"BankAccountRegistry":{"abi":[{"anonymous":false,"inputs":[{"indexed":true,"internalType":"bytes16","name":"id","type":"bytes16"},{"indexed":false,"internalType":"string","name":"bankAccountNumber","type":"string"},{"indexed":false,"internalType":"string","name":"studentNumber","type":"string"},{"indexed":false,"internalType":"string","name":"createdAt","type":"string"},{"indexed":false,"internalType":"string","name":"createdBy","type":"string"}],"name":"BankAccountAdded","type":"event"},{"anonymous":false,"inputs":[{"indexed":false,"internalType":"string","name":"bankAccountNumber","type":"string"},{"indexed":false,"internalType":"string","name":"updatedAt","type":"string"},{"indexed":false,"internalType":"string","name":"modifiedBy","type":"string"}],"name":"BankAccountUpdated","type":"event"},{"inputs":[{"internalType":"bytes16","name":"_id","type":"bytes16"},{"internalType":"string","name":"_bankAccountNumber","type":"string"},{"internalType":"string","name":"_bankName","type":"string"},{"internalType":"string","name":"_bankBranchCode","type":"string"},{"internalType":"bool","name":"_isConfirmed","type":"bool"},{"internalType":"string","name":"_studentNumber","type":"string"},{"internalType":"bytes16","name":"_dataConfirmedById","type":"bytes16"},{"internalType":"string","name":"_updatedAt","type":"string"}],"name":"addBankAccount","outputs":[],"stateMutability":"nonpayable","type":"function"},{"inputs":[],"name":"getAll","outputs":[{"internalType":"bytes16[]","name":"ids","type":"bytes16[]"},{"internalType":"string[]","name":"bankAccountNumbers","type":"string[]"},{"internalType":"string[]","name":"bankNames","type":"string[]"},{"internalType":"string[]","name":"bankBranchCodes","type":"string[]"},{"internalType":"bool[]","name":"isConfirmeds","type":"bool[]"},{"internalType":"string[]","name":"studentNumbers","type":"string[]"},{"internalType":"bytes16[]","name":"dataConfirmedByIds","type":"bytes16[]"},{"internalType":"string[]","name":"updatedAts","type":"string[]"}],"stateMutability":"view","type":"function"},{"inputs":[{"internalType":"string","name":"_bankAccountNumber","type":"string"}],"name":"getByBankAccountNumber","outputs":[{"internalType":"bytes16","name":"id","type":"bytes16"},{"internalType":"string","name":"bankAccountNumber","type":"string"},{"internalType":"string","name":"bankName","type":"string"},{"internalType":"string","name":"bankBranchCode","type":"string"},{"internalType":"bool","name":"isConfirmed","type":"bool"},{"internalType":"string","name":"studentNumber","type":"string"},{"internalType":"bytes16","name":"dataConfirmedById","type":"bytes16"},{"internalType":"string","name":"updatedAt","type":"string"}],"stateMutability":"view","type":"function"},{"inputs":[{"internalType":"string","name":"_studentNumber","type":"string"}],"name":"getByStudentNumber","outputs":[{"internalType":"bytes16","name":"id","type":"bytes16"},{"internalType":"string","name":"bankAccountNumber","type":"string"},{"internalType":"string","name":"bankName","type":"string"},{"internalType":"string","name":"bankBranchCode","type":"string"},{"internalType":"bool","name":"isConfirmed","type":"bool"},{"internalType":"string","name":"studentNumber","type":"string"},{"internalType":"bytes16","name":"dataConfirmedById","type":"bytes16"},{"internalType":"string","name":"updatedAt","type":"string"}],"stateMutability":"view","type":"function"},{"inputs":[{"internalType":"string","name":"_bankAccountNumber","type":"string"},{"internalType":"bool","name":"_isConfirmed","type":"bool"},{"internalType":"string","name":"_updatedAt","type":"string"},{"internalType":"bytes16","name":"_dataConfirmedById","type":"bytes16"}],"name":"studentDataChangeConfirmation","outputs":[],"stateMutability":"nonpayable","type":"function"},{"inputs":[{"internalType":"string","name":"_bankAccountNumber","type":"string"},{"internalType":"string","name":"_bankName","type":"string"},{"internalType":"string","name":"_bankBranchCode","type":"string"},{"internalType":"bool","name":"_isConfirmed","type":"bool"},{"internalType":"string","name":"_studentNumber","type":"string"},{"internalType":"bytes16","name":"_dataConfirmedById","type":"bytes16"},{"internalType":"string","name":"_updatedAt","type":"string"}],"name":"updateBankAccountByNumber","outputs":[],"stateMutability":"nonpayable","type":"function"}],"evm":{"bytecode":{"linkReferences":{},"object":"60808060405234601557611b32908161001b8239f35b600080fdfe6080604052600436101561001257600080fd5b60003560e01c80630584479b14610f4b5780630807af2e14610efa57806308d6eec314610cd6578063255115ed14610be857806353ed5143146109865763deac7d5e1461005e57600080fd5b3461098157610100366003190112610981576004356001600160801b03198116809103610981576024356001600160401b038111610981576100a490369060040161152d565b906044356001600160401b038111610981576100c490369060040161152d565b916064356001600160401b038111610981576100e490369060040161152d565b6084358015158091036109815760a4356001600160401b0381116109815761011090369060040161152d565b9160c4356001600160801b031981168091036109815760e4356001600160401b0381116109815761014590369060040161152d565b968660005260016020526040600020546109225760405193865194602081818a019761017281838b611583565b81016002815203019020546108bf576040519361010085018581106001600160401b0382111761058f57604052888552602085019288845260408601908152606086019182526080860192835260a086019388855260c0870195865260e087019b8c526000546801000000000000000081101561058f578060016101f99201600055611755565b9790976108a9575187546001600160801b03191660809190911c17875551805160018801916001600160401b03821161058f57819061023884546117a5565b601f8111610856575b50602090601f83116001146107f1576000926107e6575b50508160011b916000199060031b1c19161790555b51805160028701916001600160401b03821161058f57819061028f84546117a5565b601f8111610793575b50602090601f831160011461072e57600092610723575b50508160011b916000199060031b1c19161790555b51805160038601916001600160401b03821161058f576102e483546117a5565b601f81116106db575b50602090601f831160011461066f576103399493929160009183610664575b50508160011b916000199060031b1c19161790555b511515600485019060ff801983541691151516179055565b51805160058401916001600160401b03821161058f5761035983546117a5565b601f811161061c575b50602090601f83116001146105b05760079594939291600091836105a5575b50508160011b916000199060031b1c19161790555b6001600160801b0319905116600682019060801c6001600160801b03198254161790550194519485516001600160401b03811161058f576103d782546117a5565b601f8111610547575b506020601f82116001146104b757918161048d9492604096947f9b784858b429cc47fd353d27a208fdbdc38d9b97807f6f1813107ed23cf0b3bd999a6000926104ac575b50508160011b916000199060031b1c19161790555b61046060206000549289600052600182528387600020558651809381928a51928391611583565b810160028152030190205561047f8351946080865260808601906115a6565b9084820360208601526115a6565b60006020848303928385870152828152818401606087015201520190a2005b015190503880610424565b601f1982169783600052816000209860005b81811061052f5750927f9b784858b429cc47fd353d27a208fdbdc38d9b97807f6f1813107ed23cf0b3bd989960409795936001938361048d999710610516575b505050811b019055610439565b015160001960f88460031b161c19169055388080610509565b838301518b556001909a0199602093840193016104c9565b826000526020600020601f830160051c81019160208410610585575b601f0160051c01905b81811061057957506103e0565b6000815560010161056c565b9091508190610563565b634e487b7160e01b600052604160045260246000fd5b015190503880610381565b90601f1983169184600052816000209260005b818110610604575091600193918560079998979694106105eb575b505050811b019055610396565b015160001960f88460031b161c191690553880806105de565b929360206001819287860151815501950193016105c3565b836000526020600020601f840160051c8101916020851061065a575b601f0160051c01905b81811061064e5750610362565b60008155600101610641565b9091508190610638565b01519050388061030c565b90601f1983169184600052816000209260005b8181106106c3575091600193918561033998979694106106aa575b505050811b019055610321565b015160001960f88460031b161c1916905538808061069d565b92936020600181928786015181550195019301610682565b836000526020600020601f840160051c81019160208510610719575b601f0160051c01905b81811061070d57506102ed565b60008155600101610700565b90915081906106f7565b0151905038806102af565b60008581528281209350601f198516905b81811061077b5750908460019594939210610762575b505050811b0190556102c4565b015160001960f88460031b161c19169055388080610755565b9293602060018192878601518155019501930161073f565b909150836000526020600020601f840160051c810191602085106107dc575b90601f859493920160051c01905b8181106107cd5750610298565b600081558493506001016107c0565b90915081906107b2565b015190503880610258565b60008581528281209350601f198516905b81811061083e5750908460019594939210610825575b505050811b01905561026d565b015160001960f88460031b161c19169055388080610818565b92936020600181928786015181550195019301610802565b909150836000526020600020601f840160051c8101916020851061089f575b90601f859493920160051c01905b8181106108905750610241565b60008155849350600101610883565b9091508190610875565b634e487b7160e01b600052600060045260246000fd5b60405162461bcd60e51b815260206004820152603560248201527f42616e6b4163636f756e7452656769737472793a204163636f756e7420616c7260448201527432b0b23c9032bc34b9ba399014373ab6b132b9149760591b6064820152608490fd5b60405162461bcd60e51b815260206004820152603160248201527f42616e6b4163636f756e7452656769737472793a204163636f756e7420616c7260448201527032b0b23c9032bc34b9ba39901434b2149760791b6064820152608490fd5b600080fd5b34610981576000366003190112610981576000546109a381611a4c565b6109ac82611a7e565b916109b681611a7e565b916109c082611a7e565b936109ca83611a35565b946109d8604051968761150c565b8386526109e484611a35565b602087019590601f19013687376109fa85611a7e565b92610a0486611a4c565b94610a0e87611a7e565b9660005b818110610ad957505092610a5c602093610a4e610a6a94610a416101009c9d986040519d8e8181520190611652565b8c8103888e015290611690565b908a820360408c0152611690565b9088820360608a0152611690565b918683036080880152519182815201959060005b818110610ac1578680610abd88610aaf89610aa18e8b87820360a0890152611690565b9085820360c0870152611652565b9083820360e0850152611690565b0390f35b82511515885260209788019790920191600101610a7e565b80610bcc60078d610aeb600195611755565b5090815460801b610afc868a611ac8565b906001600160801b0319169052610b14868301611816565b610b1e868b611ac8565b52610b29858a611ac8565b50610b3660028301611816565b610b40868c611ac8565b52610b4b858b611ac8565b50610b5860038301611816565b610b62868d611ac8565b52610b6d858c611ac8565b50610b808560ff60048501541692611ac8565b9015159052610b9160058201611816565b610b9b858d611ac8565b52610ba6848c611ac8565b50600681015460801b610bb9858e611ac8565b906001600160801b031916905201611816565b610bd6828c611ac8565b52610be1818b611ac8565b5001610a12565b34610981576020366003190112610981576004356001600160401b038111610981576020610c1d610c3092369060040161152d565b8160405193828580945193849201611583565b8101600281520301902054610c46811515611731565b6000198101908111610cc057610c5b90611755565b50805460801b610abd610c7060018401611816565b92610c7d60028201611816565b90610c8a60038201611816565b60ff600483015416610c9e60058401611816565b91610cb36007600686015460801b9501611816565b94604051988998896115cb565b634e487b7160e01b600052601160045260246000fd5b34610981576080366003190112610981576004356001600160401b03811161098157610d0690369060040161152d565b602435908115158203610981576044356001600160401b03811161098157610d3290369060040161152d565b906064356001600160801b031981168103610981576040516020818451610d5c8183858901611583565b8101600281520301902054610d72811515611731565b6000198101908111610cc057610d8a610da191611755565b5094600486019060ff801983541691151516179055565b6007840183516001600160401b03811161058f57610dbf82546117a5565b601f8111610eb2575b506020601f8211600114610e3b579181600080516020611add8339815191529792600694600091610e30575b508160011b916000199060031b1c19161790555b019060801c6001600160801b0319825416179055610e2b604051928392836117df565b0390a1005b905087015189610df4565b601f1982169083600052806000209160005b818110610e9a5750926006949260019282600080516020611add8339815191529b9610610e81575b5050811b019055610e08565b89015160001960f88460031b161c191690558980610e75565b9192602060018192868c015181550194019201610e4d565b826000526020600020601f830160051c81019160208410610ef0575b601f0160051c01905b818110610ee45750610dc8565b60008155600101610ed7565b9091508190610ece565b34610981576020366003190112610981576004356001600160401b03811161098157610f35610f30610abd92369060040161152d565b6118ba565b94604098969894919493929351988998896115cb565b346109815760e0366003190112610981576004356001600160401b03811161098157610f7b90369060040161152d565b6024356001600160401b03811161098157610f9a90369060040161152d565b906044356001600160401b03811161098157610fba90369060040161152d565b606435928315158403610981576084356001600160401b03811161098157610fe690369060040161152d565b9360a435906001600160801b0319821682036109815760c4356001600160401b0381116109815761101b90369060040161152d565b9360405160208188516110318183858d01611583565b8101600281520301902054611047811515611731565b6000198101908111610cc05761105c90611755565b509360028501908051906001600160401b03821161058f57819061108084546117a5565b601f81116114b9575b50602090601f831160011461145457600092611449575b50508160011b916000199060031b1c19161790555b805160038501916001600160401b03821161058f576110d483546117a5565b601f8111611401575b50602090601f831160011461139557611126949392916000918361138a575b50508160011b916000199060031b1c19161790555b600484019060ff801983541691151516179055565b6005820185516001600160401b03811161058f5761114482546117a5565b601f8111611342575b506020601f82116001146112d857819060079697986000926112cd575b50508160011b916000199060031b1c19161790555b600682019060801c6001600160801b031982541617905501918151926001600160401b03841161058f576111b381546117a5565b601f8111611285575b50602093601f81116001146112125780600080516020611add83398151915295600091611207575b508160011b916000199060031b1c19161790555b610e2b604051928392836117df565b9050840151866111e4565b601f1981169482600052806000209560005b81811061126d5750958291600193600080516020611add8339815191529810611254575b5050811b0190556111f8565b86015160001960f88460031b161c191690558680611248565b86830151885560019097019660209283019201611224565b816000526020600020601f860160051c810191602087106112c3575b601f0160051c01905b8181106112b757506111bc565b600081556001016112aa565b90915081906112a1565b01519050888061116a565b601f1982169783600052816000209860005b81811061132a575091600797989991846001959410611311575b505050811b01905561117f565b015160001960f88460031b161c19169055888080611304565b838301518b556001909a0199602093840193016112ea565b826000526020600020601f830160051c81019160208410611380575b601f0160051c01905b818110611374575061114d565b60008155600101611367565b909150819061135e565b015190508a806110fc565b90601f1983169184600052816000209260005b8181106113e9575091600193918561112698979694106113d0575b505050811b019055611111565b015160001960f88460031b161c191690558a80806113c3565b929360206001819287860151815501950193016113a8565b836000526020600020601f840160051c8101916020851061143f575b601f0160051c01905b81811061143357506110dd565b60008155600101611426565b909150819061141d565b015190508a806110a0565b60008581528281209350601f198516905b8181106114a15750908460019594939210611488575b505050811b0190556110b5565b015160001960f88460031b161c191690558a808061147b565b92936020600181928786015181550195019301611465565b909150836000526020600020601f840160051c81019160208510611502575b90601f859493920160051c01905b8181106114f35750611089565b600081558493506001016114e6565b90915081906114d8565b90601f801991011681019081106001600160401b0382111761058f57604052565b81601f82011215610981578035906001600160401b03821161058f5760405192611561601f8401601f19166020018561150c565b8284526020838301011161098157816000926020809301838601378301015290565b60005b8381106115965750506000910152565b8181015183820152602001611586565b906020916115bf81518092818552858086019101611583565b601f01601f1916010190565b94929361160f6116329561160161164f9b999561161d956001600160801b0319168a5261010060208b01526101008a01906115a6565b9088820360408a01526115a6565b9086820360608801526115a6565b911515608085015283820360a08501526115a6565b926001600160801b03191660c082015260e08184039101526115a6565b90565b906020808351928381520192019060005b8181106116705750505090565b82516001600160801b031916845260209384019390920191600101611663565b9080602083519182815201916020808360051b8301019401926000915b8383106116bc57505050505090565b90919293946020806116da600193601f1986820301875289516115a6565b970193019301919392906116ad565b60809060208152602760208201527f42616e6b4163636f756e7452656769737472793a204163636f756e74206e6f74604082015266103337bab7321760c91b60608201520190565b1561173857565b60405162461bcd60e51b815280611751600482016116e9565b0390fd5b60005481101561178f57600080805260039190911b7f290decd9548b62a8d60345a988386fc84ba6bc95484008f6362f93160ef3e5630191565b634e487b7160e01b600052603260045260246000fd5b90600182811c921680156117d5575b60208310146117bf57565b634e487b7160e01b600052602260045260246000fd5b91607f16916117b4565b906020926117f8611805926060855260608501906115a6565b90838203858501526115a6565b906040818303910152600081520190565b906040519182600082549261182a846117a5565b80845293600181169081156118985750600114611851575b5061184f9250038361150c565b565b90506000929192526020600020906000915b81831061187c57505090602061184f9282010138611842565b6020919350806001915483858901015201910190918492611863565b90506020925061184f94915060ff191682840152151560051b82010138611842565b6000908154915b8281106118e15760405162461bcd60e51b815280611751600482016116e9565b60056118ec82611755565b50016040516020810191816000825492611905846117a5565b9360018116908115611a1757506001146119d5575b5061192e925003601f19810183528261150c565b519020604051602081019061195f602082875161194e8187858c01611583565b81010301601f19810183528261150c565b5190201461196f576001016118c1565b905061197b9150611755565b50805460801b9060ff600482015416600682015460801b92936119a060018401611816565b936119ad60028501611816565b936119ba60038201611816565b939261164f60076119cd60058501611816565b949301611816565b9150506000528160206000206000905b8382106119fd575050602061192e928201013861191a565b6020919250806001915483858801015201910183916119e5565b60ff191687525061192e93801515028301602001915038905061191a565b6001600160401b03811161058f5760051b60200190565b90611a5682611a35565b611a63604051918261150c565b8281528092611a74601f1991611a35565b0190602036910137565b90611a8882611a35565b611a95604051918261150c565b8281528092611aa6601f1991611a35565b019060005b828110611ab757505050565b806060602080938501015201611aab565b805182101561178f5760209160051b01019056febbbc02f59c192a8be348da18822d51d457adc8fd266e452a8f918cb100ad3d3fa264697066735822122058d2dee25c5c6989a0f6eec7f5089fb7911b18c888421efe5e9c7a708275551564736f6c634300081c0033","opcodes":"PUSH1 0x80 DUP1 PUSH1 0x40 MSTORE CALLVALUE PUSH1 0x15 JUMPI PUSH2 0x1B32 SWAP1 DUP2 PUSH2 0x1B DUP3 CODECOPY RETURN JUMPDEST PUSH1 0x0 DUP1 REVERT INVALID PUSH1 0x80 PUSH1 0x40 MSTORE PUSH1 0x4 CALLDATASIZE LT ISZERO PUSH2 0x12 JUMPI PUSH1 0x0 DUP1 REVERT JUMPDEST PUSH1 0x0 CALLDATALOAD PUSH1 0xE0 SHR DUP1 PUSH4 0x584479B EQ PUSH2 0xF4B JUMPI DUP1 PUSH4 0x807AF2E EQ PUSH2 0xEFA JUMPI DUP1 PUSH4 0x8D6EEC3 EQ PUSH2 0xCD6 JUMPI DUP1 PUSH4 0x255115ED EQ PUSH2 0xBE8 JUMPI DUP1 PUSH4 0x53ED5143 EQ PUSH2 0x986 JUMPI PUSH4 0xDEAC7D5E EQ PUSH2 0x5E JUMPI PUSH1 0x0 DUP1 REVERT JUMPDEST CALLVALUE PUSH2 0x981 JUMPI PUSH2 0x100 CALLDATASIZE PUSH1 0x3 NOT ADD SLT PUSH2 0x981 JUMPI PUSH1 0x4 CALLDATALOAD PUSH1 0x1 PUSH1 0x1 PUSH1 0x80 SHL SUB NOT DUP2 AND DUP1 SWAP2 SUB PUSH2 0x981 JUMPI PUSH1 0x24 CALLDATALOAD PUSH1 0x1 PUSH1 0x1 PUSH1 0x40 SHL SUB DUP2 GT PUSH2 0x981 JUMPI PUSH2 0xA4 SWAP1 CALLDATASIZE SWAP1 PUSH1 0x4 ADD PUSH2 0x152D JUMP JUMPDEST SWAP1 PUSH1 0x44 CALLDATALOAD PUSH1 0x1 PUSH1 0x1 PUSH1 0x40 SHL SUB DUP2 GT PUSH2 0x981 JUMPI PUSH2 0xC4 SWAP1 CALLDATASIZE SWAP1 PUSH1 0x4 ADD PUSH2 0x152D JUMP JUMPDEST SWAP2 PUSH1 0x64 CALLDATALOAD PUSH1 0x1 PUSH1 0x1 PUSH1 0x40 SHL SUB DUP2 GT PUSH2 0x981 JUMPI PUSH2 0xE4 SWAP1 CALLDATASIZE SWAP1 PUSH1 0x4 ADD PUSH2 0x152D JUMP JUMPDEST PUSH1 0x84 CALLDATALOAD DUP1 ISZERO ISZERO DUP1 SWAP2 SUB PUSH2 0x981 JUMPI PUSH1 0xA4 CALLDATALOAD PUSH1 0x1 PUSH1 0x1 PUSH1 0x40 SHL SUB DUP2 GT PUSH2 0x981 JUMPI PUSH2 0x110 SWAP1 CALLDATASIZE SWAP1 PUSH1 0x4 ADD PUSH2 0x152D JUMP JUMPDEST SWAP2 PUSH1 0xC4 CALLDATALOAD PUSH1 0x1 PUSH1 0x1 PUSH1 0x80 SHL SUB NOT DUP2 AND DUP1 SWAP2 SUB PUSH2 0x981 JUMPI PUSH1 0xE4 CALLDATALOAD PUSH1 0x1 PUSH1 0x1 PUSH1 0x40 SHL SUB DUP2 GT PUSH2 0x981 JUMPI PUSH2 0x145 SWAP1 CALLDATASIZE SWAP1 PUSH1 0x4 ADD PUSH2 0x152D JUMP JUMPDEST SWAP7 DUP7 PUSH1 0x0 MSTORE PUSH1 0x1 PUSH1 0x20 MSTORE PUSH1 0x40 PUSH1 0x0 KECCAK256 SLOAD PUSH2 0x922 JUMPI PUSH1 0x40 MLOAD SWAP4 DUP7 MLOAD SWAP5 PUSH1 0x20 DUP2 DUP2 DUP11 ADD SWAP8 PUSH2 0x172 DUP2 DUP4 DUP12 PUSH2 0x1583 JUMP JUMPDEST DUP2 ADD PUSH1 0x2 DUP2 MSTORE SUB ADD SWAP1 KECCAK256 SLOAD PUSH2 0x8BF JUMPI PUSH1 0x40 MLOAD SWAP4 PUSH2 0x100 DUP6 ADD DUP6 DUP2 LT PUSH1 0x1 PUSH1 0x1 PUSH1 0x40 SHL SUB DUP3 GT OR PUSH2 0x58F JUMPI PUSH1 0x40 MSTORE DUP9 DUP6 MSTORE PUSH1 0x20 DUP6 ADD SWAP3 DUP9 DUP5 MSTORE PUSH1 0x40 DUP7 ADD SWAP1 DUP2 MSTORE PUSH1 0x60 DUP7 ADD SWAP2 DUP3 MSTORE PUSH1 0x80 DUP7 ADD SWAP3 DUP4 MSTORE PUSH1 0xA0 DUP7 ADD SWAP4 DUP9 DUP6 MSTORE PUSH1 0xC0 DUP8 ADD SWAP6 DUP7 MSTORE PUSH1 0xE0 DUP8 ADD SWAP12 DUP13 MSTORE PUSH1 0x0 SLOAD PUSH9 0x10000000000000000 DUP2 LT ISZERO PUSH2 0x58F JUMPI DUP1 PUSH1 0x1 PUSH2 0x1F9 SWAP3 ADD PUSH1 0x0 SSTORE PUSH2 0x1755 JUMP JUMPDEST SWAP8 SWAP1 SWAP8 PUSH2 0x8A9 JUMPI MLOAD DUP8 SLOAD PUSH1 0x1 PUSH1 0x1 PUSH1 0x80 SHL SUB NOT AND PUSH1 0x80 SWAP2 SWAP1 SWAP2 SHR OR DUP8 SSTORE MLOAD DUP1 MLOAD PUSH1 0x1 DUP9 ADD SWAP2 PUSH1 0x1 PUSH1 0x1 PUSH1 0x40 SHL SUB DUP3 GT PUSH2 0x58F JUMPI DUP2 SWAP1 PUSH2 0x238 DUP5 SLOAD PUSH2 0x17A5 JUMP JUMPDEST PUSH1 0x1F DUP2 GT PUSH2 0x856 JUMPI JUMPDEST POP PUSH1 0x20 SWAP1 PUSH1 0x1F DUP4 GT PUSH1 0x1 EQ PUSH2 0x7F1 JUMPI PUSH1 0x0 SWAP3 PUSH2 0x7E6 JUMPI JUMPDEST POP POP DUP2 PUSH1 0x1 SHL SWAP2 PUSH1 0x0 NOT SWAP1 PUSH1 0x3 SHL SHR NOT AND OR SWAP1 SSTORE JUMPDEST MLOAD DUP1 MLOAD PUSH1 0x2 DUP8 ADD SWAP2 PUSH1 0x1 PUSH1 0x1 PUSH1 0x40 SHL SUB DUP3 GT PUSH2 0x58F JUMPI DUP2 SWAP1 PUSH2 0x28F DUP5 SLOAD PUSH2 0x17A5 JUMP JUMPDEST PUSH1 0x1F DUP2 GT PUSH2 0x793 JUMPI JUMPDEST POP PUSH1 0x20 SWAP1 PUSH1 0x1F DUP4 GT PUSH1 0x1 EQ PUSH2 0x72E JUMPI PUSH1 0x0 SWAP3 PUSH2 0x723 JUMPI JUMPDEST POP POP DUP2 PUSH1 0x1 SHL SWAP2 PUSH1 0x0 NOT SWAP1 PUSH1 0x3 SHL SHR NOT AND OR SWAP1 SSTORE JUMPDEST MLOAD DUP1 MLOAD PUSH1 0x3 DUP7 ADD SWAP2 PUSH1 0x1 PUSH1 0x1 PUSH1 0x40 SHL SUB DUP3 GT PUSH2 0x58F JUMPI PUSH2 0x2E4 DUP4 SLOAD PUSH2 0x17A5 JUMP JUMPDEST PUSH1 0x1F DUP2 GT PUSH2 0x6DB JUMPI JUMPDEST POP PUSH1 0x20 SWAP1 PUSH1 0x1F DUP4 GT PUSH1 0x1 EQ PUSH2 0x66F JUMPI PUSH2 0x339 SWAP5 SWAP4 SWAP3 SWAP2 PUSH1 0x0 SWAP2 DUP4 PUSH2 0x664 JUMPI JUMPDEST POP POP DUP2 PUSH1 0x1 SHL SWAP2 PUSH1 0x0 NOT SWAP1 PUSH1 0x3 SHL SHR NOT AND OR SWAP1 SSTORE JUMPDEST MLOAD ISZERO ISZERO PUSH1 0x4 DUP6 ADD SWAP1 PUSH1 0xFF DUP1 NOT DUP4 SLOAD AND SWAP2 ISZERO ISZERO AND OR SWAP1 SSTORE JUMP JUMPDEST MLOAD DUP1 MLOAD PUSH1 0x5 DUP5 ADD SWAP2 PUSH1 0x1 PUSH1 0x1 PUSH1 0x40 SHL SUB DUP3 GT PUSH2 0x58F JUMPI PUSH2 0x359 DUP4 SLOAD PUSH2 0x17A5 JUMP JUMPDEST PUSH1 0x1F DUP2 GT PUSH2 0x61C JUMPI JUMPDEST POP PUSH1 0x20 SWAP1 PUSH1 0x1F DUP4 GT PUSH1 0x1 EQ PUSH2 0x5B0 JUMPI PUSH1 0x7 SWAP6 SWAP5 SWAP4 SWAP3 SWAP2 PUSH1 0x0 SWAP2 DUP4 PUSH2 0x5A5 JUMPI JUMPDEST POP POP DUP2 PUSH1 0x1 SHL SWAP2 PUSH1 0x0 NOT SWAP1 PUSH1 0x3 SHL SHR NOT AND OR SWAP1 SSTORE JUMPDEST PUSH1 0x1 PUSH1 0x1 PUSH1 0x80 SHL SUB NOT SWAP1 MLOAD AND PUSH1 0x6 DUP3 ADD SWAP1 PUSH1 0x80 SHR PUSH1 0x1 PUSH1 0x1 PUSH1 0x80 SHL SUB NOT DUP3 SLOAD AND OR SWAP1 SSTORE ADD SWAP5 MLOAD SWAP5 DUP6 MLOAD PUSH1 0x1 PUSH1 0x1 PUSH1 0x40 SHL SUB DUP2 GT PUSH2 0x58F JUMPI PUSH2 0x3D7 DUP3 SLOAD PUSH2 0x17A5 JUMP JUMPDEST PUSH1 0x1F DUP2 GT PUSH2 0x547 JUMPI JUMPDEST POP PUSH1 0x20 PUSH1 0x1F DUP3 GT PUSH1 0x1 EQ PUSH2 0x4B7 JUMPI SWAP2 DUP2 PUSH2 0x48D SWAP5 SWAP3 PUSH1 0x40 SWAP7 SWAP5 PUSH32 0x9B784858B429CC47FD353D27A208FDBDC38D9B97807F6F1813107ED23CF0B3BD SWAP10 SWAP11 PUSH1 0x0 SWAP3 PUSH2 0x4AC JUMPI JUMPDEST POP POP DUP2 PUSH1 0x1 SHL SWAP2 PUSH1 0x0 NOT SWAP1 PUSH1 0x3 SHL SHR NOT AND OR SWAP1 SSTORE JUMPDEST PUSH2 0x460 PUSH1 0x20 PUSH1 0x0 SLOAD SWAP3 DUP10 PUSH1 0x0 MSTORE PUSH1 0x1 DUP3 MSTORE DUP4 DUP8 PUSH1 0x0 KECCAK256 SSTORE DUP7 MLOAD DUP1 SWAP4 DUP2 SWAP3 DUP11 MLOAD SWAP3 DUP4 SWAP2 PUSH2 0x1583 JUMP JUMPDEST DUP2 ADD PUSH1 0x2 DUP2 MSTORE SUB ADD SWAP1 KECCAK256 SSTORE PUSH2 0x47F DUP4 MLOAD SWAP5 PUSH1 0x80 DUP7 MSTORE PUSH1 0x80 DUP7 ADD SWAP1 PUSH2 0x15A6 JUMP JUMPDEST SWAP1 DUP5 DUP3 SUB PUSH1 0x20 DUP7 ADD MSTORE PUSH2 0x15A6 JUMP JUMPDEST PUSH1 0x0 PUSH1 0x20 DUP5 DUP4 SUB SWAP3 DUP4 DUP6 DUP8 ADD MSTORE DUP3 DUP2 MSTORE DUP2 DUP5 ADD PUSH1 0x60 DUP8 ADD MSTORE ADD MSTORE ADD SWAP1 LOG2 STOP JUMPDEST ADD MLOAD SWAP1 POP CODESIZE DUP1 PUSH2 0x424 JUMP JUMPDEST PUSH1 0x1F NOT DUP3 AND SWAP8 DUP4 PUSH1 0x0 MSTORE DUP2 PUSH1 0x0 KECCAK256 SWAP9 PUSH1 0x0 JUMPDEST DUP2 DUP2 LT PUSH2 0x52F JUMPI POP SWAP3 PUSH32 0x9B784858B429CC47FD353D27A208FDBDC38D9B97807F6F1813107ED23CF0B3BD SWAP9 SWAP10 PUSH1 0x40 SWAP8 SWAP6 SWAP4 PUSH1 0x1 SWAP4 DUP4 PUSH2 0x48D SWAP10 SWAP8 LT PUSH2 0x516 JUMPI JUMPDEST POP POP POP DUP2 SHL ADD SWAP1 SSTORE PUSH2 0x439 JUMP JUMPDEST ADD MLOAD PUSH1 0x0 NOT PUSH1 0xF8 DUP5 PUSH1 0x3 SHL AND SHR NOT AND SWAP1 SSTORE CODESIZE DUP1 DUP1 PUSH2 0x509 JUMP JUMPDEST DUP4 DUP4 ADD MLOAD DUP12 SSTORE PUSH1 0x1 SWAP1 SWAP11 ADD SWAP10 PUSH1 0x20 SWAP4 DUP5 ADD SWAP4 ADD PUSH2 0x4C9 JUMP JUMPDEST DUP3 PUSH1 0x0 MSTORE PUSH1 0x20 PUSH1 0x0 KECCAK256 PUSH1 0x1F DUP4 ADD PUSH1 0x5 SHR DUP2 ADD SWAP2 PUSH1 0x20 DUP5 LT PUSH2 0x585 JUMPI JUMPDEST PUSH1 0x1F ADD PUSH1 0x5 SHR ADD SWAP1 JUMPDEST DUP2 DUP2 LT PUSH2 0x579 JUMPI POP PUSH2 0x3E0 JUMP JUMPDEST PUSH1 0x0 DUP2 SSTORE PUSH1 0x1 ADD PUSH2 0x56C JUMP JUMPDEST SWAP1 SWAP2 POP DUP2 SWAP1 PUSH2 0x563 JUMP JUMPDEST PUSH4 0x4E487B71 PUSH1 0xE0 SHL PUSH1 0x0 MSTORE PUSH1 0x41 PUSH1 0x4 MSTORE PUSH1 0x24 PUSH1 0x0 REVERT JUMPDEST ADD MLOAD SWAP1 POP CODESIZE DUP1 PUSH2 0x381 JUMP JUMPDEST SWAP1 PUSH1 0x1F NOT DUP4 AND SWAP2 DUP5 PUSH1 0x0 MSTORE DUP2 PUSH1 0x0 KECCAK256 SWAP3 PUSH1 0x0 JUMPDEST DUP2 DUP2 LT PUSH2 0x604 JUMPI POP SWAP2 PUSH1 0x1 SWAP4 SWAP2 DUP6 PUSH1 0x7 SWAP10 SWAP9 SWAP8 SWAP7 SWAP5 LT PUSH2 0x5EB JUMPI JUMPDEST POP POP POP DUP2 SHL ADD SWAP1 SSTORE PUSH2 0x396 JUMP JUMPDEST ADD MLOAD PUSH1 0x0 NOT PUSH1 0xF8 DUP5 PUSH1 0x3 SHL AND SHR NOT AND SWAP1 SSTORE CODESIZE DUP1 DUP1 PUSH2 0x5DE JUMP JUMPDEST SWAP3 SWAP4 PUSH1 0x20 PUSH1 0x1 DUP2 SWAP3 DUP8 DUP7 ADD MLOAD DUP2 SSTORE ADD SWAP6 ADD SWAP4 ADD PUSH2 0x5C3 JUMP JUMPDEST DUP4 PUSH1 0x0 MSTORE PUSH1 0x20 PUSH1 0x0 KECCAK256 PUSH1 0x1F DUP5 ADD PUSH1 0x5 SHR DUP2 ADD SWAP2 PUSH1 0x20 DUP6 LT PUSH2 0x65A JUMPI JUMPDEST PUSH1 0x1F ADD PUSH1 0x5 SHR ADD SWAP1 JUMPDEST DUP2 DUP2 LT PUSH2 0x64E JUMPI POP PUSH2 0x362 JUMP JUMPDEST PUSH1 0x0 DUP2 SSTORE PUSH1 0x1 ADD PUSH2 0x641 JUMP JUMPDEST SWAP1 SWAP2 POP DUP2 SWAP1 PUSH2 0x638 JUMP JUMPDEST ADD MLOAD SWAP1 POP CODESIZE DUP1 PUSH2 0x30C JUMP JUMPDEST SWAP1 PUSH1 0x1F NOT DUP4 AND SWAP2 DUP5 PUSH1 0x0 MSTORE DUP2 PUSH1 0x0 KECCAK256 SWAP3 PUSH1 0x0 JUMPDEST DUP2 DUP2 LT PUSH2 0x6C3 JUMPI POP SWAP2 PUSH1 0x1 SWAP4 SWAP2 DUP6 PUSH2 0x339 SWAP9 SWAP8 SWAP7 SWAP5 LT PUSH2 0x6AA JUMPI JUMPDEST POP POP POP DUP2 SHL ADD SWAP1 SSTORE PUSH2 0x321 JUMP JUMPDEST ADD MLOAD PUSH1 0x0 NOT PUSH1 0xF8 DUP5 PUSH1 0x3 SHL AND SHR NOT AND SWAP1 SSTORE CODESIZE DUP1 DUP1 PUSH2 0x69D JUMP JUMPDEST SWAP3 SWAP4 PUSH1 0x20 PUSH1 0x1 DUP2 SWAP3 DUP8 DUP7 ADD MLOAD DUP2 SSTORE ADD SWAP6 ADD SWAP4 ADD PUSH2 0x682 JUMP JUMPDEST DUP4 PUSH1 0x0 MSTORE PUSH1 0x20 PUSH1 0x0 KECCAK256 PUSH1 0x1F DUP5 ADD PUSH1 0x5 SHR DUP2 ADD SWAP2 PUSH1 0x20 DUP6 LT PUSH2 0x719 JUMPI JUMPDEST PUSH1 0x1F ADD PUSH1 0x5 SHR ADD SWAP1 JUMPDEST DUP2 DUP2 LT PUSH2 0x70D JUMPI POP PUSH2 0x2ED JUMP JUMPDEST PUSH1 0x0 DUP2 SSTORE PUSH1 0x1 ADD PUSH2 0x700 JUMP JUMPDEST SWAP1 SWAP2 POP DUP2 SWAP1 PUSH2 0x6F7 JUMP JUMPDEST ADD MLOAD SWAP1 POP CODESIZE DUP1 PUSH2 0x2AF JUMP JUMPDEST PUSH1 0x0 DUP6 DUP2 MSTORE DUP3 DUP2 KECCAK256 SWAP4 POP PUSH1 0x1F NOT DUP6 AND SWAP1 JUMPDEST DUP2 DUP2 LT PUSH2 0x77B JUMPI POP SWAP1 DUP5 PUSH1 0x1 SWAP6 SWAP5 SWAP4 SWAP3 LT PUSH2 0x762 JUMPI JUMPDEST POP POP POP DUP2 SHL ADD SWAP1 SSTORE PUSH2 0x2C4 JUMP JUMPDEST ADD MLOAD PUSH1 0x0 NOT PUSH1 0xF8 DUP5 PUSH1 0x3 SHL AND SHR NOT AND SWAP1 SSTORE CODESIZE DUP1 DUP1 PUSH2 0x755 JUMP JUMPDEST SWAP3 SWAP4 PUSH1 0x20 PUSH1 0x1 DUP2 SWAP3 DUP8 DUP7 ADD MLOAD DUP2 SSTORE ADD SWAP6 ADD SWAP4 ADD PUSH2 0x73F JUMP JUMPDEST SWAP1 SWAP2 POP DUP4 PUSH1 0x0 MSTORE PUSH1 0x20 PUSH1 0x0 KECCAK256 PUSH1 0x1F DUP5 ADD PUSH1 0x5 SHR DUP2 ADD SWAP2 PUSH1 0x20 DUP6 LT PUSH2 0x7DC JUMPI JUMPDEST SWAP1 PUSH1 0x1F DUP6 SWAP5 SWAP4 SWAP3 ADD PUSH1 0x5 SHR ADD SWAP1 JUMPDEST DUP2 DUP2 LT PUSH2 0x7CD JUMPI POP PUSH2 0x298 JUMP JUMPDEST PUSH1 0x0 DUP2 SSTORE DUP5 SWAP4 POP PUSH1 0x1 ADD PUSH2 0x7C0 JUMP JUMPDEST SWAP1 SWAP2 POP DUP2 SWAP1 PUSH2 0x7B2 JUMP JUMPDEST ADD MLOAD SWAP1 POP CODESIZE DUP1 PUSH2 0x258 JUMP JUMPDEST PUSH1 0x0 DUP6 DUP2 MSTORE DUP3 DUP2 KECCAK256 SWAP4 POP PUSH1 0x1F NOT DUP6 AND SWAP1 JUMPDEST DUP2 DUP2 LT PUSH2 0x83E JUMPI POP SWAP1 DUP5 PUSH1 0x1 SWAP6 SWAP5 SWAP4 SWAP3 LT PUSH2 0x825 JUMPI JUMPDEST POP POP POP DUP2 SHL ADD SWAP1 SSTORE PUSH2 0x26D JUMP JUMPDEST ADD MLOAD PUSH1 0x0 NOT PUSH1 0xF8 DUP5 PUSH1 0x3 SHL AND SHR NOT AND SWAP1 SSTORE CODESIZE DUP1 DUP1 PUSH2 0x818 JUMP JUMPDEST SWAP3 SWAP4 PUSH1 0x20 PUSH1 0x1 DUP2 SWAP3 DUP8 DUP7 ADD MLOAD DUP2 SSTORE ADD SWAP6 ADD SWAP4 ADD PUSH2 0x802 JUMP JUMPDEST SWAP1 SWAP2 POP DUP4 PUSH1 0x0 MSTORE PUSH1 0x20 PUSH1 0x0 KECCAK256 PUSH1 0x1F DUP5 ADD PUSH1 0x5 SHR DUP2 ADD SWAP2 PUSH1 0x20 DUP6 LT PUSH2 0x89F JUMPI JUMPDEST SWAP1 PUSH1 0x1F DUP6 SWAP5 SWAP4 SWAP3 ADD PUSH1 0x5 SHR ADD SWAP1 JUMPDEST DUP2 DUP2 LT PUSH2 0x890 JUMPI POP PUSH2 0x241 JUMP JUMPDEST PUSH1 0x0 DUP2 SSTORE DUP5 SWAP4 POP PUSH1 0x1 ADD PUSH2 0x883 JUMP JUMPDEST SWAP1 SWAP2 POP DUP2 SWAP1 PUSH2 0x875 JUMP JUMPDEST PUSH4 0x4E487B71 PUSH1 0xE0 SHL PUSH1 0x0 MSTORE PUSH1 0x0 PUSH1 0x4 MSTORE PUSH1 0x24 PUSH1 0x0 REVERT JUMPDEST PUSH1 0x40 MLOAD PUSH3 0x461BCD PUSH1 0xE5 SHL DUP2 MSTORE PUSH1 0x20 PUSH1 0x4 DUP3 ADD MSTORE PUSH1 0x35 PUSH1 0x24 DUP3 ADD MSTORE PUSH32 0x42616E6B4163636F756E7452656769737472793A204163636F756E7420616C72 PUSH1 0x44 DUP3 ADD MSTORE PUSH21 0x32B0B23C9032BC34B9BA399014373AB6B132B91497 PUSH1 0x59 SHL PUSH1 0x64 DUP3 ADD MSTORE PUSH1 0x84 SWAP1 REVERT JUMPDEST PUSH1 0x40 MLOAD PUSH3 0x461BCD PUSH1 0xE5 SHL DUP2 MSTORE PUSH1 0x20 PUSH1 0x4 DUP3 ADD MSTORE PUSH1 0x31 PUSH1 0x24 DUP3 ADD MSTORE PUSH32 0x42616E6B4163636F756E7452656769737472793A204163636F756E7420616C72 PUSH1 0x44 DUP3 ADD MSTORE PUSH17 0x32B0B23C9032BC34B9BA39901434B21497 PUSH1 0x79 SHL PUSH1 0x64 DUP3 ADD MSTORE PUSH1 0x84 SWAP1 REVERT JUMPDEST PUSH1 0x0 DUP1 REVERT JUMPDEST CALLVALUE PUSH2 0x981 JUMPI PUSH1 0x0 CALLDATASIZE PUSH1 0x3 NOT ADD SLT PUSH2 0x981 JUMPI PUSH1 0x0 SLOAD PUSH2 0x9A3 DUP2 PUSH2 0x1A4C JUMP JUMPDEST PUSH2 0x9AC DUP3 PUSH2 0x1A7E JUMP JUMPDEST SWAP2 PUSH2 0x9B6 DUP2 PUSH2 0x1A7E JUMP JUMPDEST SWAP2 PUSH2 0x9C0 DUP3 PUSH2 0x1A7E JUMP JUMPDEST SWAP4 PUSH2 0x9CA DUP4 PUSH2 0x1A35 JUMP JUMPDEST SWAP5 PUSH2 0x9D8 PUSH1 0x40 MLOAD SWAP7 DUP8 PUSH2 0x150C JUMP JUMPDEST DUP4 DUP7 MSTORE PUSH2 0x9E4 DUP5 PUSH2 0x1A35 JUMP JUMPDEST PUSH1 0x20 DUP8 ADD SWAP6 SWAP1 PUSH1 0x1F NOT ADD CALLDATASIZE DUP8 CALLDATACOPY PUSH2 0x9FA DUP6 PUSH2 0x1A7E JUMP JUMPDEST SWAP3 PUSH2 0xA04 DUP7 PUSH2 0x1A4C JUMP JUMPDEST SWAP5 PUSH2 0xA0E DUP8 PUSH2 0x1A7E JUMP JUMPDEST SWAP7 PUSH1 0x0 JUMPDEST DUP2 DUP2 LT PUSH2 0xAD9 JUMPI POP POP SWAP3 PUSH2 0xA5C PUSH1 0x20 SWAP4 PUSH2 0xA4E PUSH2 0xA6A SWAP5 PUSH2 0xA41 PUSH2 0x100 SWAP13 SWAP14 SWAP9 PUSH1 0x40 MLOAD SWAP14 DUP15 DUP2 DUP2 MSTORE ADD SWAP1 PUSH2 0x1652 JUMP JUMPDEST DUP13 DUP2 SUB DUP9 DUP15 ADD MSTORE SWAP1 PUSH2 0x1690 JUMP JUMPDEST SWAP1 DUP11 DUP3 SUB PUSH1 0x40 DUP13 ADD MSTORE PUSH2 0x1690 JUMP JUMPDEST SWAP1 DUP9 DUP3 SUB PUSH1 0x60 DUP11 ADD MSTORE PUSH2 0x1690 JUMP JUMPDEST SWAP2 DUP7 DUP4 SUB PUSH1 0x80 DUP9 ADD MSTORE MLOAD SWAP2 DUP3 DUP2 MSTORE ADD SWAP6 SWAP1 PUSH1 0x0 JUMPDEST DUP2 DUP2 LT PUSH2 0xAC1 JUMPI DUP7 DUP1 PUSH2 0xABD DUP9 PUSH2 0xAAF DUP10 PUSH2 0xAA1 DUP15 DUP12 DUP8 DUP3 SUB PUSH1 0xA0 DUP10 ADD MSTORE PUSH2 0x1690 JUMP JUMPDEST SWAP1 DUP6 DUP3 SUB PUSH1 0xC0 DUP8 ADD MSTORE PUSH2 0x1652 JUMP JUMPDEST SWAP1 DUP4 DUP3 SUB PUSH1 0xE0 DUP6 ADD MSTORE PUSH2 0x1690 JUMP JUMPDEST SUB SWAP1 RETURN JUMPDEST DUP3 MLOAD ISZERO ISZERO DUP9 MSTORE PUSH1 0x20 SWAP8 DUP9 ADD SWAP8 SWAP1 SWAP3 ADD SWAP2 PUSH1 0x1 ADD PUSH2 0xA7E JUMP JUMPDEST DUP1 PUSH2 0xBCC PUSH1 0x7 DUP14 PUSH2 0xAEB PUSH1 0x1 SWAP6 PUSH2 0x1755 JUMP JUMPDEST POP SWAP1 DUP2 SLOAD PUSH1 0x80 SHL PUSH2 0xAFC DUP7 DUP11 PUSH2 0x1AC8 JUMP JUMPDEST SWAP1 PUSH1 0x1 PUSH1 0x1 PUSH1 0x80 SHL SUB NOT AND SWAP1 MSTORE PUSH2 0xB14 DUP7 DUP4 ADD PUSH2 0x1816 JUMP JUMPDEST PUSH2 0xB1E DUP7 DUP12 PUSH2 0x1AC8 JUMP JUMPDEST MSTORE PUSH2 0xB29 DUP6 DUP11 PUSH2 0x1AC8 JUMP JUMPDEST POP PUSH2 0xB36 PUSH1 0x2 DUP4 ADD PUSH2 0x1816 JUMP JUMPDEST PUSH2 0xB40 DUP7 DUP13 PUSH2 0x1AC8 JUMP JUMPDEST MSTORE PUSH2 0xB4B DUP6 DUP12 PUSH2 0x1AC8 JUMP JUMPDEST POP PUSH2 0xB58 PUSH1 0x3 DUP4 ADD PUSH2 0x1816 JUMP JUMPDEST PUSH2 0xB62 DUP7 DUP14 PUSH2 0x1AC8 JUMP JUMPDEST MSTORE PUSH2 0xB6D DUP6 DUP13 PUSH2 0x1AC8 JUMP JUMPDEST POP PUSH2 0xB80 DUP6 PUSH1 0xFF PUSH1 0x4 DUP6 ADD SLOAD AND SWAP3 PUSH2 0x1AC8 JUMP JUMPDEST SWAP1 ISZERO ISZERO SWAP1 MSTORE PUSH2 0xB91 PUSH1 0x5 DUP3 ADD PUSH2 0x1816 JUMP JUMPDEST PUSH2 0xB9B DUP6 DUP14 PUSH2 0x1AC8 JUMP JUMPDEST MSTORE PUSH2 0xBA6 DUP5 DUP13 PUSH2 0x1AC8 JUMP JUMPDEST POP PUSH1 0x6 DUP2 ADD SLOAD PUSH1 0x80 SHL PUSH2 0xBB9 DUP6 DUP15 PUSH2 0x1AC8 JUMP JUMPDEST SWAP1 PUSH1 0x1 PUSH1 0x1 PUSH1 0x80 SHL SUB NOT AND SWAP1 MSTORE ADD PUSH2 0x1816 JUMP JUMPDEST PUSH2 0xBD6 DUP3 DUP13 PUSH2 0x1AC8 JUMP JUMPDEST MSTORE PUSH2 0xBE1 DUP2 DUP12 PUSH2 0x1AC8 JUMP JUMPDEST POP ADD PUSH2 0xA12 JUMP JUMPDEST CALLVALUE PUSH2 0x981 JUMPI PUSH1 0x20 CALLDATASIZE PUSH1 0x3 NOT ADD SLT PUSH2 0x981 JUMPI PUSH1 0x4 CALLDATALOAD PUSH1 0x1 PUSH1 0x1 PUSH1 0x40 SHL SUB DUP2 GT PUSH2 0x981 JUMPI PUSH1 0x20 PUSH2 0xC1D PUSH2 0xC30 SWAP3 CALLDATASIZE SWAP1 PUSH1 0x4 ADD PUSH2 0x152D JUMP JUMPDEST DUP2 PUSH1 0x40 MLOAD SWAP4 DUP3 DUP6 DUP1 SWAP5 MLOAD SWAP4 DUP5 SWAP3 ADD PUSH2 0x1583 JUMP JUMPDEST DUP2 ADD PUSH1 0x2 DUP2 MSTORE SUB ADD SWAP1 KECCAK256 SLOAD PUSH2 0xC46 DUP2 ISZERO ISZERO PUSH2 0x1731 JUMP JUMPDEST PUSH1 0x0 NOT DUP2 ADD SWAP1 DUP2 GT PUSH2 0xCC0 JUMPI PUSH2 0xC5B SWAP1 PUSH2 0x1755 JUMP JUMPDEST POP DUP1 SLOAD PUSH1 0x80 SHL PUSH2 0xABD PUSH2 0xC70 PUSH1 0x1 DUP5 ADD PUSH2 0x1816 JUMP JUMPDEST SWAP3 PUSH2 0xC7D PUSH1 0x2 DUP3 ADD PUSH2 0x1816 JUMP JUMPDEST SWAP1 PUSH2 0xC8A PUSH1 0x3 DUP3 ADD PUSH2 0x1816 JUMP JUMPDEST PUSH1 0xFF PUSH1 0x4 DUP4 ADD SLOAD AND PUSH2 0xC9E PUSH1 0x5 DUP5 ADD PUSH2 0x1816 JUMP JUMPDEST SWAP2 PUSH2 0xCB3 PUSH1 0x7 PUSH1 0x6 DUP7 ADD SLOAD PUSH1 0x80 SHL SWAP6 ADD PUSH2 0x1816 JUMP JUMPDEST SWAP5 PUSH1 0x40 MLOAD SWAP9 DUP10 SWAP9 DUP10 PUSH2 0x15CB JUMP JUMPDEST PUSH4 0x4E487B71 PUSH1 0xE0 SHL PUSH1 0x0 MSTORE PUSH1 0x11 PUSH1 0x4 MSTORE PUSH1 0x24 PUSH1 0x0 REVERT JUMPDEST CALLVALUE PUSH2 0x981 JUMPI PUSH1 0x80 CALLDATASIZE PUSH1 0x3 NOT ADD SLT PUSH2 0x981 JUMPI PUSH1 0x4 CALLDATALOAD PUSH1 0x1 PUSH1 0x1 PUSH1 0x40 SHL SUB DUP2 GT PUSH2 0x981 JUMPI PUSH2 0xD06 SWAP1 CALLDATASIZE SWAP1 PUSH1 0x4 ADD PUSH2 0x152D JUMP JUMPDEST PUSH1 0x24 CALLDATALOAD SWAP1 DUP2 ISZERO ISZERO DUP3 SUB PUSH2 0x981 JUMPI PUSH1 0x44 CALLDATALOAD PUSH1 0x1 PUSH1 0x1 PUSH1 0x40 SHL SUB DUP2 GT PUSH2 0x981 JUMPI PUSH2 0xD32 SWAP1 CALLDATASIZE SWAP1 PUSH1 0x4 ADD PUSH2 0x152D JUMP JUMPDEST SWAP1 PUSH1 0x64 CALLDATALOAD PUSH1 0x1 PUSH1 0x1 PUSH1 0x80 SHL SUB NOT DUP2 AND DUP2 SUB PUSH2 0x981 JUMPI PUSH1 0x40 MLOAD PUSH1 0x20 DUP2 DUP5 MLOAD PUSH2 0xD5C DUP2 DUP4 DUP6 DUP10 ADD PUSH2 0x1583 JUMP JUMPDEST DUP2 ADD PUSH1 0x2 DUP2 MSTORE SUB ADD SWAP1 KECCAK256 SLOAD PUSH2 0xD72 DUP2 ISZERO ISZERO PUSH2 0x1731 JUMP JUMPDEST PUSH1 0x0 NOT DUP2 ADD SWAP1 DUP2 GT PUSH2 0xCC0 JUMPI PUSH2 0xD8A PUSH2 0xDA1 SWAP2 PUSH2 0x1755 JUMP JUMPDEST POP SWAP5 PUSH1 0x4 DUP7 ADD SWAP1 PUSH1 0xFF DUP1 NOT DUP4 SLOAD AND SWAP2 ISZERO ISZERO AND OR SWAP1 SSTORE JUMP JUMPDEST PUSH1 0x7 DUP5 ADD DUP4 MLOAD PUSH1 0x1 PUSH1 0x1 PUSH1 0x40 SHL SUB DUP2 GT PUSH2 0x58F JUMPI PUSH2 0xDBF DUP3 SLOAD PUSH2 0x17A5 JUMP JUMPDEST PUSH1 0x1F DUP2 GT PUSH2 0xEB2 JUMPI JUMPDEST POP PUSH1 0x20 PUSH1 0x1F DUP3 GT PUSH1 0x1 EQ PUSH2 0xE3B JUMPI SWAP2 DUP2 PUSH1 0x0 DUP1 MLOAD PUSH1 0x20 PUSH2 0x1ADD DUP4 CODECOPY DUP2 MLOAD SWAP2 MSTORE SWAP8 SWAP3 PUSH1 0x6 SWAP5 PUSH1 0x0 SWAP2 PUSH2 0xE30 JUMPI JUMPDEST POP DUP2 PUSH1 0x1 SHL SWAP2 PUSH1 0x0 NOT SWAP1 PUSH1 0x3 SHL SHR NOT AND OR SWAP1 SSTORE JUMPDEST ADD SWAP1 PUSH1 0x80 SHR PUSH1 0x1 PUSH1 0x1 PUSH1 0x80 SHL SUB NOT DUP3 SLOAD AND OR SWAP1 SSTORE PUSH2 0xE2B PUSH1 0x40 MLOAD SWAP3 DUP4 SWAP3 DUP4 PUSH2 0x17DF JUMP JUMPDEST SUB SWAP1 LOG1 STOP JUMPDEST SWAP1 POP DUP8 ADD MLOAD DUP10 PUSH2 0xDF4 JUMP JUMPDEST PUSH1 0x1F NOT DUP3 AND SWAP1 DUP4 PUSH1 0x0 MSTORE DUP1 PUSH1 0x0 KECCAK256 SWAP2 PUSH1 0x0 JUMPDEST DUP2 DUP2 LT PUSH2 0xE9A JUMPI POP SWAP3 PUSH1 0x6 SWAP5 SWAP3 PUSH1 0x1 SWAP3 DUP3 PUSH1 0x0 DUP1 MLOAD PUSH1 0x20 PUSH2 0x1ADD DUP4 CODECOPY DUP2 MLOAD SWAP2 MSTORE SWAP12 SWAP7 LT PUSH2 0xE81 JUMPI JUMPDEST POP POP DUP2 SHL ADD SWAP1 SSTORE PUSH2 0xE08 JUMP JUMPDEST DUP10 ADD MLOAD PUSH1 0x0 NOT PUSH1 0xF8 DUP5 PUSH1 0x3 SHL AND SHR NOT AND SWAP1 SSTORE DUP10 DUP1 PUSH2 0xE75 JUMP JUMPDEST SWAP2 SWAP3 PUSH1 0x20 PUSH1 0x1 DUP2 SWAP3 DUP7 DUP13 ADD MLOAD DUP2 SSTORE ADD SWAP5 ADD SWAP3 ADD PUSH2 0xE4D JUMP JUMPDEST DUP3 PUSH1 0x0 MSTORE PUSH1 0x20 PUSH1 0x0 KECCAK256 PUSH1 0x1F DUP4 ADD PUSH1 0x5 SHR DUP2 ADD SWAP2 PUSH1 0x20 DUP5 LT PUSH2 0xEF0 JUMPI JUMPDEST PUSH1 0x1F ADD PUSH1 0x5 SHR ADD SWAP1 JUMPDEST DUP2 DUP2 LT PUSH2 0xEE4 JUMPI POP PUSH2 0xDC8 JUMP JUMPDEST PUSH1 0x0 DUP2 SSTORE PUSH1 0x1 ADD PUSH2 0xED7 JUMP JUMPDEST SWAP1 SWAP2 POP DUP2 SWAP1 PUSH2 0xECE JUMP JUMPDEST CALLVALUE PUSH2 0x981 JUMPI PUSH1 0x20 CALLDATASIZE PUSH1 0x3 NOT ADD SLT PUSH2 0x981 JUMPI PUSH1 0x4 CALLDATALOAD PUSH1 0x1 PUSH1 0x1 PUSH1 0x40 SHL SUB DUP2 GT PUSH2 0x981 JUMPI PUSH2 0xF35 PUSH2 0xF30 PUSH2 0xABD SWAP3 CALLDATASIZE SWAP1 PUSH1 0x4 ADD PUSH2 0x152D JUMP JUMPDEST PUSH2 0x18BA JUMP JUMPDEST SWAP5 PUSH1 0x40 SWAP9 SWAP7 SWAP9 SWAP5 SWAP2 SWAP5 SWAP4 SWAP3 SWAP4 MLOAD SWAP9 DUP10 SWAP9 DUP10 PUSH2 0x15CB JUMP JUMPDEST CALLVALUE PUSH2 0x981 JUMPI PUSH1 0xE0 CALLDATASIZE PUSH1 0x3 NOT ADD SLT PUSH2 0x981 JUMPI PUSH1 0x4 CALLDATALOAD PUSH1 0x1 PUSH1 0x1 PUSH1 0x40 SHL SUB DUP2 GT PUSH2 0x981 JUMPI PUSH2 0xF7B SWAP1 CALLDATASIZE SWAP1 PUSH1 0x4 ADD PUSH2 0x152D JUMP JUMPDEST PUSH1 0x24 CALLDATALOAD PUSH1 0x1 PUSH1 0x1 PUSH1 0x40 SHL SUB DUP2 GT PUSH2 0x981 JUMPI PUSH2 0xF9A SWAP1 CALLDATASIZE SWAP1 PUSH1 0x4 ADD PUSH2 0x152D JUMP JUMPDEST SWAP1 PUSH1 0x44 CALLDATALOAD PUSH1 0x1 PUSH1 0x1 PUSH1 0x40 SHL SUB DUP2 GT PUSH2 0x981 JUMPI PUSH2 0xFBA SWAP1 CALLDATASIZE SWAP1 PUSH1 0x4 ADD PUSH2 0x152D JUMP JUMPDEST PUSH1 0x64 CALLDATALOAD SWAP3 DUP4 ISZERO ISZERO DUP5 SUB PUSH2 0x981 JUMPI PUSH1 0x84 CALLDATALOAD PUSH1 0x1 PUSH1 0x1 PUSH1 0x40 SHL SUB DUP2 GT PUSH2 0x981 JUMPI PUSH2 0xFE6 SWAP1 CALLDATASIZE SWAP1 PUSH1 0x4 ADD PUSH2 0x152D JUMP JUMPDEST SWAP4 PUSH1 0xA4 CALLDATALOAD SWAP1 PUSH1 0x1 PUSH1 0x1 PUSH1 0x80 SHL SUB NOT DUP3 AND DUP3 SUB PUSH2 0x981 JUMPI PUSH1 0xC4 CALLDATALOAD PUSH1 0x1 PUSH1 0x1 PUSH1 0x40 SHL SUB DUP2 GT PUSH2 0x981 JUMPI PUSH2 0x101B SWAP1 CALLDATASIZE SWAP1 PUSH1 0x4 ADD PUSH2 0x152D JUMP JUMPDEST SWAP4 PUSH1 0x40 MLOAD PUSH1 0x20 DUP2 DUP9 MLOAD PUSH2 0x1031 DUP2 DUP4 DUP6 DUP14 ADD PUSH2 0x1583 JUMP JUMPDEST DUP2 ADD PUSH1 0x2 DUP2 MSTORE SUB ADD SWAP1 KECCAK256 SLOAD PUSH2 0x1047 DUP2 ISZERO ISZERO PUSH2 0x1731 JUMP JUMPDEST PUSH1 0x0 NOT DUP2 ADD SWAP1 DUP2 GT PUSH2 0xCC0 JUMPI PUSH2 0x105C SWAP1 PUSH2 0x1755 JUMP JUMPDEST POP SWAP4 PUSH1 0x2 DUP6 ADD SWAP1 DUP1 MLOAD SWAP1 PUSH1 0x1 PUSH1 0x1 PUSH1 0x40 SHL SUB DUP3 GT PUSH2 0x58F JUMPI DUP2 SWAP1 PUSH2 0x1080 DUP5 SLOAD PUSH2 0x17A5 JUMP JUMPDEST PUSH1 0x1F DUP2 GT PUSH2 0x14B9 JUMPI JUMPDEST POP PUSH1 0x20 SWAP1 PUSH1 0x1F DUP4 GT PUSH1 0x1 EQ PUSH2 0x1454 JUMPI PUSH1 0x0 SWAP3 PUSH2 0x1449 JUMPI JUMPDEST POP POP DUP2 PUSH1 0x1 SHL SWAP2 PUSH1 0x0 NOT SWAP1 PUSH1 0x3 SHL SHR NOT AND OR SWAP1 SSTORE JUMPDEST DUP1 MLOAD PUSH1 0x3 DUP6 ADD SWAP2 PUSH1 0x1 PUSH1 0x1 PUSH1 0x40 SHL SUB DUP3 GT PUSH2 0x58F JUMPI PUSH2 0x10D4 DUP4 SLOAD PUSH2 0x17A5 JUMP JUMPDEST PUSH1 0x1F DUP2 GT PUSH2 0x1401 JUMPI JUMPDEST POP PUSH1 0x20 SWAP1 PUSH1 0x1F DUP4 GT PUSH1 0x1 EQ PUSH2 0x1395 JUMPI PUSH2 0x1126 SWAP5 SWAP4 SWAP3 SWAP2 PUSH1 0x0 SWAP2 DUP4 PUSH2 0x138A JUMPI JUMPDEST POP POP DUP2 PUSH1 0x1 SHL SWAP2 PUSH1 0x0 NOT SWAP1 PUSH1 0x3 SHL SHR NOT AND OR SWAP1 SSTORE JUMPDEST PUSH1 0x4 DUP5 ADD SWAP1 PUSH1 0xFF DUP1 NOT DUP4 SLOAD AND SWAP2 ISZERO ISZERO AND OR SWAP1 SSTORE JUMP JUMPDEST PUSH1 0x5 DUP3 ADD DUP6 MLOAD PUSH1 0x1 PUSH1 0x1 PUSH1 0x40 SHL SUB DUP2 GT PUSH2 0x58F JUMPI PUSH2 0x1144 DUP3 SLOAD PUSH2 0x17A5 JUMP JUMPDEST PUSH1 0x1F DUP2 GT PUSH2 0x1342 JUMPI JUMPDEST POP PUSH1 0x20 PUSH1 0x1F DUP3 GT PUSH1 0x1 EQ PUSH2 0x12D8 JUMPI DUP2 SWAP1 PUSH1 0x7 SWAP7 SWAP8 SWAP9 PUSH1 0x0 SWAP3 PUSH2 0x12CD JUMPI JUMPDEST POP POP DUP2 PUSH1 0x1 SHL SWAP2 PUSH1 0x0 NOT SWAP1 PUSH1 0x3 SHL SHR NOT AND OR SWAP1 SSTORE JUMPDEST PUSH1 0x6 DUP3 ADD SWAP1 PUSH1 0x80 SHR PUSH1 0x1 PUSH1 0x1 PUSH1 0x80 SHL SUB NOT DUP3 SLOAD AND OR SWAP1 SSTORE ADD SWAP2 DUP2 MLOAD SWAP3 PUSH1 0x1 PUSH1 0x1 PUSH1 0x40 SHL SUB DUP5 GT PUSH2 0x58F JUMPI PUSH2 0x11B3 DUP2 SLOAD PUSH2 0x17A5 JUMP JUMPDEST PUSH1 0x1F DUP2 GT PUSH2 0x1285 JUMPI JUMPDEST POP PUSH1 0x20 SWAP4 PUSH1 0x1F DUP2 GT PUSH1 0x1 EQ PUSH2 0x1212 JUMPI DUP1 PUSH1 0x0 DUP1 MLOAD PUSH1 0x20 PUSH2 0x1ADD DUP4 CODECOPY DUP2 MLOAD SWAP2 MSTORE SWAP6 PUSH1 0x0 SWAP2 PUSH2 0x1207 JUMPI JUMPDEST POP DUP2 PUSH1 0x1 SHL SWAP2 PUSH1 0x0 NOT SWAP1 PUSH1 0x3 SHL SHR NOT AND OR SWAP1 SSTORE JUMPDEST PUSH2 0xE2B PUSH1 0x40 MLOAD SWAP3 DUP4 SWAP3 DUP4 PUSH2 0x17DF JUMP JUMPDEST SWAP1 POP DUP5 ADD MLOAD DUP7 PUSH2 0x11E4 JUMP JUMPDEST PUSH1 0x1F NOT DUP2 AND SWAP5 DUP3 PUSH1 0x0 MSTORE DUP1 PUSH1 0x0 KECCAK256 SWAP6 PUSH1 0x0 JUMPDEST DUP2 DUP2 LT PUSH2 0x126D JUMPI POP SWAP6 DUP3 SWAP2 PUSH1 0x1 SWAP4 PUSH1 0x0 DUP1 MLOAD PUSH1 0x20 PUSH2 0x1ADD DUP4 CODECOPY DUP2 MLOAD SWAP2 MSTORE SWAP9 LT PUSH2 0x1254 JUMPI JUMPDEST POP POP DUP2 SHL ADD SWAP1 SSTORE PUSH2 0x11F8 JUMP JUMPDEST DUP7 ADD MLOAD PUSH1 0x0 NOT PUSH1 0xF8 DUP5 PUSH1 0x3 SHL AND SHR NOT AND SWAP1 SSTORE DUP7 DUP1 PUSH2 0x1248 JUMP JUMPDEST DUP7 DUP4 ADD MLOAD DUP9 SSTORE PUSH1 0x1 SWAP1 SWAP8 ADD SWAP7 PUSH1 0x20 SWAP3 DUP4 ADD SWAP3 ADD PUSH2 0x1224 JUMP JUMPDEST DUP2 PUSH1 0x0 MSTORE PUSH1 0x20 PUSH1 0x0 KECCAK256 PUSH1 0x1F DUP7 ADD PUSH1 0x5 SHR DUP2 ADD SWAP2 PUSH1 0x20 DUP8 LT PUSH2 0x12C3 JUMPI JUMPDEST PUSH1 0x1F ADD PUSH1 0x5 SHR ADD SWAP1 JUMPDEST DUP2 DUP2 LT PUSH2 0x12B7 JUMPI POP PUSH2 0x11BC JUMP JUMPDEST PUSH1 0x0 DUP2 SSTORE PUSH1 0x1 ADD PUSH2 0x12AA JUMP JUMPDEST SWAP1 SWAP2 POP DUP2 SWAP1 PUSH2 0x12A1 JUMP JUMPDEST ADD MLOAD SWAP1 POP DUP9 DUP1 PUSH2 0x116A JUMP JUMPDEST PUSH1 0x1F NOT DUP3 AND SWAP8 DUP4 PUSH1 0x0 MSTORE DUP2 PUSH1 0x0 KECCAK256 SWAP9 PUSH1 0x0 JUMPDEST DUP2 DUP2 LT PUSH2 0x132A JUMPI POP SWAP2 PUSH1 0x7 SWAP8 SWAP9 SWAP10 SWAP2 DUP5 PUSH1 0x1 SWAP6 SWAP5 LT PUSH2 0x1311 JUMPI JUMPDEST POP POP POP DUP2 SHL ADD SWAP1 SSTORE PUSH2 0x117F JUMP JUMPDEST ADD MLOAD PUSH1 0x0 NOT PUSH1 0xF8 DUP5 PUSH1 0x3 SHL AND SHR NOT AND SWAP1 SSTORE DUP9 DUP1 DUP1 PUSH2 0x1304 JUMP JUMPDEST DUP4 DUP4 ADD MLOAD DUP12 SSTORE PUSH1 0x1 SWAP1 SWAP11 ADD SWAP10 PUSH1 0x20 SWAP4 DUP5 ADD SWAP4 ADD PUSH2 0x12EA JUMP JUMPDEST DUP3 PUSH1 0x0 MSTORE PUSH1 0x20 PUSH1 0x0 KECCAK256 PUSH1 0x1F DUP4 ADD PUSH1 0x5 SHR DUP2 ADD SWAP2 PUSH1 0x20 DUP5 LT PUSH2 0x1380 JUMPI JUMPDEST PUSH1 0x1F ADD PUSH1 0x5 SHR ADD SWAP1 JUMPDEST DUP2 DUP2 LT PUSH2 0x1374 JUMPI POP PUSH2 0x114D JUMP JUMPDEST PUSH1 0x0 DUP2 SSTORE PUSH1 0x1 ADD PUSH2 0x1367 JUMP JUMPDEST SWAP1 SWAP2 POP DUP2 SWAP1 PUSH2 0x135E JUMP JUMPDEST ADD MLOAD SWAP1 POP DUP11 DUP1 PUSH2 0x10FC JUMP JUMPDEST SWAP1 PUSH1 0x1F NOT DUP4 AND SWAP2 DUP5 PUSH1 0x0 MSTORE DUP2 PUSH1 0x0 KECCAK256 SWAP3 PUSH1 0x0 JUMPDEST DUP2 DUP2 LT PUSH2 0x13E9 JUMPI POP SWAP2 PUSH1 0x1 SWAP4 SWAP2 DUP6 PUSH2 0x1126 SWAP9 SWAP8 SWAP7 SWAP5 LT PUSH2 0x13D0 JUMPI JUMPDEST POP POP POP DUP2 SHL ADD SWAP1 SSTORE PUSH2 0x1111 JUMP JUMPDEST ADD MLOAD PUSH1 0x0 NOT PUSH1 0xF8 DUP5 PUSH1 0x3 SHL AND SHR NOT AND SWAP1 SSTORE DUP11 DUP1 DUP1 PUSH2 0x13C3 JUMP JUMPDEST SWAP3 SWAP4 PUSH1 0x20 PUSH1 0x1 DUP2 SWAP3 DUP8 DUP7 ADD MLOAD DUP2 SSTORE ADD SWAP6 ADD SWAP4 ADD PUSH2 0x13A8 JUMP JUMPDEST DUP4 PUSH1 0x0 MSTORE PUSH1 0x20 PUSH1 0x0 KECCAK256 PUSH1 0x1F DUP5 ADD PUSH1 0x5 SHR DUP2 ADD SWAP2 PUSH1 0x20 DUP6 LT PUSH2 0x143F JUMPI JUMPDEST PUSH1 0x1F ADD PUSH1 0x5 SHR ADD SWAP1 JUMPDEST DUP2 DUP2 LT PUSH2 0x1433 JUMPI POP PUSH2 0x10DD JUMP JUMPDEST PUSH1 0x0 DUP2 SSTORE PUSH1 0x1 ADD PUSH2 0x1426 JUMP JUMPDEST SWAP1 SWAP2 POP DUP2 SWAP1 PUSH2 0x141D JUMP JUMPDEST ADD MLOAD SWAP1 POP DUP11 DUP1 PUSH2 0x10A0 JUMP JUMPDEST PUSH1 0x0 DUP6 DUP2 MSTORE DUP3 DUP2 KECCAK256 SWAP4 POP PUSH1 0x1F NOT DUP6 AND SWAP1 JUMPDEST DUP2 DUP2 LT PUSH2 0x14A1 JUMPI POP SWAP1 DUP5 PUSH1 0x1 SWAP6 SWAP5 SWAP4 SWAP3 LT PUSH2 0x1488 JUMPI JUMPDEST POP POP POP DUP2 SHL ADD SWAP1 SSTORE PUSH2 0x10B5 JUMP JUMPDEST ADD MLOAD PUSH1 0x0 NOT PUSH1 0xF8 DUP5 PUSH1 0x3 SHL AND SHR NOT AND SWAP1 SSTORE DUP11 DUP1 DUP1 PUSH2 0x147B JUMP JUMPDEST SWAP3 SWAP4 PUSH1 0x20 PUSH1 0x1 DUP2 SWAP3 DUP8 DUP7 ADD MLOAD DUP2 SSTORE ADD SWAP6 ADD SWAP4 ADD PUSH2 0x1465 JUMP JUMPDEST SWAP1 SWAP2 POP DUP4 PUSH1 0x0 MSTORE PUSH1 0x20 PUSH1 0x0 KECCAK256 PUSH1 0x1F DUP5 ADD PUSH1 0x5 SHR DUP2 ADD SWAP2 PUSH1 0x20 DUP6 LT PUSH2 0x1502 JUMPI JUMPDEST SWAP1 PUSH1 0x1F DUP6 SWAP5 SWAP4 SWAP3 ADD PUSH1 0x5 SHR ADD SWAP1 JUMPDEST DUP2 DUP2 LT PUSH2 0x14F3 JUMPI POP PUSH2 0x1089 JUMP JUMPDEST PUSH1 0x0 DUP2 SSTORE DUP5 SWAP4 POP PUSH1 0x1 ADD PUSH2 0x14E6 JUMP JUMPDEST SWAP1 SWAP2 POP DUP2 SWAP1 PUSH2 0x14D8 JUMP JUMPDEST SWAP1 PUSH1 0x1F DUP1 NOT SWAP2 ADD AND DUP2 ADD SWAP1 DUP2 LT PUSH1 0x1 PUSH1 0x1 PUSH1 0x40 SHL SUB DUP3 GT OR PUSH2 0x58F JUMPI PUSH1 0x40 MSTORE JUMP JUMPDEST DUP2 PUSH1 0x1F DUP3 ADD SLT ISZERO PUSH2 0x981 JUMPI DUP1 CALLDATALOAD SWAP1 PUSH1 0x1 PUSH1 0x1 PUSH1 0x40 SHL SUB DUP3 GT PUSH2 0x58F JUMPI PUSH1 0x40 MLOAD SWAP3 PUSH2 0x1561 PUSH1 0x1F DUP5 ADD PUSH1 0x1F NOT AND PUSH1 0x20 ADD DUP6 PUSH2 0x150C JUMP JUMPDEST DUP3 DUP5 MSTORE PUSH1 0x20 DUP4 DUP4 ADD ADD GT PUSH2 0x981 JUMPI DUP2 PUSH1 0x0 SWAP3 PUSH1 0x20 DUP1 SWAP4 ADD DUP4 DUP7 ADD CALLDATACOPY DUP4 ADD ADD MSTORE SWAP1 JUMP JUMPDEST PUSH1 0x0 JUMPDEST DUP4 DUP2 LT PUSH2 0x1596 JUMPI POP POP PUSH1 0x0 SWAP2 ADD MSTORE JUMP JUMPDEST DUP2 DUP2 ADD MLOAD DUP4 DUP3 ADD MSTORE PUSH1 0x20 ADD PUSH2 0x1586 JUMP JUMPDEST SWAP1 PUSH1 0x20 SWAP2 PUSH2 0x15BF DUP2 MLOAD DUP1 SWAP3 DUP2 DUP6 MSTORE DUP6 DUP1 DUP7 ADD SWAP2 ADD PUSH2 0x1583 JUMP JUMPDEST PUSH1 0x1F ADD PUSH1 0x1F NOT AND ADD ADD SWAP1 JUMP JUMPDEST SWAP5 SWAP3 SWAP4 PUSH2 0x160F PUSH2 0x1632 SWAP6 PUSH2 0x1601 PUSH2 0x164F SWAP12 SWAP10 SWAP6 PUSH2 0x161D SWAP6 PUSH1 0x1 PUSH1 0x1 PUSH1 0x80 SHL SUB NOT AND DUP11 MSTORE PUSH2 0x100 PUSH1 0x20 DUP12 ADD MSTORE PUSH2 0x100 DUP11 ADD SWAP1 PUSH2 0x15A6 JUMP JUMPDEST SWAP1 DUP9 DUP3 SUB PUSH1 0x40 DUP11 ADD MSTORE PUSH2 0x15A6 JUMP JUMPDEST SWAP1 DUP7 DUP3 SUB PUSH1 0x60 DUP9 ADD MSTORE PUSH2 0x15A6 JUMP JUMPDEST SWAP2 ISZERO ISZERO PUSH1 0x80 DUP6 ADD MSTORE DUP4 DUP3 SUB PUSH1 0xA0 DUP6 ADD MSTORE PUSH2 0x15A6 JUMP JUMPDEST SWAP3 PUSH1 0x1 PUSH1 0x1 PUSH1 0x80 SHL SUB NOT AND PUSH1 0xC0 DUP3 ADD MSTORE PUSH1 0xE0 DUP2 DUP5 SUB SWAP2 ADD MSTORE PUSH2 0x15A6 JUMP JUMPDEST SWAP1 JUMP JUMPDEST SWAP1 PUSH1 0x20 DUP1 DUP4 MLOAD SWAP3 DUP4 DUP2 MSTORE ADD SWAP3 ADD SWAP1 PUSH1 0x0 JUMPDEST DUP2 DUP2 LT PUSH2 0x1670 JUMPI POP POP POP SWAP1 JUMP JUMPDEST DUP3 MLOAD PUSH1 0x1 PUSH1 0x1 PUSH1 0x80 SHL SUB NOT AND DUP5 MSTORE PUSH1 0x20 SWAP4 DUP5 ADD SWAP4 SWAP1 SWAP3 ADD SWAP2 PUSH1 0x1 ADD PUSH2 0x1663 JUMP JUMPDEST SWAP1 DUP1 PUSH1 0x20 DUP4 MLOAD SWAP2 DUP3 DUP2 MSTORE ADD SWAP2 PUSH1 0x20 DUP1 DUP4 PUSH1 0x5 SHL DUP4 ADD ADD SWAP5 ADD SWAP3 PUSH1 0x0 SWAP2 JUMPDEST DUP4 DUP4 LT PUSH2 0x16BC JUMPI POP POP POP POP POP SWAP1 JUMP JUMPDEST SWAP1 SWAP2 SWAP3 SWAP4 SWAP5 PUSH1 0x20 DUP1 PUSH2 0x16DA PUSH1 0x1 SWAP4 PUSH1 0x1F NOT DUP7 DUP3 SUB ADD DUP8 MSTORE DUP10 MLOAD PUSH2 0x15A6 JUMP JUMPDEST SWAP8 ADD SWAP4 ADD SWAP4 ADD SWAP2 SWAP4 SWAP3 SWAP1 PUSH2 0x16AD JUMP JUMPDEST PUSH1 0x80 SWAP1 PUSH1 0x20 DUP2 MSTORE PUSH1 0x27 PUSH1 0x20 DUP3 ADD MSTORE PUSH32 0x42616E6B4163636F756E7452656769737472793A204163636F756E74206E6F74 PUSH1 0x40 DUP3 ADD MSTORE PUSH7 0x103337BAB73217 PUSH1 0xC9 SHL PUSH1 0x60 DUP3 ADD MSTORE ADD SWAP1 JUMP JUMPDEST ISZERO PUSH2 0x1738 JUMPI JUMP JUMPDEST PUSH1 0x40 MLOAD PUSH3 0x461BCD PUSH1 0xE5 SHL DUP2 MSTORE DUP1 PUSH2 0x1751 PUSH1 0x4 DUP3 ADD PUSH2 0x16E9 JUMP JUMPDEST SUB SWAP1 REVERT JUMPDEST PUSH1 0x0 SLOAD DUP2 LT ISZERO PUSH2 0x178F JUMPI PUSH1 0x0 DUP1 DUP1 MSTORE PUSH1 0x3 SWAP2 SWAP1 SWAP2 SHL PUSH32 0x290DECD9548B62A8D60345A988386FC84BA6BC95484008F6362F93160EF3E563 ADD SWAP2 JUMP JUMPDEST PUSH4 0x4E487B71 PUSH1 0xE0 SHL PUSH1 0x0 MSTORE PUSH1 0x32 PUSH1 0x4 MSTORE PUSH1 0x24 PUSH1 0x0 REVERT JUMPDEST SWAP1 PUSH1 0x1 DUP3 DUP2 SHR SWAP3 AND DUP1 ISZERO PUSH2 0x17D5 JUMPI JUMPDEST PUSH1 0x20 DUP4 LT EQ PUSH2 0x17BF JUMPI JUMP JUMPDEST PUSH4 0x4E487B71 PUSH1 0xE0 SHL PUSH1 0x0 MSTORE PUSH1 0x22 PUSH1 0x4 MSTORE PUSH1 0x24 PUSH1 0x0 REVERT JUMPDEST SWAP2 PUSH1 0x7F AND SWAP2 PUSH2 0x17B4 JUMP JUMPDEST SWAP1 PUSH1 0x20 SWAP3 PUSH2 0x17F8 PUSH2 0x1805 SWAP3 PUSH1 0x60 DUP6 MSTORE PUSH1 0x60 DUP6 ADD SWAP1 PUSH2 0x15A6 JUMP JUMPDEST SWAP1 DUP4 DUP3 SUB DUP6 DUP6 ADD MSTORE PUSH2 0x15A6 JUMP JUMPDEST SWAP1 PUSH1 0x40 DUP2 DUP4 SUB SWAP2 ADD MSTORE PUSH1 0x0 DUP2 MSTORE ADD SWAP1 JUMP JUMPDEST SWAP1 PUSH1 0x40 MLOAD SWAP2 DUP3 PUSH1 0x0 DUP3 SLOAD SWAP3 PUSH2 0x182A DUP5 PUSH2 0x17A5 JUMP JUMPDEST DUP1 DUP5 MSTORE SWAP4 PUSH1 0x1 DUP2 AND SWAP1 DUP2 ISZERO PUSH2 0x1898 JUMPI POP PUSH1 0x1 EQ PUSH2 0x1851 JUMPI JUMPDEST POP PUSH2 0x184F SWAP3 POP SUB DUP4 PUSH2 0x150C JUMP JUMPDEST JUMP JUMPDEST SWAP1 POP PUSH1 0x0 SWAP3 SWAP2 SWAP3 MSTORE PUSH1 0x20 PUSH1 0x0 KECCAK256 SWAP1 PUSH1 0x0 SWAP2 JUMPDEST DUP2 DUP4 LT PUSH2 0x187C JUMPI POP POP SWAP1 PUSH1 0x20 PUSH2 0x184F SWAP3 DUP3 ADD ADD CODESIZE PUSH2 0x1842 JUMP JUMPDEST PUSH1 0x20 SWAP2 SWAP4 POP DUP1 PUSH1 0x1 SWAP2 SLOAD DUP4 DUP6 DUP10 ADD ADD MSTORE ADD SWAP2 ADD SWAP1 SWAP2 DUP5 SWAP3 PUSH2 0x1863 JUMP JUMPDEST SWAP1 POP PUSH1 0x20 SWAP3 POP PUSH2 0x184F SWAP5 SWAP2 POP PUSH1 0xFF NOT AND DUP3 DUP5 ADD MSTORE ISZERO ISZERO PUSH1 0x5 SHL DUP3 ADD ADD CODESIZE PUSH2 0x1842 JUMP JUMPDEST PUSH1 0x0 SWAP1 DUP2 SLOAD SWAP2 JUMPDEST DUP3 DUP2 LT PUSH2 0x18E1 JUMPI PUSH1 0x40 MLOAD PUSH3 0x461BCD PUSH1 0xE5 SHL DUP2 MSTORE DUP1 PUSH2 0x1751 PUSH1 0x4 DUP3 ADD PUSH2 0x16E9 JUMP JUMPDEST PUSH1 0x5 PUSH2 0x18EC DUP3 PUSH2 0x1755 JUMP JUMPDEST POP ADD PUSH1 0x40 MLOAD PUSH1 0x20 DUP2 ADD SWAP2 DUP2 PUSH1 0x0 DUP3 SLOAD SWAP3 PUSH2 0x1905 DUP5 PUSH2 0x17A5 JUMP JUMPDEST SWAP4 PUSH1 0x1 DUP2 AND SWAP1 DUP2 ISZERO PUSH2 0x1A17 JUMPI POP PUSH1 0x1 EQ PUSH2 0x19D5 JUMPI JUMPDEST POP PUSH2 0x192E SWAP3 POP SUB PUSH1 0x1F NOT DUP2 ADD DUP4 MSTORE DUP3 PUSH2 0x150C JUMP JUMPDEST MLOAD SWAP1 KECCAK256 PUSH1 0x40 MLOAD PUSH1 0x20 DUP2 ADD SWAP1 PUSH2 0x195F PUSH1 0x20 DUP3 DUP8 MLOAD PUSH2 0x194E DUP2 DUP8 DUP6 DUP13 ADD PUSH2 0x1583 JUMP JUMPDEST DUP2 ADD SUB ADD PUSH1 0x1F NOT DUP2 ADD DUP4 MSTORE DUP3 PUSH2 0x150C JUMP JUMPDEST MLOAD SWAP1 KECCAK256 EQ PUSH2 0x196F JUMPI PUSH1 0x1 ADD PUSH2 0x18C1 JUMP JUMPDEST SWAP1 POP PUSH2 0x197B SWAP2 POP PUSH2 0x1755 JUMP JUMPDEST POP DUP1 SLOAD PUSH1 0x80 SHL SWAP1 PUSH1 0xFF PUSH1 0x4 DUP3 ADD SLOAD AND PUSH1 0x6 DUP3 ADD SLOAD PUSH1 0x80 SHL SWAP3 SWAP4 PUSH2 0x19A0 PUSH1 0x1 DUP5 ADD PUSH2 0x1816 JUMP JUMPDEST SWAP4 PUSH2 0x19AD PUSH1 0x2 DUP6 ADD PUSH2 0x1816 JUMP JUMPDEST SWAP4 PUSH2 0x19BA PUSH1 0x3 DUP3 ADD PUSH2 0x1816 JUMP JUMPDEST SWAP4 SWAP3 PUSH2 0x164F PUSH1 0x7 PUSH2 0x19CD PUSH1 0x5 DUP6 ADD PUSH2 0x1816 JUMP JUMPDEST SWAP5 SWAP4 ADD PUSH2 0x1816 JUMP JUMPDEST SWAP2 POP POP PUSH1 0x0 MSTORE DUP2 PUSH1 0x20 PUSH1 0x0 KECCAK256 PUSH1 0x0 SWAP1 JUMPDEST DUP4 DUP3 LT PUSH2 0x19FD JUMPI POP POP PUSH1 0x20 PUSH2 0x192E SWAP3 DUP3 ADD ADD CODESIZE PUSH2 0x191A JUMP JUMPDEST PUSH1 0x20 SWAP2 SWAP3 POP DUP1 PUSH1 0x1 SWAP2 SLOAD DUP4 DUP6 DUP9 ADD ADD MSTORE ADD SWAP2 ADD DUP4 SWAP2 PUSH2 0x19E5 JUMP JUMPDEST PUSH1 0xFF NOT AND DUP8 MSTORE POP PUSH2 0x192E SWAP4 DUP1 ISZERO ISZERO MUL DUP4 ADD PUSH1 0x20 ADD SWAP2 POP CODESIZE SWAP1 POP PUSH2 0x191A JUMP JUMPDEST PUSH1 0x1 PUSH1 0x1 PUSH1 0x40 SHL SUB DUP2 GT PUSH2 0x58F JUMPI PUSH1 0x5 SHL PUSH1 0x20 ADD SWAP1 JUMP JUMPDEST SWAP1 PUSH2 0x1A56 DUP3 PUSH2 0x1A35 JUMP JUMPDEST PUSH2 0x1A63 PUSH1 0x40 MLOAD SWAP2 DUP3 PUSH2 0x150C JUMP JUMPDEST DUP3 DUP2 MSTORE DUP1 SWAP3 PUSH2 0x1A74 PUSH1 0x1F NOT SWAP2 PUSH2 0x1A35 JUMP JUMPDEST ADD SWAP1 PUSH1 0x20 CALLDATASIZE SWAP2 ADD CALLDATACOPY JUMP JUMPDEST SWAP1 PUSH2 0x1A88 DUP3 PUSH2 0x1A35 JUMP JUMPDEST PUSH2 0x1A95 PUSH1 0x40 MLOAD SWAP2 DUP3 PUSH2 0x150C JUMP JUMPDEST DUP3 DUP2 MSTORE DUP1 SWAP3 PUSH2 0x1AA6 PUSH1 0x1F NOT SWAP2 PUSH2 0x1A35 JUMP JUMPDEST ADD SWAP1 PUSH1 0x0 JUMPDEST DUP3 DUP2 LT PUSH2 0x1AB7 JUMPI POP POP POP JUMP JUMPDEST DUP1 PUSH1 0x60 PUSH1 0x20 DUP1 SWAP4 DUP6 ADD ADD MSTORE ADD PUSH2 0x1AAB JUMP JUMPDEST DUP1 MLOAD DUP3 LT ISZERO PUSH2 0x178F JUMPI PUSH1 0x20 SWAP2 PUSH1 0x5 SHL ADD ADD SWAP1 JUMP INVALID 0xBB 0xBC MUL CREATE2 SWAP13 NOT 0x2A DUP12 0xE3 BASEFEE 0xDA XOR DUP3 0x2D MLOAD 0xD4 JUMPI 0xAD 0xC8 REVERT 0x26 PUSH15 0x452A8F918CB100AD3D3FA264697066 PUSH20 0x5822122058D2DEE25C5C6989A0F6EEC7F5089FB7 SWAP2 SHL XOR 0xC8 DUP9 TIMESTAMP 0x1E INVALID MCOPY SWAP13 PUSH27 0x708275551564736F6C634300081C00330000000000000000000000 "},"methodIdentifiers":{"addBankAccount(bytes16,string,string,string,bool,string,bytes16,string)":"deac7d5e","getAll()":"53ed5143","getByBankAccountNumber(string)":"255115ed","getByStudentNumber(string)":"0807af2e","studentDataChangeConfirmation(string,bool,string,bytes16)":"08d6eec3","updateBankAccountByNumber(string,string,string,bool,string,bytes16,string)":"0584479b"}}}}}