{"contracts/PaymentsRegistry.sol":{"PaymentsRegistry":{"abi":[{"anonymous":false,"inputs":[{"indexed":true,"internalType":"bytes16","name":"id","type":"bytes16"},{"indexed":false,"internalType":"string","name":"studentNumber","type":"string"}],"name":"PaymentAdded","type":"event"},{"anonymous":false,"inputs":[{"indexed":true,"internalType":"bytes16","name":"id","type":"bytes16"},{"indexed":false,"internalType":"string","name":"status","type":"string"},{"indexed":false,"internalType":"string","name":"fulfilmentDate","type":"string"}],"name":"PaymentUpdated","type":"event"},{"inputs":[{"internalType":"bytes16","name":"_id","type":"bytes16"},{"internalType":"string","name":"_accountNumber","type":"string"},{"internalType":"string","name":"_studentNumber","type":"string"},{"internalType":"string","name":"_branchCode","type":"string"},{"internalType":"string","name":"_bankName","type":"string"},{"internalType":"uint256","name":"_amount","type":"uint256"},{"internalType":"string","name":"_paymentType","type":"string"},{"internalType":"string","name":"_status","type":"string"},{"internalType":"string","name":"_updatedAt","type":"string"},{"internalType":"bool","name":"_isFraud","type":"bool"},{"internalType":"string","name":"_initiationDate","type":"string"},{"internalType":"string","name":"_fulfilmentDate","type":"string"},{"internalType":"string","name":"_modifiedBy","type":"string"}],"name":"addPayment","outputs":[],"stateMutability":"nonpayable","type":"function"},{"inputs":[],"name":"getAllPayments","outputs":[{"internalType":"bytes16[]","name":"ids","type":"bytes16[]"},{"internalType":"string[]","name":"accountNumbers","type":"string[]"},{"internalType":"string[]","name":"studentNumbers","type":"string[]"},{"internalType":"string[]","name":"bankNames","type":"string[]"},{"internalType":"uint256[]","name":"amounts","type":"uint256[]"},{"internalType":"string[]","name":"paymentTypes","type":"string[]"},{"internalType":"string[]","name":"statuses","type":"string[]"},{"internalType":"string[]","name":"updatedAts","type":"string[]"},{"internalType":"bool[]","name":"isFrauds","type":"bool[]"},{"internalType":"string[]","name":"fulfilmentDates","type":"string[]"},{"internalType":"string[]","name":"modifiedBys","type":"string[]"}],"stateMutability":"view","type":"function"},{"inputs":[{"internalType":"string","name":"_studentNumber","type":"string"}],"name":"getPaymentByStudentNumber","outputs":[{"internalType":"bytes16","name":"id","type":"bytes16"},{"internalType":"string","name":"accountNumber","type":"string"},{"internalType":"string","name":"studentNumber","type":"string"},{"internalType":"string","name":"branchCode","type":"string"},{"internalType":"string","name":"bankName","type":"string"},{"internalType":"uint256","name":"amount","type":"uint256"},{"internalType":"string","name":"paymentType","type":"string"},{"internalType":"string","name":"status","type":"string"},{"internalType":"string","name":"updatedAt","type":"string"},{"internalType":"bool","name":"isFraud","type":"bool"},{"internalType":"string","name":"initiationDate","type":"string"},{"internalType":"string","name":"fulfilmentDate","type":"string"},{"internalType":"string","name":"modifiedBy","type":"string"}],"stateMutability":"view","type":"function"},{"inputs":[{"internalType":"bytes16","name":"_id","type":"bytes16"},{"internalType":"string","name":"_status","type":"string"},{"internalType":"string","name":"_fulfilmentDate","type":"string"},{"internalType":"string","name":"_updatedAt","type":"string"},{"internalType":"string","name":"_modifiedBy","type":"string"}],"name":"updatePaymentById","outputs":[],"stateMutability":"nonpayable","type":"function"}],"evm":{"bytecode":{"linkReferences":{},"object":"60808060405234601557611ebe908161001b8239f35b600080fdfe6080604052600436101561001257600080fd5b60003560e01c8063a89a0fdf14610bf2578063dfa0bac714610ad4578063eab1d30a146104d35763f8defa3c1461004857600080fd5b346104ce5760003660031901126104ce5760005461006581611e13565b6100726040519182611a48565b81815261007e82611e13565b6020820190601f190136823761009383611e2a565b9061009d84611e2a565b906100a785611e2a565b6100b086611e13565b6100bd6040519182611a48565b8681526100c987611e13565b6020820190601f19013682376100de88611e2a565b6100e789611e2a565b926100f18a611e2a565b946100fb8b611e13565b97610109604051998a611a48565b8b89526101158c611e13565b601f19013660208b01376101288c611e2a565b976101328d611e2a565b9a60008e5b81106102b057506040516101608082529d519d81018e90529d508d9c6101808e01929060005b818110610274575050508c61019f93610183846101919484602099970389860152611b00565b916040818403910152611b00565b8c810360608e015290611b00565b918a830360808c0152519182815201929060005b81811061025b57505050916101d7826101f395948a6101e5950360a08c0152611b00565b9088820360c08a0152611b00565b9086820360e0880152611b00565b8481036101008601526020808451928381520193019060005b818110610240575050508161022d918561023c959403610120870152611b00565b90838203610140850152611b00565b0390f35b8251151585528796506020948501949092019160010161020c565b825185528b9a50602094850194909201916001016101b3565b919495969798999a9b9c9d9e5091926020806001926001600160801b031988511681520195019101918f9e9d9c9b9a999897969594939261015d565b8c818d9e9f8d9e9d828e9f8e9f8d9e9f8d9e848e9f8e9f8d9e9f8a9e846102d681611b59565b509c8d5460801b916102e791611e74565b906001600160801b0319169052848c6040518060018193019061030991611be3565b036103149082611a48565b61031e8284611e74565b5261032891611e74565b50838b6040518060028193019061033e91611be3565b036103499082611a48565b6103538284611e74565b5261035d91611e74565b506040518390806103718160048f01611be3565b0361037c9082611a48565b6103868284611e74565b5261039091611e74565b506005890154916103a091611e74565b526040518590806103b48160068c01611be3565b036103bf9082611a48565b6103c98284611e74565b526103d391611e74565b506040518490806103e78160078b01611be3565b036103f29082611a48565b6103fc8284611e74565b5261040691611e74565b5060405183908061041a8160088a01611be3565b036104259082611a48565b61042f8284611e74565b5261043991611e74565b50600984015460ff169161044c91611e74565b901515905260405183908061046481600b8701611be3565b0361046f9082611a48565b6104798284611e74565b5261048391611e74565b5060405180600c8193019061049791611be3565b036104a29082611a48565b6104ac8284611e74565b526104b691611e74565b506001018e9d9c9b9a9998979695949392919d610137565b600080fd5b346104ce5760a03660031901126104ce576104ec611a28565b6024356001600160401b0381116104ce5761050b903690600401611a69565b6044356001600160401b0381116104ce5761052a903690600401611a69565b6064356001600160401b0381116104ce57610549903690600401611a69565b926084356001600160401b0381116104ce57610569903690600401611a69565b906001600160801b031916938460005260016020526040600020548015610a83576000198101908111610a6d5761059f90611b59565b50906007820185516001600160401b03811161082b576105bf8254611ba9565b601f8111610a25575b50806020601f82116001146109c0576000916109b5575b508160011b916000199060031b1c19161790555b600b820184516001600160401b03811161082b576106118254611ba9565b601f811161096d575b50806020601f821160011461090a576000916108ff575b508160011b916000199060031b1c19161790555b805160088301916001600160401b03821161082b576106648354611ba9565b601f81116108b7575b50602090601f831160011461084c57600c9493929160009183610841575b50508160011b916000199060031b1c19161790555b01908051906001600160401b03821161082b576106bd8354611ba9565b601f81116107e3575b50602090601f83116001146107525792826107429361073496937f032d109e536f3dd2ba449f80706c6d65f823a55e6397844a4778b612065be9119896600092610747575b50508160011b916000199060031b1c19161790555b604051938493604085526040850190611abf565b908382036020850152611abf565b0390a2005b01519050898061070b565b90601f1983169184600052816000209260005b8181106107cb57509361073496937f032d109e536f3dd2ba449f80706c6d65f823a55e6397844a4778b612065be9119896936001938361074298106107b2575b505050811b019055610720565b015160001960f88460031b161c191690558980806107a5565b92936020600181928786015181550195019301610765565b836000526020600020601f840160051c81019160208510610821575b601f0160051c01905b81811061081557506106c6565b60008155600101610808565b90915081906107ff565b634e487b7160e01b600052604160045260246000fd5b01519050898061068b565b90601f1983169184600052816000209260005b81811061089f5750916001939185600c9897969410610886575b505050811b0190556106a0565b015160001960f88460031b161c19169055898080610879565b9293602060018192878601518155019501930161085f565b836000526020600020601f840160051c810191602085106108f5575b601f0160051c01905b8181106108e9575061066d565b600081556001016108dc565b90915081906108d3565b905086015189610631565b60008481528181209250601f198416905b8181106109555750908360019493921061093c575b5050811b019055610645565b88015160001960f88460031b161c191690558980610930565b9192602060018192868d01518155019401920161091b565b826000526020600020601f830160051c810191602084106109ab575b601f0160051c01905b81811061099f575061061a565b60008155600101610992565b9091508190610989565b9050870151896105df565b60008481528181209250601f198416905b8a828210610a0d57505090836001949392106109f4575b5050811b0190556105f3565b89015160001960f88460031b161c1916905589806109e8565b600184956020939584930151815501940192016109d1565b826000526020600020601f830160051c81019160208410610a63575b601f0160051c01905b818110610a5757506105c8565b60008155600101610a4a565b9091508190610a41565b634e487b7160e01b600052601160045260246000fd5b60405162461bcd60e51b8152602060048201526024808201527f5061796d656e747352656769737472793a205061796d656e74206e6f7420666f6044820152633ab7321760e11b6064820152608490fd5b346104ce5760203660031901126104ce576004356001600160401b0381116104ce57610b04903690600401611a69565b610b0d90611c66565b9960409c9b9c999199989298979397969496519c8d9c6001600160801b0319168d5260208d016101a090526101a08d01610b4691611abf565b8c810360408e0152610b5791611abf565b8b810360608d0152610b6891611abf565b8a810360808c0152610b7991611abf565b9060a08a015288810360c08a0152610b9091611abf565b87810360e0890152610ba191611abf565b868103610100880152610bb391611abf565b901515610120860152848103610140860152610bce91611abf565b838103610160850152610be091611abf565b82810361018084015261023c91611abf565b346104ce576101a03660031901126104ce57610c0c611a28565b6024356001600160401b0381116104ce57610c2b903690600401611a69565b6044356001600160401b0381116104ce57610c4a903690600401611a69565b6064356001600160401b0381116104ce57610c69903690600401611a69565b6084356001600160401b0381116104ce57610c88903690600401611a69565b9260c4356001600160401b0381116104ce57610ca8903690600401611a69565b60e4356001600160401b0381116104ce57610cc7903690600401611a69565b610104356001600160401b0381116104ce57610ce7903690600401611a69565b61012435918215158093036104ce57610144356001600160401b0381116104ce57610d16903690600401611a69565b93610164356001600160401b0381116104ce57610d37903690600401611a69565b95610184356001600160401b0381116104ce57610d58903690600401611a69565b9a6001600160801b031916998a60005260016020526040600020546119d157604051986101a08a018a81106001600160401b0382111761082b576040528b8a5260208a0192835260408a018b815260608b0191825260808b0192835260a08b019360a435855260c08c0195865260e08c019687526101008c019788526101208c019889526101408c01998a526101608c019a8b526101808c019e8f526000546801000000000000000081101561082b57806001610e189201600055611b59565b9c909c6119bb575160801c6001600160801b03198d5416178c5560018c0190518051906001600160401b03821161082b578190610e558454611ba9565b601f8111611968575b50602090601f8311600114611903576000926118f8575b50508160011b916000199060031b1c19161790555b51805160028c01916001600160401b03821161082b578190610eac8454611ba9565b601f81116118a5575b50602090601f831160011461184057600092611835575b50508160011b916000199060031b1c19161790555b51805160038b01916001600160401b03821161082b578190610f038454611ba9565b601f81116117e2575b50602090601f831160011461177d57600092611772575b50508160011b916000199060031b1c19161790555b51805160048a01916001600160401b03821161082b578190610f5a8454611ba9565b601f811161171f575b50602090601f83116001146116ba576000926116af575b50508160011b916000199060031b1c19161790555b51600588015551805160068801916001600160401b03821161082b578190610fb78454611ba9565b601f811161165c575b50602090601f83116001146115f7576000926115ec575b50508160011b916000199060031b1c19161790555b51805160078701916001600160401b03821161082b57819061100e8454611ba9565b601f8111611599575b50602090601f831160011461153457600092611529575b50508160011b916000199060031b1c19161790555b51805160088601916001600160401b03821161082b5781906110658454611ba9565b601f81116114d6575b50602090601f831160011461147157600092611466575b50508160011b916000199060031b1c19161790555b600984019051151560ff80198354169116179055600a830190518051906001600160401b03821161082b5781906110d18454611ba9565b601f8111611413575b50602090601f83116001146113ae576000926113a3575b50508160011b916000199060031b1c19161790555b518051600b8301916001600160401b03821161082b576111268354611ba9565b601f811161135b575b50602090601f83116001146112f057600c94939291600091836112e5575b50508160011b916000199060031b1c19161790555b0192519283516001600160401b03811161082b576111808254611ba9565b601f811161129d575b506020601f82116001146112105790806107429493927f4c569b5d484312a8ea0052f8a0cfe834ec8ca803b955af924674b3dd2bd01c1d9697600092611205575b50508160011b916000199060031b1c19161790555b600054846000526001602052604060002055604051918291602083526020830190611abf565b0151905087806111ca565b601f1982169583600052816000209660005b81811061128557509660019284926107429796957f4c569b5d484312a8ea0052f8a0cfe834ec8ca803b955af924674b3dd2bd01c1d999a1061126c575b505050811b0190556111df565b015160001960f88460031b161c1916905587808061125f565b83830151895560019098019760209384019301611222565b826000526020600020601f830160051c810191602084106112db575b601f0160051c01905b8181106112cf5750611189565b600081556001016112c2565b90915081906112b9565b01519050888061114d565b90601f1983169184600052816000209260005b8181106113435750916001939185600c989796941061132a575b505050811b019055611162565b015160001960f88460031b161c1916905588808061131d565b92936020600181928786015181550195019301611303565b836000526020600020601f840160051c81019160208510611399575b601f0160051c01905b81811061138d575061112f565b60008155600101611380565b9091508190611377565b0151905088806110f1565b60008581528281209350601f198516905b8181106113fb57509084600195949392106113e2575b505050811b019055611106565b015160001960f88460031b161c191690558880806113d5565b929360206001819287860151815501950193016113bf565b909150836000526020600020601f840160051c8101916020851061145c575b90601f859493920160051c01905b81811061144d57506110da565b60008155849350600101611440565b9091508190611432565b015190508a80611085565b60008581528281209350601f198516905b8181106114be57509084600195949392106114a5575b505050811b01905561109a565b015160001960f88460031b161c191690558a8080611498565b92936020600181928786015181550195019301611482565b909150836000526020600020601f840160051c8101916020851061151f575b90601f859493920160051c01905b818110611510575061106e565b60008155849350600101611503565b90915081906114f5565b015190508b8061102e565b60008581528281209350601f198516905b8181106115815750908460019594939210611568575b505050811b019055611043565b015160001960f88460031b161c191690558b808061155b565b92936020600181928786015181550195019301611545565b909150836000526020600020601f840160051c810191602085106115e2575b90601f859493920160051c01905b8181106115d35750611017565b600081558493506001016115c6565b90915081906115b8565b015190508c80610fd7565b60008581528281209350601f198516905b818110611644575090846001959493921061162b575b505050811b019055610fec565b015160001960f88460031b161c191690558c808061161e565b92936020600181928786015181550195019301611608565b909150836000526020600020601f840160051c810191602085106116a5575b90601f859493920160051c01905b8181106116965750610fc0565b60008155849350600101611689565b909150819061167b565b015190508e80610f7a565b60008581528281209350601f198516905b81811061170757509084600195949392106116ee575b505050811b019055610f8f565b015160001960f88460031b161c191690558e80806116e1565b929360206001819287860151815501950193016116cb565b909150836000526020600020601f840160051c81019160208510611768575b90601f859493920160051c01905b8181106117595750610f63565b6000815584935060010161174c565b909150819061173e565b015190508f80610f23565b60008581528281209350601f198516905b8181106117ca57509084600195949392106117b1575b505050811b019055610f38565b015160001960f88460031b161c191690558f80806117a4565b9293602060018192878601518155019501930161178e565b909150836000526020600020601f840160051c8101916020851061182b575b90601f859493920160051c01905b81811061181c5750610f0c565b6000815584935060010161180f565b9091508190611801565b015190503880610ecc565b60008581528281209350601f198516905b81811061188d5750908460019594939210611874575b505050811b019055610ee1565b015160001960f88460031b161c19169055388080611867565b92936020600181928786015181550195019301611851565b909150836000526020600020601f840160051c810191602085106118ee575b90601f859493920160051c01905b8181106118df5750610eb5565b600081558493506001016118d2565b90915081906118c4565b015190503880610e75565b60008581528281209350601f198516905b8181106119505750908460019594939210611937575b505050811b019055610e8a565b015160001960f88460031b161c1916905538808061192a565b92936020600181928786015181550195019301611914565b909150836000526020600020601f840160051c810191602085106119b1575b90601f859493920160051c01905b8181106119a25750610e5e565b60008155849350600101611995565b9091508190611987565b634e487b7160e01b600052600060045260246000fd5b60405162461bcd60e51b815260206004820152602960248201527f5061796d656e747352656769737472793a205061796d656e7420616c726561646044820152683c9032bc34b9ba399760b91b6064820152608490fd5b600435906fffffffffffffffffffffffffffffffff19821682036104ce57565b90601f801991011681019081106001600160401b0382111761082b57604052565b81601f820112156104ce578035906001600160401b03821161082b5760405192611a9d601f8401601f191660200185611a48565b828452602083830101116104ce57816000926020809301838601378301015290565b919082519283825260005b848110611aeb575050826000602080949584010152601f8019910116010190565b80602080928401015182828601015201611aca565b9080602083519182815201916020808360051b8301019401926000915b838310611b2c57505050505090565b9091929394602080611b4a600193601f198682030187528951611abf565b97019301930191939290611b1d565b600054811015611b93576000808052600d919091027f290decd9548b62a8d60345a988386fc84ba6bc95484008f6362f93160ef3e5630191565b634e487b7160e01b600052603260045260246000fd5b90600182811c92168015611bd9575b6020831014611bc357565b634e487b7160e01b600052602260045260246000fd5b91607f1691611bb8565b60009291815491611bf383611ba9565b8083529260018116908115611c495750600114611c0f57505050565b60009081526020812093945091925b838310611c2f575060209250010190565b600181602092949394548385870101520191019190611c1e565b915050602093945060ff929192191683830152151560051b010190565b6000908154915b828110611cd85760405162461bcd60e51b815260206004820152603660248201527f5061796d656e747352656769737472793a205061796d656e74206e6f7420666f6044820152753ab73210313c9039ba3ab232b73a10373ab6b132b91760511b6064820152608490fd5b6002611cfe611ce683611b59565b50611cf76040518094819301611be3565b0382611a48565b602081519101208251602084012014611d1957600101611c6d565b9050611d259150611b59565b50805460801b9060058101549260ff6009830154169293604051611d5081611cf78160018801611be3565b93604051611d6581611cf78160028901611be3565b93604051611d7a81611cf78160038601611be3565b93604051611d8f81611cf78160048701611be3565b9392604051611da581611cf78160068801611be3565b92604051611dba81611cf78160078601611be3565b92604051611dcf81611cf78160088701611be3565b9291604051611de581611cf781600a8601611be3565b91600c611e10604051611dff81611cf781600b8901611be3565b93611cf76040518094819301611be3565b90565b6001600160401b03811161082b5760051b60200190565b90611e3482611e13565b611e416040519182611a48565b8281528092611e52601f1991611e13565b019060005b828110611e6357505050565b806060602080938501015201611e57565b8051821015611b935760209160051b01019056fea264697066735822122076105fcccb839d8288348901117c07243dd055ee315a15e9e13dac68fc87a10d64736f6c634300081c0033","opcodes":"PUSH1 0x80 DUP1 PUSH1 0x40 MSTORE CALLVALUE PUSH1 0x15 JUMPI PUSH2 0x1EBE SWAP1 DUP2 PUSH2 0x1B DUP3 CODECOPY RETURN JUMPDEST PUSH1 0x0 DUP1 REVERT INVALID PUSH1 0x80 PUSH1 0x40 MSTORE PUSH1 0x4 CALLDATASIZE LT ISZERO PUSH2 0x12 JUMPI PUSH1 0x0 DUP1 REVERT JUMPDEST PUSH1 0x0 CALLDATALOAD PUSH1 0xE0 SHR DUP1 PUSH4 0xA89A0FDF EQ PUSH2 0xBF2 JUMPI DUP1 PUSH4 0xDFA0BAC7 EQ PUSH2 0xAD4 JUMPI DUP1 PUSH4 0xEAB1D30A EQ PUSH2 0x4D3 JUMPI PUSH4 0xF8DEFA3C EQ PUSH2 0x48 JUMPI PUSH1 0x0 DUP1 REVERT JUMPDEST CALLVALUE PUSH2 0x4CE JUMPI PUSH1 0x0 CALLDATASIZE PUSH1 0x3 NOT ADD SLT PUSH2 0x4CE JUMPI PUSH1 0x0 SLOAD PUSH2 0x65 DUP2 PUSH2 0x1E13 JUMP JUMPDEST PUSH2 0x72 PUSH1 0x40 MLOAD SWAP2 DUP3 PUSH2 0x1A48 JUMP JUMPDEST DUP2 DUP2 MSTORE PUSH2 0x7E DUP3 PUSH2 0x1E13 JUMP JUMPDEST PUSH1 0x20 DUP3 ADD SWAP1 PUSH1 0x1F NOT ADD CALLDATASIZE DUP3 CALLDATACOPY PUSH2 0x93 DUP4 PUSH2 0x1E2A JUMP JUMPDEST SWAP1 PUSH2 0x9D DUP5 PUSH2 0x1E2A JUMP JUMPDEST SWAP1 PUSH2 0xA7 DUP6 PUSH2 0x1E2A JUMP JUMPDEST PUSH2 0xB0 DUP7 PUSH2 0x1E13 JUMP JUMPDEST PUSH2 0xBD PUSH1 0x40 MLOAD SWAP2 DUP3 PUSH2 0x1A48 JUMP JUMPDEST DUP7 DUP2 MSTORE PUSH2 0xC9 DUP8 PUSH2 0x1E13 JUMP JUMPDEST PUSH1 0x20 DUP3 ADD SWAP1 PUSH1 0x1F NOT ADD CALLDATASIZE DUP3 CALLDATACOPY PUSH2 0xDE DUP9 PUSH2 0x1E2A JUMP JUMPDEST PUSH2 0xE7 DUP10 PUSH2 0x1E2A JUMP JUMPDEST SWAP3 PUSH2 0xF1 DUP11 PUSH2 0x1E2A JUMP JUMPDEST SWAP5 PUSH2 0xFB DUP12 PUSH2 0x1E13 JUMP JUMPDEST SWAP8 PUSH2 0x109 PUSH1 0x40 MLOAD SWAP10 DUP11 PUSH2 0x1A48 JUMP JUMPDEST DUP12 DUP10 MSTORE PUSH2 0x115 DUP13 PUSH2 0x1E13 JUMP JUMPDEST PUSH1 0x1F NOT ADD CALLDATASIZE PUSH1 0x20 DUP12 ADD CALLDATACOPY PUSH2 0x128 DUP13 PUSH2 0x1E2A JUMP JUMPDEST SWAP8 PUSH2 0x132 DUP14 PUSH2 0x1E2A JUMP JUMPDEST SWAP11 PUSH1 0x0 DUP15 JUMPDEST DUP2 LT PUSH2 0x2B0 JUMPI POP PUSH1 0x40 MLOAD PUSH2 0x160 DUP1 DUP3 MSTORE SWAP14 MLOAD SWAP14 DUP2 ADD DUP15 SWAP1 MSTORE SWAP14 POP DUP14 SWAP13 PUSH2 0x180 DUP15 ADD SWAP3 SWAP1 PUSH1 0x0 JUMPDEST DUP2 DUP2 LT PUSH2 0x274 JUMPI POP POP POP DUP13 PUSH2 0x19F SWAP4 PUSH2 0x183 DUP5 PUSH2 0x191 SWAP5 DUP5 PUSH1 0x20 SWAP10 SWAP8 SUB DUP10 DUP7 ADD MSTORE PUSH2 0x1B00 JUMP JUMPDEST SWAP2 PUSH1 0x40 DUP2 DUP5 SUB SWAP2 ADD MSTORE PUSH2 0x1B00 JUMP JUMPDEST DUP13 DUP2 SUB PUSH1 0x60 DUP15 ADD MSTORE SWAP1 PUSH2 0x1B00 JUMP JUMPDEST SWAP2 DUP11 DUP4 SUB PUSH1 0x80 DUP13 ADD MSTORE MLOAD SWAP2 DUP3 DUP2 MSTORE ADD SWAP3 SWAP1 PUSH1 0x0 JUMPDEST DUP2 DUP2 LT PUSH2 0x25B JUMPI POP POP POP SWAP2 PUSH2 0x1D7 DUP3 PUSH2 0x1F3 SWAP6 SWAP5 DUP11 PUSH2 0x1E5 SWAP6 SUB PUSH1 0xA0 DUP13 ADD MSTORE PUSH2 0x1B00 JUMP JUMPDEST SWAP1 DUP9 DUP3 SUB PUSH1 0xC0 DUP11 ADD MSTORE PUSH2 0x1B00 JUMP JUMPDEST SWAP1 DUP7 DUP3 SUB PUSH1 0xE0 DUP9 ADD MSTORE PUSH2 0x1B00 JUMP JUMPDEST DUP5 DUP2 SUB PUSH2 0x100 DUP7 ADD MSTORE PUSH1 0x20 DUP1 DUP5 MLOAD SWAP3 DUP4 DUP2 MSTORE ADD SWAP4 ADD SWAP1 PUSH1 0x0 JUMPDEST DUP2 DUP2 LT PUSH2 0x240 JUMPI POP POP POP DUP2 PUSH2 0x22D SWAP2 DUP6 PUSH2 0x23C SWAP6 SWAP5 SUB PUSH2 0x120 DUP8 ADD MSTORE PUSH2 0x1B00 JUMP JUMPDEST SWAP1 DUP4 DUP3 SUB PUSH2 0x140 DUP6 ADD MSTORE PUSH2 0x1B00 JUMP JUMPDEST SUB SWAP1 RETURN JUMPDEST DUP3 MLOAD ISZERO ISZERO DUP6 MSTORE DUP8 SWAP7 POP PUSH1 0x20 SWAP5 DUP6 ADD SWAP5 SWAP1 SWAP3 ADD SWAP2 PUSH1 0x1 ADD PUSH2 0x20C JUMP JUMPDEST DUP3 MLOAD DUP6 MSTORE DUP12 SWAP11 POP PUSH1 0x20 SWAP5 DUP6 ADD SWAP5 SWAP1 SWAP3 ADD SWAP2 PUSH1 0x1 ADD PUSH2 0x1B3 JUMP JUMPDEST SWAP2 SWAP5 SWAP6 SWAP7 SWAP8 SWAP9 SWAP10 SWAP11 SWAP12 SWAP13 SWAP14 SWAP15 POP SWAP2 SWAP3 PUSH1 0x20 DUP1 PUSH1 0x1 SWAP3 PUSH1 0x1 PUSH1 0x1 PUSH1 0x80 SHL SUB NOT DUP9 MLOAD AND DUP2 MSTORE ADD SWAP6 ADD SWAP2 ADD SWAP2 DUP16 SWAP15 SWAP14 SWAP13 SWAP12 SWAP11 SWAP10 SWAP9 SWAP8 SWAP7 SWAP6 SWAP5 SWAP4 SWAP3 PUSH2 0x15D JUMP JUMPDEST DUP13 DUP2 DUP14 SWAP15 SWAP16 DUP14 SWAP15 SWAP14 DUP3 DUP15 SWAP16 DUP15 SWAP16 DUP14 SWAP15 SWAP16 DUP14 SWAP15 DUP5 DUP15 SWAP16 DUP15 SWAP16 DUP14 SWAP15 SWAP16 DUP11 SWAP15 DUP5 PUSH2 0x2D6 DUP2 PUSH2 0x1B59 JUMP JUMPDEST POP SWAP13 DUP14 SLOAD PUSH1 0x80 SHL SWAP2 PUSH2 0x2E7 SWAP2 PUSH2 0x1E74 JUMP JUMPDEST SWAP1 PUSH1 0x1 PUSH1 0x1 PUSH1 0x80 SHL SUB NOT AND SWAP1 MSTORE DUP5 DUP13 PUSH1 0x40 MLOAD DUP1 PUSH1 0x1 DUP2 SWAP4 ADD SWAP1 PUSH2 0x309 SWAP2 PUSH2 0x1BE3 JUMP JUMPDEST SUB PUSH2 0x314 SWAP1 DUP3 PUSH2 0x1A48 JUMP JUMPDEST PUSH2 0x31E DUP3 DUP5 PUSH2 0x1E74 JUMP JUMPDEST MSTORE PUSH2 0x328 SWAP2 PUSH2 0x1E74 JUMP JUMPDEST POP DUP4 DUP12 PUSH1 0x40 MLOAD DUP1 PUSH1 0x2 DUP2 SWAP4 ADD SWAP1 PUSH2 0x33E SWAP2 PUSH2 0x1BE3 JUMP JUMPDEST SUB PUSH2 0x349 SWAP1 DUP3 PUSH2 0x1A48 JUMP JUMPDEST PUSH2 0x353 DUP3 DUP5 PUSH2 0x1E74 JUMP JUMPDEST MSTORE PUSH2 0x35D SWAP2 PUSH2 0x1E74 JUMP JUMPDEST POP PUSH1 0x40 MLOAD DUP4 SWAP1 DUP1 PUSH2 0x371 DUP2 PUSH1 0x4 DUP16 ADD PUSH2 0x1BE3 JUMP JUMPDEST SUB PUSH2 0x37C SWAP1 DUP3 PUSH2 0x1A48 JUMP JUMPDEST PUSH2 0x386 DUP3 DUP5 PUSH2 0x1E74 JUMP JUMPDEST MSTORE PUSH2 0x390 SWAP2 PUSH2 0x1E74 JUMP JUMPDEST POP PUSH1 0x5 DUP10 ADD SLOAD SWAP2 PUSH2 0x3A0 SWAP2 PUSH2 0x1E74 JUMP JUMPDEST MSTORE PUSH1 0x40 MLOAD DUP6 SWAP1 DUP1 PUSH2 0x3B4 DUP2 PUSH1 0x6 DUP13 ADD PUSH2 0x1BE3 JUMP JUMPDEST SUB PUSH2 0x3BF SWAP1 DUP3 PUSH2 0x1A48 JUMP JUMPDEST PUSH2 0x3C9 DUP3 DUP5 PUSH2 0x1E74 JUMP JUMPDEST MSTORE PUSH2 0x3D3 SWAP2 PUSH2 0x1E74 JUMP JUMPDEST POP PUSH1 0x40 MLOAD DUP5 SWAP1 DUP1 PUSH2 0x3E7 DUP2 PUSH1 0x7 DUP12 ADD PUSH2 0x1BE3 JUMP JUMPDEST SUB PUSH2 0x3F2 SWAP1 DUP3 PUSH2 0x1A48 JUMP JUMPDEST PUSH2 0x3FC DUP3 DUP5 PUSH2 0x1E74 JUMP JUMPDEST MSTORE PUSH2 0x406 SWAP2 PUSH2 0x1E74 JUMP JUMPDEST POP PUSH1 0x40 MLOAD DUP4 SWAP1 DUP1 PUSH2 0x41A DUP2 PUSH1 0x8 DUP11 ADD PUSH2 0x1BE3 JUMP JUMPDEST SUB PUSH2 0x425 SWAP1 DUP3 PUSH2 0x1A48 JUMP JUMPDEST PUSH2 0x42F DUP3 DUP5 PUSH2 0x1E74 JUMP JUMPDEST MSTORE PUSH2 0x439 SWAP2 PUSH2 0x1E74 JUMP JUMPDEST POP PUSH1 0x9 DUP5 ADD SLOAD PUSH1 0xFF AND SWAP2 PUSH2 0x44C SWAP2 PUSH2 0x1E74 JUMP JUMPDEST SWAP1 ISZERO ISZERO SWAP1 MSTORE PUSH1 0x40 MLOAD DUP4 SWAP1 DUP1 PUSH2 0x464 DUP2 PUSH1 0xB DUP8 ADD PUSH2 0x1BE3 JUMP JUMPDEST SUB PUSH2 0x46F SWAP1 DUP3 PUSH2 0x1A48 JUMP JUMPDEST PUSH2 0x479 DUP3 DUP5 PUSH2 0x1E74 JUMP JUMPDEST MSTORE PUSH2 0x483 SWAP2 PUSH2 0x1E74 JUMP JUMPDEST POP PUSH1 0x40 MLOAD DUP1 PUSH1 0xC DUP2 SWAP4 ADD SWAP1 PUSH2 0x497 SWAP2 PUSH2 0x1BE3 JUMP JUMPDEST SUB PUSH2 0x4A2 SWAP1 DUP3 PUSH2 0x1A48 JUMP JUMPDEST PUSH2 0x4AC DUP3 DUP5 PUSH2 0x1E74 JUMP JUMPDEST MSTORE PUSH2 0x4B6 SWAP2 PUSH2 0x1E74 JUMP JUMPDEST POP PUSH1 0x1 ADD DUP15 SWAP14 SWAP13 SWAP12 SWAP11 SWAP10 SWAP9 SWAP8 SWAP7 SWAP6 SWAP5 SWAP4 SWAP3 SWAP2 SWAP14 PUSH2 0x137 JUMP JUMPDEST PUSH1 0x0 DUP1 REVERT JUMPDEST CALLVALUE PUSH2 0x4CE JUMPI PUSH1 0xA0 CALLDATASIZE PUSH1 0x3 NOT ADD SLT PUSH2 0x4CE JUMPI PUSH2 0x4EC PUSH2 0x1A28 JUMP JUMPDEST PUSH1 0x24 CALLDATALOAD PUSH1 0x1 PUSH1 0x1 PUSH1 0x40 SHL SUB DUP2 GT PUSH2 0x4CE JUMPI PUSH2 0x50B SWAP1 CALLDATASIZE SWAP1 PUSH1 0x4 ADD PUSH2 0x1A69 JUMP JUMPDEST PUSH1 0x44 CALLDATALOAD PUSH1 0x1 PUSH1 0x1 PUSH1 0x40 SHL SUB DUP2 GT PUSH2 0x4CE JUMPI PUSH2 0x52A SWAP1 CALLDATASIZE SWAP1 PUSH1 0x4 ADD PUSH2 0x1A69 JUMP JUMPDEST PUSH1 0x64 CALLDATALOAD PUSH1 0x1 PUSH1 0x1 PUSH1 0x40 SHL SUB DUP2 GT PUSH2 0x4CE JUMPI PUSH2 0x549 SWAP1 CALLDATASIZE SWAP1 PUSH1 0x4 ADD PUSH2 0x1A69 JUMP JUMPDEST SWAP3 PUSH1 0x84 CALLDATALOAD PUSH1 0x1 PUSH1 0x1 PUSH1 0x40 SHL SUB DUP2 GT PUSH2 0x4CE JUMPI PUSH2 0x569 SWAP1 CALLDATASIZE SWAP1 PUSH1 0x4 ADD PUSH2 0x1A69 JUMP JUMPDEST SWAP1 PUSH1 0x1 PUSH1 0x1 PUSH1 0x80 SHL SUB NOT AND SWAP4 DUP5 PUSH1 0x0 MSTORE PUSH1 0x1 PUSH1 0x20 MSTORE PUSH1 0x40 PUSH1 0x0 KECCAK256 SLOAD DUP1 ISZERO PUSH2 0xA83 JUMPI PUSH1 0x0 NOT DUP2 ADD SWAP1 DUP2 GT PUSH2 0xA6D JUMPI PUSH2 0x59F SWAP1 PUSH2 0x1B59 JUMP JUMPDEST POP SWAP1 PUSH1 0x7 DUP3 ADD DUP6 MLOAD PUSH1 0x1 PUSH1 0x1 PUSH1 0x40 SHL SUB DUP2 GT PUSH2 0x82B JUMPI PUSH2 0x5BF DUP3 SLOAD PUSH2 0x1BA9 JUMP JUMPDEST PUSH1 0x1F DUP2 GT PUSH2 0xA25 JUMPI JUMPDEST POP DUP1 PUSH1 0x20 PUSH1 0x1F DUP3 GT PUSH1 0x1 EQ PUSH2 0x9C0 JUMPI PUSH1 0x0 SWAP2 PUSH2 0x9B5 JUMPI JUMPDEST POP DUP2 PUSH1 0x1 SHL SWAP2 PUSH1 0x0 NOT SWAP1 PUSH1 0x3 SHL SHR NOT AND OR SWAP1 SSTORE JUMPDEST PUSH1 0xB DUP3 ADD DUP5 MLOAD PUSH1 0x1 PUSH1 0x1 PUSH1 0x40 SHL SUB DUP2 GT PUSH2 0x82B JUMPI PUSH2 0x611 DUP3 SLOAD PUSH2 0x1BA9 JUMP JUMPDEST PUSH1 0x1F DUP2 GT PUSH2 0x96D JUMPI JUMPDEST POP DUP1 PUSH1 0x20 PUSH1 0x1F DUP3 GT PUSH1 0x1 EQ PUSH2 0x90A JUMPI PUSH1 0x0 SWAP2 PUSH2 0x8FF JUMPI JUMPDEST POP DUP2 PUSH1 0x1 SHL SWAP2 PUSH1 0x0 NOT SWAP1 PUSH1 0x3 SHL SHR NOT AND OR SWAP1 SSTORE JUMPDEST DUP1 MLOAD PUSH1 0x8 DUP4 ADD SWAP2 PUSH1 0x1 PUSH1 0x1 PUSH1 0x40 SHL SUB DUP3 GT PUSH2 0x82B JUMPI PUSH2 0x664 DUP4 SLOAD PUSH2 0x1BA9 JUMP JUMPDEST PUSH1 0x1F DUP2 GT PUSH2 0x8B7 JUMPI JUMPDEST POP PUSH1 0x20 SWAP1 PUSH1 0x1F DUP4 GT PUSH1 0x1 EQ PUSH2 0x84C JUMPI PUSH1 0xC SWAP5 SWAP4 SWAP3 SWAP2 PUSH1 0x0 SWAP2 DUP4 PUSH2 0x841 JUMPI JUMPDEST POP POP DUP2 PUSH1 0x1 SHL SWAP2 PUSH1 0x0 NOT SWAP1 PUSH1 0x3 SHL SHR NOT AND OR SWAP1 SSTORE JUMPDEST ADD SWAP1 DUP1 MLOAD SWAP1 PUSH1 0x1 PUSH1 0x1 PUSH1 0x40 SHL SUB DUP3 GT PUSH2 0x82B JUMPI PUSH2 0x6BD DUP4 SLOAD PUSH2 0x1BA9 JUMP JUMPDEST PUSH1 0x1F DUP2 GT PUSH2 0x7E3 JUMPI JUMPDEST POP PUSH1 0x20 SWAP1 PUSH1 0x1F DUP4 GT PUSH1 0x1 EQ PUSH2 0x752 JUMPI SWAP3 DUP3 PUSH2 0x742 SWAP4 PUSH2 0x734 SWAP7 SWAP4 PUSH32 0x32D109E536F3DD2BA449F80706C6D65F823A55E6397844A4778B612065BE911 SWAP9 SWAP7 PUSH1 0x0 SWAP3 PUSH2 0x747 JUMPI JUMPDEST POP POP DUP2 PUSH1 0x1 SHL SWAP2 PUSH1 0x0 NOT SWAP1 PUSH1 0x3 SHL SHR NOT AND OR SWAP1 SSTORE JUMPDEST PUSH1 0x40 MLOAD SWAP4 DUP5 SWAP4 PUSH1 0x40 DUP6 MSTORE PUSH1 0x40 DUP6 ADD SWAP1 PUSH2 0x1ABF JUMP JUMPDEST SWAP1 DUP4 DUP3 SUB PUSH1 0x20 DUP6 ADD MSTORE PUSH2 0x1ABF JUMP JUMPDEST SUB SWAP1 LOG2 STOP JUMPDEST ADD MLOAD SWAP1 POP DUP10 DUP1 PUSH2 0x70B JUMP JUMPDEST SWAP1 PUSH1 0x1F NOT DUP4 AND SWAP2 DUP5 PUSH1 0x0 MSTORE DUP2 PUSH1 0x0 KECCAK256 SWAP3 PUSH1 0x0 JUMPDEST DUP2 DUP2 LT PUSH2 0x7CB JUMPI POP SWAP4 PUSH2 0x734 SWAP7 SWAP4 PUSH32 0x32D109E536F3DD2BA449F80706C6D65F823A55E6397844A4778B612065BE911 SWAP9 SWAP7 SWAP4 PUSH1 0x1 SWAP4 DUP4 PUSH2 0x742 SWAP9 LT PUSH2 0x7B2 JUMPI JUMPDEST POP POP POP DUP2 SHL ADD SWAP1 SSTORE PUSH2 0x720 JUMP JUMPDEST ADD MLOAD PUSH1 0x0 NOT PUSH1 0xF8 DUP5 PUSH1 0x3 SHL AND SHR NOT AND SWAP1 SSTORE DUP10 DUP1 DUP1 PUSH2 0x7A5 JUMP JUMPDEST SWAP3 SWAP4 PUSH1 0x20 PUSH1 0x1 DUP2 SWAP3 DUP8 DUP7 ADD MLOAD DUP2 SSTORE ADD SWAP6 ADD SWAP4 ADD PUSH2 0x765 JUMP JUMPDEST DUP4 PUSH1 0x0 MSTORE PUSH1 0x20 PUSH1 0x0 KECCAK256 PUSH1 0x1F DUP5 ADD PUSH1 0x5 SHR DUP2 ADD SWAP2 PUSH1 0x20 DUP6 LT PUSH2 0x821 JUMPI JUMPDEST PUSH1 0x1F ADD PUSH1 0x5 SHR ADD SWAP1 JUMPDEST DUP2 DUP2 LT PUSH2 0x815 JUMPI POP PUSH2 0x6C6 JUMP JUMPDEST PUSH1 0x0 DUP2 SSTORE PUSH1 0x1 ADD PUSH2 0x808 JUMP JUMPDEST SWAP1 SWAP2 POP DUP2 SWAP1 PUSH2 0x7FF JUMP JUMPDEST PUSH4 0x4E487B71 PUSH1 0xE0 SHL PUSH1 0x0 MSTORE PUSH1 0x41 PUSH1 0x4 MSTORE PUSH1 0x24 PUSH1 0x0 REVERT JUMPDEST ADD MLOAD SWAP1 POP DUP10 DUP1 PUSH2 0x68B JUMP JUMPDEST SWAP1 PUSH1 0x1F NOT DUP4 AND SWAP2 DUP5 PUSH1 0x0 MSTORE DUP2 PUSH1 0x0 KECCAK256 SWAP3 PUSH1 0x0 JUMPDEST DUP2 DUP2 LT PUSH2 0x89F JUMPI POP SWAP2 PUSH1 0x1 SWAP4 SWAP2 DUP6 PUSH1 0xC SWAP9 SWAP8 SWAP7 SWAP5 LT PUSH2 0x886 JUMPI JUMPDEST POP POP POP DUP2 SHL ADD SWAP1 SSTORE PUSH2 0x6A0 JUMP JUMPDEST ADD MLOAD PUSH1 0x0 NOT PUSH1 0xF8 DUP5 PUSH1 0x3 SHL AND SHR NOT AND SWAP1 SSTORE DUP10 DUP1 DUP1 PUSH2 0x879 JUMP JUMPDEST SWAP3 SWAP4 PUSH1 0x20 PUSH1 0x1 DUP2 SWAP3 DUP8 DUP7 ADD MLOAD DUP2 SSTORE ADD SWAP6 ADD SWAP4 ADD PUSH2 0x85F JUMP JUMPDEST DUP4 PUSH1 0x0 MSTORE PUSH1 0x20 PUSH1 0x0 KECCAK256 PUSH1 0x1F DUP5 ADD PUSH1 0x5 SHR DUP2 ADD SWAP2 PUSH1 0x20 DUP6 LT PUSH2 0x8F5 JUMPI JUMPDEST PUSH1 0x1F ADD PUSH1 0x5 SHR ADD SWAP1 JUMPDEST DUP2 DUP2 LT PUSH2 0x8E9 JUMPI POP PUSH2 0x66D JUMP JUMPDEST PUSH1 0x0 DUP2 SSTORE PUSH1 0x1 ADD PUSH2 0x8DC JUMP JUMPDEST SWAP1 SWAP2 POP DUP2 SWAP1 PUSH2 0x8D3 JUMP JUMPDEST SWAP1 POP DUP7 ADD MLOAD DUP10 PUSH2 0x631 JUMP JUMPDEST PUSH1 0x0 DUP5 DUP2 MSTORE DUP2 DUP2 KECCAK256 SWAP3 POP PUSH1 0x1F NOT DUP5 AND SWAP1 JUMPDEST DUP2 DUP2 LT PUSH2 0x955 JUMPI POP SWAP1 DUP4 PUSH1 0x1 SWAP5 SWAP4 SWAP3 LT PUSH2 0x93C JUMPI JUMPDEST POP POP DUP2 SHL ADD SWAP1 SSTORE PUSH2 0x645 JUMP JUMPDEST DUP9 ADD MLOAD PUSH1 0x0 NOT PUSH1 0xF8 DUP5 PUSH1 0x3 SHL AND SHR NOT AND SWAP1 SSTORE DUP10 DUP1 PUSH2 0x930 JUMP JUMPDEST SWAP2 SWAP3 PUSH1 0x20 PUSH1 0x1 DUP2 SWAP3 DUP7 DUP14 ADD MLOAD DUP2 SSTORE ADD SWAP5 ADD SWAP3 ADD PUSH2 0x91B JUMP JUMPDEST DUP3 PUSH1 0x0 MSTORE PUSH1 0x20 PUSH1 0x0 KECCAK256 PUSH1 0x1F DUP4 ADD PUSH1 0x5 SHR DUP2 ADD SWAP2 PUSH1 0x20 DUP5 LT PUSH2 0x9AB JUMPI JUMPDEST PUSH1 0x1F ADD PUSH1 0x5 SHR ADD SWAP1 JUMPDEST DUP2 DUP2 LT PUSH2 0x99F JUMPI POP PUSH2 0x61A JUMP JUMPDEST PUSH1 0x0 DUP2 SSTORE PUSH1 0x1 ADD PUSH2 0x992 JUMP JUMPDEST SWAP1 SWAP2 POP DUP2 SWAP1 PUSH2 0x989 JUMP JUMPDEST SWAP1 POP DUP8 ADD MLOAD DUP10 PUSH2 0x5DF JUMP JUMPDEST PUSH1 0x0 DUP5 DUP2 MSTORE DUP2 DUP2 KECCAK256 SWAP3 POP PUSH1 0x1F NOT DUP5 AND SWAP1 JUMPDEST DUP11 DUP3 DUP3 LT PUSH2 0xA0D JUMPI POP POP SWAP1 DUP4 PUSH1 0x1 SWAP5 SWAP4 SWAP3 LT PUSH2 0x9F4 JUMPI JUMPDEST POP POP DUP2 SHL ADD SWAP1 SSTORE PUSH2 0x5F3 JUMP JUMPDEST DUP10 ADD MLOAD PUSH1 0x0 NOT PUSH1 0xF8 DUP5 PUSH1 0x3 SHL AND SHR NOT AND SWAP1 SSTORE DUP10 DUP1 PUSH2 0x9E8 JUMP JUMPDEST PUSH1 0x1 DUP5 SWAP6 PUSH1 0x20 SWAP4 SWAP6 DUP5 SWAP4 ADD MLOAD DUP2 SSTORE ADD SWAP5 ADD SWAP3 ADD PUSH2 0x9D1 JUMP JUMPDEST DUP3 PUSH1 0x0 MSTORE PUSH1 0x20 PUSH1 0x0 KECCAK256 PUSH1 0x1F DUP4 ADD PUSH1 0x5 SHR DUP2 ADD SWAP2 PUSH1 0x20 DUP5 LT PUSH2 0xA63 JUMPI JUMPDEST PUSH1 0x1F ADD PUSH1 0x5 SHR ADD SWAP1 JUMPDEST DUP2 DUP2 LT PUSH2 0xA57 JUMPI POP PUSH2 0x5C8 JUMP JUMPDEST PUSH1 0x0 DUP2 SSTORE PUSH1 0x1 ADD PUSH2 0xA4A JUMP JUMPDEST SWAP1 SWAP2 POP DUP2 SWAP1 PUSH2 0xA41 JUMP JUMPDEST PUSH4 0x4E487B71 PUSH1 0xE0 SHL PUSH1 0x0 MSTORE PUSH1 0x11 PUSH1 0x4 MSTORE PUSH1 0x24 PUSH1 0x0 REVERT JUMPDEST PUSH1 0x40 MLOAD PUSH3 0x461BCD PUSH1 0xE5 SHL DUP2 MSTORE PUSH1 0x20 PUSH1 0x4 DUP3 ADD MSTORE PUSH1 0x24 DUP1 DUP3 ADD MSTORE PUSH32 0x5061796D656E747352656769737472793A205061796D656E74206E6F7420666F PUSH1 0x44 DUP3 ADD MSTORE PUSH4 0x3AB73217 PUSH1 0xE1 SHL PUSH1 0x64 DUP3 ADD MSTORE PUSH1 0x84 SWAP1 REVERT JUMPDEST CALLVALUE PUSH2 0x4CE JUMPI PUSH1 0x20 CALLDATASIZE PUSH1 0x3 NOT ADD SLT PUSH2 0x4CE JUMPI PUSH1 0x4 CALLDATALOAD PUSH1 0x1 PUSH1 0x1 PUSH1 0x40 SHL SUB DUP2 GT PUSH2 0x4CE JUMPI PUSH2 0xB04 SWAP1 CALLDATASIZE SWAP1 PUSH1 0x4 ADD PUSH2 0x1A69 JUMP JUMPDEST PUSH2 0xB0D SWAP1 PUSH2 0x1C66 JUMP JUMPDEST SWAP10 PUSH1 0x40 SWAP13 SWAP12 SWAP13 SWAP10 SWAP2 SWAP10 SWAP9 SWAP3 SWAP9 SWAP8 SWAP4 SWAP8 SWAP7 SWAP5 SWAP7 MLOAD SWAP13 DUP14 SWAP13 PUSH1 0x1 PUSH1 0x1 PUSH1 0x80 SHL SUB NOT AND DUP14 MSTORE PUSH1 0x20 DUP14 ADD PUSH2 0x1A0 SWAP1 MSTORE PUSH2 0x1A0 DUP14 ADD PUSH2 0xB46 SWAP2 PUSH2 0x1ABF JUMP JUMPDEST DUP13 DUP2 SUB PUSH1 0x40 DUP15 ADD MSTORE PUSH2 0xB57 SWAP2 PUSH2 0x1ABF JUMP JUMPDEST DUP12 DUP2 SUB PUSH1 0x60 DUP14 ADD MSTORE PUSH2 0xB68 SWAP2 PUSH2 0x1ABF JUMP JUMPDEST DUP11 DUP2 SUB PUSH1 0x80 DUP13 ADD MSTORE PUSH2 0xB79 SWAP2 PUSH2 0x1ABF JUMP JUMPDEST SWAP1 PUSH1 0xA0 DUP11 ADD MSTORE DUP9 DUP2 SUB PUSH1 0xC0 DUP11 ADD MSTORE PUSH2 0xB90 SWAP2 PUSH2 0x1ABF JUMP JUMPDEST DUP8 DUP2 SUB PUSH1 0xE0 DUP10 ADD MSTORE PUSH2 0xBA1 SWAP2 PUSH2 0x1ABF JUMP JUMPDEST DUP7 DUP2 SUB PUSH2 0x100 DUP9 ADD MSTORE PUSH2 0xBB3 SWAP2 PUSH2 0x1ABF JUMP JUMPDEST SWAP1 ISZERO ISZERO PUSH2 0x120 DUP7 ADD MSTORE DUP5 DUP2 SUB PUSH2 0x140 DUP7 ADD MSTORE PUSH2 0xBCE SWAP2 PUSH2 0x1ABF JUMP JUMPDEST DUP4 DUP2 SUB PUSH2 0x160 DUP6 ADD MSTORE PUSH2 0xBE0 SWAP2 PUSH2 0x1ABF JUMP JUMPDEST DUP3 DUP2 SUB PUSH2 0x180 DUP5 ADD MSTORE PUSH2 0x23C SWAP2 PUSH2 0x1ABF JUMP JUMPDEST CALLVALUE PUSH2 0x4CE JUMPI PUSH2 0x1A0 CALLDATASIZE PUSH1 0x3 NOT ADD SLT PUSH2 0x4CE JUMPI PUSH2 0xC0C PUSH2 0x1A28 JUMP JUMPDEST PUSH1 0x24 CALLDATALOAD PUSH1 0x1 PUSH1 0x1 PUSH1 0x40 SHL SUB DUP2 GT PUSH2 0x4CE JUMPI PUSH2 0xC2B SWAP1 CALLDATASIZE SWAP1 PUSH1 0x4 ADD PUSH2 0x1A69 JUMP JUMPDEST PUSH1 0x44 CALLDATALOAD PUSH1 0x1 PUSH1 0x1 PUSH1 0x40 SHL SUB DUP2 GT PUSH2 0x4CE JUMPI PUSH2 0xC4A SWAP1 CALLDATASIZE SWAP1 PUSH1 0x4 ADD PUSH2 0x1A69 JUMP JUMPDEST PUSH1 0x64 CALLDATALOAD PUSH1 0x1 PUSH1 0x1 PUSH1 0x40 SHL SUB DUP2 GT PUSH2 0x4CE JUMPI PUSH2 0xC69 SWAP1 CALLDATASIZE SWAP1 PUSH1 0x4 ADD PUSH2 0x1A69 JUMP JUMPDEST PUSH1 0x84 CALLDATALOAD PUSH1 0x1 PUSH1 0x1 PUSH1 0x40 SHL SUB DUP2 GT PUSH2 0x4CE JUMPI PUSH2 0xC88 SWAP1 CALLDATASIZE SWAP1 PUSH1 0x4 ADD PUSH2 0x1A69 JUMP JUMPDEST SWAP3 PUSH1 0xC4 CALLDATALOAD PUSH1 0x1 PUSH1 0x1 PUSH1 0x40 SHL SUB DUP2 GT PUSH2 0x4CE JUMPI PUSH2 0xCA8 SWAP1 CALLDATASIZE SWAP1 PUSH1 0x4 ADD PUSH2 0x1A69 JUMP JUMPDEST PUSH1 0xE4 CALLDATALOAD PUSH1 0x1 PUSH1 0x1 PUSH1 0x40 SHL SUB DUP2 GT PUSH2 0x4CE JUMPI PUSH2 0xCC7 SWAP1 CALLDATASIZE SWAP1 PUSH1 0x4 ADD PUSH2 0x1A69 JUMP JUMPDEST PUSH2 0x104 CALLDATALOAD PUSH1 0x1 PUSH1 0x1 PUSH1 0x40 SHL SUB DUP2 GT PUSH2 0x4CE JUMPI PUSH2 0xCE7 SWAP1 CALLDATASIZE SWAP1 PUSH1 0x4 ADD PUSH2 0x1A69 JUMP JUMPDEST PUSH2 0x124 CALLDATALOAD SWAP2 DUP3 ISZERO ISZERO DUP1 SWAP4 SUB PUSH2 0x4CE JUMPI PUSH2 0x144 CALLDATALOAD PUSH1 0x1 PUSH1 0x1 PUSH1 0x40 SHL SUB DUP2 GT PUSH2 0x4CE JUMPI PUSH2 0xD16 SWAP1 CALLDATASIZE SWAP1 PUSH1 0x4 ADD PUSH2 0x1A69 JUMP JUMPDEST SWAP4 PUSH2 0x164 CALLDATALOAD PUSH1 0x1 PUSH1 0x1 PUSH1 0x40 SHL SUB DUP2 GT PUSH2 0x4CE JUMPI PUSH2 0xD37 SWAP1 CALLDATASIZE SWAP1 PUSH1 0x4 ADD PUSH2 0x1A69 JUMP JUMPDEST SWAP6 PUSH2 0x184 CALLDATALOAD PUSH1 0x1 PUSH1 0x1 PUSH1 0x40 SHL SUB DUP2 GT PUSH2 0x4CE JUMPI PUSH2 0xD58 SWAP1 CALLDATASIZE SWAP1 PUSH1 0x4 ADD PUSH2 0x1A69 JUMP JUMPDEST SWAP11 PUSH1 0x1 PUSH1 0x1 PUSH1 0x80 SHL SUB NOT AND SWAP10 DUP11 PUSH1 0x0 MSTORE PUSH1 0x1 PUSH1 0x20 MSTORE PUSH1 0x40 PUSH1 0x0 KECCAK256 SLOAD PUSH2 0x19D1 JUMPI PUSH1 0x40 MLOAD SWAP9 PUSH2 0x1A0 DUP11 ADD DUP11 DUP2 LT PUSH1 0x1 PUSH1 0x1 PUSH1 0x40 SHL SUB DUP3 GT OR PUSH2 0x82B JUMPI PUSH1 0x40 MSTORE DUP12 DUP11 MSTORE PUSH1 0x20 DUP11 ADD SWAP3 DUP4 MSTORE PUSH1 0x40 DUP11 ADD DUP12 DUP2 MSTORE PUSH1 0x60 DUP12 ADD SWAP2 DUP3 MSTORE PUSH1 0x80 DUP12 ADD SWAP3 DUP4 MSTORE PUSH1 0xA0 DUP12 ADD SWAP4 PUSH1 0xA4 CALLDATALOAD DUP6 MSTORE PUSH1 0xC0 DUP13 ADD SWAP6 DUP7 MSTORE PUSH1 0xE0 DUP13 ADD SWAP7 DUP8 MSTORE PUSH2 0x100 DUP13 ADD SWAP8 DUP9 MSTORE PUSH2 0x120 DUP13 ADD SWAP9 DUP10 MSTORE PUSH2 0x140 DUP13 ADD SWAP10 DUP11 MSTORE PUSH2 0x160 DUP13 ADD SWAP11 DUP12 MSTORE PUSH2 0x180 DUP13 ADD SWAP15 DUP16 MSTORE PUSH1 0x0 SLOAD PUSH9 0x10000000000000000 DUP2 LT ISZERO PUSH2 0x82B JUMPI DUP1 PUSH1 0x1 PUSH2 0xE18 SWAP3 ADD PUSH1 0x0 SSTORE PUSH2 0x1B59 JUMP JUMPDEST SWAP13 SWAP1 SWAP13 PUSH2 0x19BB JUMPI MLOAD PUSH1 0x80 SHR PUSH1 0x1 PUSH1 0x1 PUSH1 0x80 SHL SUB NOT DUP14 SLOAD AND OR DUP13 SSTORE PUSH1 0x1 DUP13 ADD SWAP1 MLOAD DUP1 MLOAD SWAP1 PUSH1 0x1 PUSH1 0x1 PUSH1 0x40 SHL SUB DUP3 GT PUSH2 0x82B JUMPI DUP2 SWAP1 PUSH2 0xE55 DUP5 SLOAD PUSH2 0x1BA9 JUMP JUMPDEST PUSH1 0x1F DUP2 GT PUSH2 0x1968 JUMPI JUMPDEST POP PUSH1 0x20 SWAP1 PUSH1 0x1F DUP4 GT PUSH1 0x1 EQ PUSH2 0x1903 JUMPI PUSH1 0x0 SWAP3 PUSH2 0x18F8 JUMPI JUMPDEST POP POP DUP2 PUSH1 0x1 SHL SWAP2 PUSH1 0x0 NOT SWAP1 PUSH1 0x3 SHL SHR NOT AND OR SWAP1 SSTORE JUMPDEST MLOAD DUP1 MLOAD PUSH1 0x2 DUP13 ADD SWAP2 PUSH1 0x1 PUSH1 0x1 PUSH1 0x40 SHL SUB DUP3 GT PUSH2 0x82B JUMPI DUP2 SWAP1 PUSH2 0xEAC DUP5 SLOAD PUSH2 0x1BA9 JUMP JUMPDEST PUSH1 0x1F DUP2 GT PUSH2 0x18A5 JUMPI JUMPDEST POP PUSH1 0x20 SWAP1 PUSH1 0x1F DUP4 GT PUSH1 0x1 EQ PUSH2 0x1840 JUMPI PUSH1 0x0 SWAP3 PUSH2 0x1835 JUMPI JUMPDEST POP POP DUP2 PUSH1 0x1 SHL SWAP2 PUSH1 0x0 NOT SWAP1 PUSH1 0x3 SHL SHR NOT AND OR SWAP1 SSTORE JUMPDEST MLOAD DUP1 MLOAD PUSH1 0x3 DUP12 ADD SWAP2 PUSH1 0x1 PUSH1 0x1 PUSH1 0x40 SHL SUB DUP3 GT PUSH2 0x82B JUMPI DUP2 SWAP1 PUSH2 0xF03 DUP5 SLOAD PUSH2 0x1BA9 JUMP JUMPDEST PUSH1 0x1F DUP2 GT PUSH2 0x17E2 JUMPI JUMPDEST POP PUSH1 0x20 SWAP1 PUSH1 0x1F DUP4 GT PUSH1 0x1 EQ PUSH2 0x177D JUMPI PUSH1 0x0 SWAP3 PUSH2 0x1772 JUMPI JUMPDEST POP POP DUP2 PUSH1 0x1 SHL SWAP2 PUSH1 0x0 NOT SWAP1 PUSH1 0x3 SHL SHR NOT AND OR SWAP1 SSTORE JUMPDEST MLOAD DUP1 MLOAD PUSH1 0x4 DUP11 ADD SWAP2 PUSH1 0x1 PUSH1 0x1 PUSH1 0x40 SHL SUB DUP3 GT PUSH2 0x82B JUMPI DUP2 SWAP1 PUSH2 0xF5A DUP5 SLOAD PUSH2 0x1BA9 JUMP JUMPDEST PUSH1 0x1F DUP2 GT PUSH2 0x171F JUMPI JUMPDEST POP PUSH1 0x20 SWAP1 PUSH1 0x1F DUP4 GT PUSH1 0x1 EQ PUSH2 0x16BA JUMPI PUSH1 0x0 SWAP3 PUSH2 0x16AF JUMPI JUMPDEST POP POP DUP2 PUSH1 0x1 SHL SWAP2 PUSH1 0x0 NOT SWAP1 PUSH1 0x3 SHL SHR NOT AND OR SWAP1 SSTORE JUMPDEST MLOAD PUSH1 0x5 DUP9 ADD SSTORE MLOAD DUP1 MLOAD PUSH1 0x6 DUP9 ADD SWAP2 PUSH1 0x1 PUSH1 0x1 PUSH1 0x40 SHL SUB DUP3 GT PUSH2 0x82B JUMPI DUP2 SWAP1 PUSH2 0xFB7 DUP5 SLOAD PUSH2 0x1BA9 JUMP JUMPDEST PUSH1 0x1F DUP2 GT PUSH2 0x165C JUMPI JUMPDEST POP PUSH1 0x20 SWAP1 PUSH1 0x1F DUP4 GT PUSH1 0x1 EQ PUSH2 0x15F7 JUMPI PUSH1 0x0 SWAP3 PUSH2 0x15EC JUMPI JUMPDEST POP POP DUP2 PUSH1 0x1 SHL SWAP2 PUSH1 0x0 NOT SWAP1 PUSH1 0x3 SHL SHR NOT AND OR SWAP1 SSTORE JUMPDEST MLOAD DUP1 MLOAD PUSH1 0x7 DUP8 ADD SWAP2 PUSH1 0x1 PUSH1 0x1 PUSH1 0x40 SHL SUB DUP3 GT PUSH2 0x82B JUMPI DUP2 SWAP1 PUSH2 0x100E DUP5 SLOAD PUSH2 0x1BA9 JUMP JUMPDEST PUSH1 0x1F DUP2 GT PUSH2 0x1599 JUMPI JUMPDEST POP PUSH1 0x20 SWAP1 PUSH1 0x1F DUP4 GT PUSH1 0x1 EQ PUSH2 0x1534 JUMPI PUSH1 0x0 SWAP3 PUSH2 0x1529 JUMPI JUMPDEST POP POP DUP2 PUSH1 0x1 SHL SWAP2 PUSH1 0x0 NOT SWAP1 PUSH1 0x3 SHL SHR NOT AND OR SWAP1 SSTORE JUMPDEST MLOAD DUP1 MLOAD PUSH1 0x8 DUP7 ADD SWAP2 PUSH1 0x1 PUSH1 0x1 PUSH1 0x40 SHL SUB DUP3 GT PUSH2 0x82B JUMPI DUP2 SWAP1 PUSH2 0x1065 DUP5 SLOAD PUSH2 0x1BA9 JUMP JUMPDEST PUSH1 0x1F DUP2 GT PUSH2 0x14D6 JUMPI JUMPDEST POP PUSH1 0x20 SWAP1 PUSH1 0x1F DUP4 GT PUSH1 0x1 EQ PUSH2 0x1471 JUMPI PUSH1 0x0 SWAP3 PUSH2 0x1466 JUMPI JUMPDEST POP POP DUP2 PUSH1 0x1 SHL SWAP2 PUSH1 0x0 NOT SWAP1 PUSH1 0x3 SHL SHR NOT AND OR SWAP1 SSTORE JUMPDEST PUSH1 0x9 DUP5 ADD SWAP1 MLOAD ISZERO ISZERO PUSH1 0xFF DUP1 NOT DUP4 SLOAD AND SWAP2 AND OR SWAP1 SSTORE PUSH1 0xA DUP4 ADD SWAP1 MLOAD DUP1 MLOAD SWAP1 PUSH1 0x1 PUSH1 0x1 PUSH1 0x40 SHL SUB DUP3 GT PUSH2 0x82B JUMPI DUP2 SWAP1 PUSH2 0x10D1 DUP5 SLOAD PUSH2 0x1BA9 JUMP JUMPDEST PUSH1 0x1F DUP2 GT PUSH2 0x1413 JUMPI JUMPDEST POP PUSH1 0x20 SWAP1 PUSH1 0x1F DUP4 GT PUSH1 0x1 EQ PUSH2 0x13AE JUMPI PUSH1 0x0 SWAP3 PUSH2 0x13A3 JUMPI JUMPDEST POP POP DUP2 PUSH1 0x1 SHL SWAP2 PUSH1 0x0 NOT SWAP1 PUSH1 0x3 SHL SHR NOT AND OR SWAP1 SSTORE JUMPDEST MLOAD DUP1 MLOAD PUSH1 0xB DUP4 ADD SWAP2 PUSH1 0x1 PUSH1 0x1 PUSH1 0x40 SHL SUB DUP3 GT PUSH2 0x82B JUMPI PUSH2 0x1126 DUP4 SLOAD PUSH2 0x1BA9 JUMP JUMPDEST PUSH1 0x1F DUP2 GT PUSH2 0x135B JUMPI JUMPDEST POP PUSH1 0x20 SWAP1 PUSH1 0x1F DUP4 GT PUSH1 0x1 EQ PUSH2 0x12F0 JUMPI PUSH1 0xC SWAP5 SWAP4 SWAP3 SWAP2 PUSH1 0x0 SWAP2 DUP4 PUSH2 0x12E5 JUMPI JUMPDEST POP POP DUP2 PUSH1 0x1 SHL SWAP2 PUSH1 0x0 NOT SWAP1 PUSH1 0x3 SHL SHR NOT AND OR SWAP1 SSTORE JUMPDEST ADD SWAP3 MLOAD SWAP3 DUP4 MLOAD PUSH1 0x1 PUSH1 0x1 PUSH1 0x40 SHL SUB DUP2 GT PUSH2 0x82B JUMPI PUSH2 0x1180 DUP3 SLOAD PUSH2 0x1BA9 JUMP JUMPDEST PUSH1 0x1F DUP2 GT PUSH2 0x129D JUMPI JUMPDEST POP PUSH1 0x20 PUSH1 0x1F DUP3 GT PUSH1 0x1 EQ PUSH2 0x1210 JUMPI SWAP1 DUP1 PUSH2 0x742 SWAP5 SWAP4 SWAP3 PUSH32 0x4C569B5D484312A8EA0052F8A0CFE834EC8CA803B955AF924674B3DD2BD01C1D SWAP7 SWAP8 PUSH1 0x0 SWAP3 PUSH2 0x1205 JUMPI JUMPDEST POP POP DUP2 PUSH1 0x1 SHL SWAP2 PUSH1 0x0 NOT SWAP1 PUSH1 0x3 SHL SHR NOT AND OR SWAP1 SSTORE JUMPDEST PUSH1 0x0 SLOAD DUP5 PUSH1 0x0 MSTORE PUSH1 0x1 PUSH1 0x20 MSTORE PUSH1 0x40 PUSH1 0x0 KECCAK256 SSTORE PUSH1 0x40 MLOAD SWAP2 DUP3 SWAP2 PUSH1 0x20 DUP4 MSTORE PUSH1 0x20 DUP4 ADD SWAP1 PUSH2 0x1ABF JUMP JUMPDEST ADD MLOAD SWAP1 POP DUP8 DUP1 PUSH2 0x11CA JUMP JUMPDEST PUSH1 0x1F NOT DUP3 AND SWAP6 DUP4 PUSH1 0x0 MSTORE DUP2 PUSH1 0x0 KECCAK256 SWAP7 PUSH1 0x0 JUMPDEST DUP2 DUP2 LT PUSH2 0x1285 JUMPI POP SWAP7 PUSH1 0x1 SWAP3 DUP5 SWAP3 PUSH2 0x742 SWAP8 SWAP7 SWAP6 PUSH32 0x4C569B5D484312A8EA0052F8A0CFE834EC8CA803B955AF924674B3DD2BD01C1D SWAP10 SWAP11 LT PUSH2 0x126C JUMPI JUMPDEST POP POP POP DUP2 SHL ADD SWAP1 SSTORE PUSH2 0x11DF JUMP JUMPDEST ADD MLOAD PUSH1 0x0 NOT PUSH1 0xF8 DUP5 PUSH1 0x3 SHL AND SHR NOT AND SWAP1 SSTORE DUP8 DUP1 DUP1 PUSH2 0x125F JUMP JUMPDEST DUP4 DUP4 ADD MLOAD DUP10 SSTORE PUSH1 0x1 SWAP1 SWAP9 ADD SWAP8 PUSH1 0x20 SWAP4 DUP5 ADD SWAP4 ADD PUSH2 0x1222 JUMP JUMPDEST DUP3 PUSH1 0x0 MSTORE PUSH1 0x20 PUSH1 0x0 KECCAK256 PUSH1 0x1F DUP4 ADD PUSH1 0x5 SHR DUP2 ADD SWAP2 PUSH1 0x20 DUP5 LT PUSH2 0x12DB JUMPI JUMPDEST PUSH1 0x1F ADD PUSH1 0x5 SHR ADD SWAP1 JUMPDEST DUP2 DUP2 LT PUSH2 0x12CF JUMPI POP PUSH2 0x1189 JUMP JUMPDEST PUSH1 0x0 DUP2 SSTORE PUSH1 0x1 ADD PUSH2 0x12C2 JUMP JUMPDEST SWAP1 SWAP2 POP DUP2 SWAP1 PUSH2 0x12B9 JUMP JUMPDEST ADD MLOAD SWAP1 POP DUP9 DUP1 PUSH2 0x114D JUMP JUMPDEST SWAP1 PUSH1 0x1F NOT DUP4 AND SWAP2 DUP5 PUSH1 0x0 MSTORE DUP2 PUSH1 0x0 KECCAK256 SWAP3 PUSH1 0x0 JUMPDEST DUP2 DUP2 LT PUSH2 0x1343 JUMPI POP SWAP2 PUSH1 0x1 SWAP4 SWAP2 DUP6 PUSH1 0xC SWAP9 SWAP8 SWAP7 SWAP5 LT PUSH2 0x132A JUMPI JUMPDEST POP POP POP DUP2 SHL ADD SWAP1 SSTORE PUSH2 0x1162 JUMP JUMPDEST ADD MLOAD PUSH1 0x0 NOT PUSH1 0xF8 DUP5 PUSH1 0x3 SHL AND SHR NOT AND SWAP1 SSTORE DUP9 DUP1 DUP1 PUSH2 0x131D JUMP JUMPDEST SWAP3 SWAP4 PUSH1 0x20 PUSH1 0x1 DUP2 SWAP3 DUP8 DUP7 ADD MLOAD DUP2 SSTORE ADD SWAP6 ADD SWAP4 ADD PUSH2 0x1303 JUMP JUMPDEST DUP4 PUSH1 0x0 MSTORE PUSH1 0x20 PUSH1 0x0 KECCAK256 PUSH1 0x1F DUP5 ADD PUSH1 0x5 SHR DUP2 ADD SWAP2 PUSH1 0x20 DUP6 LT PUSH2 0x1399 JUMPI JUMPDEST PUSH1 0x1F ADD PUSH1 0x5 SHR ADD SWAP1 JUMPDEST DUP2 DUP2 LT PUSH2 0x138D JUMPI POP PUSH2 0x112F JUMP JUMPDEST PUSH1 0x0 DUP2 SSTORE PUSH1 0x1 ADD PUSH2 0x1380 JUMP JUMPDEST SWAP1 SWAP2 POP DUP2 SWAP1 PUSH2 0x1377 JUMP JUMPDEST ADD MLOAD SWAP1 POP DUP9 DUP1 PUSH2 0x10F1 JUMP JUMPDEST PUSH1 0x0 DUP6 DUP2 MSTORE DUP3 DUP2 KECCAK256 SWAP4 POP PUSH1 0x1F NOT DUP6 AND SWAP1 JUMPDEST DUP2 DUP2 LT PUSH2 0x13FB JUMPI POP SWAP1 DUP5 PUSH1 0x1 SWAP6 SWAP5 SWAP4 SWAP3 LT PUSH2 0x13E2 JUMPI JUMPDEST POP POP POP DUP2 SHL ADD SWAP1 SSTORE PUSH2 0x1106 JUMP JUMPDEST ADD MLOAD PUSH1 0x0 NOT PUSH1 0xF8 DUP5 PUSH1 0x3 SHL AND SHR NOT AND SWAP1 SSTORE DUP9 DUP1 DUP1 PUSH2 0x13D5 JUMP JUMPDEST SWAP3 SWAP4 PUSH1 0x20 PUSH1 0x1 DUP2 SWAP3 DUP8 DUP7 ADD MLOAD DUP2 SSTORE ADD SWAP6 ADD SWAP4 ADD PUSH2 0x13BF JUMP JUMPDEST SWAP1 SWAP2 POP DUP4 PUSH1 0x0 MSTORE PUSH1 0x20 PUSH1 0x0 KECCAK256 PUSH1 0x1F DUP5 ADD PUSH1 0x5 SHR DUP2 ADD SWAP2 PUSH1 0x20 DUP6 LT PUSH2 0x145C JUMPI JUMPDEST SWAP1 PUSH1 0x1F DUP6 SWAP5 SWAP4 SWAP3 ADD PUSH1 0x5 SHR ADD SWAP1 JUMPDEST DUP2 DUP2 LT PUSH2 0x144D JUMPI POP PUSH2 0x10DA JUMP JUMPDEST PUSH1 0x0 DUP2 SSTORE DUP5 SWAP4 POP PUSH1 0x1 ADD PUSH2 0x1440 JUMP JUMPDEST SWAP1 SWAP2 POP DUP2 SWAP1 PUSH2 0x1432 JUMP JUMPDEST ADD MLOAD SWAP1 POP DUP11 DUP1 PUSH2 0x1085 JUMP JUMPDEST PUSH1 0x0 DUP6 DUP2 MSTORE DUP3 DUP2 KECCAK256 SWAP4 POP PUSH1 0x1F NOT DUP6 AND SWAP1 JUMPDEST DUP2 DUP2 LT PUSH2 0x14BE JUMPI POP SWAP1 DUP5 PUSH1 0x1 SWAP6 SWAP5 SWAP4 SWAP3 LT PUSH2 0x14A5 JUMPI JUMPDEST POP POP POP DUP2 SHL ADD SWAP1 SSTORE PUSH2 0x109A JUMP JUMPDEST ADD MLOAD PUSH1 0x0 NOT PUSH1 0xF8 DUP5 PUSH1 0x3 SHL AND SHR NOT AND SWAP1 SSTORE DUP11 DUP1 DUP1 PUSH2 0x1498 JUMP JUMPDEST SWAP3 SWAP4 PUSH1 0x20 PUSH1 0x1 DUP2 SWAP3 DUP8 DUP7 ADD MLOAD DUP2 SSTORE ADD SWAP6 ADD SWAP4 ADD PUSH2 0x1482 JUMP JUMPDEST SWAP1 SWAP2 POP DUP4 PUSH1 0x0 MSTORE PUSH1 0x20 PUSH1 0x0 KECCAK256 PUSH1 0x1F DUP5 ADD PUSH1 0x5 SHR DUP2 ADD SWAP2 PUSH1 0x20 DUP6 LT PUSH2 0x151F JUMPI JUMPDEST SWAP1 PUSH1 0x1F DUP6 SWAP5 SWAP4 SWAP3 ADD PUSH1 0x5 SHR ADD SWAP1 JUMPDEST DUP2 DUP2 LT PUSH2 0x1510 JUMPI POP PUSH2 0x106E JUMP JUMPDEST PUSH1 0x0 DUP2 SSTORE DUP5 SWAP4 POP PUSH1 0x1 ADD PUSH2 0x1503 JUMP JUMPDEST SWAP1 SWAP2 POP DUP2 SWAP1 PUSH2 0x14F5 JUMP JUMPDEST ADD MLOAD SWAP1 POP DUP12 DUP1 PUSH2 0x102E JUMP JUMPDEST PUSH1 0x0 DUP6 DUP2 MSTORE DUP3 DUP2 KECCAK256 SWAP4 POP PUSH1 0x1F NOT DUP6 AND SWAP1 JUMPDEST DUP2 DUP2 LT PUSH2 0x1581 JUMPI POP SWAP1 DUP5 PUSH1 0x1 SWAP6 SWAP5 SWAP4 SWAP3 LT PUSH2 0x1568 JUMPI JUMPDEST POP POP POP DUP2 SHL ADD SWAP1 SSTORE PUSH2 0x1043 JUMP JUMPDEST ADD MLOAD PUSH1 0x0 NOT PUSH1 0xF8 DUP5 PUSH1 0x3 SHL AND SHR NOT AND SWAP1 SSTORE DUP12 DUP1 DUP1 PUSH2 0x155B JUMP JUMPDEST SWAP3 SWAP4 PUSH1 0x20 PUSH1 0x1 DUP2 SWAP3 DUP8 DUP7 ADD MLOAD DUP2 SSTORE ADD SWAP6 ADD SWAP4 ADD PUSH2 0x1545 JUMP JUMPDEST SWAP1 SWAP2 POP DUP4 PUSH1 0x0 MSTORE PUSH1 0x20 PUSH1 0x0 KECCAK256 PUSH1 0x1F DUP5 ADD PUSH1 0x5 SHR DUP2 ADD SWAP2 PUSH1 0x20 DUP6 LT PUSH2 0x15E2 JUMPI JUMPDEST SWAP1 PUSH1 0x1F DUP6 SWAP5 SWAP4 SWAP3 ADD PUSH1 0x5 SHR ADD SWAP1 JUMPDEST DUP2 DUP2 LT PUSH2 0x15D3 JUMPI POP PUSH2 0x1017 JUMP JUMPDEST PUSH1 0x0 DUP2 SSTORE DUP5 SWAP4 POP PUSH1 0x1 ADD PUSH2 0x15C6 JUMP JUMPDEST SWAP1 SWAP2 POP DUP2 SWAP1 PUSH2 0x15B8 JUMP JUMPDEST ADD MLOAD SWAP1 POP DUP13 DUP1 PUSH2 0xFD7 JUMP JUMPDEST PUSH1 0x0 DUP6 DUP2 MSTORE DUP3 DUP2 KECCAK256 SWAP4 POP PUSH1 0x1F NOT DUP6 AND SWAP1 JUMPDEST DUP2 DUP2 LT PUSH2 0x1644 JUMPI POP SWAP1 DUP5 PUSH1 0x1 SWAP6 SWAP5 SWAP4 SWAP3 LT PUSH2 0x162B JUMPI JUMPDEST POP POP POP DUP2 SHL ADD SWAP1 SSTORE PUSH2 0xFEC JUMP JUMPDEST ADD MLOAD PUSH1 0x0 NOT PUSH1 0xF8 DUP5 PUSH1 0x3 SHL AND SHR NOT AND SWAP1 SSTORE DUP13 DUP1 DUP1 PUSH2 0x161E JUMP JUMPDEST SWAP3 SWAP4 PUSH1 0x20 PUSH1 0x1 DUP2 SWAP3 DUP8 DUP7 ADD MLOAD DUP2 SSTORE ADD SWAP6 ADD SWAP4 ADD PUSH2 0x1608 JUMP JUMPDEST SWAP1 SWAP2 POP DUP4 PUSH1 0x0 MSTORE PUSH1 0x20 PUSH1 0x0 KECCAK256 PUSH1 0x1F DUP5 ADD PUSH1 0x5 SHR DUP2 ADD SWAP2 PUSH1 0x20 DUP6 LT PUSH2 0x16A5 JUMPI JUMPDEST SWAP1 PUSH1 0x1F DUP6 SWAP5 SWAP4 SWAP3 ADD PUSH1 0x5 SHR ADD SWAP1 JUMPDEST DUP2 DUP2 LT PUSH2 0x1696 JUMPI POP PUSH2 0xFC0 JUMP JUMPDEST PUSH1 0x0 DUP2 SSTORE DUP5 SWAP4 POP PUSH1 0x1 ADD PUSH2 0x1689 JUMP JUMPDEST SWAP1 SWAP2 POP DUP2 SWAP1 PUSH2 0x167B JUMP JUMPDEST ADD MLOAD SWAP1 POP DUP15 DUP1 PUSH2 0xF7A JUMP JUMPDEST PUSH1 0x0 DUP6 DUP2 MSTORE DUP3 DUP2 KECCAK256 SWAP4 POP PUSH1 0x1F NOT DUP6 AND SWAP1 JUMPDEST DUP2 DUP2 LT PUSH2 0x1707 JUMPI POP SWAP1 DUP5 PUSH1 0x1 SWAP6 SWAP5 SWAP4 SWAP3 LT PUSH2 0x16EE JUMPI JUMPDEST POP POP POP DUP2 SHL ADD SWAP1 SSTORE PUSH2 0xF8F JUMP JUMPDEST ADD MLOAD PUSH1 0x0 NOT PUSH1 0xF8 DUP5 PUSH1 0x3 SHL AND SHR NOT AND SWAP1 SSTORE DUP15 DUP1 DUP1 PUSH2 0x16E1 JUMP JUMPDEST SWAP3 SWAP4 PUSH1 0x20 PUSH1 0x1 DUP2 SWAP3 DUP8 DUP7 ADD MLOAD DUP2 SSTORE ADD SWAP6 ADD SWAP4 ADD PUSH2 0x16CB JUMP JUMPDEST SWAP1 SWAP2 POP DUP4 PUSH1 0x0 MSTORE PUSH1 0x20 PUSH1 0x0 KECCAK256 PUSH1 0x1F DUP5 ADD PUSH1 0x5 SHR DUP2 ADD SWAP2 PUSH1 0x20 DUP6 LT PUSH2 0x1768 JUMPI JUMPDEST SWAP1 PUSH1 0x1F DUP6 SWAP5 SWAP4 SWAP3 ADD PUSH1 0x5 SHR ADD SWAP1 JUMPDEST DUP2 DUP2 LT PUSH2 0x1759 JUMPI POP PUSH2 0xF63 JUMP JUMPDEST PUSH1 0x0 DUP2 SSTORE DUP5 SWAP4 POP PUSH1 0x1 ADD PUSH2 0x174C JUMP JUMPDEST SWAP1 SWAP2 POP DUP2 SWAP1 PUSH2 0x173E JUMP JUMPDEST ADD MLOAD SWAP1 POP DUP16 DUP1 PUSH2 0xF23 JUMP JUMPDEST PUSH1 0x0 DUP6 DUP2 MSTORE DUP3 DUP2 KECCAK256 SWAP4 POP PUSH1 0x1F NOT DUP6 AND SWAP1 JUMPDEST DUP2 DUP2 LT PUSH2 0x17CA JUMPI POP SWAP1 DUP5 PUSH1 0x1 SWAP6 SWAP5 SWAP4 SWAP3 LT PUSH2 0x17B1 JUMPI JUMPDEST POP POP POP DUP2 SHL ADD SWAP1 SSTORE PUSH2 0xF38 JUMP JUMPDEST ADD MLOAD PUSH1 0x0 NOT PUSH1 0xF8 DUP5 PUSH1 0x3 SHL AND SHR NOT AND SWAP1 SSTORE DUP16 DUP1 DUP1 PUSH2 0x17A4 JUMP JUMPDEST SWAP3 SWAP4 PUSH1 0x20 PUSH1 0x1 DUP2 SWAP3 DUP8 DUP7 ADD MLOAD DUP2 SSTORE ADD SWAP6 ADD SWAP4 ADD PUSH2 0x178E JUMP JUMPDEST SWAP1 SWAP2 POP DUP4 PUSH1 0x0 MSTORE PUSH1 0x20 PUSH1 0x0 KECCAK256 PUSH1 0x1F DUP5 ADD PUSH1 0x5 SHR DUP2 ADD SWAP2 PUSH1 0x20 DUP6 LT PUSH2 0x182B JUMPI JUMPDEST SWAP1 PUSH1 0x1F DUP6 SWAP5 SWAP4 SWAP3 ADD PUSH1 0x5 SHR ADD SWAP1 JUMPDEST DUP2 DUP2 LT PUSH2 0x181C JUMPI POP PUSH2 0xF0C JUMP JUMPDEST PUSH1 0x0 DUP2 SSTORE DUP5 SWAP4 POP PUSH1 0x1 ADD PUSH2 0x180F JUMP JUMPDEST SWAP1 SWAP2 POP DUP2 SWAP1 PUSH2 0x1801 JUMP JUMPDEST ADD MLOAD SWAP1 POP CODESIZE DUP1 PUSH2 0xECC JUMP JUMPDEST PUSH1 0x0 DUP6 DUP2 MSTORE DUP3 DUP2 KECCAK256 SWAP4 POP PUSH1 0x1F NOT DUP6 AND SWAP1 JUMPDEST DUP2 DUP2 LT PUSH2 0x188D JUMPI POP SWAP1 DUP5 PUSH1 0x1 SWAP6 SWAP5 SWAP4 SWAP3 LT PUSH2 0x1874 JUMPI JUMPDEST POP POP POP DUP2 SHL ADD SWAP1 SSTORE PUSH2 0xEE1 JUMP JUMPDEST ADD MLOAD PUSH1 0x0 NOT PUSH1 0xF8 DUP5 PUSH1 0x3 SHL AND SHR NOT AND SWAP1 SSTORE CODESIZE DUP1 DUP1 PUSH2 0x1867 JUMP JUMPDEST SWAP3 SWAP4 PUSH1 0x20 PUSH1 0x1 DUP2 SWAP3 DUP8 DUP7 ADD MLOAD DUP2 SSTORE ADD SWAP6 ADD SWAP4 ADD PUSH2 0x1851 JUMP JUMPDEST SWAP1 SWAP2 POP DUP4 PUSH1 0x0 MSTORE PUSH1 0x20 PUSH1 0x0 KECCAK256 PUSH1 0x1F DUP5 ADD PUSH1 0x5 SHR DUP2 ADD SWAP2 PUSH1 0x20 DUP6 LT PUSH2 0x18EE JUMPI JUMPDEST SWAP1 PUSH1 0x1F DUP6 SWAP5 SWAP4 SWAP3 ADD PUSH1 0x5 SHR ADD SWAP1 JUMPDEST DUP2 DUP2 LT PUSH2 0x18DF JUMPI POP PUSH2 0xEB5 JUMP JUMPDEST PUSH1 0x0 DUP2 SSTORE DUP5 SWAP4 POP PUSH1 0x1 ADD PUSH2 0x18D2 JUMP JUMPDEST SWAP1 SWAP2 POP DUP2 SWAP1 PUSH2 0x18C4 JUMP JUMPDEST ADD MLOAD SWAP1 POP CODESIZE DUP1 PUSH2 0xE75 JUMP JUMPDEST PUSH1 0x0 DUP6 DUP2 MSTORE DUP3 DUP2 KECCAK256 SWAP4 POP PUSH1 0x1F NOT DUP6 AND SWAP1 JUMPDEST DUP2 DUP2 LT PUSH2 0x1950 JUMPI POP SWAP1 DUP5 PUSH1 0x1 SWAP6 SWAP5 SWAP4 SWAP3 LT PUSH2 0x1937 JUMPI JUMPDEST POP POP POP DUP2 SHL ADD SWAP1 SSTORE PUSH2 0xE8A JUMP JUMPDEST ADD MLOAD PUSH1 0x0 NOT PUSH1 0xF8 DUP5 PUSH1 0x3 SHL AND SHR NOT AND SWAP1 SSTORE CODESIZE DUP1 DUP1 PUSH2 0x192A JUMP JUMPDEST SWAP3 SWAP4 PUSH1 0x20 PUSH1 0x1 DUP2 SWAP3 DUP8 DUP7 ADD MLOAD DUP2 SSTORE ADD SWAP6 ADD SWAP4 ADD PUSH2 0x1914 JUMP JUMPDEST SWAP1 SWAP2 POP DUP4 PUSH1 0x0 MSTORE PUSH1 0x20 PUSH1 0x0 KECCAK256 PUSH1 0x1F DUP5 ADD PUSH1 0x5 SHR DUP2 ADD SWAP2 PUSH1 0x20 DUP6 LT PUSH2 0x19B1 JUMPI JUMPDEST SWAP1 PUSH1 0x1F DUP6 SWAP5 SWAP4 SWAP3 ADD PUSH1 0x5 SHR ADD SWAP1 JUMPDEST DUP2 DUP2 LT PUSH2 0x19A2 JUMPI POP PUSH2 0xE5E JUMP JUMPDEST PUSH1 0x0 DUP2 SSTORE DUP5 SWAP4 POP PUSH1 0x1 ADD PUSH2 0x1995 JUMP JUMPDEST SWAP1 SWAP2 POP DUP2 SWAP1 PUSH2 0x1987 JUMP JUMPDEST PUSH4 0x4E487B71 PUSH1 0xE0 SHL PUSH1 0x0 MSTORE PUSH1 0x0 PUSH1 0x4 MSTORE PUSH1 0x24 PUSH1 0x0 REVERT JUMPDEST PUSH1 0x40 MLOAD PUSH3 0x461BCD PUSH1 0xE5 SHL DUP2 MSTORE PUSH1 0x20 PUSH1 0x4 DUP3 ADD MSTORE PUSH1 0x29 PUSH1 0x24 DUP3 ADD MSTORE PUSH32 0x5061796D656E747352656769737472793A205061796D656E7420616C72656164 PUSH1 0x44 DUP3 ADD MSTORE PUSH9 0x3C9032BC34B9BA3997 PUSH1 0xB9 SHL PUSH1 0x64 DUP3 ADD MSTORE PUSH1 0x84 SWAP1 REVERT JUMPDEST PUSH1 0x4 CALLDATALOAD SWAP1 PUSH16 0xFFFFFFFFFFFFFFFFFFFFFFFFFFFFFFFF NOT DUP3 AND DUP3 SUB PUSH2 0x4CE JUMPI JUMP JUMPDEST SWAP1 PUSH1 0x1F DUP1 NOT SWAP2 ADD AND DUP2 ADD SWAP1 DUP2 LT PUSH1 0x1 PUSH1 0x1 PUSH1 0x40 SHL SUB DUP3 GT OR PUSH2 0x82B JUMPI PUSH1 0x40 MSTORE JUMP JUMPDEST DUP2 PUSH1 0x1F DUP3 ADD SLT ISZERO PUSH2 0x4CE JUMPI DUP1 CALLDATALOAD SWAP1 PUSH1 0x1 PUSH1 0x1 PUSH1 0x40 SHL SUB DUP3 GT PUSH2 0x82B JUMPI PUSH1 0x40 MLOAD SWAP3 PUSH2 0x1A9D PUSH1 0x1F DUP5 ADD PUSH1 0x1F NOT AND PUSH1 0x20 ADD DUP6 PUSH2 0x1A48 JUMP JUMPDEST DUP3 DUP5 MSTORE PUSH1 0x20 DUP4 DUP4 ADD ADD GT PUSH2 0x4CE JUMPI DUP2 PUSH1 0x0 SWAP3 PUSH1 0x20 DUP1 SWAP4 ADD DUP4 DUP7 ADD CALLDATACOPY DUP4 ADD ADD MSTORE SWAP1 JUMP JUMPDEST SWAP2 SWAP1 DUP3 MLOAD SWAP3 DUP4 DUP3 MSTORE PUSH1 0x0 JUMPDEST DUP5 DUP2 LT PUSH2 0x1AEB JUMPI POP POP DUP3 PUSH1 0x0 PUSH1 0x20 DUP1 SWAP5 SWAP6 DUP5 ADD ADD MSTORE PUSH1 0x1F DUP1 NOT SWAP2 ADD AND ADD ADD SWAP1 JUMP JUMPDEST DUP1 PUSH1 0x20 DUP1 SWAP3 DUP5 ADD ADD MLOAD DUP3 DUP3 DUP7 ADD ADD MSTORE ADD PUSH2 0x1ACA JUMP JUMPDEST SWAP1 DUP1 PUSH1 0x20 DUP4 MLOAD SWAP2 DUP3 DUP2 MSTORE ADD SWAP2 PUSH1 0x20 DUP1 DUP4 PUSH1 0x5 SHL DUP4 ADD ADD SWAP5 ADD SWAP3 PUSH1 0x0 SWAP2 JUMPDEST DUP4 DUP4 LT PUSH2 0x1B2C JUMPI POP POP POP POP POP SWAP1 JUMP JUMPDEST SWAP1 SWAP2 SWAP3 SWAP4 SWAP5 PUSH1 0x20 DUP1 PUSH2 0x1B4A PUSH1 0x1 SWAP4 PUSH1 0x1F NOT DUP7 DUP3 SUB ADD DUP8 MSTORE DUP10 MLOAD PUSH2 0x1ABF JUMP JUMPDEST SWAP8 ADD SWAP4 ADD SWAP4 ADD SWAP2 SWAP4 SWAP3 SWAP1 PUSH2 0x1B1D JUMP JUMPDEST PUSH1 0x0 SLOAD DUP2 LT ISZERO PUSH2 0x1B93 JUMPI PUSH1 0x0 DUP1 DUP1 MSTORE PUSH1 0xD SWAP2 SWAP1 SWAP2 MUL PUSH32 0x290DECD9548B62A8D60345A988386FC84BA6BC95484008F6362F93160EF3E563 ADD SWAP2 JUMP JUMPDEST PUSH4 0x4E487B71 PUSH1 0xE0 SHL PUSH1 0x0 MSTORE PUSH1 0x32 PUSH1 0x4 MSTORE PUSH1 0x24 PUSH1 0x0 REVERT JUMPDEST SWAP1 PUSH1 0x1 DUP3 DUP2 SHR SWAP3 AND DUP1 ISZERO PUSH2 0x1BD9 JUMPI JUMPDEST PUSH1 0x20 DUP4 LT EQ PUSH2 0x1BC3 JUMPI JUMP JUMPDEST PUSH4 0x4E487B71 PUSH1 0xE0 SHL PUSH1 0x0 MSTORE PUSH1 0x22 PUSH1 0x4 MSTORE PUSH1 0x24 PUSH1 0x0 REVERT JUMPDEST SWAP2 PUSH1 0x7F AND SWAP2 PUSH2 0x1BB8 JUMP JUMPDEST PUSH1 0x0 SWAP3 SWAP2 DUP2 SLOAD SWAP2 PUSH2 0x1BF3 DUP4 PUSH2 0x1BA9 JUMP JUMPDEST DUP1 DUP4 MSTORE SWAP3 PUSH1 0x1 DUP2 AND SWAP1 DUP2 ISZERO PUSH2 0x1C49 JUMPI POP PUSH1 0x1 EQ PUSH2 0x1C0F JUMPI POP POP POP JUMP JUMPDEST PUSH1 0x0 SWAP1 DUP2 MSTORE PUSH1 0x20 DUP2 KECCAK256 SWAP4 SWAP5 POP SWAP2 SWAP3 JUMPDEST DUP4 DUP4 LT PUSH2 0x1C2F JUMPI POP PUSH1 0x20 SWAP3 POP ADD ADD SWAP1 JUMP JUMPDEST PUSH1 0x1 DUP2 PUSH1 0x20 SWAP3 SWAP5 SWAP4 SWAP5 SLOAD DUP4 DUP6 DUP8 ADD ADD MSTORE ADD SWAP2 ADD SWAP2 SWAP1 PUSH2 0x1C1E JUMP JUMPDEST SWAP2 POP POP PUSH1 0x20 SWAP4 SWAP5 POP PUSH1 0xFF SWAP3 SWAP2 SWAP3 NOT AND DUP4 DUP4 ADD MSTORE ISZERO ISZERO PUSH1 0x5 SHL ADD ADD SWAP1 JUMP JUMPDEST PUSH1 0x0 SWAP1 DUP2 SLOAD SWAP2 JUMPDEST DUP3 DUP2 LT PUSH2 0x1CD8 JUMPI PUSH1 0x40 MLOAD PUSH3 0x461BCD PUSH1 0xE5 SHL DUP2 MSTORE PUSH1 0x20 PUSH1 0x4 DUP3 ADD MSTORE PUSH1 0x36 PUSH1 0x24 DUP3 ADD MSTORE PUSH32 0x5061796D656E747352656769737472793A205061796D656E74206E6F7420666F PUSH1 0x44 DUP3 ADD MSTORE PUSH22 0x3AB73210313C9039BA3AB232B73A10373AB6B132B917 PUSH1 0x51 SHL PUSH1 0x64 DUP3 ADD MSTORE PUSH1 0x84 SWAP1 REVERT JUMPDEST PUSH1 0x2 PUSH2 0x1CFE PUSH2 0x1CE6 DUP4 PUSH2 0x1B59 JUMP JUMPDEST POP PUSH2 0x1CF7 PUSH1 0x40 MLOAD DUP1 SWAP5 DUP2 SWAP4 ADD PUSH2 0x1BE3 JUMP JUMPDEST SUB DUP3 PUSH2 0x1A48 JUMP JUMPDEST PUSH1 0x20 DUP2 MLOAD SWAP2 ADD KECCAK256 DUP3 MLOAD PUSH1 0x20 DUP5 ADD KECCAK256 EQ PUSH2 0x1D19 JUMPI PUSH1 0x1 ADD PUSH2 0x1C6D JUMP JUMPDEST SWAP1 POP PUSH2 0x1D25 SWAP2 POP PUSH2 0x1B59 JUMP JUMPDEST POP DUP1 SLOAD PUSH1 0x80 SHL SWAP1 PUSH1 0x5 DUP2 ADD SLOAD SWAP3 PUSH1 0xFF PUSH1 0x9 DUP4 ADD SLOAD AND SWAP3 SWAP4 PUSH1 0x40 MLOAD PUSH2 0x1D50 DUP2 PUSH2 0x1CF7 DUP2 PUSH1 0x1 DUP9 ADD PUSH2 0x1BE3 JUMP JUMPDEST SWAP4 PUSH1 0x40 MLOAD PUSH2 0x1D65 DUP2 PUSH2 0x1CF7 DUP2 PUSH1 0x2 DUP10 ADD PUSH2 0x1BE3 JUMP JUMPDEST SWAP4 PUSH1 0x40 MLOAD PUSH2 0x1D7A DUP2 PUSH2 0x1CF7 DUP2 PUSH1 0x3 DUP7 ADD PUSH2 0x1BE3 JUMP JUMPDEST SWAP4 PUSH1 0x40 MLOAD PUSH2 0x1D8F DUP2 PUSH2 0x1CF7 DUP2 PUSH1 0x4 DUP8 ADD PUSH2 0x1BE3 JUMP JUMPDEST SWAP4 SWAP3 PUSH1 0x40 MLOAD PUSH2 0x1DA5 DUP2 PUSH2 0x1CF7 DUP2 PUSH1 0x6 DUP9 ADD PUSH2 0x1BE3 JUMP JUMPDEST SWAP3 PUSH1 0x40 MLOAD PUSH2 0x1DBA DUP2 PUSH2 0x1CF7 DUP2 PUSH1 0x7 DUP7 ADD PUSH2 0x1BE3 JUMP JUMPDEST SWAP3 PUSH1 0x40 MLOAD PUSH2 0x1DCF DUP2 PUSH2 0x1CF7 DUP2 PUSH1 0x8 DUP8 ADD PUSH2 0x1BE3 JUMP JUMPDEST SWAP3 SWAP2 PUSH1 0x40 MLOAD PUSH2 0x1DE5 DUP2 PUSH2 0x1CF7 DUP2 PUSH1 0xA DUP7 ADD PUSH2 0x1BE3 JUMP JUMPDEST SWAP2 PUSH1 0xC PUSH2 0x1E10 PUSH1 0x40 MLOAD PUSH2 0x1DFF DUP2 PUSH2 0x1CF7 DUP2 PUSH1 0xB DUP10 ADD PUSH2 0x1BE3 JUMP JUMPDEST SWAP4 PUSH2 0x1CF7 PUSH1 0x40 MLOAD DUP1 SWAP5 DUP2 SWAP4 ADD PUSH2 0x1BE3 JUMP JUMPDEST SWAP1 JUMP JUMPDEST PUSH1 0x1 PUSH1 0x1 PUSH1 0x40 SHL SUB DUP2 GT PUSH2 0x82B JUMPI PUSH1 0x5 SHL PUSH1 0x20 ADD SWAP1 JUMP JUMPDEST SWAP1 PUSH2 0x1E34 DUP3 PUSH2 0x1E13 JUMP JUMPDEST PUSH2 0x1E41 PUSH1 0x40 MLOAD SWAP2 DUP3 PUSH2 0x1A48 JUMP JUMPDEST DUP3 DUP2 MSTORE DUP1 SWAP3 PUSH2 0x1E52 PUSH1 0x1F NOT SWAP2 PUSH2 0x1E13 JUMP JUMPDEST ADD SWAP1 PUSH1 0x0 JUMPDEST DUP3 DUP2 LT PUSH2 0x1E63 JUMPI POP POP POP JUMP JUMPDEST DUP1 PUSH1 0x60 PUSH1 0x20 DUP1 SWAP4 DUP6 ADD ADD MSTORE ADD PUSH2 0x1E57 JUMP JUMPDEST DUP1 MLOAD DUP3 LT ISZERO PUSH2 0x1B93 JUMPI PUSH1 0x20 SWAP2 PUSH1 0x5 SHL ADD ADD SWAP1 JUMP INVALID LOG2 PUSH5 0x6970667358 0x22 SLT KECCAK256 PUSH23 0x105FCCCB839D8288348901117C07243DD055EE315A15E9 0xE1 RETURNDATASIZE 0xAC PUSH9 0xFC87A10D64736F6C63 NUMBER STOP ADDMOD SHR STOP CALLER "},"methodIdentifiers":{"addPayment(bytes16,string,string,string,string,uint256,string,string,string,bool,string,string,string)":"a89a0fdf","getAllPayments()":"f8defa3c","getPaymentByStudentNumber(string)":"dfa0bac7","updatePaymentById(bytes16,string,string,string,string)":"eab1d30a"}}}}}