{"contracts/FundingConditions.sol":{"FundingConditions":{"abi":[{"inputs":[{"internalType":"bytes16","name":"_id","type":"bytes16"},{"internalType":"bool","name":"_isFullCoverage","type":"bool"},{"internalType":"string","name":"_startDate","type":"string"},{"internalType":"string","name":"_endDate","type":"string"},{"internalType":"uint256","name":"_totalAmount","type":"uint256"},{"internalType":"uint256","name":"_foodAmount","type":"uint256"},{"internalType":"uint256","name":"_tuitionAmount","type":"uint256"},{"internalType":"uint256","name":"_laptopAmount","type":"uint256"},{"internalType":"uint256","name":"_accommodationAmount","type":"uint256"},{"internalType":"bool","name":"_accommodationDirectPay","type":"bool"},{"internalType":"bytes16","name":"_dataConfirmedById","type":"bytes16"},{"internalType":"string","name":"_modifiedBy","type":"string"},{"internalType":"string","name":"_updatedAt","type":"string"},{"internalType":"bool","name":"_isActive","type":"bool"},{"internalType":"uint256","name":"_averageMark","type":"uint256"}],"name":"addCondition","outputs":[],"stateMutability":"nonpayable","type":"function"},{"inputs":[],"name":"getAllConditions","outputs":[{"internalType":"bytes16[]","name":"ids","type":"bytes16[]"},{"internalType":"bool[]","name":"isFullCoverages","type":"bool[]"},{"internalType":"string[]","name":"startDates","type":"string[]"},{"internalType":"string[]","name":"endDates","type":"string[]"},{"internalType":"uint256[]","name":"totalAmounts","type":"uint256[]"},{"internalType":"uint256[]","name":"foodAmounts","type":"uint256[]"},{"internalType":"uint256[]","name":"tuitionAmounts","type":"uint256[]"},{"internalType":"uint256[]","name":"laptopAmounts","type":"uint256[]"},{"internalType":"uint256[]","name":"accommodationAmounts","type":"uint256[]"},{"internalType":"bool[]","name":"accommodationDirectPays","type":"bool[]"},{"internalType":"bytes16[]","name":"dataConfirmedByIds","type":"bytes16[]"},{"internalType":"string[]","name":"modifiedBys","type":"string[]"},{"internalType":"string[]","name":"updatedAts","type":"string[]"},{"internalType":"bool[]","name":"isActives","type":"bool[]"},{"internalType":"uint256[]","name":"averageMarks","type":"uint256[]"}],"stateMutability":"view","type":"function"},{"inputs":[],"name":"getAllInactiveConditions","outputs":[{"internalType":"bytes16[]","name":"ids","type":"bytes16[]"},{"internalType":"bool[]","name":"isFullCoverages","type":"bool[]"},{"internalType":"string[]","name":"startDates","type":"string[]"},{"internalType":"string[]","name":"endDates","type":"string[]"},{"internalType":"uint256[]","name":"totalAmounts","type":"uint256[]"},{"internalType":"uint256[]","name":"foodAmounts","type":"uint256[]"},{"internalType":"uint256[]","name":"tuitionAmounts","type":"uint256[]"},{"internalType":"uint256[]","name":"laptopAmounts","type":"uint256[]"},{"internalType":"uint256[]","name":"accommodationAmounts","type":"uint256[]"},{"internalType":"bool[]","name":"accommodationDirectPays","type":"bool[]"},{"internalType":"bytes16[]","name":"dataConfirmedByIds","type":"bytes16[]"},{"internalType":"string[]","name":"modifiedBys","type":"string[]"},{"internalType":"string[]","name":"updatedAts","type":"string[]"},{"internalType":"bool[]","name":"isActives","type":"bool[]"},{"internalType":"uint256[]","name":"averageMarks","type":"uint256[]"}],"stateMutability":"view","type":"function"},{"inputs":[{"internalType":"bytes16","name":"_id","type":"bytes16"}],"name":"getConditionById","outputs":[{"internalType":"bytes16","name":"id","type":"bytes16"},{"internalType":"bool","name":"isFullCoverage","type":"bool"},{"internalType":"string","name":"startDate","type":"string"},{"internalType":"string","name":"endDate","type":"string"},{"internalType":"uint256","name":"totalAmount","type":"uint256"},{"internalType":"uint256","name":"foodAmount","type":"uint256"},{"internalType":"uint256","name":"tuitionAmount","type":"uint256"},{"internalType":"uint256","name":"laptopAmount","type":"uint256"},{"internalType":"uint256","name":"accommodationAmount","type":"uint256"},{"internalType":"bool","name":"accommodationDirectPay","type":"bool"},{"internalType":"bytes16","name":"dataConfirmedById","type":"bytes16"},{"internalType":"string","name":"modifiedBy","type":"string"},{"internalType":"string","name":"updatedAt","type":"string"},{"internalType":"bool","name":"isActive","type":"bool"},{"internalType":"uint256","name":"averageMark","type":"uint256"}],"stateMutability":"view","type":"function"},{"inputs":[{"internalType":"bytes16","name":"_id","type":"bytes16"},{"internalType":"bool","name":"_isActive","type":"bool"},{"internalType":"uint256","name":"_averageMark","type":"uint256"},{"internalType":"string","name":"_modifiedBy","type":"string"},{"internalType":"string","name":"_updatedAt","type":"string"}],"name":"updateCondition","outputs":[],"stateMutability":"nonpayable","type":"function"},{"inputs":[{"internalType":"bytes16","name":"_id","type":"bytes16"},{"internalType":"bytes16","name":"_dataConfirmedById","type":"bytes16"},{"internalType":"string","name":"_modifiedBy","type":"string"},{"internalType":"string","name":"_updatedAt","type":"string"}],"name":"updateDataConfirmedById","outputs":[],"stateMutability":"nonpayable","type":"function"}],"evm":{"bytecode":{"linkReferences":{},"object":"60808060405234601557611ce9908161001b8239f35b600080fdfe610560604052600436101561001357600080fd5b60003560e01c806327a9789d146110b05780633265023c14610fd25780635bec301514610c155780639615b92214610871578063ab9c5e10146100dc5763d2a390c91461005f57600080fd5b346100d75760803660031901126100d75761007861111d565b602435906001600160801b0319821682036100d7576044356001600160401b0381116100d7576100ac903690600401611164565b606435926001600160401b0384116100d7576100cf6100d5943690600401611164565b92611a27565b005b600080fd5b346100d7576101e03660031901126100d7576100f661111d565b6100fe611134565b906044356001600160401b0381116100d75761011e903690600401611164565b916064356001600160401b0381116100d75761013e903690600401611164565b92610124358015158091036100d75761014435906001600160801b031982168092036100d757610164356001600160401b0381116100d757610184903690600401611164565b91610184356001600160401b0381116100d7576101a5903690600401611164565b936101a435958615158097036100d75760008054986001600160801b03191692905b8981106107f75750604051996101e08b01938b85106001600160401b03861117610580578b946040528452602084019215158352604084019182526060840190815260808401608435815260a085019160a435835260c086019360c435855260e087019560e43587526101c0610100890198610104358a5261012081019b8c5261014081019a8b5261016081019c8d5261018081019d8e526101a081019e8f52019d8e6101c435905268010000000000000000811015610580578060016102919201600055611420565b9f909f6107e157518f54915170ffffffffffffffffffffffffffffffffff19909216608091821c17911515901b60ff60801b16178e5551805160018f01916001600160401b0382116105805781906102e98454611470565b601f811161078e575b50602090601f83116001146107295760009261071e575b50508160011b916000199060031b1c19161790555b51805160028e01916001600160401b0382116105805761033e8354611470565b601f81116106d6575b50602090601f8311600114610664576103e89a99989796959493929160009183610659575b50508160011b916000199060031b1c19161790555b5160038d01555160048c01555160058b01555160068a01555160078901556103bc6008890192511515839060ff801983541691151516179055565b51815470ffffffffffffffffffffffffffffffff00191660789190911c610100600160881b0316179055565b51805160098601916001600160401b03821161058057819061040a8454611470565b601f8111610606575b50602090601f83116001146105a157600092610596575b50508160011b916000199060031b1c19161790555b518051600a8501916001600160401b0382116105805761045f8354611470565b601f8111610538575b50602090601f83116001146104c95791806104b89492600c9796946000926104be575b50508160011b916000199060031b1c19161790555b511515600b85019060ff801983541691151516179055565b51910155005b01519050888061048b565b90601f1983169184600052816000209260005b8181106105205750926001928592600c9998966104b8989610610507575b505050811b0190556104a0565b015160001960f88460031b161c191690558880806104fa565b929360206001819287860151815501950193016104dc565b836000526020600020601f840160051c81019160208510610576575b601f0160051c01905b81811061056a5750610468565b6000815560010161055d565b9091508190610554565b634e487b7160e01b600052604160045260246000fd5b01519050878061042a565b60008581528281209350601f198516905b8181106105ee57509084600195949392106105d5575b505050811b01905561043f565b015160001960f88460031b161c191690558780806105c8565b929360206001819287860151815501950193016105b2565b909150836000526020600020601f840160051c8101916020851061064f575b90601f859493920160051c01905b8181106106405750610413565b60008155849350600101610633565b9091508190610625565b01519050388061036c565b90601f1983169184600052816000209260005b8181106106be57509160019391856103e89e9d9c9b9a9998979694106106a5575b505050811b019055610381565b015160001960f88460031b161c19169055388080610698565b92936020600181928786015181550195019301610677565b836000526020600020601f840160051c81019160208510610714575b601f0160051c01905b8181106107085750610347565b600081556001016106fb565b90915081906106f2565b015190503880610309565b60008581528281209350601f198516905b818110610776575090846001959493921061075d575b505050811b01905561031e565b015160001960f88460031b161c19169055388080610750565b9293602060018192878601518155019501930161073a565b909150836000526020600020601f840160051c810191602085106107d7575b90601f859493920160051c01905b8181106107c857506102f2565b600081558493506001016107bb565b90915081906107ad565b634e487b7160e01b600052600060045260246000fd5b8361080182611420565b505460801b6001600160801b0319161461081d576001016101c7565b60405162461bcd60e51b815260206004820152602660248201527f436f6e646974696f6e2077697468207468697320696420616c726561647920656044820152653c34b9ba399760d11b6064820152608490fd5b346100d75760003660031901126100d75760008081546101e0525b6101e0518110610be357610952826108a381611997565b6080526108af81611997565b60e0526108bb816119c9565b60a0526108c7816119c9565b610220526108d481611997565b610260526108e181611997565b610280526108ee81611997565b6102c0526108fb81611997565b6102e05261090881611997565b6103205261091581611997565b6103405261092281611997565b6103605261092f816119c9565b6103005261093c816119c9565b6102a05261094981611997565b61024052611997565b6102005260006101a0526101a0516101c0525b6101e0516101c051106109bf57604051806109bb61020051610240516102a051610300516103605161034051610320516102e0516102c0516102805161026051610220518d60a0519060e05190608051906112fc565b0390f35b6109cb6101c051611420565b5060c0819052600b015460ff16806109ef575b5060016101c051016101c052610965565b60c05154610a026101a051608051611a13565b6001600160801b03198260801b16905260ff610a236101a05160e051611a13565b9160801c1615159052610a3a600160c051016117a3565b610a496101a05160a051611a13565b52610a596101a05160a051611a13565b50610a68600260c051016117a3565b610a786101a05161022051611a13565b52610a896101a05161022051611a13565b50600360c0510154610aa16101a05161026051611a13565b52600460c0510154610ab96101a05161028051611a13565b52600560c0510154610ad16101a0516102c051611a13565b52600660c0510154610ae96101a0516102e051611a13565b52600760c0510154610b016101a05161032051611a13565b52600860c0510154610b196101a05161034051611a13565b60ff8216151590526001600160801b03199060781b16610b3f6101a05161036051611a13565b52610b4e600960c051016117a3565b610b5e6101a05161030051611a13565b52610b6f6101a05161030051611a13565b50610b7e600a60c051016117a3565b610b8e6101a0516102a051611a13565b52610b9f6101a0516102a051611a13565b50610bb06101a05161024051611a13565b9015159052600c60c0510154610bcc6101a05161020051611a13565b52610bd96101a05161195b565b6101a052806109de565b60ff600b610bf083611420565b50015416610c01575b60010161088c565b90610c0d60019161195b565b919050610bf9565b346100d75760003660031901126100d75760008081546103c0525b6103c0518110610f9f57610cf982610c4781611997565b61010052610c5481611997565b61016052610c61816119c9565b61012052610c6e816119c9565b61040052610c7b81611997565b61044052610c8881611997565b61046052610c9581611997565b6104a052610ca281611997565b6104c052610caf81611997565b61050052610cbc81611997565b61052052610cc981611997565b61054052610cd6816119c9565b6104e052610ce3816119c9565b61048052610cf081611997565b61042052611997565b6103e052600061038052610380516103a0525b6103c0516103a05110610d6557604051806109bb6103e05161042051610480516104e0516105405161052051610500516104c0516104a0516104605161044051610400518d6101205190610160519061010051906112fc565b610d716103a051611420565b50610140819052600b015460ff1615610180819052610d9b575b60016103a051016103a052610d0c565b6101405154610db06103805161010051611a13565b6001600160801b03198260801b16905260ff610dd26103805161016051611a13565b9160801c1615159052610dea600161014051016117a3565b610dfa6103805161012051611a13565b52610e0b6103805161012051611a13565b50610e1b600261014051016117a3565b610e2b6103805161040051611a13565b52610e3c6103805161040051611a13565b506003610140510154610e556103805161044051611a13565b526004610140510154610e6e6103805161046051611a13565b526005610140510154610e87610380516104a051611a13565b526006610140510154610ea0610380516104c051611a13565b526007610140510154610eb96103805161050051611a13565b526008610140510154610ed26103805161052051611a13565b60ff8216151590526001600160801b03199060781b16610ef86103805161054051611a13565b52610f08600961014051016117a3565b610f18610380516104e051611a13565b52610f29610380516104e051611a13565b50610f39600a61014051016117a3565b610f496103805161048051611a13565b52610f5a6103805161048051611a13565b506101805115610f706103805161042051611a13565b52600c610140510154610f89610380516103e051611a13565b52610f966103805161195b565b61038052610d8b565b60ff600b610fac83611420565b5001541615610fbe575b600101610c30565b90610fca60019161195b565b919050610fb6565b346100d75760203660031901126100d757610feb61111d565b610ff490611847565b9a909b60409a989399929a979497969596519e8f9e8f916001600160801b0319168252151590602001528d604081016101e090526101e001611035916111ba565b8d810360608f0152611046916111ba565b9660808d015260a08c015260c08b015260e08a015261010089015215156101208801526001600160801b03191661014087015285810361016087015261108b916111ba565b84810361018086015261109d916111ba565b9115156101a08401526101c08301520390f35b346100d75760a03660031901126100d7576110c961111d565b6110d1611134565b6064356001600160401b0381116100d7576110f0903690600401611164565b608435926001600160401b0384116100d7576111136100d5943690600401611164565b92604435916114aa565b600435906001600160801b0319821682036100d757565b6024359081151582036100d757565b90601f801991011681019081106001600160401b0382111761058057604052565b81601f820112156100d7578035906001600160401b0382116105805760405192611198601f8401601f191660200185611143565b828452602083830101116100d757816000926020809301838601378301015290565b919082519283825260005b8481106111e6575050826000602080949584010152601f8019910116010190565b806020809284010151828286010152016111c5565b906020808351928381520192019060005b8181106112195750505090565b82516001600160801b03191684526020938401939092019160010161120c565b906020808351928381520192019060005b8181106112575750505090565b8251151584526020938401939092019160010161124a565b9080602083519182815201916020808360051b8301019401926000915b83831061129b57505050505090565b90919293946020806112b9600193601f1986820301875289516111ba565b9701930193019193929061128c565b906020808351928381520192019060005b8181106112e65750505090565b82518452602093840193909201916001016112d9565b9d9a949861141d9f9d998f92996113a661140e9f9a6113986113ff9f989b61138a6113f09f9661137c6113e19f9d61136e6113d29f8d906113c39f611360906113526113b49f6101e086526101e08601906111fb565b908482036020860152611239565b91604081840391015261126f565b8c810360608e01529061126f565b908a820360808c01526112c8565b9088820360a08a01526112c8565b9086820360c08801526112c8565b9084820360e08601526112c8565b916101008184039101526112c8565b8c81036101208e015290611239565b908a82036101408c01526111fb565b908882036101608a015261126f565b9086820361018088015261126f565b908482036101a0860152611239565b916101c08184039101526112c8565b90565b60005481101561145a576000808052600d919091027f290decd9548b62a8d60345a988386fc84ba6bc95484008f6362f93160ef3e5630191565b634e487b7160e01b600052603260045260246000fd5b90600182811c921680156114a0575b602083101461148a57565b634e487b7160e01b600052602260045260246000fd5b91607f169161147f565b9391929060005b600054811015611767576114c481611420565b505460801b6001600160801b03198716906001600160801b031916146114ec576001016114b1565b93945061151190600b6114fe86611420565b50019060ff801983541691151516179055565b600961151c84611420565b5001908051906001600160401b03821161058057819061153c8454611470565b601f8111611714575b50602090601f83116001146116af576000926116a4575b50508160011b916000199060031b1c19161790555b600a61157c83611420565b5001908051906001600160401b0382116105805761159a8354611470565b601f811161165c575b50602090601f83116001146115ee5791806115de9492600c96946000926115e3575b50508160011b916000199060031b1c1916179055611420565b500155565b0151905038806115c5565b90601f1983169184600052816000209260005b8181106116445750926001928592600c98966115de98961061162b575b505050811b019055611420565b015160001960f88460031b161c1916905538808061161e565b92936020600181928786015181550195019301611601565b836000526020600020601f840160051c8101916020851061169a575b601f0160051c01905b81811061168e57506115a3565b60008155600101611681565b9091508190611678565b01519050388061155c565b60008581528281209350601f198516905b8181106116fc57509084600195949392106116e3575b505050811b019055611571565b015160001960f88460031b161c191690553880806116d6565b929360206001819287860151815501950193016116c0565b909150836000526020600020601f840160051c8101916020851061175d575b90601f859493920160051c01905b81811061174e5750611545565b60008155849350600101611741565b9091508190611733565b60405162461bcd60e51b815260206004820152601460248201527321b7b73234ba34b7b7103737ba103337bab7321760611b6044820152606490fd5b90604051918260008254926117b784611470565b808452936001811690811561182557506001146117de575b506117dc92500383611143565b565b90506000929192526020600020906000915b8183106118095750509060206117dc92820101386117cf565b60209193508060019154838589010152019101909184926117f0565b9050602092506117dc94915060ff191682840152151560051b820101386117cf565b6000908154915b8281106118915760405162461bcd60e51b815260206004820152601460248201527321b7b73234ba34b7b7103737ba103337bab7321760611b6044820152606490fd5b61189a81611420565b505460801b6001600160801b03198316906001600160801b031916146118c25760010161184e565b90506118ce9150611420565b508054916003820154600483015460058401546006850154600786015460088701549560ff600b8901541696600c8901549160ff8b60801b9b60801c1699611918600182016117a3565b99611925600283016117a3565b99989796959460ff85169460781b6001600160801b03191693611956600a61194f600987016117a3565b95016117a3565b929190565b600019811461196a5760010190565b634e487b7160e01b600052601160045260246000fd5b6001600160401b0381116105805760051b60200190565b906119a182611980565b6119ae6040519182611143565b82815280926119bf601f1991611980565b0190602036910137565b906119d382611980565b6119e06040519182611143565b82815280926119f1601f1991611980565b019060005b828110611a0257505050565b8060606020809385010152016119f6565b805182101561145a5760209160051b010190565b9293919060005b60005481101561176757611a4181611420565b505460801b6001600160801b03198616906001600160801b03191614611a6957600101611a2e565b929350611aa1906008611a7b85611420565b500190610100600160881b038083549260781c161690610100600160881b031916179055565b6009611aac83611420565b5001908051906001600160401b03821161058057611aca8354611470565b601f8111611c6b575b50602090601f8311600114611c17579180611b0d9492600a96946000926115e35750508160011b916000199060031b1c1916179055611420565b500182516001600160401b03811161058057611b298254611470565b601f8111611bcf575b506020601f8211600114611b6d5781929394600092611b62575b50508160011b916000199060031b1c1916179055565b015190503880611b4c565b601f1982169083600052806000209160005b818110611bb757509583600195969710611b9e575b505050811b019055565b015160001960f88460031b161c19169055388080611b94565b9192602060018192868b015181550194019201611b7f565b826000526020600020601f830160051c81019160208410611c0d575b601f0160051c01905b818110611c015750611b32565b60008155600101611bf4565b9091508190611beb565b90601f1983169184600052816000209260005b818110611c535750926001928592600a9896611b0d98961061162b57505050811b019055611420565b92936020600181928786015181550195019301611c2a565b836000526020600020601f840160051c81019160208510611ca9575b601f0160051c01905b818110611c9d5750611ad3565b60008155600101611c90565b9091508190611c8756fea26469706673582212209730a92ce82ca68d993f577bdec7d9f3602c9902b1a44e1fd2d45bc09b4cdc6964736f6c634300081c0033","opcodes":"PUSH1 0x80 DUP1 PUSH1 0x40 MSTORE CALLVALUE PUSH1 0x15 JUMPI PUSH2 0x1CE9 SWAP1 DUP2 PUSH2 0x1B DUP3 CODECOPY RETURN JUMPDEST PUSH1 0x0 DUP1 REVERT INVALID PUSH2 0x560 PUSH1 0x40 MSTORE PUSH1 0x4 CALLDATASIZE LT ISZERO PUSH2 0x13 JUMPI PUSH1 0x0 DUP1 REVERT JUMPDEST PUSH1 0x0 CALLDATALOAD PUSH1 0xE0 SHR DUP1 PUSH4 0x27A9789D EQ PUSH2 0x10B0 JUMPI DUP1 PUSH4 0x3265023C EQ PUSH2 0xFD2 JUMPI DUP1 PUSH4 0x5BEC3015 EQ PUSH2 0xC15 JUMPI DUP1 PUSH4 0x9615B922 EQ PUSH2 0x871 JUMPI DUP1 PUSH4 0xAB9C5E10 EQ PUSH2 0xDC JUMPI PUSH4 0xD2A390C9 EQ PUSH2 0x5F JUMPI PUSH1 0x0 DUP1 REVERT JUMPDEST CALLVALUE PUSH2 0xD7 JUMPI PUSH1 0x80 CALLDATASIZE PUSH1 0x3 NOT ADD SLT PUSH2 0xD7 JUMPI PUSH2 0x78 PUSH2 0x111D JUMP JUMPDEST PUSH1 0x24 CALLDATALOAD SWAP1 PUSH1 0x1 PUSH1 0x1 PUSH1 0x80 SHL SUB NOT DUP3 AND DUP3 SUB PUSH2 0xD7 JUMPI PUSH1 0x44 CALLDATALOAD PUSH1 0x1 PUSH1 0x1 PUSH1 0x40 SHL SUB DUP2 GT PUSH2 0xD7 JUMPI PUSH2 0xAC SWAP1 CALLDATASIZE SWAP1 PUSH1 0x4 ADD PUSH2 0x1164 JUMP JUMPDEST PUSH1 0x64 CALLDATALOAD SWAP3 PUSH1 0x1 PUSH1 0x1 PUSH1 0x40 SHL SUB DUP5 GT PUSH2 0xD7 JUMPI PUSH2 0xCF PUSH2 0xD5 SWAP5 CALLDATASIZE SWAP1 PUSH1 0x4 ADD PUSH2 0x1164 JUMP JUMPDEST SWAP3 PUSH2 0x1A27 JUMP JUMPDEST STOP JUMPDEST PUSH1 0x0 DUP1 REVERT JUMPDEST CALLVALUE PUSH2 0xD7 JUMPI PUSH2 0x1E0 CALLDATASIZE PUSH1 0x3 NOT ADD SLT PUSH2 0xD7 JUMPI PUSH2 0xF6 PUSH2 0x111D JUMP JUMPDEST PUSH2 0xFE PUSH2 0x1134 JUMP JUMPDEST SWAP1 PUSH1 0x44 CALLDATALOAD PUSH1 0x1 PUSH1 0x1 PUSH1 0x40 SHL SUB DUP2 GT PUSH2 0xD7 JUMPI PUSH2 0x11E SWAP1 CALLDATASIZE SWAP1 PUSH1 0x4 ADD PUSH2 0x1164 JUMP JUMPDEST SWAP2 PUSH1 0x64 CALLDATALOAD PUSH1 0x1 PUSH1 0x1 PUSH1 0x40 SHL SUB DUP2 GT PUSH2 0xD7 JUMPI PUSH2 0x13E SWAP1 CALLDATASIZE SWAP1 PUSH1 0x4 ADD PUSH2 0x1164 JUMP JUMPDEST SWAP3 PUSH2 0x124 CALLDATALOAD DUP1 ISZERO ISZERO DUP1 SWAP2 SUB PUSH2 0xD7 JUMPI PUSH2 0x144 CALLDATALOAD SWAP1 PUSH1 0x1 PUSH1 0x1 PUSH1 0x80 SHL SUB NOT DUP3 AND DUP1 SWAP3 SUB PUSH2 0xD7 JUMPI PUSH2 0x164 CALLDATALOAD PUSH1 0x1 PUSH1 0x1 PUSH1 0x40 SHL SUB DUP2 GT PUSH2 0xD7 JUMPI PUSH2 0x184 SWAP1 CALLDATASIZE SWAP1 PUSH1 0x4 ADD PUSH2 0x1164 JUMP JUMPDEST SWAP2 PUSH2 0x184 CALLDATALOAD PUSH1 0x1 PUSH1 0x1 PUSH1 0x40 SHL SUB DUP2 GT PUSH2 0xD7 JUMPI PUSH2 0x1A5 SWAP1 CALLDATASIZE SWAP1 PUSH1 0x4 ADD PUSH2 0x1164 JUMP JUMPDEST SWAP4 PUSH2 0x1A4 CALLDATALOAD SWAP6 DUP7 ISZERO ISZERO DUP1 SWAP8 SUB PUSH2 0xD7 JUMPI PUSH1 0x0 DUP1 SLOAD SWAP9 PUSH1 0x1 PUSH1 0x1 PUSH1 0x80 SHL SUB NOT AND SWAP3 SWAP1 JUMPDEST DUP10 DUP2 LT PUSH2 0x7F7 JUMPI POP PUSH1 0x40 MLOAD SWAP10 PUSH2 0x1E0 DUP12 ADD SWAP4 DUP12 DUP6 LT PUSH1 0x1 PUSH1 0x1 PUSH1 0x40 SHL SUB DUP7 GT OR PUSH2 0x580 JUMPI DUP12 SWAP5 PUSH1 0x40 MSTORE DUP5 MSTORE PUSH1 0x20 DUP5 ADD SWAP3 ISZERO ISZERO DUP4 MSTORE PUSH1 0x40 DUP5 ADD SWAP2 DUP3 MSTORE PUSH1 0x60 DUP5 ADD SWAP1 DUP2 MSTORE PUSH1 0x80 DUP5 ADD PUSH1 0x84 CALLDATALOAD DUP2 MSTORE PUSH1 0xA0 DUP6 ADD SWAP2 PUSH1 0xA4 CALLDATALOAD DUP4 MSTORE PUSH1 0xC0 DUP7 ADD SWAP4 PUSH1 0xC4 CALLDATALOAD DUP6 MSTORE PUSH1 0xE0 DUP8 ADD SWAP6 PUSH1 0xE4 CALLDATALOAD DUP8 MSTORE PUSH2 0x1C0 PUSH2 0x100 DUP10 ADD SWAP9 PUSH2 0x104 CALLDATALOAD DUP11 MSTORE PUSH2 0x120 DUP2 ADD SWAP12 DUP13 MSTORE PUSH2 0x140 DUP2 ADD SWAP11 DUP12 MSTORE PUSH2 0x160 DUP2 ADD SWAP13 DUP14 MSTORE PUSH2 0x180 DUP2 ADD SWAP14 DUP15 MSTORE PUSH2 0x1A0 DUP2 ADD SWAP15 DUP16 MSTORE ADD SWAP14 DUP15 PUSH2 0x1C4 CALLDATALOAD SWAP1 MSTORE PUSH9 0x10000000000000000 DUP2 LT ISZERO PUSH2 0x580 JUMPI DUP1 PUSH1 0x1 PUSH2 0x291 SWAP3 ADD PUSH1 0x0 SSTORE PUSH2 0x1420 JUMP JUMPDEST SWAP16 SWAP1 SWAP16 PUSH2 0x7E1 JUMPI MLOAD DUP16 SLOAD SWAP2 MLOAD PUSH17 0xFFFFFFFFFFFFFFFFFFFFFFFFFFFFFFFFFF NOT SWAP1 SWAP3 AND PUSH1 0x80 SWAP2 DUP3 SHR OR SWAP2 ISZERO ISZERO SWAP1 SHL PUSH1 0xFF PUSH1 0x80 SHL AND OR DUP15 SSTORE MLOAD DUP1 MLOAD PUSH1 0x1 DUP16 ADD SWAP2 PUSH1 0x1 PUSH1 0x1 PUSH1 0x40 SHL SUB DUP3 GT PUSH2 0x580 JUMPI DUP2 SWAP1 PUSH2 0x2E9 DUP5 SLOAD PUSH2 0x1470 JUMP JUMPDEST PUSH1 0x1F DUP2 GT PUSH2 0x78E JUMPI JUMPDEST POP PUSH1 0x20 SWAP1 PUSH1 0x1F DUP4 GT PUSH1 0x1 EQ PUSH2 0x729 JUMPI PUSH1 0x0 SWAP3 PUSH2 0x71E JUMPI JUMPDEST POP POP DUP2 PUSH1 0x1 SHL SWAP2 PUSH1 0x0 NOT SWAP1 PUSH1 0x3 SHL SHR NOT AND OR SWAP1 SSTORE JUMPDEST MLOAD DUP1 MLOAD PUSH1 0x2 DUP15 ADD SWAP2 PUSH1 0x1 PUSH1 0x1 PUSH1 0x40 SHL SUB DUP3 GT PUSH2 0x580 JUMPI PUSH2 0x33E DUP4 SLOAD PUSH2 0x1470 JUMP JUMPDEST PUSH1 0x1F DUP2 GT PUSH2 0x6D6 JUMPI JUMPDEST POP PUSH1 0x20 SWAP1 PUSH1 0x1F DUP4 GT PUSH1 0x1 EQ PUSH2 0x664 JUMPI PUSH2 0x3E8 SWAP11 SWAP10 SWAP9 SWAP8 SWAP7 SWAP6 SWAP5 SWAP4 SWAP3 SWAP2 PUSH1 0x0 SWAP2 DUP4 PUSH2 0x659 JUMPI JUMPDEST POP POP DUP2 PUSH1 0x1 SHL SWAP2 PUSH1 0x0 NOT SWAP1 PUSH1 0x3 SHL SHR NOT AND OR SWAP1 SSTORE JUMPDEST MLOAD PUSH1 0x3 DUP14 ADD SSTORE MLOAD PUSH1 0x4 DUP13 ADD SSTORE MLOAD PUSH1 0x5 DUP12 ADD SSTORE MLOAD PUSH1 0x6 DUP11 ADD SSTORE MLOAD PUSH1 0x7 DUP10 ADD SSTORE PUSH2 0x3BC PUSH1 0x8 DUP10 ADD SWAP3 MLOAD ISZERO ISZERO DUP4 SWAP1 PUSH1 0xFF DUP1 NOT DUP4 SLOAD AND SWAP2 ISZERO ISZERO AND OR SWAP1 SSTORE JUMP JUMPDEST MLOAD DUP2 SLOAD PUSH17 0xFFFFFFFFFFFFFFFFFFFFFFFFFFFFFFFF00 NOT AND PUSH1 0x78 SWAP2 SWAP1 SWAP2 SHR PUSH2 0x100 PUSH1 0x1 PUSH1 0x88 SHL SUB AND OR SWAP1 SSTORE JUMP JUMPDEST MLOAD DUP1 MLOAD PUSH1 0x9 DUP7 ADD SWAP2 PUSH1 0x1 PUSH1 0x1 PUSH1 0x40 SHL SUB DUP3 GT PUSH2 0x580 JUMPI DUP2 SWAP1 PUSH2 0x40A DUP5 SLOAD PUSH2 0x1470 JUMP JUMPDEST PUSH1 0x1F DUP2 GT PUSH2 0x606 JUMPI JUMPDEST POP PUSH1 0x20 SWAP1 PUSH1 0x1F DUP4 GT PUSH1 0x1 EQ PUSH2 0x5A1 JUMPI PUSH1 0x0 SWAP3 PUSH2 0x596 JUMPI JUMPDEST POP POP DUP2 PUSH1 0x1 SHL SWAP2 PUSH1 0x0 NOT SWAP1 PUSH1 0x3 SHL SHR NOT AND OR SWAP1 SSTORE JUMPDEST MLOAD DUP1 MLOAD PUSH1 0xA DUP6 ADD SWAP2 PUSH1 0x1 PUSH1 0x1 PUSH1 0x40 SHL SUB DUP3 GT PUSH2 0x580 JUMPI PUSH2 0x45F DUP4 SLOAD PUSH2 0x1470 JUMP JUMPDEST PUSH1 0x1F DUP2 GT PUSH2 0x538 JUMPI JUMPDEST POP PUSH1 0x20 SWAP1 PUSH1 0x1F DUP4 GT PUSH1 0x1 EQ PUSH2 0x4C9 JUMPI SWAP2 DUP1 PUSH2 0x4B8 SWAP5 SWAP3 PUSH1 0xC SWAP8 SWAP7 SWAP5 PUSH1 0x0 SWAP3 PUSH2 0x4BE JUMPI JUMPDEST POP POP DUP2 PUSH1 0x1 SHL SWAP2 PUSH1 0x0 NOT SWAP1 PUSH1 0x3 SHL SHR NOT AND OR SWAP1 SSTORE JUMPDEST MLOAD ISZERO ISZERO PUSH1 0xB DUP6 ADD SWAP1 PUSH1 0xFF DUP1 NOT DUP4 SLOAD AND SWAP2 ISZERO ISZERO AND OR SWAP1 SSTORE JUMP JUMPDEST MLOAD SWAP2 ADD SSTORE STOP JUMPDEST ADD MLOAD SWAP1 POP DUP9 DUP1 PUSH2 0x48B JUMP JUMPDEST SWAP1 PUSH1 0x1F NOT DUP4 AND SWAP2 DUP5 PUSH1 0x0 MSTORE DUP2 PUSH1 0x0 KECCAK256 SWAP3 PUSH1 0x0 JUMPDEST DUP2 DUP2 LT PUSH2 0x520 JUMPI POP SWAP3 PUSH1 0x1 SWAP3 DUP6 SWAP3 PUSH1 0xC SWAP10 SWAP9 SWAP7 PUSH2 0x4B8 SWAP9 SWAP7 LT PUSH2 0x507 JUMPI JUMPDEST POP POP POP DUP2 SHL ADD SWAP1 SSTORE PUSH2 0x4A0 JUMP JUMPDEST ADD MLOAD PUSH1 0x0 NOT PUSH1 0xF8 DUP5 PUSH1 0x3 SHL AND SHR NOT AND SWAP1 SSTORE DUP9 DUP1 DUP1 PUSH2 0x4FA JUMP JUMPDEST SWAP3 SWAP4 PUSH1 0x20 PUSH1 0x1 DUP2 SWAP3 DUP8 DUP7 ADD MLOAD DUP2 SSTORE ADD SWAP6 ADD SWAP4 ADD PUSH2 0x4DC JUMP JUMPDEST DUP4 PUSH1 0x0 MSTORE PUSH1 0x20 PUSH1 0x0 KECCAK256 PUSH1 0x1F DUP5 ADD PUSH1 0x5 SHR DUP2 ADD SWAP2 PUSH1 0x20 DUP6 LT PUSH2 0x576 JUMPI JUMPDEST PUSH1 0x1F ADD PUSH1 0x5 SHR ADD SWAP1 JUMPDEST DUP2 DUP2 LT PUSH2 0x56A JUMPI POP PUSH2 0x468 JUMP JUMPDEST PUSH1 0x0 DUP2 SSTORE PUSH1 0x1 ADD PUSH2 0x55D JUMP JUMPDEST SWAP1 SWAP2 POP DUP2 SWAP1 PUSH2 0x554 JUMP JUMPDEST PUSH4 0x4E487B71 PUSH1 0xE0 SHL PUSH1 0x0 MSTORE PUSH1 0x41 PUSH1 0x4 MSTORE PUSH1 0x24 PUSH1 0x0 REVERT JUMPDEST ADD MLOAD SWAP1 POP DUP8 DUP1 PUSH2 0x42A JUMP JUMPDEST PUSH1 0x0 DUP6 DUP2 MSTORE DUP3 DUP2 KECCAK256 SWAP4 POP PUSH1 0x1F NOT DUP6 AND SWAP1 JUMPDEST DUP2 DUP2 LT PUSH2 0x5EE JUMPI POP SWAP1 DUP5 PUSH1 0x1 SWAP6 SWAP5 SWAP4 SWAP3 LT PUSH2 0x5D5 JUMPI JUMPDEST POP POP POP DUP2 SHL ADD SWAP1 SSTORE PUSH2 0x43F JUMP JUMPDEST ADD MLOAD PUSH1 0x0 NOT PUSH1 0xF8 DUP5 PUSH1 0x3 SHL AND SHR NOT AND SWAP1 SSTORE DUP8 DUP1 DUP1 PUSH2 0x5C8 JUMP JUMPDEST SWAP3 SWAP4 PUSH1 0x20 PUSH1 0x1 DUP2 SWAP3 DUP8 DUP7 ADD MLOAD DUP2 SSTORE ADD SWAP6 ADD SWAP4 ADD PUSH2 0x5B2 JUMP JUMPDEST SWAP1 SWAP2 POP DUP4 PUSH1 0x0 MSTORE PUSH1 0x20 PUSH1 0x0 KECCAK256 PUSH1 0x1F DUP5 ADD PUSH1 0x5 SHR DUP2 ADD SWAP2 PUSH1 0x20 DUP6 LT PUSH2 0x64F JUMPI JUMPDEST SWAP1 PUSH1 0x1F DUP6 SWAP5 SWAP4 SWAP3 ADD PUSH1 0x5 SHR ADD SWAP1 JUMPDEST DUP2 DUP2 LT PUSH2 0x640 JUMPI POP PUSH2 0x413 JUMP JUMPDEST PUSH1 0x0 DUP2 SSTORE DUP5 SWAP4 POP PUSH1 0x1 ADD PUSH2 0x633 JUMP JUMPDEST SWAP1 SWAP2 POP DUP2 SWAP1 PUSH2 0x625 JUMP JUMPDEST ADD MLOAD SWAP1 POP CODESIZE DUP1 PUSH2 0x36C JUMP JUMPDEST SWAP1 PUSH1 0x1F NOT DUP4 AND SWAP2 DUP5 PUSH1 0x0 MSTORE DUP2 PUSH1 0x0 KECCAK256 SWAP3 PUSH1 0x0 JUMPDEST DUP2 DUP2 LT PUSH2 0x6BE JUMPI POP SWAP2 PUSH1 0x1 SWAP4 SWAP2 DUP6 PUSH2 0x3E8 SWAP15 SWAP14 SWAP13 SWAP12 SWAP11 SWAP10 SWAP9 SWAP8 SWAP7 SWAP5 LT PUSH2 0x6A5 JUMPI JUMPDEST POP POP POP DUP2 SHL ADD SWAP1 SSTORE PUSH2 0x381 JUMP JUMPDEST ADD MLOAD PUSH1 0x0 NOT PUSH1 0xF8 DUP5 PUSH1 0x3 SHL AND SHR NOT AND SWAP1 SSTORE CODESIZE DUP1 DUP1 PUSH2 0x698 JUMP JUMPDEST SWAP3 SWAP4 PUSH1 0x20 PUSH1 0x1 DUP2 SWAP3 DUP8 DUP7 ADD MLOAD DUP2 SSTORE ADD SWAP6 ADD SWAP4 ADD PUSH2 0x677 JUMP JUMPDEST DUP4 PUSH1 0x0 MSTORE PUSH1 0x20 PUSH1 0x0 KECCAK256 PUSH1 0x1F DUP5 ADD PUSH1 0x5 SHR DUP2 ADD SWAP2 PUSH1 0x20 DUP6 LT PUSH2 0x714 JUMPI JUMPDEST PUSH1 0x1F ADD PUSH1 0x5 SHR ADD SWAP1 JUMPDEST DUP2 DUP2 LT PUSH2 0x708 JUMPI POP PUSH2 0x347 JUMP JUMPDEST PUSH1 0x0 DUP2 SSTORE PUSH1 0x1 ADD PUSH2 0x6FB JUMP JUMPDEST SWAP1 SWAP2 POP DUP2 SWAP1 PUSH2 0x6F2 JUMP JUMPDEST ADD MLOAD SWAP1 POP CODESIZE DUP1 PUSH2 0x309 JUMP JUMPDEST PUSH1 0x0 DUP6 DUP2 MSTORE DUP3 DUP2 KECCAK256 SWAP4 POP PUSH1 0x1F NOT DUP6 AND SWAP1 JUMPDEST DUP2 DUP2 LT PUSH2 0x776 JUMPI POP SWAP1 DUP5 PUSH1 0x1 SWAP6 SWAP5 SWAP4 SWAP3 LT PUSH2 0x75D JUMPI JUMPDEST POP POP POP DUP2 SHL ADD SWAP1 SSTORE PUSH2 0x31E JUMP JUMPDEST ADD MLOAD PUSH1 0x0 NOT PUSH1 0xF8 DUP5 PUSH1 0x3 SHL AND SHR NOT AND SWAP1 SSTORE CODESIZE DUP1 DUP1 PUSH2 0x750 JUMP JUMPDEST SWAP3 SWAP4 PUSH1 0x20 PUSH1 0x1 DUP2 SWAP3 DUP8 DUP7 ADD MLOAD DUP2 SSTORE ADD SWAP6 ADD SWAP4 ADD PUSH2 0x73A JUMP JUMPDEST SWAP1 SWAP2 POP DUP4 PUSH1 0x0 MSTORE PUSH1 0x20 PUSH1 0x0 KECCAK256 PUSH1 0x1F DUP5 ADD PUSH1 0x5 SHR DUP2 ADD SWAP2 PUSH1 0x20 DUP6 LT PUSH2 0x7D7 JUMPI JUMPDEST SWAP1 PUSH1 0x1F DUP6 SWAP5 SWAP4 SWAP3 ADD PUSH1 0x5 SHR ADD SWAP1 JUMPDEST DUP2 DUP2 LT PUSH2 0x7C8 JUMPI POP PUSH2 0x2F2 JUMP JUMPDEST PUSH1 0x0 DUP2 SSTORE DUP5 SWAP4 POP PUSH1 0x1 ADD PUSH2 0x7BB JUMP JUMPDEST SWAP1 SWAP2 POP DUP2 SWAP1 PUSH2 0x7AD JUMP JUMPDEST PUSH4 0x4E487B71 PUSH1 0xE0 SHL PUSH1 0x0 MSTORE PUSH1 0x0 PUSH1 0x4 MSTORE PUSH1 0x24 PUSH1 0x0 REVERT JUMPDEST DUP4 PUSH2 0x801 DUP3 PUSH2 0x1420 JUMP JUMPDEST POP SLOAD PUSH1 0x80 SHL PUSH1 0x1 PUSH1 0x1 PUSH1 0x80 SHL SUB NOT AND EQ PUSH2 0x81D JUMPI PUSH1 0x1 ADD PUSH2 0x1C7 JUMP JUMPDEST PUSH1 0x40 MLOAD PUSH3 0x461BCD PUSH1 0xE5 SHL DUP2 MSTORE PUSH1 0x20 PUSH1 0x4 DUP3 ADD MSTORE PUSH1 0x26 PUSH1 0x24 DUP3 ADD MSTORE PUSH32 0x436F6E646974696F6E2077697468207468697320696420616C72656164792065 PUSH1 0x44 DUP3 ADD MSTORE PUSH6 0x3C34B9BA3997 PUSH1 0xD1 SHL PUSH1 0x64 DUP3 ADD MSTORE PUSH1 0x84 SWAP1 REVERT JUMPDEST CALLVALUE PUSH2 0xD7 JUMPI PUSH1 0x0 CALLDATASIZE PUSH1 0x3 NOT ADD SLT PUSH2 0xD7 JUMPI PUSH1 0x0 DUP1 DUP2 SLOAD PUSH2 0x1E0 MSTORE JUMPDEST PUSH2 0x1E0 MLOAD DUP2 LT PUSH2 0xBE3 JUMPI PUSH2 0x952 DUP3 PUSH2 0x8A3 DUP2 PUSH2 0x1997 JUMP JUMPDEST PUSH1 0x80 MSTORE PUSH2 0x8AF DUP2 PUSH2 0x1997 JUMP JUMPDEST PUSH1 0xE0 MSTORE PUSH2 0x8BB DUP2 PUSH2 0x19C9 JUMP JUMPDEST PUSH1 0xA0 MSTORE PUSH2 0x8C7 DUP2 PUSH2 0x19C9 JUMP JUMPDEST PUSH2 0x220 MSTORE PUSH2 0x8D4 DUP2 PUSH2 0x1997 JUMP JUMPDEST PUSH2 0x260 MSTORE PUSH2 0x8E1 DUP2 PUSH2 0x1997 JUMP JUMPDEST PUSH2 0x280 MSTORE PUSH2 0x8EE DUP2 PUSH2 0x1997 JUMP JUMPDEST PUSH2 0x2C0 MSTORE PUSH2 0x8FB DUP2 PUSH2 0x1997 JUMP JUMPDEST PUSH2 0x2E0 MSTORE PUSH2 0x908 DUP2 PUSH2 0x1997 JUMP JUMPDEST PUSH2 0x320 MSTORE PUSH2 0x915 DUP2 PUSH2 0x1997 JUMP JUMPDEST PUSH2 0x340 MSTORE PUSH2 0x922 DUP2 PUSH2 0x1997 JUMP JUMPDEST PUSH2 0x360 MSTORE PUSH2 0x92F DUP2 PUSH2 0x19C9 JUMP JUMPDEST PUSH2 0x300 MSTORE PUSH2 0x93C DUP2 PUSH2 0x19C9 JUMP JUMPDEST PUSH2 0x2A0 MSTORE PUSH2 0x949 DUP2 PUSH2 0x1997 JUMP JUMPDEST PUSH2 0x240 MSTORE PUSH2 0x1997 JUMP JUMPDEST PUSH2 0x200 MSTORE PUSH1 0x0 PUSH2 0x1A0 MSTORE PUSH2 0x1A0 MLOAD PUSH2 0x1C0 MSTORE JUMPDEST PUSH2 0x1E0 MLOAD PUSH2 0x1C0 MLOAD LT PUSH2 0x9BF JUMPI PUSH1 0x40 MLOAD DUP1 PUSH2 0x9BB PUSH2 0x200 MLOAD PUSH2 0x240 MLOAD PUSH2 0x2A0 MLOAD PUSH2 0x300 MLOAD PUSH2 0x360 MLOAD PUSH2 0x340 MLOAD PUSH2 0x320 MLOAD PUSH2 0x2E0 MLOAD PUSH2 0x2C0 MLOAD PUSH2 0x280 MLOAD PUSH2 0x260 MLOAD PUSH2 0x220 MLOAD DUP14 PUSH1 0xA0 MLOAD SWAP1 PUSH1 0xE0 MLOAD SWAP1 PUSH1 0x80 MLOAD SWAP1 PUSH2 0x12FC JUMP JUMPDEST SUB SWAP1 RETURN JUMPDEST PUSH2 0x9CB PUSH2 0x1C0 MLOAD PUSH2 0x1420 JUMP JUMPDEST POP PUSH1 0xC0 DUP2 SWAP1 MSTORE PUSH1 0xB ADD SLOAD PUSH1 0xFF AND DUP1 PUSH2 0x9EF JUMPI JUMPDEST POP PUSH1 0x1 PUSH2 0x1C0 MLOAD ADD PUSH2 0x1C0 MSTORE PUSH2 0x965 JUMP JUMPDEST PUSH1 0xC0 MLOAD SLOAD PUSH2 0xA02 PUSH2 0x1A0 MLOAD PUSH1 0x80 MLOAD PUSH2 0x1A13 JUMP JUMPDEST PUSH1 0x1 PUSH1 0x1 PUSH1 0x80 SHL SUB NOT DUP3 PUSH1 0x80 SHL AND SWAP1 MSTORE PUSH1 0xFF PUSH2 0xA23 PUSH2 0x1A0 MLOAD PUSH1 0xE0 MLOAD PUSH2 0x1A13 JUMP JUMPDEST SWAP2 PUSH1 0x80 SHR AND ISZERO ISZERO SWAP1 MSTORE PUSH2 0xA3A PUSH1 0x1 PUSH1 0xC0 MLOAD ADD PUSH2 0x17A3 JUMP JUMPDEST PUSH2 0xA49 PUSH2 0x1A0 MLOAD PUSH1 0xA0 MLOAD PUSH2 0x1A13 JUMP JUMPDEST MSTORE PUSH2 0xA59 PUSH2 0x1A0 MLOAD PUSH1 0xA0 MLOAD PUSH2 0x1A13 JUMP JUMPDEST POP PUSH2 0xA68 PUSH1 0x2 PUSH1 0xC0 MLOAD ADD PUSH2 0x17A3 JUMP JUMPDEST PUSH2 0xA78 PUSH2 0x1A0 MLOAD PUSH2 0x220 MLOAD PUSH2 0x1A13 JUMP JUMPDEST MSTORE PUSH2 0xA89 PUSH2 0x1A0 MLOAD PUSH2 0x220 MLOAD PUSH2 0x1A13 JUMP JUMPDEST POP PUSH1 0x3 PUSH1 0xC0 MLOAD ADD SLOAD PUSH2 0xAA1 PUSH2 0x1A0 MLOAD PUSH2 0x260 MLOAD PUSH2 0x1A13 JUMP JUMPDEST MSTORE PUSH1 0x4 PUSH1 0xC0 MLOAD ADD SLOAD PUSH2 0xAB9 PUSH2 0x1A0 MLOAD PUSH2 0x280 MLOAD PUSH2 0x1A13 JUMP JUMPDEST MSTORE PUSH1 0x5 PUSH1 0xC0 MLOAD ADD SLOAD PUSH2 0xAD1 PUSH2 0x1A0 MLOAD PUSH2 0x2C0 MLOAD PUSH2 0x1A13 JUMP JUMPDEST MSTORE PUSH1 0x6 PUSH1 0xC0 MLOAD ADD SLOAD PUSH2 0xAE9 PUSH2 0x1A0 MLOAD PUSH2 0x2E0 MLOAD PUSH2 0x1A13 JUMP JUMPDEST MSTORE PUSH1 0x7 PUSH1 0xC0 MLOAD ADD SLOAD PUSH2 0xB01 PUSH2 0x1A0 MLOAD PUSH2 0x320 MLOAD PUSH2 0x1A13 JUMP JUMPDEST MSTORE PUSH1 0x8 PUSH1 0xC0 MLOAD ADD SLOAD PUSH2 0xB19 PUSH2 0x1A0 MLOAD PUSH2 0x340 MLOAD PUSH2 0x1A13 JUMP JUMPDEST PUSH1 0xFF DUP3 AND ISZERO ISZERO SWAP1 MSTORE PUSH1 0x1 PUSH1 0x1 PUSH1 0x80 SHL SUB NOT SWAP1 PUSH1 0x78 SHL AND PUSH2 0xB3F PUSH2 0x1A0 MLOAD PUSH2 0x360 MLOAD PUSH2 0x1A13 JUMP JUMPDEST MSTORE PUSH2 0xB4E PUSH1 0x9 PUSH1 0xC0 MLOAD ADD PUSH2 0x17A3 JUMP JUMPDEST PUSH2 0xB5E PUSH2 0x1A0 MLOAD PUSH2 0x300 MLOAD PUSH2 0x1A13 JUMP JUMPDEST MSTORE PUSH2 0xB6F PUSH2 0x1A0 MLOAD PUSH2 0x300 MLOAD PUSH2 0x1A13 JUMP JUMPDEST POP PUSH2 0xB7E PUSH1 0xA PUSH1 0xC0 MLOAD ADD PUSH2 0x17A3 JUMP JUMPDEST PUSH2 0xB8E PUSH2 0x1A0 MLOAD PUSH2 0x2A0 MLOAD PUSH2 0x1A13 JUMP JUMPDEST MSTORE PUSH2 0xB9F PUSH2 0x1A0 MLOAD PUSH2 0x2A0 MLOAD PUSH2 0x1A13 JUMP JUMPDEST POP PUSH2 0xBB0 PUSH2 0x1A0 MLOAD PUSH2 0x240 MLOAD PUSH2 0x1A13 JUMP JUMPDEST SWAP1 ISZERO ISZERO SWAP1 MSTORE PUSH1 0xC PUSH1 0xC0 MLOAD ADD SLOAD PUSH2 0xBCC PUSH2 0x1A0 MLOAD PUSH2 0x200 MLOAD PUSH2 0x1A13 JUMP JUMPDEST MSTORE PUSH2 0xBD9 PUSH2 0x1A0 MLOAD PUSH2 0x195B JUMP JUMPDEST PUSH2 0x1A0 MSTORE DUP1 PUSH2 0x9DE JUMP JUMPDEST PUSH1 0xFF PUSH1 0xB PUSH2 0xBF0 DUP4 PUSH2 0x1420 JUMP JUMPDEST POP ADD SLOAD AND PUSH2 0xC01 JUMPI JUMPDEST PUSH1 0x1 ADD PUSH2 0x88C JUMP JUMPDEST SWAP1 PUSH2 0xC0D PUSH1 0x1 SWAP2 PUSH2 0x195B JUMP JUMPDEST SWAP2 SWAP1 POP PUSH2 0xBF9 JUMP JUMPDEST CALLVALUE PUSH2 0xD7 JUMPI PUSH1 0x0 CALLDATASIZE PUSH1 0x3 NOT ADD SLT PUSH2 0xD7 JUMPI PUSH1 0x0 DUP1 DUP2 SLOAD PUSH2 0x3C0 MSTORE JUMPDEST PUSH2 0x3C0 MLOAD DUP2 LT PUSH2 0xF9F JUMPI PUSH2 0xCF9 DUP3 PUSH2 0xC47 DUP2 PUSH2 0x1997 JUMP JUMPDEST PUSH2 0x100 MSTORE PUSH2 0xC54 DUP2 PUSH2 0x1997 JUMP JUMPDEST PUSH2 0x160 MSTORE PUSH2 0xC61 DUP2 PUSH2 0x19C9 JUMP JUMPDEST PUSH2 0x120 MSTORE PUSH2 0xC6E DUP2 PUSH2 0x19C9 JUMP JUMPDEST PUSH2 0x400 MSTORE PUSH2 0xC7B DUP2 PUSH2 0x1997 JUMP JUMPDEST PUSH2 0x440 MSTORE PUSH2 0xC88 DUP2 PUSH2 0x1997 JUMP JUMPDEST PUSH2 0x460 MSTORE PUSH2 0xC95 DUP2 PUSH2 0x1997 JUMP JUMPDEST PUSH2 0x4A0 MSTORE PUSH2 0xCA2 DUP2 PUSH2 0x1997 JUMP JUMPDEST PUSH2 0x4C0 MSTORE PUSH2 0xCAF DUP2 PUSH2 0x1997 JUMP JUMPDEST PUSH2 0x500 MSTORE PUSH2 0xCBC DUP2 PUSH2 0x1997 JUMP JUMPDEST PUSH2 0x520 MSTORE PUSH2 0xCC9 DUP2 PUSH2 0x1997 JUMP JUMPDEST PUSH2 0x540 MSTORE PUSH2 0xCD6 DUP2 PUSH2 0x19C9 JUMP JUMPDEST PUSH2 0x4E0 MSTORE PUSH2 0xCE3 DUP2 PUSH2 0x19C9 JUMP JUMPDEST PUSH2 0x480 MSTORE PUSH2 0xCF0 DUP2 PUSH2 0x1997 JUMP JUMPDEST PUSH2 0x420 MSTORE PUSH2 0x1997 JUMP JUMPDEST PUSH2 0x3E0 MSTORE PUSH1 0x0 PUSH2 0x380 MSTORE PUSH2 0x380 MLOAD PUSH2 0x3A0 MSTORE JUMPDEST PUSH2 0x3C0 MLOAD PUSH2 0x3A0 MLOAD LT PUSH2 0xD65 JUMPI PUSH1 0x40 MLOAD DUP1 PUSH2 0x9BB PUSH2 0x3E0 MLOAD PUSH2 0x420 MLOAD PUSH2 0x480 MLOAD PUSH2 0x4E0 MLOAD PUSH2 0x540 MLOAD PUSH2 0x520 MLOAD PUSH2 0x500 MLOAD PUSH2 0x4C0 MLOAD PUSH2 0x4A0 MLOAD PUSH2 0x460 MLOAD PUSH2 0x440 MLOAD PUSH2 0x400 MLOAD DUP14 PUSH2 0x120 MLOAD SWAP1 PUSH2 0x160 MLOAD SWAP1 PUSH2 0x100 MLOAD SWAP1 PUSH2 0x12FC JUMP JUMPDEST PUSH2 0xD71 PUSH2 0x3A0 MLOAD PUSH2 0x1420 JUMP JUMPDEST POP PUSH2 0x140 DUP2 SWAP1 MSTORE PUSH1 0xB ADD SLOAD PUSH1 0xFF AND ISZERO PUSH2 0x180 DUP2 SWAP1 MSTORE PUSH2 0xD9B JUMPI JUMPDEST PUSH1 0x1 PUSH2 0x3A0 MLOAD ADD PUSH2 0x3A0 MSTORE PUSH2 0xD0C JUMP JUMPDEST PUSH2 0x140 MLOAD SLOAD PUSH2 0xDB0 PUSH2 0x380 MLOAD PUSH2 0x100 MLOAD PUSH2 0x1A13 JUMP JUMPDEST PUSH1 0x1 PUSH1 0x1 PUSH1 0x80 SHL SUB NOT DUP3 PUSH1 0x80 SHL AND SWAP1 MSTORE PUSH1 0xFF PUSH2 0xDD2 PUSH2 0x380 MLOAD PUSH2 0x160 MLOAD PUSH2 0x1A13 JUMP JUMPDEST SWAP2 PUSH1 0x80 SHR AND ISZERO ISZERO SWAP1 MSTORE PUSH2 0xDEA PUSH1 0x1 PUSH2 0x140 MLOAD ADD PUSH2 0x17A3 JUMP JUMPDEST PUSH2 0xDFA PUSH2 0x380 MLOAD PUSH2 0x120 MLOAD PUSH2 0x1A13 JUMP JUMPDEST MSTORE PUSH2 0xE0B PUSH2 0x380 MLOAD PUSH2 0x120 MLOAD PUSH2 0x1A13 JUMP JUMPDEST POP PUSH2 0xE1B PUSH1 0x2 PUSH2 0x140 MLOAD ADD PUSH2 0x17A3 JUMP JUMPDEST PUSH2 0xE2B PUSH2 0x380 MLOAD PUSH2 0x400 MLOAD PUSH2 0x1A13 JUMP JUMPDEST MSTORE PUSH2 0xE3C PUSH2 0x380 MLOAD PUSH2 0x400 MLOAD PUSH2 0x1A13 JUMP JUMPDEST POP PUSH1 0x3 PUSH2 0x140 MLOAD ADD SLOAD PUSH2 0xE55 PUSH2 0x380 MLOAD PUSH2 0x440 MLOAD PUSH2 0x1A13 JUMP JUMPDEST MSTORE PUSH1 0x4 PUSH2 0x140 MLOAD ADD SLOAD PUSH2 0xE6E PUSH2 0x380 MLOAD PUSH2 0x460 MLOAD PUSH2 0x1A13 JUMP JUMPDEST MSTORE PUSH1 0x5 PUSH2 0x140 MLOAD ADD SLOAD PUSH2 0xE87 PUSH2 0x380 MLOAD PUSH2 0x4A0 MLOAD PUSH2 0x1A13 JUMP JUMPDEST MSTORE PUSH1 0x6 PUSH2 0x140 MLOAD ADD SLOAD PUSH2 0xEA0 PUSH2 0x380 MLOAD PUSH2 0x4C0 MLOAD PUSH2 0x1A13 JUMP JUMPDEST MSTORE PUSH1 0x7 PUSH2 0x140 MLOAD ADD SLOAD PUSH2 0xEB9 PUSH2 0x380 MLOAD PUSH2 0x500 MLOAD PUSH2 0x1A13 JUMP JUMPDEST MSTORE PUSH1 0x8 PUSH2 0x140 MLOAD ADD SLOAD PUSH2 0xED2 PUSH2 0x380 MLOAD PUSH2 0x520 MLOAD PUSH2 0x1A13 JUMP JUMPDEST PUSH1 0xFF DUP3 AND ISZERO ISZERO SWAP1 MSTORE PUSH1 0x1 PUSH1 0x1 PUSH1 0x80 SHL SUB NOT SWAP1 PUSH1 0x78 SHL AND PUSH2 0xEF8 PUSH2 0x380 MLOAD PUSH2 0x540 MLOAD PUSH2 0x1A13 JUMP JUMPDEST MSTORE PUSH2 0xF08 PUSH1 0x9 PUSH2 0x140 MLOAD ADD PUSH2 0x17A3 JUMP JUMPDEST PUSH2 0xF18 PUSH2 0x380 MLOAD PUSH2 0x4E0 MLOAD PUSH2 0x1A13 JUMP JUMPDEST MSTORE PUSH2 0xF29 PUSH2 0x380 MLOAD PUSH2 0x4E0 MLOAD PUSH2 0x1A13 JUMP JUMPDEST POP PUSH2 0xF39 PUSH1 0xA PUSH2 0x140 MLOAD ADD PUSH2 0x17A3 JUMP JUMPDEST PUSH2 0xF49 PUSH2 0x380 MLOAD PUSH2 0x480 MLOAD PUSH2 0x1A13 JUMP JUMPDEST MSTORE PUSH2 0xF5A PUSH2 0x380 MLOAD PUSH2 0x480 MLOAD PUSH2 0x1A13 JUMP JUMPDEST POP PUSH2 0x180 MLOAD ISZERO PUSH2 0xF70 PUSH2 0x380 MLOAD PUSH2 0x420 MLOAD PUSH2 0x1A13 JUMP JUMPDEST MSTORE PUSH1 0xC PUSH2 0x140 MLOAD ADD SLOAD PUSH2 0xF89 PUSH2 0x380 MLOAD PUSH2 0x3E0 MLOAD PUSH2 0x1A13 JUMP JUMPDEST MSTORE PUSH2 0xF96 PUSH2 0x380 MLOAD PUSH2 0x195B JUMP JUMPDEST PUSH2 0x380 MSTORE PUSH2 0xD8B JUMP JUMPDEST PUSH1 0xFF PUSH1 0xB PUSH2 0xFAC DUP4 PUSH2 0x1420 JUMP JUMPDEST POP ADD SLOAD AND ISZERO PUSH2 0xFBE JUMPI JUMPDEST PUSH1 0x1 ADD PUSH2 0xC30 JUMP JUMPDEST SWAP1 PUSH2 0xFCA PUSH1 0x1 SWAP2 PUSH2 0x195B JUMP JUMPDEST SWAP2 SWAP1 POP PUSH2 0xFB6 JUMP JUMPDEST CALLVALUE PUSH2 0xD7 JUMPI PUSH1 0x20 CALLDATASIZE PUSH1 0x3 NOT ADD SLT PUSH2 0xD7 JUMPI PUSH2 0xFEB PUSH2 0x111D JUMP JUMPDEST PUSH2 0xFF4 SWAP1 PUSH2 0x1847 JUMP JUMPDEST SWAP11 SWAP1 SWAP12 PUSH1 0x40 SWAP11 SWAP9 SWAP4 SWAP10 SWAP3 SWAP11 SWAP8 SWAP5 SWAP8 SWAP7 SWAP6 SWAP7 MLOAD SWAP15 DUP16 SWAP15 DUP16 SWAP2 PUSH1 0x1 PUSH1 0x1 PUSH1 0x80 SHL SUB NOT AND DUP3 MSTORE ISZERO ISZERO SWAP1 PUSH1 0x20 ADD MSTORE DUP14 PUSH1 0x40 DUP2 ADD PUSH2 0x1E0 SWAP1 MSTORE PUSH2 0x1E0 ADD PUSH2 0x1035 SWAP2 PUSH2 0x11BA JUMP JUMPDEST DUP14 DUP2 SUB PUSH1 0x60 DUP16 ADD MSTORE PUSH2 0x1046 SWAP2 PUSH2 0x11BA JUMP JUMPDEST SWAP7 PUSH1 0x80 DUP14 ADD MSTORE PUSH1 0xA0 DUP13 ADD MSTORE PUSH1 0xC0 DUP12 ADD MSTORE PUSH1 0xE0 DUP11 ADD MSTORE PUSH2 0x100 DUP10 ADD MSTORE ISZERO ISZERO PUSH2 0x120 DUP9 ADD MSTORE PUSH1 0x1 PUSH1 0x1 PUSH1 0x80 SHL SUB NOT AND PUSH2 0x140 DUP8 ADD MSTORE DUP6 DUP2 SUB PUSH2 0x160 DUP8 ADD MSTORE PUSH2 0x108B SWAP2 PUSH2 0x11BA JUMP JUMPDEST DUP5 DUP2 SUB PUSH2 0x180 DUP7 ADD MSTORE PUSH2 0x109D SWAP2 PUSH2 0x11BA JUMP JUMPDEST SWAP2 ISZERO ISZERO PUSH2 0x1A0 DUP5 ADD MSTORE PUSH2 0x1C0 DUP4 ADD MSTORE SUB SWAP1 RETURN JUMPDEST CALLVALUE PUSH2 0xD7 JUMPI PUSH1 0xA0 CALLDATASIZE PUSH1 0x3 NOT ADD SLT PUSH2 0xD7 JUMPI PUSH2 0x10C9 PUSH2 0x111D JUMP JUMPDEST PUSH2 0x10D1 PUSH2 0x1134 JUMP JUMPDEST PUSH1 0x64 CALLDATALOAD PUSH1 0x1 PUSH1 0x1 PUSH1 0x40 SHL SUB DUP2 GT PUSH2 0xD7 JUMPI PUSH2 0x10F0 SWAP1 CALLDATASIZE SWAP1 PUSH1 0x4 ADD PUSH2 0x1164 JUMP JUMPDEST PUSH1 0x84 CALLDATALOAD SWAP3 PUSH1 0x1 PUSH1 0x1 PUSH1 0x40 SHL SUB DUP5 GT PUSH2 0xD7 JUMPI PUSH2 0x1113 PUSH2 0xD5 SWAP5 CALLDATASIZE SWAP1 PUSH1 0x4 ADD PUSH2 0x1164 JUMP JUMPDEST SWAP3 PUSH1 0x44 CALLDATALOAD SWAP2 PUSH2 0x14AA JUMP JUMPDEST PUSH1 0x4 CALLDATALOAD SWAP1 PUSH1 0x1 PUSH1 0x1 PUSH1 0x80 SHL SUB NOT DUP3 AND DUP3 SUB PUSH2 0xD7 JUMPI JUMP JUMPDEST PUSH1 0x24 CALLDATALOAD SWAP1 DUP2 ISZERO ISZERO DUP3 SUB PUSH2 0xD7 JUMPI JUMP JUMPDEST SWAP1 PUSH1 0x1F DUP1 NOT SWAP2 ADD AND DUP2 ADD SWAP1 DUP2 LT PUSH1 0x1 PUSH1 0x1 PUSH1 0x40 SHL SUB DUP3 GT OR PUSH2 0x580 JUMPI PUSH1 0x40 MSTORE JUMP JUMPDEST DUP2 PUSH1 0x1F DUP3 ADD SLT ISZERO PUSH2 0xD7 JUMPI DUP1 CALLDATALOAD SWAP1 PUSH1 0x1 PUSH1 0x1 PUSH1 0x40 SHL SUB DUP3 GT PUSH2 0x580 JUMPI PUSH1 0x40 MLOAD SWAP3 PUSH2 0x1198 PUSH1 0x1F DUP5 ADD PUSH1 0x1F NOT AND PUSH1 0x20 ADD DUP6 PUSH2 0x1143 JUMP JUMPDEST DUP3 DUP5 MSTORE PUSH1 0x20 DUP4 DUP4 ADD ADD GT PUSH2 0xD7 JUMPI DUP2 PUSH1 0x0 SWAP3 PUSH1 0x20 DUP1 SWAP4 ADD DUP4 DUP7 ADD CALLDATACOPY DUP4 ADD ADD MSTORE SWAP1 JUMP JUMPDEST SWAP2 SWAP1 DUP3 MLOAD SWAP3 DUP4 DUP3 MSTORE PUSH1 0x0 JUMPDEST DUP5 DUP2 LT PUSH2 0x11E6 JUMPI POP POP DUP3 PUSH1 0x0 PUSH1 0x20 DUP1 SWAP5 SWAP6 DUP5 ADD ADD MSTORE PUSH1 0x1F DUP1 NOT SWAP2 ADD AND ADD ADD SWAP1 JUMP JUMPDEST DUP1 PUSH1 0x20 DUP1 SWAP3 DUP5 ADD ADD MLOAD DUP3 DUP3 DUP7 ADD ADD MSTORE ADD PUSH2 0x11C5 JUMP JUMPDEST SWAP1 PUSH1 0x20 DUP1 DUP4 MLOAD SWAP3 DUP4 DUP2 MSTORE ADD SWAP3 ADD SWAP1 PUSH1 0x0 JUMPDEST DUP2 DUP2 LT PUSH2 0x1219 JUMPI POP POP POP SWAP1 JUMP JUMPDEST DUP3 MLOAD PUSH1 0x1 PUSH1 0x1 PUSH1 0x80 SHL SUB NOT AND DUP5 MSTORE PUSH1 0x20 SWAP4 DUP5 ADD SWAP4 SWAP1 SWAP3 ADD SWAP2 PUSH1 0x1 ADD PUSH2 0x120C JUMP JUMPDEST SWAP1 PUSH1 0x20 DUP1 DUP4 MLOAD SWAP3 DUP4 DUP2 MSTORE ADD SWAP3 ADD SWAP1 PUSH1 0x0 JUMPDEST DUP2 DUP2 LT PUSH2 0x1257 JUMPI POP POP POP SWAP1 JUMP JUMPDEST DUP3 MLOAD ISZERO ISZERO DUP5 MSTORE PUSH1 0x20 SWAP4 DUP5 ADD SWAP4 SWAP1 SWAP3 ADD SWAP2 PUSH1 0x1 ADD PUSH2 0x124A JUMP JUMPDEST SWAP1 DUP1 PUSH1 0x20 DUP4 MLOAD SWAP2 DUP3 DUP2 MSTORE ADD SWAP2 PUSH1 0x20 DUP1 DUP4 PUSH1 0x5 SHL DUP4 ADD ADD SWAP5 ADD SWAP3 PUSH1 0x0 SWAP2 JUMPDEST DUP4 DUP4 LT PUSH2 0x129B JUMPI POP POP POP POP POP SWAP1 JUMP JUMPDEST SWAP1 SWAP2 SWAP3 SWAP4 SWAP5 PUSH1 0x20 DUP1 PUSH2 0x12B9 PUSH1 0x1 SWAP4 PUSH1 0x1F NOT DUP7 DUP3 SUB ADD DUP8 MSTORE DUP10 MLOAD PUSH2 0x11BA JUMP JUMPDEST SWAP8 ADD SWAP4 ADD SWAP4 ADD SWAP2 SWAP4 SWAP3 SWAP1 PUSH2 0x128C JUMP JUMPDEST SWAP1 PUSH1 0x20 DUP1 DUP4 MLOAD SWAP3 DUP4 DUP2 MSTORE ADD SWAP3 ADD SWAP1 PUSH1 0x0 JUMPDEST DUP2 DUP2 LT PUSH2 0x12E6 JUMPI POP POP POP SWAP1 JUMP JUMPDEST DUP3 MLOAD DUP5 MSTORE PUSH1 0x20 SWAP4 DUP5 ADD SWAP4 SWAP1 SWAP3 ADD SWAP2 PUSH1 0x1 ADD PUSH2 0x12D9 JUMP JUMPDEST SWAP14 SWAP11 SWAP5 SWAP9 PUSH2 0x141D SWAP16 SWAP14 SWAP10 DUP16 SWAP3 SWAP10 PUSH2 0x13A6 PUSH2 0x140E SWAP16 SWAP11 PUSH2 0x1398 PUSH2 0x13FF SWAP16 SWAP9 SWAP12 PUSH2 0x138A PUSH2 0x13F0 SWAP16 SWAP7 PUSH2 0x137C PUSH2 0x13E1 SWAP16 SWAP14 PUSH2 0x136E PUSH2 0x13D2 SWAP16 DUP14 SWAP1 PUSH2 0x13C3 SWAP16 PUSH2 0x1360 SWAP1 PUSH2 0x1352 PUSH2 0x13B4 SWAP16 PUSH2 0x1E0 DUP7 MSTORE PUSH2 0x1E0 DUP7 ADD SWAP1 PUSH2 0x11FB JUMP JUMPDEST SWAP1 DUP5 DUP3 SUB PUSH1 0x20 DUP7 ADD MSTORE PUSH2 0x1239 JUMP JUMPDEST SWAP2 PUSH1 0x40 DUP2 DUP5 SUB SWAP2 ADD MSTORE PUSH2 0x126F JUMP JUMPDEST DUP13 DUP2 SUB PUSH1 0x60 DUP15 ADD MSTORE SWAP1 PUSH2 0x126F JUMP JUMPDEST SWAP1 DUP11 DUP3 SUB PUSH1 0x80 DUP13 ADD MSTORE PUSH2 0x12C8 JUMP JUMPDEST SWAP1 DUP9 DUP3 SUB PUSH1 0xA0 DUP11 ADD MSTORE PUSH2 0x12C8 JUMP JUMPDEST SWAP1 DUP7 DUP3 SUB PUSH1 0xC0 DUP9 ADD MSTORE PUSH2 0x12C8 JUMP JUMPDEST SWAP1 DUP5 DUP3 SUB PUSH1 0xE0 DUP7 ADD MSTORE PUSH2 0x12C8 JUMP JUMPDEST SWAP2 PUSH2 0x100 DUP2 DUP5 SUB SWAP2 ADD MSTORE PUSH2 0x12C8 JUMP JUMPDEST DUP13 DUP2 SUB PUSH2 0x120 DUP15 ADD MSTORE SWAP1 PUSH2 0x1239 JUMP JUMPDEST SWAP1 DUP11 DUP3 SUB PUSH2 0x140 DUP13 ADD MSTORE PUSH2 0x11FB JUMP JUMPDEST SWAP1 DUP9 DUP3 SUB PUSH2 0x160 DUP11 ADD MSTORE PUSH2 0x126F JUMP JUMPDEST SWAP1 DUP7 DUP3 SUB PUSH2 0x180 DUP9 ADD MSTORE PUSH2 0x126F JUMP JUMPDEST SWAP1 DUP5 DUP3 SUB PUSH2 0x1A0 DUP7 ADD MSTORE PUSH2 0x1239 JUMP JUMPDEST SWAP2 PUSH2 0x1C0 DUP2 DUP5 SUB SWAP2 ADD MSTORE PUSH2 0x12C8 JUMP JUMPDEST SWAP1 JUMP JUMPDEST PUSH1 0x0 SLOAD DUP2 LT ISZERO PUSH2 0x145A JUMPI PUSH1 0x0 DUP1 DUP1 MSTORE PUSH1 0xD SWAP2 SWAP1 SWAP2 MUL PUSH32 0x290DECD9548B62A8D60345A988386FC84BA6BC95484008F6362F93160EF3E563 ADD SWAP2 JUMP JUMPDEST PUSH4 0x4E487B71 PUSH1 0xE0 SHL PUSH1 0x0 MSTORE PUSH1 0x32 PUSH1 0x4 MSTORE PUSH1 0x24 PUSH1 0x0 REVERT JUMPDEST SWAP1 PUSH1 0x1 DUP3 DUP2 SHR SWAP3 AND DUP1 ISZERO PUSH2 0x14A0 JUMPI JUMPDEST PUSH1 0x20 DUP4 LT EQ PUSH2 0x148A JUMPI JUMP JUMPDEST PUSH4 0x4E487B71 PUSH1 0xE0 SHL PUSH1 0x0 MSTORE PUSH1 0x22 PUSH1 0x4 MSTORE PUSH1 0x24 PUSH1 0x0 REVERT JUMPDEST SWAP2 PUSH1 0x7F AND SWAP2 PUSH2 0x147F JUMP JUMPDEST SWAP4 SWAP2 SWAP3 SWAP1 PUSH1 0x0 JUMPDEST PUSH1 0x0 SLOAD DUP2 LT ISZERO PUSH2 0x1767 JUMPI PUSH2 0x14C4 DUP2 PUSH2 0x1420 JUMP JUMPDEST POP SLOAD PUSH1 0x80 SHL PUSH1 0x1 PUSH1 0x1 PUSH1 0x80 SHL SUB NOT DUP8 AND SWAP1 PUSH1 0x1 PUSH1 0x1 PUSH1 0x80 SHL SUB NOT AND EQ PUSH2 0x14EC JUMPI PUSH1 0x1 ADD PUSH2 0x14B1 JUMP JUMPDEST SWAP4 SWAP5 POP PUSH2 0x1511 SWAP1 PUSH1 0xB PUSH2 0x14FE DUP7 PUSH2 0x1420 JUMP JUMPDEST POP ADD SWAP1 PUSH1 0xFF DUP1 NOT DUP4 SLOAD AND SWAP2 ISZERO ISZERO AND OR SWAP1 SSTORE JUMP JUMPDEST PUSH1 0x9 PUSH2 0x151C DUP5 PUSH2 0x1420 JUMP JUMPDEST POP ADD SWAP1 DUP1 MLOAD SWAP1 PUSH1 0x1 PUSH1 0x1 PUSH1 0x40 SHL SUB DUP3 GT PUSH2 0x580 JUMPI DUP2 SWAP1 PUSH2 0x153C DUP5 SLOAD PUSH2 0x1470 JUMP JUMPDEST PUSH1 0x1F DUP2 GT PUSH2 0x1714 JUMPI JUMPDEST POP PUSH1 0x20 SWAP1 PUSH1 0x1F DUP4 GT PUSH1 0x1 EQ PUSH2 0x16AF JUMPI PUSH1 0x0 SWAP3 PUSH2 0x16A4 JUMPI JUMPDEST POP POP DUP2 PUSH1 0x1 SHL SWAP2 PUSH1 0x0 NOT SWAP1 PUSH1 0x3 SHL SHR NOT AND OR SWAP1 SSTORE JUMPDEST PUSH1 0xA PUSH2 0x157C DUP4 PUSH2 0x1420 JUMP JUMPDEST POP ADD SWAP1 DUP1 MLOAD SWAP1 PUSH1 0x1 PUSH1 0x1 PUSH1 0x40 SHL SUB DUP3 GT PUSH2 0x580 JUMPI PUSH2 0x159A DUP4 SLOAD PUSH2 0x1470 JUMP JUMPDEST PUSH1 0x1F DUP2 GT PUSH2 0x165C JUMPI JUMPDEST POP PUSH1 0x20 SWAP1 PUSH1 0x1F DUP4 GT PUSH1 0x1 EQ PUSH2 0x15EE JUMPI SWAP2 DUP1 PUSH2 0x15DE SWAP5 SWAP3 PUSH1 0xC SWAP7 SWAP5 PUSH1 0x0 SWAP3 PUSH2 0x15E3 JUMPI JUMPDEST POP POP DUP2 PUSH1 0x1 SHL SWAP2 PUSH1 0x0 NOT SWAP1 PUSH1 0x3 SHL SHR NOT AND OR SWAP1 SSTORE PUSH2 0x1420 JUMP JUMPDEST POP ADD SSTORE JUMP JUMPDEST ADD MLOAD SWAP1 POP CODESIZE DUP1 PUSH2 0x15C5 JUMP JUMPDEST SWAP1 PUSH1 0x1F NOT DUP4 AND SWAP2 DUP5 PUSH1 0x0 MSTORE DUP2 PUSH1 0x0 KECCAK256 SWAP3 PUSH1 0x0 JUMPDEST DUP2 DUP2 LT PUSH2 0x1644 JUMPI POP SWAP3 PUSH1 0x1 SWAP3 DUP6 SWAP3 PUSH1 0xC SWAP9 SWAP7 PUSH2 0x15DE SWAP9 SWAP7 LT PUSH2 0x162B JUMPI JUMPDEST POP POP POP DUP2 SHL ADD SWAP1 SSTORE PUSH2 0x1420 JUMP JUMPDEST ADD MLOAD PUSH1 0x0 NOT PUSH1 0xF8 DUP5 PUSH1 0x3 SHL AND SHR NOT AND SWAP1 SSTORE CODESIZE DUP1 DUP1 PUSH2 0x161E JUMP JUMPDEST SWAP3 SWAP4 PUSH1 0x20 PUSH1 0x1 DUP2 SWAP3 DUP8 DUP7 ADD MLOAD DUP2 SSTORE ADD SWAP6 ADD SWAP4 ADD PUSH2 0x1601 JUMP JUMPDEST DUP4 PUSH1 0x0 MSTORE PUSH1 0x20 PUSH1 0x0 KECCAK256 PUSH1 0x1F DUP5 ADD PUSH1 0x5 SHR DUP2 ADD SWAP2 PUSH1 0x20 DUP6 LT PUSH2 0x169A JUMPI JUMPDEST PUSH1 0x1F ADD PUSH1 0x5 SHR ADD SWAP1 JUMPDEST DUP2 DUP2 LT PUSH2 0x168E JUMPI POP PUSH2 0x15A3 JUMP JUMPDEST PUSH1 0x0 DUP2 SSTORE PUSH1 0x1 ADD PUSH2 0x1681 JUMP JUMPDEST SWAP1 SWAP2 POP DUP2 SWAP1 PUSH2 0x1678 JUMP JUMPDEST ADD MLOAD SWAP1 POP CODESIZE DUP1 PUSH2 0x155C JUMP JUMPDEST PUSH1 0x0 DUP6 DUP2 MSTORE DUP3 DUP2 KECCAK256 SWAP4 POP PUSH1 0x1F NOT DUP6 AND SWAP1 JUMPDEST DUP2 DUP2 LT PUSH2 0x16FC JUMPI POP SWAP1 DUP5 PUSH1 0x1 SWAP6 SWAP5 SWAP4 SWAP3 LT PUSH2 0x16E3 JUMPI JUMPDEST POP POP POP DUP2 SHL ADD SWAP1 SSTORE PUSH2 0x1571 JUMP JUMPDEST ADD MLOAD PUSH1 0x0 NOT PUSH1 0xF8 DUP5 PUSH1 0x3 SHL AND SHR NOT AND SWAP1 SSTORE CODESIZE DUP1 DUP1 PUSH2 0x16D6 JUMP JUMPDEST SWAP3 SWAP4 PUSH1 0x20 PUSH1 0x1 DUP2 SWAP3 DUP8 DUP7 ADD MLOAD DUP2 SSTORE ADD SWAP6 ADD SWAP4 ADD PUSH2 0x16C0 JUMP JUMPDEST SWAP1 SWAP2 POP DUP4 PUSH1 0x0 MSTORE PUSH1 0x20 PUSH1 0x0 KECCAK256 PUSH1 0x1F DUP5 ADD PUSH1 0x5 SHR DUP2 ADD SWAP2 PUSH1 0x20 DUP6 LT PUSH2 0x175D JUMPI JUMPDEST SWAP1 PUSH1 0x1F DUP6 SWAP5 SWAP4 SWAP3 ADD PUSH1 0x5 SHR ADD SWAP1 JUMPDEST DUP2 DUP2 LT PUSH2 0x174E JUMPI POP PUSH2 0x1545 JUMP JUMPDEST PUSH1 0x0 DUP2 SSTORE DUP5 SWAP4 POP PUSH1 0x1 ADD PUSH2 0x1741 JUMP JUMPDEST SWAP1 SWAP2 POP DUP2 SWAP1 PUSH2 0x1733 JUMP JUMPDEST PUSH1 0x40 MLOAD PUSH3 0x461BCD PUSH1 0xE5 SHL DUP2 MSTORE PUSH1 0x20 PUSH1 0x4 DUP3 ADD MSTORE PUSH1 0x14 PUSH1 0x24 DUP3 ADD MSTORE PUSH20 0x21B7B73234BA34B7B7103737BA103337BAB73217 PUSH1 0x61 SHL PUSH1 0x44 DUP3 ADD MSTORE PUSH1 0x64 SWAP1 REVERT JUMPDEST SWAP1 PUSH1 0x40 MLOAD SWAP2 DUP3 PUSH1 0x0 DUP3 SLOAD SWAP3 PUSH2 0x17B7 DUP5 PUSH2 0x1470 JUMP JUMPDEST DUP1 DUP5 MSTORE SWAP4 PUSH1 0x1 DUP2 AND SWAP1 DUP2 ISZERO PUSH2 0x1825 JUMPI POP PUSH1 0x1 EQ PUSH2 0x17DE JUMPI JUMPDEST POP PUSH2 0x17DC SWAP3 POP SUB DUP4 PUSH2 0x1143 JUMP JUMPDEST JUMP JUMPDEST SWAP1 POP PUSH1 0x0 SWAP3 SWAP2 SWAP3 MSTORE PUSH1 0x20 PUSH1 0x0 KECCAK256 SWAP1 PUSH1 0x0 SWAP2 JUMPDEST DUP2 DUP4 LT PUSH2 0x1809 JUMPI POP POP SWAP1 PUSH1 0x20 PUSH2 0x17DC SWAP3 DUP3 ADD ADD CODESIZE PUSH2 0x17CF JUMP JUMPDEST PUSH1 0x20 SWAP2 SWAP4 POP DUP1 PUSH1 0x1 SWAP2 SLOAD DUP4 DUP6 DUP10 ADD ADD MSTORE ADD SWAP2 ADD SWAP1 SWAP2 DUP5 SWAP3 PUSH2 0x17F0 JUMP JUMPDEST SWAP1 POP PUSH1 0x20 SWAP3 POP PUSH2 0x17DC SWAP5 SWAP2 POP PUSH1 0xFF NOT AND DUP3 DUP5 ADD MSTORE ISZERO ISZERO PUSH1 0x5 SHL DUP3 ADD ADD CODESIZE PUSH2 0x17CF JUMP JUMPDEST PUSH1 0x0 SWAP1 DUP2 SLOAD SWAP2 JUMPDEST DUP3 DUP2 LT PUSH2 0x1891 JUMPI PUSH1 0x40 MLOAD PUSH3 0x461BCD PUSH1 0xE5 SHL DUP2 MSTORE PUSH1 0x20 PUSH1 0x4 DUP3 ADD MSTORE PUSH1 0x14 PUSH1 0x24 DUP3 ADD MSTORE PUSH20 0x21B7B73234BA34B7B7103737BA103337BAB73217 PUSH1 0x61 SHL PUSH1 0x44 DUP3 ADD MSTORE PUSH1 0x64 SWAP1 REVERT JUMPDEST PUSH2 0x189A DUP2 PUSH2 0x1420 JUMP JUMPDEST POP SLOAD PUSH1 0x80 SHL PUSH1 0x1 PUSH1 0x1 PUSH1 0x80 SHL SUB NOT DUP4 AND SWAP1 PUSH1 0x1 PUSH1 0x1 PUSH1 0x80 SHL SUB NOT AND EQ PUSH2 0x18C2 JUMPI PUSH1 0x1 ADD PUSH2 0x184E JUMP JUMPDEST SWAP1 POP PUSH2 0x18CE SWAP2 POP PUSH2 0x1420 JUMP JUMPDEST POP DUP1 SLOAD SWAP2 PUSH1 0x3 DUP3 ADD SLOAD PUSH1 0x4 DUP4 ADD SLOAD PUSH1 0x5 DUP5 ADD SLOAD PUSH1 0x6 DUP6 ADD SLOAD PUSH1 0x7 DUP7 ADD SLOAD PUSH1 0x8 DUP8 ADD SLOAD SWAP6 PUSH1 0xFF PUSH1 0xB DUP10 ADD SLOAD AND SWAP7 PUSH1 0xC DUP10 ADD SLOAD SWAP2 PUSH1 0xFF DUP12 PUSH1 0x80 SHL SWAP12 PUSH1 0x80 SHR AND SWAP10 PUSH2 0x1918 PUSH1 0x1 DUP3 ADD PUSH2 0x17A3 JUMP JUMPDEST SWAP10 PUSH2 0x1925 PUSH1 0x2 DUP4 ADD PUSH2 0x17A3 JUMP JUMPDEST SWAP10 SWAP9 SWAP8 SWAP7 SWAP6 SWAP5 PUSH1 0xFF DUP6 AND SWAP5 PUSH1 0x78 SHL PUSH1 0x1 PUSH1 0x1 PUSH1 0x80 SHL SUB NOT AND SWAP4 PUSH2 0x1956 PUSH1 0xA PUSH2 0x194F PUSH1 0x9 DUP8 ADD PUSH2 0x17A3 JUMP JUMPDEST SWAP6 ADD PUSH2 0x17A3 JUMP JUMPDEST SWAP3 SWAP2 SWAP1 JUMP JUMPDEST PUSH1 0x0 NOT DUP2 EQ PUSH2 0x196A JUMPI PUSH1 0x1 ADD SWAP1 JUMP JUMPDEST PUSH4 0x4E487B71 PUSH1 0xE0 SHL PUSH1 0x0 MSTORE PUSH1 0x11 PUSH1 0x4 MSTORE PUSH1 0x24 PUSH1 0x0 REVERT JUMPDEST PUSH1 0x1 PUSH1 0x1 PUSH1 0x40 SHL SUB DUP2 GT PUSH2 0x580 JUMPI PUSH1 0x5 SHL PUSH1 0x20 ADD SWAP1 JUMP JUMPDEST SWAP1 PUSH2 0x19A1 DUP3 PUSH2 0x1980 JUMP JUMPDEST PUSH2 0x19AE PUSH1 0x40 MLOAD SWAP2 DUP3 PUSH2 0x1143 JUMP JUMPDEST DUP3 DUP2 MSTORE DUP1 SWAP3 PUSH2 0x19BF PUSH1 0x1F NOT SWAP2 PUSH2 0x1980 JUMP JUMPDEST ADD SWAP1 PUSH1 0x20 CALLDATASIZE SWAP2 ADD CALLDATACOPY JUMP JUMPDEST SWAP1 PUSH2 0x19D3 DUP3 PUSH2 0x1980 JUMP JUMPDEST PUSH2 0x19E0 PUSH1 0x40 MLOAD SWAP2 DUP3 PUSH2 0x1143 JUMP JUMPDEST DUP3 DUP2 MSTORE DUP1 SWAP3 PUSH2 0x19F1 PUSH1 0x1F NOT SWAP2 PUSH2 0x1980 JUMP JUMPDEST ADD SWAP1 PUSH1 0x0 JUMPDEST DUP3 DUP2 LT PUSH2 0x1A02 JUMPI POP POP POP JUMP JUMPDEST DUP1 PUSH1 0x60 PUSH1 0x20 DUP1 SWAP4 DUP6 ADD ADD MSTORE ADD PUSH2 0x19F6 JUMP JUMPDEST DUP1 MLOAD DUP3 LT ISZERO PUSH2 0x145A JUMPI PUSH1 0x20 SWAP2 PUSH1 0x5 SHL ADD ADD SWAP1 JUMP JUMPDEST SWAP3 SWAP4 SWAP2 SWAP1 PUSH1 0x0 JUMPDEST PUSH1 0x0 SLOAD DUP2 LT ISZERO PUSH2 0x1767 JUMPI PUSH2 0x1A41 DUP2 PUSH2 0x1420 JUMP JUMPDEST POP SLOAD PUSH1 0x80 SHL PUSH1 0x1 PUSH1 0x1 PUSH1 0x80 SHL SUB NOT DUP7 AND SWAP1 PUSH1 0x1 PUSH1 0x1 PUSH1 0x80 SHL SUB NOT AND EQ PUSH2 0x1A69 JUMPI PUSH1 0x1 ADD PUSH2 0x1A2E JUMP JUMPDEST SWAP3 SWAP4 POP PUSH2 0x1AA1 SWAP1 PUSH1 0x8 PUSH2 0x1A7B DUP6 PUSH2 0x1420 JUMP JUMPDEST POP ADD SWAP1 PUSH2 0x100 PUSH1 0x1 PUSH1 0x88 SHL SUB DUP1 DUP4 SLOAD SWAP3 PUSH1 0x78 SHR AND AND SWAP1 PUSH2 0x100 PUSH1 0x1 PUSH1 0x88 SHL SUB NOT AND OR SWAP1 SSTORE JUMP JUMPDEST PUSH1 0x9 PUSH2 0x1AAC DUP4 PUSH2 0x1420 JUMP JUMPDEST POP ADD SWAP1 DUP1 MLOAD SWAP1 PUSH1 0x1 PUSH1 0x1 PUSH1 0x40 SHL SUB DUP3 GT PUSH2 0x580 JUMPI PUSH2 0x1ACA DUP4 SLOAD PUSH2 0x1470 JUMP JUMPDEST PUSH1 0x1F DUP2 GT PUSH2 0x1C6B JUMPI JUMPDEST POP PUSH1 0x20 SWAP1 PUSH1 0x1F DUP4 GT PUSH1 0x1 EQ PUSH2 0x1C17 JUMPI SWAP2 DUP1 PUSH2 0x1B0D SWAP5 SWAP3 PUSH1 0xA SWAP7 SWAP5 PUSH1 0x0 SWAP3 PUSH2 0x15E3 JUMPI POP POP DUP2 PUSH1 0x1 SHL SWAP2 PUSH1 0x0 NOT SWAP1 PUSH1 0x3 SHL SHR NOT AND OR SWAP1 SSTORE PUSH2 0x1420 JUMP JUMPDEST POP ADD DUP3 MLOAD PUSH1 0x1 PUSH1 0x1 PUSH1 0x40 SHL SUB DUP2 GT PUSH2 0x580 JUMPI PUSH2 0x1B29 DUP3 SLOAD PUSH2 0x1470 JUMP JUMPDEST PUSH1 0x1F DUP2 GT PUSH2 0x1BCF JUMPI JUMPDEST POP PUSH1 0x20 PUSH1 0x1F DUP3 GT PUSH1 0x1 EQ PUSH2 0x1B6D JUMPI DUP2 SWAP3 SWAP4 SWAP5 PUSH1 0x0 SWAP3 PUSH2 0x1B62 JUMPI JUMPDEST POP POP DUP2 PUSH1 0x1 SHL SWAP2 PUSH1 0x0 NOT SWAP1 PUSH1 0x3 SHL SHR NOT AND OR SWAP1 SSTORE JUMP JUMPDEST ADD MLOAD SWAP1 POP CODESIZE DUP1 PUSH2 0x1B4C JUMP JUMPDEST PUSH1 0x1F NOT DUP3 AND SWAP1 DUP4 PUSH1 0x0 MSTORE DUP1 PUSH1 0x0 KECCAK256 SWAP2 PUSH1 0x0 JUMPDEST DUP2 DUP2 LT PUSH2 0x1BB7 JUMPI POP SWAP6 DUP4 PUSH1 0x1 SWAP6 SWAP7 SWAP8 LT PUSH2 0x1B9E JUMPI JUMPDEST POP POP POP DUP2 SHL ADD SWAP1 SSTORE JUMP JUMPDEST ADD MLOAD PUSH1 0x0 NOT PUSH1 0xF8 DUP5 PUSH1 0x3 SHL AND SHR NOT AND SWAP1 SSTORE CODESIZE DUP1 DUP1 PUSH2 0x1B94 JUMP JUMPDEST SWAP2 SWAP3 PUSH1 0x20 PUSH1 0x1 DUP2 SWAP3 DUP7 DUP12 ADD MLOAD DUP2 SSTORE ADD SWAP5 ADD SWAP3 ADD PUSH2 0x1B7F JUMP JUMPDEST DUP3 PUSH1 0x0 MSTORE PUSH1 0x20 PUSH1 0x0 KECCAK256 PUSH1 0x1F DUP4 ADD PUSH1 0x5 SHR DUP2 ADD SWAP2 PUSH1 0x20 DUP5 LT PUSH2 0x1C0D JUMPI JUMPDEST PUSH1 0x1F ADD PUSH1 0x5 SHR ADD SWAP1 JUMPDEST DUP2 DUP2 LT PUSH2 0x1C01 JUMPI POP PUSH2 0x1B32 JUMP JUMPDEST PUSH1 0x0 DUP2 SSTORE PUSH1 0x1 ADD PUSH2 0x1BF4 JUMP JUMPDEST SWAP1 SWAP2 POP DUP2 SWAP1 PUSH2 0x1BEB JUMP JUMPDEST SWAP1 PUSH1 0x1F NOT DUP4 AND SWAP2 DUP5 PUSH1 0x0 MSTORE DUP2 PUSH1 0x0 KECCAK256 SWAP3 PUSH1 0x0 JUMPDEST DUP2 DUP2 LT PUSH2 0x1C53 JUMPI POP SWAP3 PUSH1 0x1 SWAP3 DUP6 SWAP3 PUSH1 0xA SWAP9 SWAP7 PUSH2 0x1B0D SWAP9 SWAP7 LT PUSH2 0x162B JUMPI POP POP POP DUP2 SHL ADD SWAP1 SSTORE PUSH2 0x1420 JUMP JUMPDEST SWAP3 SWAP4 PUSH1 0x20 PUSH1 0x1 DUP2 SWAP3 DUP8 DUP7 ADD MLOAD DUP2 SSTORE ADD SWAP6 ADD SWAP4 ADD PUSH2 0x1C2A JUMP JUMPDEST DUP4 PUSH1 0x0 MSTORE PUSH1 0x20 PUSH1 0x0 KECCAK256 PUSH1 0x1F DUP5 ADD PUSH1 0x5 SHR DUP2 ADD SWAP2 PUSH1 0x20 DUP6 LT PUSH2 0x1CA9 JUMPI JUMPDEST PUSH1 0x1F ADD PUSH1 0x5 SHR ADD SWAP1 JUMPDEST DUP2 DUP2 LT PUSH2 0x1C9D JUMPI POP PUSH2 0x1AD3 JUMP JUMPDEST PUSH1 0x0 DUP2 SSTORE PUSH1 0x1 ADD PUSH2 0x1C90 JUMP JUMPDEST SWAP1 SWAP2 POP DUP2 SWAP1 PUSH2 0x1C87 JUMP INVALID LOG2 PUSH5 0x6970667358 0x22 SLT KECCAK256 SWAP8 ADDRESS 0xA9 0x2C 0xE8 0x2C 0xA6 DUP14 SWAP10 EXTCODEHASH JUMPI PUSH28 0xDEC7D9F3602C9902B1A44E1FD2D45BC09B4CDC6964736F6C63430008 SHR STOP CALLER "},"methodIdentifiers":{"addCondition(bytes16,bool,string,string,uint256,uint256,uint256,uint256,uint256,bool,bytes16,string,string,bool,uint256)":"ab9c5e10","getAllConditions()":"9615b922","getAllInactiveConditions()":"5bec3015","getConditionById(bytes16)":"3265023c","updateCondition(bytes16,bool,uint256,string,string)":"27a9789d","updateDataConfirmedById(bytes16,bytes16,string,string)":"d2a390c9"}}}}}