{
  "_format": "hh-sol-artifact-1",
  "contractName": "Users",
  "sourceName": "contracts/Users.sol",
  "abi": [
    {
      "inputs": [
        {
          "internalType": "bytes16",
          "name": "_id",
          "type": "bytes16"
        },
        {
          "internalType": "bytes16",
          "name": "_institutionId",
          "type": "bytes16"
        },
        {
          "internalType": "bytes16",
          "name": "_funderContractId",
          "type": "bytes16"
        },
        {
          "internalType": "bytes16",
          "name": "_bankAccountId",
          "type": "bytes16"
        },
        {
          "internalType": "string",
          "name": "_studentNumber",
          "type": "string"
        },
        {
          "internalType": "string",
          "name": "_name",
          "type": "string"
        },
        {
          "internalType": "string",
          "name": "_email",
          "type": "string"
        },
        {
          "internalType": "bool",
          "name": "_isActive",
          "type": "bool"
        },
        {
          "internalType": "bool",
          "name": "_isChangeConfirmed",
          "type": "bool"
        },
        {
          "internalType": "string",
          "name": "_modifiedBy",
          "type": "string"
        },
        {
          "internalType": "string",
          "name": "_updatedAt",
          "type": "string"
        },
        {
          "internalType": "string",
          "name": "_courseName",
          "type": "string"
        },
        {
          "internalType": "string",
          "name": "_role",
          "type": "string"
        }
      ],
      "name": "addUser",
      "outputs": [],
      "stateMutability": "nonpayable",
      "type": "function"
    },
    {
      "inputs": [],
      "name": "getAllUsers",
      "outputs": [
        {
          "internalType": "bytes16[]",
          "name": "ids",
          "type": "bytes16[]"
        },
        {
          "internalType": "bytes16[]",
          "name": "institutionIds",
          "type": "bytes16[]"
        },
        {
          "internalType": "bytes16[]",
          "name": "funderContractIds",
          "type": "bytes16[]"
        },
        {
          "internalType": "bytes16[]",
          "name": "bankAccountIds",
          "type": "bytes16[]"
        },
        {
          "internalType": "string[]",
          "name": "studentNumbers",
          "type": "string[]"
        },
        {
          "internalType": "string[]",
          "name": "names",
          "type": "string[]"
        },
        {
          "internalType": "string[]",
          "name": "emails",
          "type": "string[]"
        },
        {
          "internalType": "bool[]",
          "name": "isActives",
          "type": "bool[]"
        },
        {
          "internalType": "bool[]",
          "name": "isChangeConfirmeds",
          "type": "bool[]"
        },
        {
          "internalType": "string[]",
          "name": "modifiedBys",
          "type": "string[]"
        },
        {
          "internalType": "string[]",
          "name": "updatedAts",
          "type": "string[]"
        },
        {
          "internalType": "string[]",
          "name": "courseNames",
          "type": "string[]"
        },
        {
          "internalType": "string[]",
          "name": "roles",
          "type": "string[]"
        }
      ],
      "stateMutability": "view",
      "type": "function"
    },
    {
      "inputs": [
        {
          "internalType": "string",
          "name": "_name",
          "type": "string"
        }
      ],
      "name": "getUserByName",
      "outputs": [
        {
          "internalType": "bytes16",
          "name": "id",
          "type": "bytes16"
        },
        {
          "internalType": "bytes16",
          "name": "institutionId",
          "type": "bytes16"
        },
        {
          "internalType": "bytes16",
          "name": "funderContractId",
          "type": "bytes16"
        },
        {
          "internalType": "bytes16",
          "name": "bankAccountId",
          "type": "bytes16"
        },
        {
          "internalType": "string",
          "name": "studentNumber",
          "type": "string"
        },
        {
          "internalType": "string",
          "name": "name",
          "type": "string"
        },
        {
          "internalType": "string",
          "name": "email",
          "type": "string"
        },
        {
          "internalType": "bool",
          "name": "isActive",
          "type": "bool"
        },
        {
          "internalType": "bool",
          "name": "isChangeConfirmed",
          "type": "bool"
        },
        {
          "internalType": "string",
          "name": "modifiedBy",
          "type": "string"
        },
        {
          "internalType": "string",
          "name": "updatedAt",
          "type": "string"
        },
        {
          "internalType": "string",
          "name": "courseName",
          "type": "string"
        },
        {
          "internalType": "string",
          "name": "role",
          "type": "string"
        }
      ],
      "stateMutability": "view",
      "type": "function"
    },
    {
      "inputs": [
        {
          "internalType": "string",
          "name": "_studentNumber",
          "type": "string"
        }
      ],
      "name": "getUserByStudentNumber",
      "outputs": [
        {
          "internalType": "bytes16",
          "name": "id",
          "type": "bytes16"
        },
        {
          "internalType": "bytes16",
          "name": "institutionId",
          "type": "bytes16"
        },
        {
          "internalType": "bytes16",
          "name": "funderContractId",
          "type": "bytes16"
        },
        {
          "internalType": "bytes16",
          "name": "bankAccountId",
          "type": "bytes16"
        },
        {
          "internalType": "string",
          "name": "studentNumber",
          "type": "string"
        },
        {
          "internalType": "string",
          "name": "name",
          "type": "string"
        },
        {
          "internalType": "string",
          "name": "email",
          "type": "string"
        },
        {
          "internalType": "bool",
          "name": "isActive",
          "type": "bool"
        },
        {
          "internalType": "bool",
          "name": "isChangeConfirmed",
          "type": "bool"
        },
        {
          "internalType": "string",
          "name": "modifiedBy",
          "type": "string"
        },
        {
          "internalType": "string",
          "name": "updatedAt",
          "type": "string"
        },
        {
          "internalType": "string",
          "name": "courseName",
          "type": "string"
        },
        {
          "internalType": "string",
          "name": "role",
          "type": "string"
        }
      ],
      "stateMutability": "view",
      "type": "function"
    },
    {
      "inputs": [
        {
          "internalType": "bytes16",
          "name": "_id",
          "type": "bytes16"
        },
        {
          "internalType": "bytes16",
          "name": "_institutionId",
          "type": "bytes16"
        },
        {
          "internalType": "bytes16",
          "name": "_funderContractId",
          "type": "bytes16"
        },
        {
          "internalType": "bytes16",
          "name": "_bankAccountId",
          "type": "bytes16"
        },
        {
          "internalType": "string",
          "name": "_studentNumber",
          "type": "string"
        },
        {
          "internalType": "string",
          "name": "_name",
          "type": "string"
        },
        {
          "internalType": "string",
          "name": "_email",
          "type": "string"
        },
        {
          "internalType": "bool",
          "name": "_isActive",
          "type": "bool"
        },
        {
          "internalType": "bool",
          "name": "_isChangeConfirmed",
          "type": "bool"
        },
        {
          "internalType": "string",
          "name": "_modifiedBy",
          "type": "string"
        },
        {
          "internalType": "string",
          "name": "_updatedAt",
          "type": "string"
        },
        {
          "internalType": "string",
          "name": "_courseName",
          "type": "string"
        },
        {
          "internalType": "string",
          "name": "_role",
          "type": "string"
        }
      ],
      "name": "updateUser",
      "outputs": [],
      "stateMutability": "nonpayable",
      "type": "function"
    },
    {
      "inputs": [
        {
          "internalType": "string",
          "name": "_studentNumber",
          "type": "string"
        },
        {
          "internalType": "bytes16",
          "name": "_institutionId",
          "type": "bytes16"
        },
        {
          "internalType": "bytes16",
          "name": "_funderContractId",
          "type": "bytes16"
        },
        {
          "internalType": "bytes16",
          "name": "_bankAccountId",
          "type": "bytes16"
        },
        {
          "internalType": "string",
          "name": "_name",
          "type": "string"
        },
        {
          "internalType": "bool",
          "name": "_isActive",
          "type": "bool"
        },
        {
          "internalType": "string",
          "name": "_modifiedBy",
          "type": "string"
        },
        {
          "internalType": "string",
          "name": "_updatedAt",
          "type": "string"
        },
        {
          "internalType": "string",
          "name": "_courseName",
          "type": "string"
        },
        {
          "internalType": "string",
          "name": "_role",
          "type": "string"
        }
      ],
      "name": "updateUserByStudentNumber",
      "outputs": [],
      "stateMutability": "nonpayable",
      "type": "function"
    }
  ],
  "bytecode": "0x60808060405234601557612712908161001b8239f35b600080fdfe610200604052600436101561001357600080fd5b60003560e01c80631c7b327014610fb55780634bff500914610f5e57806353dc393b14610e3a578063dc4db42a14610473578063e2842d791461008c5763eb6f9c3e1461005f57600080fd5b34610087576100856100703661118a565b9b9a909a999199989298979397969496611e58565b005b600080fd5b34610087576000366003190112610087576000546100a981611dc8565b6100b282611dc8565b6101e0526100bf82611dc8565b916100c981611dc8565b906100d381611dfa565b60e0526100df81611dfa565b610100526100ec81611dfa565b610140526100f981611dc8565b6101805261010681611dc8565b6101605261011381611dfa565b6101a05261012081611dfa565b6101c05261012d81611dfa565b6101205261013a81611dfa565b60c052600060a0525b8060a0511061026b57506040519283926101a084526101a08401610166916112e2565b83810360208501526101e0519061017c916112e2565b838103604085015261018d916112e2565b828103606084015261019e916112e2565b818103608083015260e051906101b391611320565b81810360a083015261010051906101c991611320565b81810360c083015261014051906101df91611320565b81810360e083015261018051906101f591611379565b818103610100830152610160519061020c91611379565b8181036101208301526101a0519061022391611320565b8181036101408301526101c0519061023a91611320565b818103610160830152610120519061025191611320565b81810361018083015260c0519061026791611320565b0390f35b61027660a0516113af565b90608052506080515461028b60a05185611e44565b6001600160801b03198260801b1690526001600160801b0319166102b460a0516101e051611e44565b52600160805101546102c860a05186611e44565b6001600160801b03198260801b1690526001600160801b0319166102ee60a05184611e44565b526102fd6002608051016114a7565b61030b60a05160e051611e44565b5261031a60a05160e051611e44565b506103296003608051016114a7565b61033860a05161010051611e44565b5261034860a05161010051611e44565b506103576004608051016114a7565b61036660a05161014051611e44565b5261037660a05161014051611e44565b506005608051015461038d60a05161018051611e44565b60ff82161515905260ff6103a660a05161016051611e44565b9160081c16151590526103bd6006608051016114a7565b6103cc60a0516101a051611e44565b526103dc60a0516101a051611e44565b506103eb6007608051016114a7565b6103fa60a0516101c051611e44565b5261040a60a0516101c051611e44565b506104196008608051016114a7565b61042860a05161012051611e44565b5261043860a05161012051611e44565b506104476009608051016114a7565b61045560a05160c051611e44565b5261046460a05160c051611e44565b50600160a0510160a052610143565b34610087576104813661118a565b9b6001600160801b039b9a91999b9892989793979694959619169a8b6000526001602052604060002054610dbd576040519a6101a08c018c81106001600160401b03821117610907576040528c8c5260208c01906001600160801b031916815260408c01926001600160801b031916835260608c01916001600160801b031916825260808c0193845260a08c0194855260c08c0195865260e08c0197151588526101008c0196151587526101208c019889526101408c01998a526101608c019a8b526101808c019d8e52600054680100000000000000008110156109075780600161056f92016000556113af565b9c909c610da7575190516001600160801b0319908116608092831c178d5592519151909216911c1760018a015551805160028a01916001600160401b0382116109075781906105be84546113ff565b601f8111610d54575b50602090601f8311600114610cef57600092610ce4575b50508160011b916000199060031b1c19161790555b51805160038901916001600160401b03821161090757819061061584546113ff565b601f8111610c91575b50602090601f8311600114610c2c57600092610c21575b50508160011b916000199060031b1c19161790555b51805160048801916001600160401b0382116109075761066a83546113ff565b601f8111610bd9575b50602090601f8311600114610b6c576106dc959493929160009183610b61575b50508160011b916000199060031b1c19161790555b6106c56005880192511515839060ff801983541691151516179055565b51815461ff00191690151560081b61ff0016179055565b51805160068501916001600160401b0382116109075781906106fe84546113ff565b601f8111610b0e575b50602090601f8311600114610aa957600092610a9e575b50508160011b916000199060031b1c19161790555b51805160078401916001600160401b03821161090757819061075584546113ff565b601f8111610a4b575b50602090601f83116001146109e6576000926109db575b50508160011b916000199060031b1c19161790555b51805160088301916001600160401b038211610907576107aa83546113ff565b601f8111610993575b50602090601f8311600114610928576009949392916000918361091d575b50508160011b916000199060031b1c19161790555b0191519182516001600160401b0381116109075761080482546113ff565b601f81116108bf575b506020601f821160011461085a578192939460009261084f575b50508160011b916000199060031b1c19161790555b6000805491815260016020526040902055005b015190508480610827565b601f1982169083600052806000209160005b8181106108a75750958360019596971061088e575b505050811b01905561083c565b015160001960f88460031b161c19169055848080610881565b9192602060018192868b01518155019401920161086c565b826000526020600020601f830160051c810191602084106108fd575b601f0160051c01905b8181106108f1575061080d565b600081556001016108e4565b90915081906108db565b634e487b7160e01b600052604160045260246000fd5b0151905087806107d1565b90601f1983169184600052816000209260005b81811061097b575091600193918560099897969410610962575b505050811b0190556107e6565b015160001960f88460031b161c19169055878080610955565b9293602060018192878601518155019501930161093b565b836000526020600020601f840160051c810191602085106109d1575b601f0160051c01905b8181106109c557506107b3565b600081556001016109b8565b90915081906109af565b015190508780610775565b60008581528281209350601f198516905b818110610a335750908460019594939210610a1a575b505050811b01905561078a565b015160001960f88460031b161c19169055878080610a0d565b929360206001819287860151815501950193016109f7565b909150836000526020600020601f840160051c81019160208510610a94575b90601f859493920160051c01905b818110610a85575061075e565b60008155849350600101610a78565b9091508190610a6a565b01519050888061071e565b60008581528281209350601f198516905b818110610af65750908460019594939210610add575b505050811b019055610733565b015160001960f88460031b161c19169055888080610ad0565b92936020600181928786015181550195019301610aba565b909150836000526020600020601f840160051c81019160208510610b57575b90601f859493920160051c01905b818110610b485750610707565b60008155849350600101610b3b565b9091508190610b2d565b015190508c80610693565b90601f1983169184600052816000209260005b818110610bc157509160019391856106dc999897969410610ba8575b505050811b0190556106a8565b015160001960f88460031b161c191690558c8080610b9b565b92936020600181928786015181550195019301610b7f565b836000526020600020601f840160051c81019160208510610c17575b601f0160051c01905b818110610c0b5750610673565b60008155600101610bfe565b9091508190610bf5565b015190508c80610635565b60008581528281209350601f198516905b818110610c795750908460019594939210610c60575b505050811b01905561064a565b015160001960f88460031b161c191690558c8080610c53565b92936020600181928786015181550195019301610c3d565b909150836000526020600020601f840160051c81019160208510610cda575b90601f859493920160051c01905b818110610ccb575061061e565b60008155849350600101610cbe565b9091508190610cb0565b015190508d806105de565b60008581528281209350601f198516905b818110610d3c5750908460019594939210610d23575b505050811b0190556105f3565b015160001960f88460031b161c191690558d8080610d16565b92936020600181928786015181550195019301610d00565b909150836000526020600020601f840160051c81019160208510610d9d575b90601f859493920160051c01905b818110610d8e57506105c7565b60008155849350600101610d81565b9091508190610d73565b634e487b7160e01b600052600060045260246000fd5b60405162461bcd60e51b815260206004820152604960248201527f436f6e666c696374204572726f7220284854545020343039292e20557365722060448201527f616c7265616479206578697374732e20506c6561736520636865636b20746865606482015268103ab9b2b91024a21760b91b608482015260a490fd5b3461008757610140366003190112610087576004356001600160401b03811161008757610e6b903690600401611011565b602435906001600160801b031982168203610087576044356001600160801b031981168103610087576064356001600160801b031981168103610087576084356001600160401b03811161008757610ec7903690600401611011565b60a43580151581036100875760c4356001600160401b03811161008757610ef2903690600401611011565b9160e4356001600160401b03811161008757610f12903690600401611011565b93610104356001600160401b03811161008757610f33903690600401611011565b9561012435986001600160401b038a1161008757610f586100859a3690600401611011565b9861171c565b34610087576020366003190112610087576004356001600160401b03811161008757610f99610f94610267923690600401611011565b6116b4565b9960409d9b9d999199989298979397969496519d8e9d8e6110af565b34610087576020366003190112610087576004356001600160401b03811161008757610f99610feb610267923690600401611011565b611575565b90601f801991011681019081106001600160401b0382111761090757604052565b81601f82011215610087578035906001600160401b0382116109075760405192611045601f8401601f191660200185610ff0565b8284526020838301011161008757816000926020809301838601378301015290565b60005b83811061107a5750506000910152565b818101518382015260200161106a565b906020916110a381518092818552858086019101611067565b601f01601f1916010190565b9b98928c61115a976111879f9d99936111699b986111789e9861112e9561113c98611120946001600160801b03191687526001600160801b03191660208701526001600160801b03191660408601526001600160801b03191660608501526101a060808501526101a084019061108a565b9160a081840391015261108a565b8c810360c08e01529061108a565b92151560e08b015215156101008a01528882036101208a015261108a565b9086820361014088015261108a565b9084820361016086015261108a565b9161018081840391015261108a565b90565b6101a0600319820112610087576004356001600160801b03198116810361008757916024356001600160801b03198116810361008757916044356001600160801b03198116810361008757916064356001600160801b03198116810361008757916084356001600160401b038111610087578161120991600401611011565b9160a4356001600160401b038111610087578261122891600401611011565b9160c4356001600160401b038111610087578161124791600401611011565b9160e435801515810361008757916101043580151581036100875791610124356001600160401b038111610087578261128291600401611011565b91610144356001600160401b03811161008757816112a291600401611011565b91610164356001600160401b03811161008757826112c291600401611011565b9161018435906001600160401b0382116100875761118791600401611011565b906020808351928381520192019060005b8181106113005750505090565b82516001600160801b0319168452602093840193909201916001016112f3565b9080602083519182815201916020808360051b8301019401926000915b83831061134c57505050505090565b909192939460208061136a600193601f19868203018752895161108a565b9701930193019193929061133d565b906020808351928381520192019060005b8181106113975750505090565b8251151584526020938401939092019160010161138a565b6000548110156113e9576000808052600a919091027f290decd9548b62a8d60345a988386fc84ba6bc95484008f6362f93160ef3e5630191565b634e487b7160e01b600052603260045260246000fd5b90600182811c9216801561142f575b602083101461141957565b634e487b7160e01b600052602260045260246000fd5b91607f169161140e565b60009291815491611449836113ff565b9260018116908115611494575060011461146257505050565b909192935060005260206000206000905b8382106114805750500190565b600181602092548486015201910190611473565b60ff191683525050811515909102019150565b90604051918260008254926114bb846113ff565b808452936001811690811561152957506001146114e2575b506114e092500383610ff0565b565b90506000929192526020600020906000915b81831061150d5750509060206114e092820101386114d3565b60209193508060019154838589010152019101909184926114f4565b9050602092506114e094915060ff191682840152151560051b820101386114d3565b60609060208152600f60208201526e2ab9b2b9103737ba103337bab7321760891b60408201520190565b6000908154915b8281106115a05760405162461bcd60e51b81528061159c6004820161154b565b0390fd5b60026115c56115d36115b1846113af565b506040519283916020830195869101611439565b03601f198101835282610ff0565b519020604051602081019061160460208287516115f38187858c01611067565b81010301601f198101835282610ff0565b519020146116145760010161157c565b905061162091506113af565b509081549160018101549060058101548460801b946001600160801b031916938360801b936001600160801b0319169261165c600282016114a7565b92611669600383016114a7565b92611676600484016114a7565b9260ff8084169360081c169161168e600683016114a7565b9161169b600782016114a7565b9161118760096116ad600885016114a7565b93016114a7565b6000908154915b8281106116db5760405162461bcd60e51b81528061159c6004820161154b565b60036115c56116ec6115b1846113af565b519020604051602081019061170c60208287516115f38187858c01611067565b51902014611614576001016116bb565b9899979695949392919060005b600054811015611d985760026115c56117446115b1846113af565b5190208b604051611765602082816115f38183019687815193849201611067565b5190201461177557600101611729565b989950611781896113af565b50906001600160801b03825491811916911617905560016117a1896113af565b50019060801c6001600160801b031982541617905560016117c1886113af565b5001906001600160801b03825491811916911617905560036117e2876113af565b5001908051906001600160401b0382116109075761180083546113ff565b601f8111611d50575b50602090601f8311600114611ce45761185b9493929160009183611cd9575b50508160011b916000199060031b1c19161790555b6005611848876113af565b50019060ff801983541691151516179055565b6006611866856113af565b5001908051906001600160401b03821161090757819061188684546113ff565b601f8111611c86575b50602090601f8311600114611c2157600092611c16575b50508160011b916000199060031b1c19161790555b60076118c6846113af565b5001908051906001600160401b0382116109075781906118e684546113ff565b601f8111611bc3575b50602090601f8311600114611b5e57600092611b53575b50508160011b916000199060031b1c19161790555b6008611926836113af565b5001908051906001600160401b0382116109075761194483546113ff565b601f8111611b0b575b50602090601f8311600114611a9d579180611988949260099694600092611a92575b50508160011b916000199060031b1c19161790556113af565b500182516001600160401b038111610907576119a482546113ff565b601f8111611a4a575b506020601f82116001146119e857819293946000926119dd575b50508160011b916000199060031b1c1916179055565b0151905038806119c7565b601f1982169083600052806000209160005b818110611a3257509583600195969710611a19575b505050811b019055565b015160001960f88460031b161c19169055388080611a0f565b9192602060018192868b0151815501940192016119fa565b826000526020600020601f830160051c81019160208410611a88575b601f0160051c01905b818110611a7c57506119ad565b60008155600101611a6f565b9091508190611a66565b01519050388061196f565b90601f1983169184600052816000209260005b818110611af3575092600192859260099896611988989610611ada575b505050811b0190556113af565b015160001960f88460031b161c19169055388080611acd565b92936020600181928786015181550195019301611ab0565b836000526020600020601f840160051c81019160208510611b49575b601f0160051c01905b818110611b3d575061194d565b60008155600101611b30565b9091508190611b27565b015190503880611906565b60008581528281209350601f198516905b818110611bab5750908460019594939210611b92575b505050811b01905561191b565b015160001960f88460031b161c19169055388080611b85565b92936020600181928786015181550195019301611b6f565b909150836000526020600020601f840160051c81019160208510611c0c575b90601f859493920160051c01905b818110611bfd57506118ef565b60008155849350600101611bf0565b9091508190611be2565b0151905038806118a6565b60008581528281209350601f198516905b818110611c6e5750908460019594939210611c55575b505050811b0190556118bb565b015160001960f88460031b161c19169055388080611c48565b92936020600181928786015181550195019301611c32565b909150836000526020600020601f840160051c81019160208510611ccf575b90601f859493920160051c01905b818110611cc0575061188f565b60008155849350600101611cb3565b9091508190611ca5565b015190503880611828565b90601f1983169184600052816000209260005b818110611d38575091600193918561185b9897969410611d1f575b505050811b01905561183d565b015160001960f88460031b161c19169055388080611d12565b92936020600181928786015181550195019301611cf7565b836000526020600020601f840160051c81019160208510611d8e575b601f0160051c01905b818110611d825750611809565b60008155600101611d75565b9091508190611d6c565b60405162461bcd60e51b81528061159c6004820161154b565b6001600160401b0381116109075760051b60200190565b90611dd282611db1565b611ddf6040519182610ff0565b8281528092611df0601f1991611db1565b0190602036910137565b90611e0482611db1565b611e116040519182610ff0565b8281528092611e22601f1991611db1565b019060005b828110611e3357505050565b806060602080938501015201611e27565b80518210156113e95760209160051b010190565b9b9c9a9998979695949392919060005b600054811015611d98578d611e7c826113af565b505460801b906001600160801b031916906001600160801b03191614611ea457600101611e68565b9b9c50611eb08c6113af565b50906001600160801b0382549181191691161790556001611ed08c6113af565b50019060801c6001600160801b03198254161790556001611ef08b6113af565b5001906001600160801b0382549181191691161790556002611f118a6113af565b5001908051906001600160401b038211610907578190611f3184546113ff565b601f8111612689575b50602090601f831160011461262457600092612619575b50508160011b916000199060031b1c19161790555b6003611f71896113af565b5001908051906001600160401b038211610907578190611f9184546113ff565b601f81116125c6575b50602090601f831160011461256157600092612556575b50508160011b916000199060031b1c19161790555b6004611fd1886113af565b5001908051906001600160401b03821161090757611fef83546113ff565b601f811161250e575b50602090601f831160011461249e57918061203c9492612061979694600092612493575b50508160011b916000199060031b1c19161790555b6005611848896113af565b6005612047876113af565b50019061ff00825491151560081b169061ff001916179055565b600661206c856113af565b5001908051906001600160401b03821161090757819061208c84546113ff565b601f8111612440575b50602090601f83116001146123db576000926123d0575b50508160011b916000199060031b1c19161790555b60076120cc846113af565b5001908051906001600160401b0382116109075781906120ec84546113ff565b601f811161237d575b50602090601f83116001146123185760009261230d575b50508160011b916000199060031b1c19161790555b600861212c836113af565b5001908051906001600160401b0382116109075761214a83546113ff565b601f81116122c5575b50602090601f831160011461227157918061218d949260099694600092611a925750508160011b916000199060031b1c19161790556113af565b500182516001600160401b038111610907576121a982546113ff565b601f8111612229575b506020601f82116001146121e157819293946000926119dd5750508160011b916000199060031b1c1916179055565b601f1982169083600052806000209160005b81811061221157509583600195969710611a1957505050811b019055565b9192602060018192868b0151815501940192016121f3565b826000526020600020601f830160051c81019160208410612267575b601f0160051c01905b81811061225b57506121b2565b6000815560010161224e565b9091508190612245565b90601f1983169184600052816000209260005b8181106122ad57509260019285926009989661218d989610611ada57505050811b0190556113af565b92936020600181928786015181550195019301612284565b836000526020600020601f840160051c81019160208510612303575b601f0160051c01905b8181106122f75750612153565b600081556001016122ea565b90915081906122e1565b01519050388061210c565b60008581528281209350601f198516905b818110612365575090846001959493921061234c575b505050811b019055612121565b015160001960f88460031b161c1916905538808061233f565b92936020600181928786015181550195019301612329565b909150836000526020600020601f840160051c810191602085106123c6575b90601f859493920160051c01905b8181106123b757506120f5565b600081558493506001016123aa565b909150819061239c565b0151905038806120ac565b60008581528281209350601f198516905b818110612428575090846001959493921061240f575b505050811b0190556120c1565b015160001960f88460031b161c19169055388080612402565b929360206001819287860151815501950193016123ec565b909150836000526020600020601f840160051c81019160208510612489575b90601f859493920160051c01905b81811061247a5750612095565b6000815584935060010161246d565b909150819061245f565b01519050388061201c565b90601f1983169184600052816000209260005b8181106124f6575092600192859261206199989661203c9896106124dd575b505050811b019055612031565b015160001960f88460031b161c191690553880806124d0565b929360206001819287860151815501950193016124b1565b836000526020600020601f840160051c8101916020851061254c575b601f0160051c01905b8181106125405750611ff8565b60008155600101612533565b909150819061252a565b015190503880611fb1565b60008581528281209350601f198516905b8181106125ae5750908460019594939210612595575b505050811b019055611fc6565b015160001960f88460031b161c19169055388080612588565b92936020600181928786015181550195019301612572565b909150836000526020600020601f840160051c8101916020851061260f575b90601f859493920160051c01905b8181106126005750611f9a565b600081558493506001016125f3565b90915081906125e5565b015190503880611f51565b60008581528281209350601f198516905b8181106126715750908460019594939210612658575b505050811b019055611f66565b015160001960f88460031b161c1916905538808061264b565b92936020600181928786015181550195019301612635565b909150836000526020600020601f840160051c810191602085106126d2575b90601f859493920160051c01905b8181106126c35750611f3a565b600081558493506001016126b6565b90915081906126a856fea26469706673582212209551ba7b2204816ffaec42f515245ed3bc79bfc3f23081d6076a0ec10fe4f63b64736f6c634300081c0033",
  "linkReferences": {},
  "deployedLinkReferences": {}
}