{
  "_format": "hh-sol-artifact-1",
  "contractName": "FundingContract",
  "sourceName": "contracts/FundingContract.sol",
  "abi": [
    {
      "inputs": [
        {
          "internalType": "bytes16",
          "name": "_id",
          "type": "bytes16"
        },
        {
          "internalType": "bytes16",
          "name": "_funderId",
          "type": "bytes16"
        },
        {
          "internalType": "bytes16",
          "name": "_studentId",
          "type": "bytes16"
        },
        {
          "internalType": "bytes16",
          "name": "_funderContractConditionId",
          "type": "bytes16"
        },
        {
          "internalType": "bytes16",
          "name": "_dataConfirmedById",
          "type": "bytes16"
        },
        {
          "internalType": "string",
          "name": "_signedOn",
          "type": "string"
        },
        {
          "internalType": "bool",
          "name": "_isActive",
          "type": "bool"
        },
        {
          "internalType": "uint256",
          "name": "_foodBalance",
          "type": "uint256"
        },
        {
          "internalType": "uint256",
          "name": "_tuitionBalance",
          "type": "uint256"
        },
        {
          "internalType": "uint256",
          "name": "_laptopBalance",
          "type": "uint256"
        },
        {
          "internalType": "uint256",
          "name": "_accommodationBalance",
          "type": "uint256"
        },
        {
          "internalType": "string",
          "name": "_modifiedBy",
          "type": "string"
        },
        {
          "internalType": "string",
          "name": "_updatedAt",
          "type": "string"
        }
      ],
      "name": "addFunding",
      "outputs": [],
      "stateMutability": "nonpayable",
      "type": "function"
    },
    {
      "inputs": [],
      "name": "getAllFundings",
      "outputs": [
        {
          "internalType": "bytes16[]",
          "name": "ids",
          "type": "bytes16[]"
        },
        {
          "internalType": "bytes16[]",
          "name": "funderIds",
          "type": "bytes16[]"
        },
        {
          "internalType": "bytes16[]",
          "name": "studentIds",
          "type": "bytes16[]"
        },
        {
          "internalType": "bytes16[]",
          "name": "funderContractConditionIds",
          "type": "bytes16[]"
        },
        {
          "internalType": "bytes16[]",
          "name": "dataConfirmedByIds",
          "type": "bytes16[]"
        },
        {
          "internalType": "string[]",
          "name": "signedOns",
          "type": "string[]"
        },
        {
          "internalType": "bool[]",
          "name": "isActives",
          "type": "bool[]"
        },
        {
          "internalType": "uint256[]",
          "name": "foodBalances",
          "type": "uint256[]"
        },
        {
          "internalType": "uint256[]",
          "name": "tuitionBalances",
          "type": "uint256[]"
        },
        {
          "internalType": "uint256[]",
          "name": "laptopBalances",
          "type": "uint256[]"
        },
        {
          "internalType": "uint256[]",
          "name": "accommodationBalances",
          "type": "uint256[]"
        },
        {
          "internalType": "string[]",
          "name": "modifiedBys",
          "type": "string[]"
        },
        {
          "internalType": "string[]",
          "name": "updatedAts",
          "type": "string[]"
        }
      ],
      "stateMutability": "view",
      "type": "function"
    },
    {
      "inputs": [],
      "name": "getAllInactiveFundings",
      "outputs": [
        {
          "internalType": "bytes16[]",
          "name": "ids",
          "type": "bytes16[]"
        },
        {
          "internalType": "bytes16[]",
          "name": "funderIds",
          "type": "bytes16[]"
        },
        {
          "internalType": "bytes16[]",
          "name": "studentIds",
          "type": "bytes16[]"
        },
        {
          "internalType": "bytes16[]",
          "name": "funderContractConditionIds",
          "type": "bytes16[]"
        },
        {
          "internalType": "bytes16[]",
          "name": "dataConfirmedByIds",
          "type": "bytes16[]"
        },
        {
          "internalType": "string[]",
          "name": "signedOns",
          "type": "string[]"
        },
        {
          "internalType": "bool[]",
          "name": "isActives",
          "type": "bool[]"
        },
        {
          "internalType": "uint256[]",
          "name": "foodBalances",
          "type": "uint256[]"
        },
        {
          "internalType": "uint256[]",
          "name": "tuitionBalances",
          "type": "uint256[]"
        },
        {
          "internalType": "uint256[]",
          "name": "laptopBalances",
          "type": "uint256[]"
        },
        {
          "internalType": "uint256[]",
          "name": "accommodationBalances",
          "type": "uint256[]"
        },
        {
          "internalType": "string[]",
          "name": "modifiedBys",
          "type": "string[]"
        },
        {
          "internalType": "string[]",
          "name": "updatedAts",
          "type": "string[]"
        }
      ],
      "stateMutability": "view",
      "type": "function"
    },
    {
      "inputs": [
        {
          "internalType": "bytes16",
          "name": "_studentId",
          "type": "bytes16"
        }
      ],
      "name": "getFundingByStudentId",
      "outputs": [
        {
          "internalType": "bytes16",
          "name": "id",
          "type": "bytes16"
        },
        {
          "internalType": "bytes16",
          "name": "funderId",
          "type": "bytes16"
        },
        {
          "internalType": "bytes16",
          "name": "studentId",
          "type": "bytes16"
        },
        {
          "internalType": "bytes16",
          "name": "funderContractConditionId",
          "type": "bytes16"
        },
        {
          "internalType": "bytes16",
          "name": "dataConfirmedById",
          "type": "bytes16"
        },
        {
          "internalType": "string",
          "name": "signedOn",
          "type": "string"
        },
        {
          "internalType": "bool",
          "name": "isActive",
          "type": "bool"
        },
        {
          "internalType": "uint256",
          "name": "foodBalance",
          "type": "uint256"
        },
        {
          "internalType": "uint256",
          "name": "tuitionBalance",
          "type": "uint256"
        },
        {
          "internalType": "uint256",
          "name": "laptopBalance",
          "type": "uint256"
        },
        {
          "internalType": "uint256",
          "name": "accommodationBalance",
          "type": "uint256"
        },
        {
          "internalType": "string",
          "name": "modifiedBy",
          "type": "string"
        },
        {
          "internalType": "string",
          "name": "updatedAt",
          "type": "string"
        }
      ],
      "stateMutability": "view",
      "type": "function"
    },
    {
      "inputs": [
        {
          "internalType": "bytes16",
          "name": "_studentId",
          "type": "bytes16"
        }
      ],
      "name": "getInactiveFundingsByStudentId",
      "outputs": [
        {
          "internalType": "bytes16[]",
          "name": "ids",
          "type": "bytes16[]"
        },
        {
          "internalType": "bytes16[]",
          "name": "funderIds",
          "type": "bytes16[]"
        },
        {
          "internalType": "bytes16[]",
          "name": "studentIds",
          "type": "bytes16[]"
        },
        {
          "internalType": "bytes16[]",
          "name": "funderContractConditionIds",
          "type": "bytes16[]"
        },
        {
          "internalType": "bytes16[]",
          "name": "dataConfirmedByIds",
          "type": "bytes16[]"
        },
        {
          "internalType": "string[]",
          "name": "signedOns",
          "type": "string[]"
        },
        {
          "internalType": "bool[]",
          "name": "isActives",
          "type": "bool[]"
        },
        {
          "internalType": "uint256[]",
          "name": "foodBalances",
          "type": "uint256[]"
        },
        {
          "internalType": "uint256[]",
          "name": "tuitionBalances",
          "type": "uint256[]"
        },
        {
          "internalType": "uint256[]",
          "name": "laptopBalances",
          "type": "uint256[]"
        },
        {
          "internalType": "uint256[]",
          "name": "accommodationBalances",
          "type": "uint256[]"
        },
        {
          "internalType": "string[]",
          "name": "modifiedBys",
          "type": "string[]"
        },
        {
          "internalType": "string[]",
          "name": "updatedAts",
          "type": "string[]"
        }
      ],
      "stateMutability": "view",
      "type": "function"
    },
    {
      "inputs": [
        {
          "internalType": "bytes16",
          "name": "_id",
          "type": "bytes16"
        },
        {
          "internalType": "bool",
          "name": "_isActive",
          "type": "bool"
        },
        {
          "internalType": "uint256",
          "name": "_foodBalance",
          "type": "uint256"
        },
        {
          "internalType": "uint256",
          "name": "_tuitionBalance",
          "type": "uint256"
        },
        {
          "internalType": "uint256",
          "name": "_laptopBalance",
          "type": "uint256"
        },
        {
          "internalType": "uint256",
          "name": "_accommodationBalance",
          "type": "uint256"
        },
        {
          "internalType": "string",
          "name": "_modifiedBy",
          "type": "string"
        },
        {
          "internalType": "string",
          "name": "_updatedAt",
          "type": "string"
        }
      ],
      "name": "updateFunding",
      "outputs": [],
      "stateMutability": "nonpayable",
      "type": "function"
    },
    {
      "inputs": [
        {
          "internalType": "bytes16",
          "name": "_id",
          "type": "bytes16"
        },
        {
          "internalType": "bytes16",
          "name": "_dataConfirmedById",
          "type": "bytes16"
        },
        {
          "internalType": "string",
          "name": "_modifiedBy",
          "type": "string"
        },
        {
          "internalType": "string",
          "name": "_updatedAt",
          "type": "string"
        }
      ],
      "name": "updateFundingDataConfirmedById",
      "outputs": [],
      "stateMutability": "nonpayable",
      "type": "function"
    }
  ],
  "bytecode": "0x60808060405234601557611ad9908161001b8239f35b600080fdfe6102a0604052600436101561001357600080fd5b60003560e01c80630a029cc314610e825780631129183914610afc578063311ac2f71461058957806372a3143c146103ce5780637fa0c10a1461015a57806381e05f5f146100f057639dce94c51461006a57600080fd5b346100eb576101003660031901126100eb57610084610f5c565b6024359081151582036100eb5760c4356001600160401b0381116100eb576100b09036906004016111df565b60e435926001600160401b0384116100eb576100d36100e99436906004016111df565b9260a43591608435916064359160443591611814565b005b600080fd5b346100eb5760803660031901126100eb57610109610f5c565b610111610f73565b906044356001600160401b0381116100eb576101319036906004016111df565b606435926001600160401b0384116100eb576101546100e99436906004016111df565b9261153d565b346100eb5760003660031901126100eb5760008054815b81811061039b5750610182826114ad565b61018b836114ad565b91610195846114ad565b9361019f816114ad565b946101a9826114ad565b6101b2836114df565b6101bb846114ad565b6101c4856114ad565b906101ce866114ad565b926101d8876114ad565b946101e2886114ad565b966101f56101ef8a6114df565b996114df565b996000805b82821061021b575050509b6102179a9b9c6040519d8e9d8e611096565b0390f35b8f8f8f8f928f918f918f918f918f918f918f908f908f60049b8f61024060ff91611235565b509d8e015416159586610267575b50505050505050505050505050505090600101906101fa565b9760019f9d9761037c9f9b938f6103769f9799819f978261030a9f979b600a9f8f61036f9f90849f9161031a966102e4876103229c6003966102d38361030a9a6102b3828b5492611529565b6001600160801b03198260801b1690526001600160801b03191692611529565b526001826102b39188015492611529565b526102f786600284015460801b92611529565b906001600160801b0319169052016112bf565b6103148383611529565b52611529565b501592611529565b526103328660058a015492611529565b5261034285600689015492611529565b5261035284600788015492611529565b5261036283600887015492611529565b5261030a600985016112bf565b50016112bf565b50611471565b90508f8f8f8f928f918f918f918f918f918f918f908f908f8b8561024e565b60ff60046103a883611235565b50015416156103ba575b600101610171565b916103c6600191611471565b9290506103b2565b346100eb5760003660031901126100eb5760008054815b81811061055757506103f6826114ad565b6103ff836114ad565b91610409846114ad565b93610413816114ad565b9461041d826114ad565b610426836114df565b61042f846114ad565b610438856114ad565b90610442866114ad565b9261044c876114ad565b94610456886114ad565b966104636101ef8a6114df565b996000805b828210610485575050509b6102179a9b9c6040519d8e9d8e611096565b8f8f8f8f928f918f918f918f91908f918f908f908f908f60049b8f6104ab60ff91611235565b509d8e01541696876104d1575b5050505050505050505050505050509060010190610468565b9760019f9d976105379f9b938f6103769f9799819f978261030a9f979b600a9f8f61036f9f90849f9161051d966102e4876105239c6003966102d38361030a9a6102b3828b5492611529565b50611529565b90151590526103328660058a015492611529565b90508f8f8f8f928f918f918f918f918f918f908f908f908f8b86926104b8565b60ff600461056483611235565b50015416610575575b6001016103e5565b91610581600191611471565b92905061056d565b346100eb576101a03660031901126100eb576105a3610f5c565b6105ab610f73565b90604435906001600160801b031982168092036100eb57606435926001600160801b031984168094036100eb57608435936001600160801b031985168095036100eb5760a4356001600160401b0381116100eb5761060d9036906004016111df565b9360c435958615158097036100eb57610164356001600160401b0381116100eb5761063c9036906004016111df565b96610184356001600160401b0381116100eb5761065d9036906004016111df565b96604051966101a088018881106001600160401b03821117610955576040526001600160801b031916875260208701956001600160801b031916865260408701938452606087019485526080870192835260a0870190815260c0870191825260e087019260e43584526101008801946101043586526101208901966101243588526101408a0198610144358a526101608b019c8d526101808b019b8c52600054680100000000000000008110156109555780600161071e9201600055611235565b9b909b610ae657519051608091821c6001600160801b0319918216178c559251915191811c9183169190911760018b0155915160028a0180549190931c911617905551805160038801916001600160401b038211610955576107808354611285565b601f8111610a9e575b50602090601f8311600114610a32576107d59493929160009183610a27575b50508160011b916000199060031b1c19161790555b511515600487019060ff801983541691151516179055565b5160058501555160068401555160078301555160088201556009810192519283516001600160401b0381116109555761080e8254611285565b601f81116109df575b506020601f8211600114610976578190600a959660009261096b575b50508160011b916000199060031b1c19161790555b0190519081516001600160401b038111610955576108668254611285565b601f811161090d575b50602092601f82116001146108ad57928192936000926108a2575b5050600019600383901b1c191660019190911b179055005b01519050838061088a565b601f1982169383600052806000209160005b8681106108f557508360019596106108dc575b505050811b019055005b015160001960f88460031b161c191690558380806108d2565b919260206001819286850151815501940192016108bf565b826000526020600020601f830160051c8101916020841061094b575b601f0160051c01905b81811061093f575061086f565b60008155600101610932565b9091508190610929565b634e487b7160e01b600052604160045260246000fd5b015190508680610833565b601f1982169583600052816000209660005b8181106109c7575091600a9697918460019594106109ae575b505050811b019055610848565b015160001960f88460031b161c191690558680806109a1565b83830151895560019098019760209384019301610988565b826000526020600020601f830160051c81019160208410610a1d575b601f0160051c01905b818110610a115750610817565b60008155600101610a04565b90915081906109fb565b015190508c806107a8565b90601f1983169184600052816000209260005b818110610a8657509160019391856107d59897969410610a6d575b505050811b0190556107bd565b015160001960f88460031b161c191690558c8080610a60565b92936020600181928786015181550195019301610a45565b836000526020600020601f840160051c81019160208510610adc575b601f0160051c01905b818110610ad05750610789565b60008155600101610ac3565b9091508190610aba565b634e487b7160e01b600052600060045260246000fd5b346100eb5760203660031901126100eb57610b15610f5c565b61028052600080815460c0525b60c0518110610e1857610bcf82610b38816114ad565b61024052610b45816114ad565b61026052610b52816114ad565b60e052610b5e816114ad565b61010052610b6b816114ad565b61012052610b78816114df565b61014052610b85816114ad565b61016052610b92816114ad565b61018052610b9f816114ad565b6101a052610bac816114ad565b6101c052610bb9816114ad565b6101e052610bc6816114df565b610200526114df565b61022052600060805260805160a0525b60c05160a05110610c2b576040518061021761022051610200516101e0516101c0516101a051610180516101605161014051610120516101005160e051610260518d6102405190611096565b610c3660a051611235565b50600481015460ff16158080610df0575b610c5c575b5050600160a0510160a052610bdf565b81600a91610dbb9354610c7460805161024051611529565b6001600160801b03198260801b1690526001600160801b031916610c9d60805161026051611529565b526001820154610cb160805160e051611529565b6001600160801b03198260801b1690526001600160801b031916610cda60805161010051611529565b52600282015460801b610cf260805161012051611529565b906001600160801b0319169052610d0b600383016112bf565b610d1a60805161014051611529565b52610d2a60805161014051611529565b5015610d3b60805161016051611529565b526005810154610d5060805161018051611529565b526006810154610d656080516101a051611529565b526007810154610d7a6080516101c051611529565b526008810154610d8f6080516101e051611529565b52610d9c600982016112bf565b610dab60805161020051611529565b5261036f60805161020051611529565b610dca60805161022051611529565b52610dda60805161022051611529565b50610de6608051611471565b6080528080610c4c565b50600182015460801b6001600160801b03196102805116906001600160801b03191614610c47565b60ff6004610e2583611235565b500154161580610e51575b610e3d575b600101610b22565b90610e49600191611471565b919050610e35565b506001610e5d82611235565b50015460801b6001600160801b03196102805116906001600160801b03191614610e30565b346100eb5760203660031901126100eb57610e9b610f5c565b610ea490611363565b9960409c9b9c999199989297939698959495519c8d9c6001600160801b0319168d526001600160801b03191660208d01526001600160801b03191660408c01526001600160801b03191660608b01526001600160801b03191660808a015260a089016101a090526101a08901610f1991610f8a565b94151560c089015260e0880152610100870152610120860152610140850152838103610160850152610f4a91610f8a565b82810361018084015261021791610f8a565b600435906001600160801b0319821682036100eb57565b602435906001600160801b0319821682036100eb57565b919082519283825260005b848110610fb6575050826000602080949584010152601f8019910116010190565b80602080928401015182828601015201610f95565b906020808351928381520192019060005b818110610fe95750505090565b82516001600160801b031916845260209384019390920191600101610fdc565b9080602083519182815201916020808360051b8301019401926000915b83831061103557505050505090565b9091929394602080611053600193601f198682030187528951610f8a565b97019301930191939290611026565b906020808351928381520192019060005b8181106110805750505090565b8251845260209384019390920191600101611073565b9b999795936110e4979e9d9b99978d611100956110d661110e99966110c86110f2976101a086526101a0860190610fcb565b908482036020860152610fcb565b916040818403910152610fcb565b8d810360608f015290610fcb565b908b820360808d0152610fcb565b9089820360a08b0152611009565b87810360c08901526020808b5192838152019a019060005b8181106111a657505050611185926111676111949695936111588c611176958c6111a39e9f8160e09103910152611062565b908a82036101008c0152611062565b908882036101208a0152611062565b90868203610140880152611062565b90848203610160860152611009565b91610180818403910152611009565b90565b825115158c5260209b8c019b90920191600101611126565b90601f801991011681019081106001600160401b0382111761095557604052565b81601f820112156100eb578035906001600160401b0382116109555760405192611213601f8401601f1916602001856111be565b828452602083830101116100eb57816000926020809301838601378301015290565b60005481101561126f576000808052600b919091027f290decd9548b62a8d60345a988386fc84ba6bc95484008f6362f93160ef3e5630191565b634e487b7160e01b600052603260045260246000fd5b90600182811c921680156112b5575b602083101461129f57565b634e487b7160e01b600052602260045260246000fd5b91607f1691611294565b90604051918260008254926112d384611285565b808452936001811690811561134157506001146112fa575b506112f8925003836111be565b565b90506000929192526020600020906000915b8183106113255750509060206112f892820101386112eb565b602091935080600191548385890101520191019091849261130c565b9050602092506112f894915060ff191682840152151560051b820101386112eb565b6000908154915b8281106113b65760405162461bcd60e51b815260206004820152601e60248201527f46756e64696e67206e6f7420666f756e6420666f722073747564656e742e00006044820152606490fd5b60016113c182611235565b50015460801b6001600160801b03198316906001600160801b031916146113ea5760010161136a565b90506113f69150611235565b5090815491600181015490600281015460801b9060ff60048201541660058201546006830154600784015460088501548960801b996001600160801b031916988860801b986001600160801b0319169796611453600382016112bf565b9695949392916111a3600a61146a600985016112bf565b93016112bf565b60001981146114805760010190565b634e487b7160e01b600052601160045260246000fd5b6001600160401b0381116109555760051b60200190565b906114b782611496565b6114c460405191826111be565b82815280926114d5601f1991611496565b0190602036910137565b906114e982611496565b6114f660405191826111be565b8281528092611507601f1991611496565b019060005b82811061151857505050565b80606060208093850101520161150c565b805182101561126f5760209160051b010190565b9293919060005b6000548110156117da5761155781611235565b505460801b6001600160801b03198616906001600160801b0319161461157f57600101611544565b929350600261158d84611235565b50019060801c6001600160801b031982541617905560096115ad83611235565b5001908051906001600160401b038211610955576115cb8354611285565b601f8111611792575b50602090601f831160011461172457918061160f9492600a9694600092611719575b50508160011b916000199060031b1c1916179055611235565b500182516001600160401b0381116109555761162b8254611285565b601f81116116d1575b506020601f821160011461166f5781929394600092611664575b50508160011b916000199060031b1c1916179055565b01519050388061164e565b601f1982169083600052806000209160005b8181106116b9575095836001959697106116a0575b505050811b019055565b015160001960f88460031b161c19169055388080611696565b9192602060018192868b015181550194019201611681565b826000526020600020601f830160051c8101916020841061170f575b601f0160051c01905b8181106117035750611634565b600081556001016116f6565b90915081906116ed565b0151905038806115f6565b90601f1983169184600052816000209260005b81811061177a5750926001928592600a989661160f989610611761575b505050811b019055611235565b015160001960f88460031b161c19169055388080611754565b92936020600181928786015181550195019301611737565b836000526020600020601f840160051c810191602085106117d0575b601f0160051c01905b8181106117c457506115d4565b600081556001016117b7565b90915081906117ae565b60405162461bcd60e51b8152602060048201526012602482015271233ab73234b733903737ba103337bab7321760711b6044820152606490fd5b969795949392919060005b6000548110156117da5761183281611235565b505460801b6001600160801b03198a16906001600160801b0319161461185a5760010161181f565b96975061187f90600461186c89611235565b50019060ff801983541691151516179055565b600561188a87611235565b500155600661189886611235565b50015560076118a685611235565b50015560086118b484611235565b50015560096118c283611235565b5001908051906001600160401b038211610955576118e08354611285565b601f8111611a5b575b50602090601f8311600114611a075791806119239492600a96946000926117195750508160011b916000199060031b1c1916179055611235565b500182516001600160401b0381116109555761193f8254611285565b601f81116119bf575b506020601f821160011461197757819293946000926116645750508160011b916000199060031b1c1916179055565b601f1982169083600052806000209160005b8181106119a7575095836001959697106116a057505050811b019055565b9192602060018192868b015181550194019201611989565b826000526020600020601f830160051c810191602084106119fd575b601f0160051c01905b8181106119f15750611948565b600081556001016119e4565b90915081906119db565b90601f1983169184600052816000209260005b818110611a435750926001928592600a989661192398961061176157505050811b019055611235565b92936020600181928786015181550195019301611a1a565b836000526020600020601f840160051c81019160208510611a99575b601f0160051c01905b818110611a8d57506118e9565b60008155600101611a80565b9091508190611a7756fea264697066735822122043d8015a70b152a6ba53097784bd0f429195d58934e67325c6d4f2b3e43abf9364736f6c634300081c0033",
  "linkReferences": {},
  "deployedLinkReferences": {}
}