{
  "_format": "hh-sol-artifact-1",
  "contractName": "BankAccountRegistry",
  "sourceName": "contracts/BankAccountRegistry.sol",
  "abi": [
    {
      "anonymous": false,
      "inputs": [
        {
          "indexed": true,
          "internalType": "bytes16",
          "name": "id",
          "type": "bytes16"
        },
        {
          "indexed": false,
          "internalType": "string",
          "name": "bankAccountNumber",
          "type": "string"
        },
        {
          "indexed": false,
          "internalType": "string",
          "name": "studentNumber",
          "type": "string"
        },
        {
          "indexed": false,
          "internalType": "string",
          "name": "createdAt",
          "type": "string"
        },
        {
          "indexed": false,
          "internalType": "string",
          "name": "createdBy",
          "type": "string"
        }
      ],
      "name": "BankAccountAdded",
      "type": "event"
    },
    {
      "anonymous": false,
      "inputs": [
        {
          "indexed": false,
          "internalType": "string",
          "name": "bankAccountNumber",
          "type": "string"
        },
        {
          "indexed": false,
          "internalType": "string",
          "name": "updatedAt",
          "type": "string"
        },
        {
          "indexed": false,
          "internalType": "string",
          "name": "modifiedBy",
          "type": "string"
        }
      ],
      "name": "BankAccountUpdated",
      "type": "event"
    },
    {
      "inputs": [
        {
          "internalType": "bytes16",
          "name": "_id",
          "type": "bytes16"
        },
        {
          "internalType": "string",
          "name": "_bankAccountNumber",
          "type": "string"
        },
        {
          "internalType": "string",
          "name": "_bankName",
          "type": "string"
        },
        {
          "internalType": "string",
          "name": "_bankBranchCode",
          "type": "string"
        },
        {
          "internalType": "bool",
          "name": "_isConfirmed",
          "type": "bool"
        },
        {
          "internalType": "string",
          "name": "_studentNumber",
          "type": "string"
        },
        {
          "internalType": "bytes16",
          "name": "_dataConfirmedById",
          "type": "bytes16"
        },
        {
          "internalType": "string",
          "name": "_updatedAt",
          "type": "string"
        }
      ],
      "name": "addBankAccount",
      "outputs": [],
      "stateMutability": "nonpayable",
      "type": "function"
    },
    {
      "inputs": [],
      "name": "getAll",
      "outputs": [
        {
          "internalType": "bytes16[]",
          "name": "ids",
          "type": "bytes16[]"
        },
        {
          "internalType": "string[]",
          "name": "bankAccountNumbers",
          "type": "string[]"
        },
        {
          "internalType": "string[]",
          "name": "bankNames",
          "type": "string[]"
        },
        {
          "internalType": "string[]",
          "name": "bankBranchCodes",
          "type": "string[]"
        },
        {
          "internalType": "bool[]",
          "name": "isConfirmeds",
          "type": "bool[]"
        },
        {
          "internalType": "string[]",
          "name": "studentNumbers",
          "type": "string[]"
        },
        {
          "internalType": "bytes16[]",
          "name": "dataConfirmedByIds",
          "type": "bytes16[]"
        },
        {
          "internalType": "string[]",
          "name": "updatedAts",
          "type": "string[]"
        }
      ],
      "stateMutability": "view",
      "type": "function"
    },
    {
      "inputs": [
        {
          "internalType": "string",
          "name": "_bankAccountNumber",
          "type": "string"
        }
      ],
      "name": "getByBankAccountNumber",
      "outputs": [
        {
          "internalType": "bytes16",
          "name": "id",
          "type": "bytes16"
        },
        {
          "internalType": "string",
          "name": "bankAccountNumber",
          "type": "string"
        },
        {
          "internalType": "string",
          "name": "bankName",
          "type": "string"
        },
        {
          "internalType": "string",
          "name": "bankBranchCode",
          "type": "string"
        },
        {
          "internalType": "bool",
          "name": "isConfirmed",
          "type": "bool"
        },
        {
          "internalType": "string",
          "name": "studentNumber",
          "type": "string"
        },
        {
          "internalType": "bytes16",
          "name": "dataConfirmedById",
          "type": "bytes16"
        },
        {
          "internalType": "string",
          "name": "updatedAt",
          "type": "string"
        }
      ],
      "stateMutability": "view",
      "type": "function"
    },
    {
      "inputs": [
        {
          "internalType": "string",
          "name": "_studentNumber",
          "type": "string"
        }
      ],
      "name": "getByStudentNumber",
      "outputs": [
        {
          "internalType": "bytes16",
          "name": "id",
          "type": "bytes16"
        },
        {
          "internalType": "string",
          "name": "bankAccountNumber",
          "type": "string"
        },
        {
          "internalType": "string",
          "name": "bankName",
          "type": "string"
        },
        {
          "internalType": "string",
          "name": "bankBranchCode",
          "type": "string"
        },
        {
          "internalType": "bool",
          "name": "isConfirmed",
          "type": "bool"
        },
        {
          "internalType": "string",
          "name": "studentNumber",
          "type": "string"
        },
        {
          "internalType": "bytes16",
          "name": "dataConfirmedById",
          "type": "bytes16"
        },
        {
          "internalType": "string",
          "name": "updatedAt",
          "type": "string"
        }
      ],
      "stateMutability": "view",
      "type": "function"
    },
    {
      "inputs": [
        {
          "internalType": "string",
          "name": "_bankAccountNumber",
          "type": "string"
        },
        {
          "internalType": "bool",
          "name": "_isConfirmed",
          "type": "bool"
        },
        {
          "internalType": "string",
          "name": "_updatedAt",
          "type": "string"
        },
        {
          "internalType": "bytes16",
          "name": "_dataConfirmedById",
          "type": "bytes16"
        }
      ],
      "name": "studentDataChangeConfirmation",
      "outputs": [],
      "stateMutability": "nonpayable",
      "type": "function"
    },
    {
      "inputs": [
        {
          "internalType": "string",
          "name": "_bankAccountNumber",
          "type": "string"
        },
        {
          "internalType": "string",
          "name": "_bankName",
          "type": "string"
        },
        {
          "internalType": "string",
          "name": "_bankBranchCode",
          "type": "string"
        },
        {
          "internalType": "bool",
          "name": "_isConfirmed",
          "type": "bool"
        },
        {
          "internalType": "string",
          "name": "_studentNumber",
          "type": "string"
        },
        {
          "internalType": "bytes16",
          "name": "_dataConfirmedById",
          "type": "bytes16"
        },
        {
          "internalType": "string",
          "name": "_updatedAt",
          "type": "string"
        }
      ],
      "name": "updateBankAccountByNumber",
      "outputs": [],
      "stateMutability": "nonpayable",
      "type": "function"
    }
  ],
  "bytecode": "0x60808060405234601557611b32908161001b8239f35b600080fdfe6080604052600436101561001257600080fd5b60003560e01c80630584479b14610f4b5780630807af2e14610efa57806308d6eec314610cd6578063255115ed14610be857806353ed5143146109865763deac7d5e1461005e57600080fd5b3461098157610100366003190112610981576004356001600160801b03198116809103610981576024356001600160401b038111610981576100a490369060040161152d565b906044356001600160401b038111610981576100c490369060040161152d565b916064356001600160401b038111610981576100e490369060040161152d565b6084358015158091036109815760a4356001600160401b0381116109815761011090369060040161152d565b9160c4356001600160801b031981168091036109815760e4356001600160401b0381116109815761014590369060040161152d565b968660005260016020526040600020546109225760405193865194602081818a019761017281838b611583565b81016002815203019020546108bf576040519361010085018581106001600160401b0382111761058f57604052888552602085019288845260408601908152606086019182526080860192835260a086019388855260c0870195865260e087019b8c526000546801000000000000000081101561058f578060016101f99201600055611755565b9790976108a9575187546001600160801b03191660809190911c17875551805160018801916001600160401b03821161058f57819061023884546117a5565b601f8111610856575b50602090601f83116001146107f1576000926107e6575b50508160011b916000199060031b1c19161790555b51805160028701916001600160401b03821161058f57819061028f84546117a5565b601f8111610793575b50602090601f831160011461072e57600092610723575b50508160011b916000199060031b1c19161790555b51805160038601916001600160401b03821161058f576102e483546117a5565b601f81116106db575b50602090601f831160011461066f576103399493929160009183610664575b50508160011b916000199060031b1c19161790555b511515600485019060ff801983541691151516179055565b51805160058401916001600160401b03821161058f5761035983546117a5565b601f811161061c575b50602090601f83116001146105b05760079594939291600091836105a5575b50508160011b916000199060031b1c19161790555b6001600160801b0319905116600682019060801c6001600160801b03198254161790550194519485516001600160401b03811161058f576103d782546117a5565b601f8111610547575b506020601f82116001146104b757918161048d9492604096947f9b784858b429cc47fd353d27a208fdbdc38d9b97807f6f1813107ed23cf0b3bd999a6000926104ac575b50508160011b916000199060031b1c19161790555b61046060206000549289600052600182528387600020558651809381928a51928391611583565b810160028152030190205561047f8351946080865260808601906115a6565b9084820360208601526115a6565b60006020848303928385870152828152818401606087015201520190a2005b015190503880610424565b601f1982169783600052816000209860005b81811061052f5750927f9b784858b429cc47fd353d27a208fdbdc38d9b97807f6f1813107ed23cf0b3bd989960409795936001938361048d999710610516575b505050811b019055610439565b015160001960f88460031b161c19169055388080610509565b838301518b556001909a0199602093840193016104c9565b826000526020600020601f830160051c81019160208410610585575b601f0160051c01905b81811061057957506103e0565b6000815560010161056c565b9091508190610563565b634e487b7160e01b600052604160045260246000fd5b015190503880610381565b90601f1983169184600052816000209260005b818110610604575091600193918560079998979694106105eb575b505050811b019055610396565b015160001960f88460031b161c191690553880806105de565b929360206001819287860151815501950193016105c3565b836000526020600020601f840160051c8101916020851061065a575b601f0160051c01905b81811061064e5750610362565b60008155600101610641565b9091508190610638565b01519050388061030c565b90601f1983169184600052816000209260005b8181106106c3575091600193918561033998979694106106aa575b505050811b019055610321565b015160001960f88460031b161c1916905538808061069d565b92936020600181928786015181550195019301610682565b836000526020600020601f840160051c81019160208510610719575b601f0160051c01905b81811061070d57506102ed565b60008155600101610700565b90915081906106f7565b0151905038806102af565b60008581528281209350601f198516905b81811061077b5750908460019594939210610762575b505050811b0190556102c4565b015160001960f88460031b161c19169055388080610755565b9293602060018192878601518155019501930161073f565b909150836000526020600020601f840160051c810191602085106107dc575b90601f859493920160051c01905b8181106107cd5750610298565b600081558493506001016107c0565b90915081906107b2565b015190503880610258565b60008581528281209350601f198516905b81811061083e5750908460019594939210610825575b505050811b01905561026d565b015160001960f88460031b161c19169055388080610818565b92936020600181928786015181550195019301610802565b909150836000526020600020601f840160051c8101916020851061089f575b90601f859493920160051c01905b8181106108905750610241565b60008155849350600101610883565b9091508190610875565b634e487b7160e01b600052600060045260246000fd5b60405162461bcd60e51b815260206004820152603560248201527f42616e6b4163636f756e7452656769737472793a204163636f756e7420616c7260448201527432b0b23c9032bc34b9ba399014373ab6b132b9149760591b6064820152608490fd5b60405162461bcd60e51b815260206004820152603160248201527f42616e6b4163636f756e7452656769737472793a204163636f756e7420616c7260448201527032b0b23c9032bc34b9ba39901434b2149760791b6064820152608490fd5b600080fd5b34610981576000366003190112610981576000546109a381611a4c565b6109ac82611a7e565b916109b681611a7e565b916109c082611a7e565b936109ca83611a35565b946109d8604051968761150c565b8386526109e484611a35565b602087019590601f19013687376109fa85611a7e565b92610a0486611a4c565b94610a0e87611a7e565b9660005b818110610ad957505092610a5c602093610a4e610a6a94610a416101009c9d986040519d8e8181520190611652565b8c8103888e015290611690565b908a820360408c0152611690565b9088820360608a0152611690565b918683036080880152519182815201959060005b818110610ac1578680610abd88610aaf89610aa18e8b87820360a0890152611690565b9085820360c0870152611652565b9083820360e0850152611690565b0390f35b82511515885260209788019790920191600101610a7e565b80610bcc60078d610aeb600195611755565b5090815460801b610afc868a611ac8565b906001600160801b0319169052610b14868301611816565b610b1e868b611ac8565b52610b29858a611ac8565b50610b3660028301611816565b610b40868c611ac8565b52610b4b858b611ac8565b50610b5860038301611816565b610b62868d611ac8565b52610b6d858c611ac8565b50610b808560ff60048501541692611ac8565b9015159052610b9160058201611816565b610b9b858d611ac8565b52610ba6848c611ac8565b50600681015460801b610bb9858e611ac8565b906001600160801b031916905201611816565b610bd6828c611ac8565b52610be1818b611ac8565b5001610a12565b34610981576020366003190112610981576004356001600160401b038111610981576020610c1d610c3092369060040161152d565b8160405193828580945193849201611583565b8101600281520301902054610c46811515611731565b6000198101908111610cc057610c5b90611755565b50805460801b610abd610c7060018401611816565b92610c7d60028201611816565b90610c8a60038201611816565b60ff600483015416610c9e60058401611816565b91610cb36007600686015460801b9501611816565b94604051988998896115cb565b634e487b7160e01b600052601160045260246000fd5b34610981576080366003190112610981576004356001600160401b03811161098157610d0690369060040161152d565b602435908115158203610981576044356001600160401b03811161098157610d3290369060040161152d565b906064356001600160801b031981168103610981576040516020818451610d5c8183858901611583565b8101600281520301902054610d72811515611731565b6000198101908111610cc057610d8a610da191611755565b5094600486019060ff801983541691151516179055565b6007840183516001600160401b03811161058f57610dbf82546117a5565b601f8111610eb2575b506020601f8211600114610e3b579181600080516020611add8339815191529792600694600091610e30575b508160011b916000199060031b1c19161790555b019060801c6001600160801b0319825416179055610e2b604051928392836117df565b0390a1005b905087015189610df4565b601f1982169083600052806000209160005b818110610e9a5750926006949260019282600080516020611add8339815191529b9610610e81575b5050811b019055610e08565b89015160001960f88460031b161c191690558980610e75565b9192602060018192868c015181550194019201610e4d565b826000526020600020601f830160051c81019160208410610ef0575b601f0160051c01905b818110610ee45750610dc8565b60008155600101610ed7565b9091508190610ece565b34610981576020366003190112610981576004356001600160401b03811161098157610f35610f30610abd92369060040161152d565b6118ba565b94604098969894919493929351988998896115cb565b346109815760e0366003190112610981576004356001600160401b03811161098157610f7b90369060040161152d565b6024356001600160401b03811161098157610f9a90369060040161152d565b906044356001600160401b03811161098157610fba90369060040161152d565b606435928315158403610981576084356001600160401b03811161098157610fe690369060040161152d565b9360a435906001600160801b0319821682036109815760c4356001600160401b0381116109815761101b90369060040161152d565b9360405160208188516110318183858d01611583565b8101600281520301902054611047811515611731565b6000198101908111610cc05761105c90611755565b509360028501908051906001600160401b03821161058f57819061108084546117a5565b601f81116114b9575b50602090601f831160011461145457600092611449575b50508160011b916000199060031b1c19161790555b805160038501916001600160401b03821161058f576110d483546117a5565b601f8111611401575b50602090601f831160011461139557611126949392916000918361138a575b50508160011b916000199060031b1c19161790555b600484019060ff801983541691151516179055565b6005820185516001600160401b03811161058f5761114482546117a5565b601f8111611342575b506020601f82116001146112d857819060079697986000926112cd575b50508160011b916000199060031b1c19161790555b600682019060801c6001600160801b031982541617905501918151926001600160401b03841161058f576111b381546117a5565b601f8111611285575b50602093601f81116001146112125780600080516020611add83398151915295600091611207575b508160011b916000199060031b1c19161790555b610e2b604051928392836117df565b9050840151866111e4565b601f1981169482600052806000209560005b81811061126d5750958291600193600080516020611add8339815191529810611254575b5050811b0190556111f8565b86015160001960f88460031b161c191690558680611248565b86830151885560019097019660209283019201611224565b816000526020600020601f860160051c810191602087106112c3575b601f0160051c01905b8181106112b757506111bc565b600081556001016112aa565b90915081906112a1565b01519050888061116a565b601f1982169783600052816000209860005b81811061132a575091600797989991846001959410611311575b505050811b01905561117f565b015160001960f88460031b161c19169055888080611304565b838301518b556001909a0199602093840193016112ea565b826000526020600020601f830160051c81019160208410611380575b601f0160051c01905b818110611374575061114d565b60008155600101611367565b909150819061135e565b015190508a806110fc565b90601f1983169184600052816000209260005b8181106113e9575091600193918561112698979694106113d0575b505050811b019055611111565b015160001960f88460031b161c191690558a80806113c3565b929360206001819287860151815501950193016113a8565b836000526020600020601f840160051c8101916020851061143f575b601f0160051c01905b81811061143357506110dd565b60008155600101611426565b909150819061141d565b015190508a806110a0565b60008581528281209350601f198516905b8181106114a15750908460019594939210611488575b505050811b0190556110b5565b015160001960f88460031b161c191690558a808061147b565b92936020600181928786015181550195019301611465565b909150836000526020600020601f840160051c81019160208510611502575b90601f859493920160051c01905b8181106114f35750611089565b600081558493506001016114e6565b90915081906114d8565b90601f801991011681019081106001600160401b0382111761058f57604052565b81601f82011215610981578035906001600160401b03821161058f5760405192611561601f8401601f19166020018561150c565b8284526020838301011161098157816000926020809301838601378301015290565b60005b8381106115965750506000910152565b8181015183820152602001611586565b906020916115bf81518092818552858086019101611583565b601f01601f1916010190565b94929361160f6116329561160161164f9b999561161d956001600160801b0319168a5261010060208b01526101008a01906115a6565b9088820360408a01526115a6565b9086820360608801526115a6565b911515608085015283820360a08501526115a6565b926001600160801b03191660c082015260e08184039101526115a6565b90565b906020808351928381520192019060005b8181106116705750505090565b82516001600160801b031916845260209384019390920191600101611663565b9080602083519182815201916020808360051b8301019401926000915b8383106116bc57505050505090565b90919293946020806116da600193601f1986820301875289516115a6565b970193019301919392906116ad565b60809060208152602760208201527f42616e6b4163636f756e7452656769737472793a204163636f756e74206e6f74604082015266103337bab7321760c91b60608201520190565b1561173857565b60405162461bcd60e51b815280611751600482016116e9565b0390fd5b60005481101561178f57600080805260039190911b7f290decd9548b62a8d60345a988386fc84ba6bc95484008f6362f93160ef3e5630191565b634e487b7160e01b600052603260045260246000fd5b90600182811c921680156117d5575b60208310146117bf57565b634e487b7160e01b600052602260045260246000fd5b91607f16916117b4565b906020926117f8611805926060855260608501906115a6565b90838203858501526115a6565b906040818303910152600081520190565b906040519182600082549261182a846117a5565b80845293600181169081156118985750600114611851575b5061184f9250038361150c565b565b90506000929192526020600020906000915b81831061187c57505090602061184f9282010138611842565b6020919350806001915483858901015201910190918492611863565b90506020925061184f94915060ff191682840152151560051b82010138611842565b6000908154915b8281106118e15760405162461bcd60e51b815280611751600482016116e9565b60056118ec82611755565b50016040516020810191816000825492611905846117a5565b9360018116908115611a1757506001146119d5575b5061192e925003601f19810183528261150c565b519020604051602081019061195f602082875161194e8187858c01611583565b81010301601f19810183528261150c565b5190201461196f576001016118c1565b905061197b9150611755565b50805460801b9060ff600482015416600682015460801b92936119a060018401611816565b936119ad60028501611816565b936119ba60038201611816565b939261164f60076119cd60058501611816565b949301611816565b9150506000528160206000206000905b8382106119fd575050602061192e928201013861191a565b6020919250806001915483858801015201910183916119e5565b60ff191687525061192e93801515028301602001915038905061191a565b6001600160401b03811161058f5760051b60200190565b90611a5682611a35565b611a63604051918261150c565b8281528092611a74601f1991611a35565b0190602036910137565b90611a8882611a35565b611a95604051918261150c565b8281528092611aa6601f1991611a35565b019060005b828110611ab757505050565b806060602080938501015201611aab565b805182101561178f5760209160051b01019056febbbc02f59c192a8be348da18822d51d457adc8fd266e452a8f918cb100ad3d3fa264697066735822122058d2dee25c5c6989a0f6eec7f5089fb7911b18c888421efe5e9c7a708275551564736f6c634300081c0033",
  "linkReferences": {},
  "deployedLinkReferences": {}
}