{
  "_format": "hh-sol-artifact-1",
  "contractName": "PaymentsRegistry",
  "sourceName": "contracts/PaymentsRegistry.sol",
  "abi": [
    {
      "anonymous": false,
      "inputs": [
        {
          "indexed": true,
          "internalType": "bytes16",
          "name": "id",
          "type": "bytes16"
        },
        {
          "indexed": false,
          "internalType": "string",
          "name": "studentNumber",
          "type": "string"
        }
      ],
      "name": "PaymentAdded",
      "type": "event"
    },
    {
      "anonymous": false,
      "inputs": [
        {
          "indexed": true,
          "internalType": "bytes16",
          "name": "id",
          "type": "bytes16"
        },
        {
          "indexed": false,
          "internalType": "string",
          "name": "status",
          "type": "string"
        },
        {
          "indexed": false,
          "internalType": "string",
          "name": "fulfilmentDate",
          "type": "string"
        }
      ],
      "name": "PaymentUpdated",
      "type": "event"
    },
    {
      "inputs": [
        {
          "internalType": "bytes16",
          "name": "_id",
          "type": "bytes16"
        },
        {
          "internalType": "string",
          "name": "_accountNumber",
          "type": "string"
        },
        {
          "internalType": "string",
          "name": "_studentNumber",
          "type": "string"
        },
        {
          "internalType": "string",
          "name": "_branchCode",
          "type": "string"
        },
        {
          "internalType": "string",
          "name": "_bankName",
          "type": "string"
        },
        {
          "internalType": "uint256",
          "name": "_amount",
          "type": "uint256"
        },
        {
          "internalType": "string",
          "name": "_paymentType",
          "type": "string"
        },
        {
          "internalType": "string",
          "name": "_status",
          "type": "string"
        },
        {
          "internalType": "string",
          "name": "_updatedAt",
          "type": "string"
        },
        {
          "internalType": "bool",
          "name": "_isFraud",
          "type": "bool"
        },
        {
          "internalType": "string",
          "name": "_initiationDate",
          "type": "string"
        },
        {
          "internalType": "string",
          "name": "_fulfilmentDate",
          "type": "string"
        },
        {
          "internalType": "string",
          "name": "_modifiedBy",
          "type": "string"
        }
      ],
      "name": "addPayment",
      "outputs": [],
      "stateMutability": "nonpayable",
      "type": "function"
    },
    {
      "inputs": [],
      "name": "getAllPayments",
      "outputs": [
        {
          "internalType": "bytes16[]",
          "name": "ids",
          "type": "bytes16[]"
        },
        {
          "internalType": "string[]",
          "name": "accountNumbers",
          "type": "string[]"
        },
        {
          "internalType": "string[]",
          "name": "studentNumbers",
          "type": "string[]"
        },
        {
          "internalType": "string[]",
          "name": "bankNames",
          "type": "string[]"
        },
        {
          "internalType": "uint256[]",
          "name": "amounts",
          "type": "uint256[]"
        },
        {
          "internalType": "string[]",
          "name": "paymentTypes",
          "type": "string[]"
        },
        {
          "internalType": "string[]",
          "name": "statuses",
          "type": "string[]"
        },
        {
          "internalType": "string[]",
          "name": "updatedAts",
          "type": "string[]"
        },
        {
          "internalType": "bool[]",
          "name": "isFrauds",
          "type": "bool[]"
        },
        {
          "internalType": "string[]",
          "name": "fulfilmentDates",
          "type": "string[]"
        },
        {
          "internalType": "string[]",
          "name": "modifiedBys",
          "type": "string[]"
        }
      ],
      "stateMutability": "view",
      "type": "function"
    },
    {
      "inputs": [
        {
          "internalType": "string",
          "name": "_studentNumber",
          "type": "string"
        }
      ],
      "name": "getPaymentByStudentNumber",
      "outputs": [
        {
          "internalType": "bytes16",
          "name": "id",
          "type": "bytes16"
        },
        {
          "internalType": "string",
          "name": "accountNumber",
          "type": "string"
        },
        {
          "internalType": "string",
          "name": "studentNumber",
          "type": "string"
        },
        {
          "internalType": "string",
          "name": "branchCode",
          "type": "string"
        },
        {
          "internalType": "string",
          "name": "bankName",
          "type": "string"
        },
        {
          "internalType": "uint256",
          "name": "amount",
          "type": "uint256"
        },
        {
          "internalType": "string",
          "name": "paymentType",
          "type": "string"
        },
        {
          "internalType": "string",
          "name": "status",
          "type": "string"
        },
        {
          "internalType": "string",
          "name": "updatedAt",
          "type": "string"
        },
        {
          "internalType": "bool",
          "name": "isFraud",
          "type": "bool"
        },
        {
          "internalType": "string",
          "name": "initiationDate",
          "type": "string"
        },
        {
          "internalType": "string",
          "name": "fulfilmentDate",
          "type": "string"
        },
        {
          "internalType": "string",
          "name": "modifiedBy",
          "type": "string"
        }
      ],
      "stateMutability": "view",
      "type": "function"
    },
    {
      "inputs": [
        {
          "internalType": "bytes16",
          "name": "_id",
          "type": "bytes16"
        },
        {
          "internalType": "string",
          "name": "_status",
          "type": "string"
        },
        {
          "internalType": "string",
          "name": "_fulfilmentDate",
          "type": "string"
        },
        {
          "internalType": "string",
          "name": "_updatedAt",
          "type": "string"
        },
        {
          "internalType": "string",
          "name": "_modifiedBy",
          "type": "string"
        }
      ],
      "name": "updatePaymentById",
      "outputs": [],
      "stateMutability": "nonpayable",
      "type": "function"
    }
  ],
  "bytecode": "0x60808060405234601557611ebe908161001b8239f35b600080fdfe6080604052600436101561001257600080fd5b60003560e01c8063a89a0fdf14610bf2578063dfa0bac714610ad4578063eab1d30a146104d35763f8defa3c1461004857600080fd5b346104ce5760003660031901126104ce5760005461006581611e13565b6100726040519182611a48565b81815261007e82611e13565b6020820190601f190136823761009383611e2a565b9061009d84611e2a565b906100a785611e2a565b6100b086611e13565b6100bd6040519182611a48565b8681526100c987611e13565b6020820190601f19013682376100de88611e2a565b6100e789611e2a565b926100f18a611e2a565b946100fb8b611e13565b97610109604051998a611a48565b8b89526101158c611e13565b601f19013660208b01376101288c611e2a565b976101328d611e2a565b9a60008e5b81106102b057506040516101608082529d519d81018e90529d508d9c6101808e01929060005b818110610274575050508c61019f93610183846101919484602099970389860152611b00565b916040818403910152611b00565b8c810360608e015290611b00565b918a830360808c0152519182815201929060005b81811061025b57505050916101d7826101f395948a6101e5950360a08c0152611b00565b9088820360c08a0152611b00565b9086820360e0880152611b00565b8481036101008601526020808451928381520193019060005b818110610240575050508161022d918561023c959403610120870152611b00565b90838203610140850152611b00565b0390f35b8251151585528796506020948501949092019160010161020c565b825185528b9a50602094850194909201916001016101b3565b919495969798999a9b9c9d9e5091926020806001926001600160801b031988511681520195019101918f9e9d9c9b9a999897969594939261015d565b8c818d9e9f8d9e9d828e9f8e9f8d9e9f8d9e848e9f8e9f8d9e9f8a9e846102d681611b59565b509c8d5460801b916102e791611e74565b906001600160801b0319169052848c6040518060018193019061030991611be3565b036103149082611a48565b61031e8284611e74565b5261032891611e74565b50838b6040518060028193019061033e91611be3565b036103499082611a48565b6103538284611e74565b5261035d91611e74565b506040518390806103718160048f01611be3565b0361037c9082611a48565b6103868284611e74565b5261039091611e74565b506005890154916103a091611e74565b526040518590806103b48160068c01611be3565b036103bf9082611a48565b6103c98284611e74565b526103d391611e74565b506040518490806103e78160078b01611be3565b036103f29082611a48565b6103fc8284611e74565b5261040691611e74565b5060405183908061041a8160088a01611be3565b036104259082611a48565b61042f8284611e74565b5261043991611e74565b50600984015460ff169161044c91611e74565b901515905260405183908061046481600b8701611be3565b0361046f9082611a48565b6104798284611e74565b5261048391611e74565b5060405180600c8193019061049791611be3565b036104a29082611a48565b6104ac8284611e74565b526104b691611e74565b506001018e9d9c9b9a9998979695949392919d610137565b600080fd5b346104ce5760a03660031901126104ce576104ec611a28565b6024356001600160401b0381116104ce5761050b903690600401611a69565b6044356001600160401b0381116104ce5761052a903690600401611a69565b6064356001600160401b0381116104ce57610549903690600401611a69565b926084356001600160401b0381116104ce57610569903690600401611a69565b906001600160801b031916938460005260016020526040600020548015610a83576000198101908111610a6d5761059f90611b59565b50906007820185516001600160401b03811161082b576105bf8254611ba9565b601f8111610a25575b50806020601f82116001146109c0576000916109b5575b508160011b916000199060031b1c19161790555b600b820184516001600160401b03811161082b576106118254611ba9565b601f811161096d575b50806020601f821160011461090a576000916108ff575b508160011b916000199060031b1c19161790555b805160088301916001600160401b03821161082b576106648354611ba9565b601f81116108b7575b50602090601f831160011461084c57600c9493929160009183610841575b50508160011b916000199060031b1c19161790555b01908051906001600160401b03821161082b576106bd8354611ba9565b601f81116107e3575b50602090601f83116001146107525792826107429361073496937f032d109e536f3dd2ba449f80706c6d65f823a55e6397844a4778b612065be9119896600092610747575b50508160011b916000199060031b1c19161790555b604051938493604085526040850190611abf565b908382036020850152611abf565b0390a2005b01519050898061070b565b90601f1983169184600052816000209260005b8181106107cb57509361073496937f032d109e536f3dd2ba449f80706c6d65f823a55e6397844a4778b612065be9119896936001938361074298106107b2575b505050811b019055610720565b015160001960f88460031b161c191690558980806107a5565b92936020600181928786015181550195019301610765565b836000526020600020601f840160051c81019160208510610821575b601f0160051c01905b81811061081557506106c6565b60008155600101610808565b90915081906107ff565b634e487b7160e01b600052604160045260246000fd5b01519050898061068b565b90601f1983169184600052816000209260005b81811061089f5750916001939185600c9897969410610886575b505050811b0190556106a0565b015160001960f88460031b161c19169055898080610879565b9293602060018192878601518155019501930161085f565b836000526020600020601f840160051c810191602085106108f5575b601f0160051c01905b8181106108e9575061066d565b600081556001016108dc565b90915081906108d3565b905086015189610631565b60008481528181209250601f198416905b8181106109555750908360019493921061093c575b5050811b019055610645565b88015160001960f88460031b161c191690558980610930565b9192602060018192868d01518155019401920161091b565b826000526020600020601f830160051c810191602084106109ab575b601f0160051c01905b81811061099f575061061a565b60008155600101610992565b9091508190610989565b9050870151896105df565b60008481528181209250601f198416905b8a828210610a0d57505090836001949392106109f4575b5050811b0190556105f3565b89015160001960f88460031b161c1916905589806109e8565b600184956020939584930151815501940192016109d1565b826000526020600020601f830160051c81019160208410610a63575b601f0160051c01905b818110610a5757506105c8565b60008155600101610a4a565b9091508190610a41565b634e487b7160e01b600052601160045260246000fd5b60405162461bcd60e51b8152602060048201526024808201527f5061796d656e747352656769737472793a205061796d656e74206e6f7420666f6044820152633ab7321760e11b6064820152608490fd5b346104ce5760203660031901126104ce576004356001600160401b0381116104ce57610b04903690600401611a69565b610b0d90611c66565b9960409c9b9c999199989298979397969496519c8d9c6001600160801b0319168d5260208d016101a090526101a08d01610b4691611abf565b8c810360408e0152610b5791611abf565b8b810360608d0152610b6891611abf565b8a810360808c0152610b7991611abf565b9060a08a015288810360c08a0152610b9091611abf565b87810360e0890152610ba191611abf565b868103610100880152610bb391611abf565b901515610120860152848103610140860152610bce91611abf565b838103610160850152610be091611abf565b82810361018084015261023c91611abf565b346104ce576101a03660031901126104ce57610c0c611a28565b6024356001600160401b0381116104ce57610c2b903690600401611a69565b6044356001600160401b0381116104ce57610c4a903690600401611a69565b6064356001600160401b0381116104ce57610c69903690600401611a69565b6084356001600160401b0381116104ce57610c88903690600401611a69565b9260c4356001600160401b0381116104ce57610ca8903690600401611a69565b60e4356001600160401b0381116104ce57610cc7903690600401611a69565b610104356001600160401b0381116104ce57610ce7903690600401611a69565b61012435918215158093036104ce57610144356001600160401b0381116104ce57610d16903690600401611a69565b93610164356001600160401b0381116104ce57610d37903690600401611a69565b95610184356001600160401b0381116104ce57610d58903690600401611a69565b9a6001600160801b031916998a60005260016020526040600020546119d157604051986101a08a018a81106001600160401b0382111761082b576040528b8a5260208a0192835260408a018b815260608b0191825260808b0192835260a08b019360a435855260c08c0195865260e08c019687526101008c019788526101208c019889526101408c01998a526101608c019a8b526101808c019e8f526000546801000000000000000081101561082b57806001610e189201600055611b59565b9c909c6119bb575160801c6001600160801b03198d5416178c5560018c0190518051906001600160401b03821161082b578190610e558454611ba9565b601f8111611968575b50602090601f8311600114611903576000926118f8575b50508160011b916000199060031b1c19161790555b51805160028c01916001600160401b03821161082b578190610eac8454611ba9565b601f81116118a5575b50602090601f831160011461184057600092611835575b50508160011b916000199060031b1c19161790555b51805160038b01916001600160401b03821161082b578190610f038454611ba9565b601f81116117e2575b50602090601f831160011461177d57600092611772575b50508160011b916000199060031b1c19161790555b51805160048a01916001600160401b03821161082b578190610f5a8454611ba9565b601f811161171f575b50602090601f83116001146116ba576000926116af575b50508160011b916000199060031b1c19161790555b51600588015551805160068801916001600160401b03821161082b578190610fb78454611ba9565b601f811161165c575b50602090601f83116001146115f7576000926115ec575b50508160011b916000199060031b1c19161790555b51805160078701916001600160401b03821161082b57819061100e8454611ba9565b601f8111611599575b50602090601f831160011461153457600092611529575b50508160011b916000199060031b1c19161790555b51805160088601916001600160401b03821161082b5781906110658454611ba9565b601f81116114d6575b50602090601f831160011461147157600092611466575b50508160011b916000199060031b1c19161790555b600984019051151560ff80198354169116179055600a830190518051906001600160401b03821161082b5781906110d18454611ba9565b601f8111611413575b50602090601f83116001146113ae576000926113a3575b50508160011b916000199060031b1c19161790555b518051600b8301916001600160401b03821161082b576111268354611ba9565b601f811161135b575b50602090601f83116001146112f057600c94939291600091836112e5575b50508160011b916000199060031b1c19161790555b0192519283516001600160401b03811161082b576111808254611ba9565b601f811161129d575b506020601f82116001146112105790806107429493927f4c569b5d484312a8ea0052f8a0cfe834ec8ca803b955af924674b3dd2bd01c1d9697600092611205575b50508160011b916000199060031b1c19161790555b600054846000526001602052604060002055604051918291602083526020830190611abf565b0151905087806111ca565b601f1982169583600052816000209660005b81811061128557509660019284926107429796957f4c569b5d484312a8ea0052f8a0cfe834ec8ca803b955af924674b3dd2bd01c1d999a1061126c575b505050811b0190556111df565b015160001960f88460031b161c1916905587808061125f565b83830151895560019098019760209384019301611222565b826000526020600020601f830160051c810191602084106112db575b601f0160051c01905b8181106112cf5750611189565b600081556001016112c2565b90915081906112b9565b01519050888061114d565b90601f1983169184600052816000209260005b8181106113435750916001939185600c989796941061132a575b505050811b019055611162565b015160001960f88460031b161c1916905588808061131d565b92936020600181928786015181550195019301611303565b836000526020600020601f840160051c81019160208510611399575b601f0160051c01905b81811061138d575061112f565b60008155600101611380565b9091508190611377565b0151905088806110f1565b60008581528281209350601f198516905b8181106113fb57509084600195949392106113e2575b505050811b019055611106565b015160001960f88460031b161c191690558880806113d5565b929360206001819287860151815501950193016113bf565b909150836000526020600020601f840160051c8101916020851061145c575b90601f859493920160051c01905b81811061144d57506110da565b60008155849350600101611440565b9091508190611432565b015190508a80611085565b60008581528281209350601f198516905b8181106114be57509084600195949392106114a5575b505050811b01905561109a565b015160001960f88460031b161c191690558a8080611498565b92936020600181928786015181550195019301611482565b909150836000526020600020601f840160051c8101916020851061151f575b90601f859493920160051c01905b818110611510575061106e565b60008155849350600101611503565b90915081906114f5565b015190508b8061102e565b60008581528281209350601f198516905b8181106115815750908460019594939210611568575b505050811b019055611043565b015160001960f88460031b161c191690558b808061155b565b92936020600181928786015181550195019301611545565b909150836000526020600020601f840160051c810191602085106115e2575b90601f859493920160051c01905b8181106115d35750611017565b600081558493506001016115c6565b90915081906115b8565b015190508c80610fd7565b60008581528281209350601f198516905b818110611644575090846001959493921061162b575b505050811b019055610fec565b015160001960f88460031b161c191690558c808061161e565b92936020600181928786015181550195019301611608565b909150836000526020600020601f840160051c810191602085106116a5575b90601f859493920160051c01905b8181106116965750610fc0565b60008155849350600101611689565b909150819061167b565b015190508e80610f7a565b60008581528281209350601f198516905b81811061170757509084600195949392106116ee575b505050811b019055610f8f565b015160001960f88460031b161c191690558e80806116e1565b929360206001819287860151815501950193016116cb565b909150836000526020600020601f840160051c81019160208510611768575b90601f859493920160051c01905b8181106117595750610f63565b6000815584935060010161174c565b909150819061173e565b015190508f80610f23565b60008581528281209350601f198516905b8181106117ca57509084600195949392106117b1575b505050811b019055610f38565b015160001960f88460031b161c191690558f80806117a4565b9293602060018192878601518155019501930161178e565b909150836000526020600020601f840160051c8101916020851061182b575b90601f859493920160051c01905b81811061181c5750610f0c565b6000815584935060010161180f565b9091508190611801565b015190503880610ecc565b60008581528281209350601f198516905b81811061188d5750908460019594939210611874575b505050811b019055610ee1565b015160001960f88460031b161c19169055388080611867565b92936020600181928786015181550195019301611851565b909150836000526020600020601f840160051c810191602085106118ee575b90601f859493920160051c01905b8181106118df5750610eb5565b600081558493506001016118d2565b90915081906118c4565b015190503880610e75565b60008581528281209350601f198516905b8181106119505750908460019594939210611937575b505050811b019055610e8a565b015160001960f88460031b161c1916905538808061192a565b92936020600181928786015181550195019301611914565b909150836000526020600020601f840160051c810191602085106119b1575b90601f859493920160051c01905b8181106119a25750610e5e565b60008155849350600101611995565b9091508190611987565b634e487b7160e01b600052600060045260246000fd5b60405162461bcd60e51b815260206004820152602960248201527f5061796d656e747352656769737472793a205061796d656e7420616c726561646044820152683c9032bc34b9ba399760b91b6064820152608490fd5b600435906fffffffffffffffffffffffffffffffff19821682036104ce57565b90601f801991011681019081106001600160401b0382111761082b57604052565b81601f820112156104ce578035906001600160401b03821161082b5760405192611a9d601f8401601f191660200185611a48565b828452602083830101116104ce57816000926020809301838601378301015290565b919082519283825260005b848110611aeb575050826000602080949584010152601f8019910116010190565b80602080928401015182828601015201611aca565b9080602083519182815201916020808360051b8301019401926000915b838310611b2c57505050505090565b9091929394602080611b4a600193601f198682030187528951611abf565b97019301930191939290611b1d565b600054811015611b93576000808052600d919091027f290decd9548b62a8d60345a988386fc84ba6bc95484008f6362f93160ef3e5630191565b634e487b7160e01b600052603260045260246000fd5b90600182811c92168015611bd9575b6020831014611bc357565b634e487b7160e01b600052602260045260246000fd5b91607f1691611bb8565b60009291815491611bf383611ba9565b8083529260018116908115611c495750600114611c0f57505050565b60009081526020812093945091925b838310611c2f575060209250010190565b600181602092949394548385870101520191019190611c1e565b915050602093945060ff929192191683830152151560051b010190565b6000908154915b828110611cd85760405162461bcd60e51b815260206004820152603660248201527f5061796d656e747352656769737472793a205061796d656e74206e6f7420666f6044820152753ab73210313c9039ba3ab232b73a10373ab6b132b91760511b6064820152608490fd5b6002611cfe611ce683611b59565b50611cf76040518094819301611be3565b0382611a48565b602081519101208251602084012014611d1957600101611c6d565b9050611d259150611b59565b50805460801b9060058101549260ff6009830154169293604051611d5081611cf78160018801611be3565b93604051611d6581611cf78160028901611be3565b93604051611d7a81611cf78160038601611be3565b93604051611d8f81611cf78160048701611be3565b9392604051611da581611cf78160068801611be3565b92604051611dba81611cf78160078601611be3565b92604051611dcf81611cf78160088701611be3565b9291604051611de581611cf781600a8601611be3565b91600c611e10604051611dff81611cf781600b8901611be3565b93611cf76040518094819301611be3565b90565b6001600160401b03811161082b5760051b60200190565b90611e3482611e13565b611e416040519182611a48565b8281528092611e52601f1991611e13565b019060005b828110611e6357505050565b806060602080938501015201611e57565b8051821015611b935760209160051b01019056fea264697066735822122076105fcccb839d8288348901117c07243dd055ee315a15e9e13dac68fc87a10d64736f6c634300081c0033",
  "linkReferences": {},
  "deployedLinkReferences": {}
}